{
	"data": {
		"bytecode": {
			"linkReferences": {},
			"object": "6080604052346102ec5760015f5533156102d95760018054336001600160a01b0319821681179092556001600160a01b03167f8be0079c531659141344cd1fd0a4f28419497f9722a3daafe3b4186f6b6457e05f80a36064600c5561012c600d819055605a600e556207a120600f556010556103206011556104b06012556013805462ffffff1916610bb8179055600a601481905560326015556009601655640ba43b740060175569021e19e0c9bab24000006018555f6019819055611388601b55601c80546201010163ffffffff1991909116179055601f80546001600160a01b031990811673794a61358d6845594f94dc1db02a252b5b4814ad179091558254811673a97684ead0e402dc232d5a977953df7ecbab3cdb908117909355600b8054821673c02aaa39b223fe8d0a0e5c4f27ead9083c756cc29081179091557f54cdd369e4e8a8515e52ca72ec816c2101831ad1f18bf44102ed171459c9b4f88054831673e592427a0aece92de3edee1f18e0157c058615641790557f6d5257204ebe7d88fd91ae87941cb2dd9d8062b64ae5a2bd2d28ec40b9fbf6df805483167361ffe014ba17989e8a2d3bccda57b7a7fcd78f741790557f676ab5d80cb25f08f2a36ba24d1ffafd2a6b8f5601a3123e63b10106cc270cd0805460ff1990811660019081179092557f3e5fec24aa4dc4e5aee2e025e51e1392c72a2500577559fae9665c6d52bd6a3180548516730d9e1ce17f2641f24ae57b168b3c7a5ba3df40399081179091557fb39221ace053465ec3453ce2b36430bd138b997ecea25c1043da0c366812b828805486169055855260086020527f310b513c285bf9aac1ee0f7b6ce3c697435cf41a05cc4a6b5e52b8a6ed2a34d480549091169091179055601a805490921673cf714f4c2932ff5148651ff8a3a91af69cf9ade3179091556040519290917ffcfcedfafa92882def30b16e239a0c0512fd0cb251876b2709be862356873e899080a3614ac990816102f18239f35b631e4fbdf760e01b5f525f60045260245ffd5b5f80fdfe6080604052600436101561001a575b3615610018575f80fd5b005b5f5f3560e01c8063033051c6146139965780630542975c1461396e5780630816c847146139515780630aef023f146139145780630dba22af146138f25780630ea62cb5146135845780630f874a13146135455780630fee470a146131e157806316c38b3c146131775780631b11d0ff14612ce15780631c31f71014612c68578063219a982214612c0e5780632c49c9a314612beb578063312a634d14612b015780633225205714611078578063383aeeae14612ae357806338af3eed14612aba5780633d59b5f114612a2c5780633fc8cef314612a0357806342d554971461299c5780634e7914371461297e5780635688b8ef1461296057806356d8940f146129425780635b6cca8014611bd15780635c975abb14611b115780635cdcd8bb146128be5780635fbaa51d1461289857806368aad1721461280657806368c4ac26146127c75780636ae26c99146127a15780636ee10175146127065780636ff1c9bc14612608578063715018a6146125ab578063726f16d81461254b57806372f943651461252d57806375151b63146125045780637535d24614611fa657806376e1128614612467578063785b32f414612434578063785c7cf61461240557806379a73bbe146120955780637ae851831461203557806384845fd414611fcf57806386a06ff014611fa65780638a611d5514611f885780638da5cb5b14611f5f5780638ee573ac14611f225780638f3ed68314611ea357806390f73d3c14611dfa5780639693c4a414611caf57806396f62ac71461061157806397ad7e2a14611c915780639b0afe6d14611c125780639dcb511a14611bd1578063a183695414611b37578063b187bd2614611b11578063b2bcccda14611a81578063b3eeb62114611164578063b76e053b14611100578063b7e10191146110bf578063baf79c3914611096578063bf539cb414611078578063c4aa73951461105a578063c54cdad81461103c578063cc6a292414610fe3578063cceb6c4214610f95578063d83ea79014610f77578063db05852f14610e29578063dbda280814610e0b578063dde6befd14610ded578063de3ae757146108b9578063deb928ee1461080f578063e086e5ec14610783578063e0925d6c1461064e578063e095b46514610611578063e292e876146105be578063eeacafc314610517578063f2fde38b1461048e578063f984f70a14610426578063fa66358a146103c05763fe173b97146103a0575061000e565b346103bd57806003193601126103bd576020601754604051908152f35b80fd5b50346103bd5760203660031901126103bd576004356103dd614199565b50601e54811015610417576040826103ff926104139452601d60205220613e7d565b604051918291602083526020830190613d7a565b0390f35b638f676f4960e01b8252600482fd5b50346103bd5760203660031901126103bd577fb2a19cf961f334d257a8d5f75afd9309a15b64c0bae806bffc30227902ac67b56020610463613b8b565b61046b6141c4565b1515601c5462ff00008260101b169062ff0000191617601c55604051908152a180f35b50346103bd5760203660031901126103bd576104a8613b5f565b6104b06141c4565b6001600160a01b0316801561050357600180546001600160a01b0319811683179091556001600160a01b03167f8be0079c531659141344cd1fd0a4f28419497f9722a3daafe3b4186f6b6457e08380a380f35b631e4fbdf760e01b82526004829052602482fd5b50346103bd5760203660031901126103bd5760043562ffffff81168091036105ba576105416141c4565b6101f4811415806105ae575b806105a2575b610593576020817f56387f26ac2f92610e692325d1db5ce5e79d284dff494caa737c3923a67642e59262ffffff196013541617601355604051908152a180f35b6358d620b360e01b8252600482fd5b50612710811415610553565b50610bb881141561054d565b5080fd5b50346103bd5760203660031901126103bd5760043560028110156105ba576001600160a01b03906105ee90613c24565b541690811561060257602082604051908152f35b632a4251f760e21b8152600490fd5b50346103bd5760203660031901126103bd5760043560028110156105ba576020906001600160a01b039061064490613c3b565b5416604051908152f35b50346103bd5761065d36613ba9565b916106666141c4565b82810361077457845b81811061067a578580f35b6001600160a01b03610695610690838589613dfb565b613e1f565b1615610765576001600160a01b036106b1610690838787613dfb565b161561075657806106c86106906001938787613dfb565b828060a01b036106dc61069084878b613dfb565b16885260036020526040882090838060a01b03166001600160601b0360a01b82541617905561070f610690828589613dfb565b828060a01b03610723610690848989613dfb565b1690838060a01b03167fd2d8394cf7549a5ddbc2ba3dd7b2de8d53c891472d1f2907008ed6a10045fdae8980a30161066f565b6301f86e1760e41b8652600486fd5b63c1ab6dc160e01b8652600486fd5b63512509d360e11b8552600485fd5b50346103bd57806003193601126103bd5761079c6141c4565b47801561080057818080808460018060a01b03600154165af16107bd613e33565b50156107f15760207f043f607a14d3b4f0a11a0b2e192bbfcd894298ba5abf22553be6081406db28aa91604051908152a180f35b63b12d13eb60e01b8252600482fd5b636165515360e11b8252600482fd5b50346103bd5761081e36613c52565b6108266141c4565b6001600160a01b03169081156108aa5761083f81613c24565b80546001600160a01b03191683179055818352600860205260408320805460ff191660011790556002811015610896577f1e7261f9f5e3815ca6ac940d15b46ff8fe93774a027ccfb4d5ad34da3234f0328380a380f35b634e487b7160e01b83526021600452602483fd5b63466d7fef60e01b8352600483fd5b50346103bd5760803660031901126103bd576004356001600160401b0381116105ba576108ea903690600401613b2f565b90916024356001600160401b0381116105ba5761090b903690600401613b2f565b6044356001600160401b038111610de95761092a903690600401613b2f565b6064929192356001600160401b038111610de55761094c903690600401613b2f565b9290976109576141c4565b818814801590610ddb575b8015610dd1575b610dc257865b88811015610dbe578060051b820135601e1983360301811215610dba5782016001600160401b03813511610dba57803560051b36036020820113610dba576109b882858a613dfb565b356109c483878a613dfb565b35906002821015610db6576109da84898f613dfb565b356002811015610db25760028435108015610da7575b610d9857833515610d8457610a0760208501613e1f565b84355f19810111610d70576001600160a01b03610a3061069087355f1981019060208a01613dfb565b166001600160a01b0390911603610d61576001600160a01b03610a5284613c24565b541615610d52576001600160a01b03610a6a82613c24565b541615610d52578b5b84358110610c035750610ac4601e5491610abb60405195610a9387613cb1565b848752610aa536893560208b01613d1f565b9560208801968752604088015260608701613e71565b60808501613e71565b8b52601d60205260408b209082518255518051906001600160401b038211610bef57602090610af68360018601614066565b01600183018d5260208d208d5b838110610bd2575050505060039060408301516002820155019060608101516002811015610bbe5790610b38608092846140ab565b0151906002821015610baa5760209291610b51916140c3565b7f43afc9e063beaea4354ec60d8bc6c76e9ba2376ca51443fc69a6efd689a7282a601e5492839260405190358152a25f198114610b96576001908101601e550161096f565b634e487b7160e01b89526011600452602489fd5b634e487b7160e01b8b52602160045260248bfd5b634e487b7160e01b8c52602160045260248cfd5b82516001600160a01b031681830155602090920191600101610b03565b634e487b7160e01b8d52604160045260248dfd5b9d9596848f9d9e969a9399929c959d610690610c2f916001979e978060a01b0393602081359101613dfb565b1615610d4357610c6a8f6106908f91826020610c4d94359101613dfb565b6001600160a01b03165f9081526002602052604090205460ff1690565b15610d34578e6001810110610d205760018f015b8d355f19810111610d0c578d355f1901811015610cf2578f610caa8f9161069090833560208501613dfb565b906001600160a01b0390610cc990610690908590803590602001613dfb565b6001600160a01b03909216911614610ce357600101610c7e565b6313721e6160e11b8f5260048ffd5b5096959d6001909d9c949b91989299959d9a939a01610a73565b634e487b7160e01b8f52601160045260248ffd5b634e487b7160e01b8e52601160045260248efd5b63350b944160e11b8e5260048efd5b630f58058360e11b8e5260048efd5b632a4251f760e21b8c5260048cfd5b630b6e9e5760e21b8c5260048cfd5b634e487b7160e01b8d52601160045260248dfd5b634e487b7160e01b8c52603260045260248cfd5b6366b045ff60e11b8c5260048cfd5b5060048435116109f0565b8b80fd5b8a80fd5b8880fd5b8780f35b63512509d360e11b8752600487fd5b5083831415610969565b5082821415610962565b8580fd5b8380fd5b50346103bd57806003193601126103bd576020601954604051908152f35b50346103bd57806003193601126103bd576020600f54604051908152f35b50346103bd5760403660031901126103bd57600435601e5480821015610f6857610e5560243583613f87565b90808211610f60575b50610e698282613fa8565b91610e7383613d08565b92610e816040519485613ce7565b808452610e90601f1991613d08565b01845b818110610f49575050805b828110610f0c5783856040519182916020830160208452825180915260408401602060408360051b870101940192905b828210610edd57505050500390f35b91936001919395506020610efc8192603f198a82030186528851613d7a565b9601920192018594939192610ece565b806001918652601d602052610f4260408720610f31610f2b8685613fa8565b91613e7d565b610f3b8289614167565b5286614167565b5001610e9e565b602090610f54614199565b82828801015201610e93565b90505f610e5e565b638f676f4960e01b8352600483fd5b50346103bd57806003193601126103bd576020601254604051908152f35b50346103bd5760203660031901126103bd577f6caf0e5993e373a80d1b08933a3a855a50eee41ccefc3425f05585826346ce376020600435610fd56141c4565b80601955604051908152a180f35b50346103bd5760203660031901126103bd576004356001600160a01b038116908190036105ba576110126141c4565b801561102e576001600160601b0360a01b601f541617601f5580f35b62820f3560e61b8252600482fd5b50346103bd57806003193601126103bd576020600e54604051908152f35b50346103bd57806003193601126103bd576020600d54604051908152f35b50346103bd57806003193601126103bd576020601e54604051908152f35b50346103bd57806003193601126103bd57600a546040516001600160a01b039091168152602090f35b50346103bd5760203660031901126103bd576020906001600160a01b036110e4613b5f565b16815260048252604060018060a01b0391205416604051908152f35b50346103bd5760203660031901126103bd5760043561111d6141c4565b8015611155576020817f8a9aad99416bc5cf8e5e14f71aeb446c6c1cdcfb18998ac5c680c5f25ec3162992601855604051908152a180f35b63162908e360e11b8252600482fd5b50346103bd5760803660031901126103bd576004356001600160401b0381116105ba57366023820112156105ba576111a6903690602481600401359101613d1f565b60443591906024356002841015611a7d576064356002811015610de957836101206040516111d381613c81565b8281528260208201528260408201528260608201528260808201528260a08201528260c08201528260e0820152826101008201520152825160028110908115611a72575b50611a63578115611a54576018548211611a45576001600160a01b0361123c8461414a565b511683515f198101908111611a31576001600160a01b039061125e9086614167565b511603611a2257835b83518110156112e8576001600160a01b036112828286614167565b5116156112d9576112bd6001600160a01b0361129e8387614167565b51166001600160a01b03165f9081526002602052604090205460ff1690565b156112ca57600101611267565b63350b944160e11b8552600485fd5b630f58058360e11b8552600485fd5b508383866001600160a01b036112fd8361414a565b511682515f1981019081116119eb5761132e929187916001600160a01b03906113269087614167565b511690614280565b9283156119ff5781515f198101908111611a0e5761136f919085906001600160a01b039061135c9086614167565b51166001600160a01b036113268661414a565b9081156119ff576001600160a01b036113878261414a565b511681515f1981019081116119eb576001600160a01b03906113a99084614167565b5116908460606040516113bb81613ccc565b8281528260208201528260408201520152808552600360205260018060a01b03604086205416156119dc57818552600360205260408520546001600160a01b0316156119dc57806004918652600360205260018060a01b0360408720541692808752600360205260a0600180821b036040892054169460405194858092633fabe5a360e21b82525afa9182156119d157879388936119a2575b5060a0600493949560405194858092633fabe5a360e21b82525afa948515611997578893899661196d575b50888113801590611963575b611955576114998542613fa8565b60105480911161194657806114ae8842613fa8565b116119465760ff601c5460101c16611781575b506114d692916114d0916148e6565b926148e6565b90670de0b6b3a76400008102818104670de0b6b3a7640000148215171561176d57826115019161417b565b91670de0b6b3a7640000810290808204670de0b6b3a7640000149015171561176d57916115366115699261157496959461417b565b9064ffffffffff6040519561154a87613ccc565b828752816020880196858852166040880152166060860152898b6142e9565b5190519084876142e9565b51600281108015611763575b611754575f1981019081116117405780620186a00290620186a08204036117405762061a80018062061a801161174057633b9aca006115d26127106115c760165489614053565b049260175490614053565b04906127106115e360145488614053565b046127106115f360155489614053565b049061160c82611607836116078888613f87565b613f87565b93888611156117395761161f8987613fa8565b935b858510611732576116328686613fa8565b965b87158015998a6116ec575b50506101409a50886116df575b61012060405161165b81613c81565b8b81526020810192835260408101938452606081019485526080810195865260a0810196875260c0810197885260e081019889526101008101998a52019815158952604051998a525160208a01525160408901525160608801525160808701525160a08601525160c08501525160e084015251610100830152511515610120820152f35b601954881015985061164c565b9091995061271089029189830461271014171561171e57506101409a6117119161417b565b600c541115978b8061163f565b634e487b7160e01b81526011600452602490fd5b8796611634565b8693611621565b634e487b7160e01b83526011600452602483fd5b6366b045ff60e11b8352600483fd5b5060048111611580565b634e487b7160e01b88526011600452602488fd5b828a52600460208181526040808d2054878e52929091528b20546001600160a01b0390811691168015158061193d575b6117bd575b50506114c1565b9060a06004939260405194858092633fabe5a360e21b82525afa908115611932578c938d92611907575b509060a060049260405193848092633fabe5a360e21b82525afa9182156118fc57908d9493929185926118c3575b508d84138015906118b9575b6118ab57611830839142613fa8565b1161189c5761183f9042613fa8565b1161188d576118516118589184614959565b9186614959565b60125480921161187e571161186f578b80806117b6565b6316977b9560e01b8952600489fd5b6316977b9560e01b8b5260048bfd5b6307abdc0f60e11b8b5260048bfd5b6307abdc0f60e11b8d5260048dfd5b62fc7cad60e51b8e5260048efd5b508d851315611821565b9094506118e8915060a03d60a0116118f5575b6118e08183613ce7565b8101906142b7565b509592505093905f611815565b503d6118d6565b6040513d8f823e3d90fd5b60a094506004925061192590853d87116118f5576118e08183613ce7565b50969250509492506117e7565b6040513d8e823e3d90fd5b508115156117b1565b631087e10960e01b8a5260048afd5b62fc7cad60e51b8952600489fd5b508884131561148b565b90955061198a91935060a03d60a0116118f5576118e08183613ce7565b509492505092948b61147f565b6040513d8a823e3d90fd5b60a0959450600493506119c190863d88116118f5576118e08183613ce7565b5097925050959350949394611454565b6040513d89823e3d90fd5b63fb94c4ed60e01b8552600485fd5b634e487b7160e01b85526011600452602485fd5b633892062760e11b8352600483fd5b634e487b7160e01b84526011600452602484fd5b630b6e9e5760e21b8452600484fd5b634e487b7160e01b86526011600452602486fd5b63499e798560e01b8452600484fd5b63162908e360e11b8452600484fd5b6366b045ff60e11b8452600484fd5b60049150115f611217565b8280fd5b50346103bd5760603660031901126103bd57600435604435602435611aa46141c4565b8215611a54576127108111611b02576127108211611b0257916060917fc4ba1d97bc3b0f4500ed11cd963f8e6d5f9f47ad9e7e42160e8167e607859c929382601055806011558160125560405192835260208301526040820152a180f35b63c6cc5d7f60e01b8452600484fd5b50346103bd57806003193601126103bd57602060ff601c5460181c166040519015158152f35b50346103bd5760403660031901126103bd57611b51613b5f565b611b59613b9a565b90611b626141c4565b6001600160a01b0316908115611bc25760207f4e64f955f4c1a97a6779d936a2fe8f59e1674f3e1a4c883736b9131969860a899183855260028252611bb681604087209060ff801983541691151516179055565b6040519015158152a280f35b63c1ab6dc160e01b8352600483fd5b50346103bd5760203660031901126103bd576020906001600160a01b03611bf6613b5f565b16815260038252604060018060a01b0391205416604051908152f35b50346103bd57611c2136613c52565b611c296141c4565b6001600160a01b0316908115611c8257611c4281613c3b565b80546001600160a01b031916831790556002811015610896577f57192f60821083a491842d60a388a6427b0b757e252dca6e02933c473a93cee48380a380f35b63c3a9778760e01b8352600483fd5b50346103bd57806003193601126103bd576020601b54604051908152f35b50346103bd5760203660031901126103bd57600435611ccc6141c4565b601e5480821015610f68575f19810190811161174057808203611d7b575b50601e545f198101908111611740578252601d60205281604081208181556001810180549083815581611d5b575b50508082600260039301550155601e548015611740575f1901601e557fb951847f829979e971d5ce4c1f1b122a2e98f1d0c39e395aaebff750da9f86bf8280a280f35b835260208320908101905b81811015611d18579283558492600101611d66565b8252601d60205260408220818352601d6020526040832090808203611db1575b5050808252601d6020528060408320555f611cea565b60ff600380611df39484548155611dce60018601600183016140e2565b60028501546002820155019201611de882825416846140ab565b5460081c16906140c3565b5f80611d9b565b50346103bd5760403660031901126103bd57611e14613b5f565b611e1c613b75565b90611e256141c4565b6001600160a01b0316908115611e94576001600160a01b0316908115611bc257806001600160601b0360a01b600a541617600a55816001600160601b0360a01b600b541617600b557ffcfcedfafa92882def30b16e239a0c0512fd0cb251876b2709be862356873e898380a380f35b633b136dc160e11b8352600483fd5b50346103bd5760403660031901126103bd57611ebd613b5f565b611ec5613b9a565b90611ece6141c4565b6001600160a01b03169081156108aa5760207fcf2b36bf2aa8353623d06f58eab9577176d9214e588362c013a7eeb0586463f19183855260088252611bb681604087209060ff801983541691151516179055565b50346103bd5760203660031901126103bd5760209060ff906040906001600160a01b03611f4d613b5f565b16815260058452205416604051908152f35b50346103bd57806003193601126103bd576001546040516001600160a01b039091168152602090f35b50346103bd57806003193601126103bd576020601154604051908152f35b50346103bd57806003193601126103bd57601f546040516001600160a01b039091168152602090f35b50346103bd5760203660031901126103bd577fea86e89cf5fba25d3b8f536e16c9354e32e76ba51d17e76899351a91f64f945d602061200c613b8b565b6120146141c4565b1515601c5461ff008260081b169061ff00191617601c55604051908152a180f35b50346103bd5760203660031901126103bd577f16afae5b6ef5f079dc6a18d4ae705f5d2db0fc0831b74dee550d9fc0f80eb5dd6020612072613b8b565b61207a6141c4565b151560ff19601c541660ff821617601c55604051908152a180f35b50346103bd5760a03660031901126103bd576004356024356001600160401b038111611a7d576120c9903690600401613b2f565b9060643590600282101561240157608435906002821015610de5576120ec6141c4565b6002841080156123f7575b6123e857601e548510156123d95783156123c55761211481613e1f565b5f1985018581119182610b96576001600160a01b03612137610690848a88613dfb565b166001600160a01b03909116036123b6576001600160a01b0361215986613c24565b5416156123a7576001600160a01b0361217185613c24565b5416156123a75787905b8682106122d2575050506121a06040519161219583613cb1565b868352853691613d1f565b60208201908152604082019060443582526121bf606084019586613e71565b6121cd608084019485613e71565b868852601d60205260408820925183555180519060018401906001600160401b0383116122be576020906122018484614066565b0190895260208920895b8381106122a1575050505090600391516002820155019151600281101561228d5761223690836140ab565b51906002821015612279579161226f6020927f43afc9e063beaea4354ec60d8bc6c76e9ba2376ca51443fc69a6efd689a7282a946140c3565b604051908152a280f35b634e487b7160e01b85526021600452602485fd5b634e487b7160e01b86526021600452602486fd5b82516001600160a01b03168183015560209092019160010161220b565b634e487b7160e01b8a52604160045260248afd5b919796929490939192916001600160a01b036122f2610690878a8a613dfb565b161561239857612309610c4d610690878a8a613dfb565b156123895760018501808611610b9657895b610b96578481101561237557612335610690878a8a613dfb565b6001600160a01b0361234b610690848c8c613dfb565b6001600160a01b03909216911614612366576001018961231b565b6313721e6160e11b8952600489fd5b50936001909892979895939195019061217b565b63350b944160e11b8852600488fd5b630f58058360e11b8852600488fd5b632a4251f760e21b8852600488fd5b630b6e9e5760e21b8852600488fd5b634e487b7160e01b86526032600452602486fd5b638f676f4960e01b8652600486fd5b6366b045ff60e11b8652600486fd5b50600484116120f7565b8480fd5b50346103bd5760203660031901126103bd576020612429612424613b5f565b613fc2565b60ff60405191168152f35b50346103bd5760203660031901126103bd5760043560028110156105ba576020906001600160a01b039061064490613c24565b50346103bd5760403660031901126103bd57612481613b5f565b612489613b75565b906124926141c4565b6001600160a01b0316908115611bc2576001600160a01b03169081156124f55780835260036020526040832080546001600160a01b031916831790557fd2d8394cf7549a5ddbc2ba3dd7b2de8d53c891472d1f2907008ed6a10045fdae8380a380f35b6301f86e1760e41b8352600483fd5b50346103bd5760203660031901126103bd576020612523610c4d613b5f565b6040519015158152f35b50346103bd57806003193601126103bd576020601854604051908152f35b50346103bd5760203660031901126103bd5760406080916004358152601d602052206125a9815491600360028201549101549060405193845260208401526125996040840160ff8316613c17565b60ff606084019160081c16613c17565bf35b50346103bd57806003193601126103bd576125c46141c4565b600180546001600160a01b0319811690915581906001600160a01b03167f8be0079c531659141344cd1fd0a4f28419497f9722a3daafe3b4186f6b6457e08280a380f35b50346103bd5760203660031901126103bd57612622613b5f565b61262a6141c4565b6001600160a01b031680156126f7576040516370a0823160e01b8152306004820152602081602481855afa9081156126ec5783916126b6575b5080156126a7576001547f23d6711a1d031134a36921253c75aa59e967d38e369ac625992824315e204f209160209161226f9082906001600160a01b0316866141eb565b636165515360e11b8352600483fd5b90506020813d6020116126e4575b816126d160209383613ce7565b810103126126e057515f612663565b5f80fd5b3d91506126c4565b6040513d85823e3d90fd5b63c1ab6dc160e01b8252600482fd5b50346103bd5761271536613bf9565b9392906127206141c4565b6127108211611b02576127108311611b02576127108111611b02578415611a54577f48cd2c7b7b236a850d5216488fe784fb3b0f4647df68795df7b66bcfcbfbffde939461279b9183601455846015558060165581601755604051948594859094939260609260808301968352602083015260408201520152565b0390a180f35b50346103bd57806003193601126103bd57602060ff601c5460081c166040519015158152f35b50346103bd5760203660031901126103bd5760209060ff906040906001600160a01b036127f2613b5f565b168152600284522054166040519015158152f35b50346103bd5761281536613bf9565b9392906128206141c4565b6127108211611b02576127108311611b02578015611a54578415611a54577f5d3c7b528485e17fe0314971648177a48225c729bb2270e5426ad03876eb0889939461279b9183600c5584600d5580600e5581600f55604051948594859094939260609260808301968352602083015260408201520152565b50346103bd57806003193601126103bd57602060ff601c5460101c166040519015158152f35b50346103bd5760403660031901126103bd576128d8613b5f565b6024359060ff8216809203611a7d576128ef6141c4565b6001600160a01b0316908115611bc25760207f30adbaf26412995f345016c0844d56d7a715a5bd3b66bcf2aaae58185d0ee0a89183855260058252604085208160ff19825416179055604051908152a280f35b50346103bd57806003193601126103bd576020601654604051908152f35b50346103bd57806003193601126103bd576020601554604051908152f35b50346103bd57806003193601126103bd576020601454604051908152f35b50346103bd5760203660031901126103bd576004356129b96141c4565b61138881116129f4576020817f3e92c8431d3aa0c589ff26250dd58a7a032b87a26ddb0e2a1dcb0c218dfa792892601b55604051908152a180f35b6397dce8a760e01b8252600482fd5b50346103bd57806003193601126103bd57600b546040516001600160a01b039091168152602090f35b50346103bd5760403660031901126103bd57612a46613b5f565b612a4e613b75565b90612a576141c4565b6001600160a01b0316908115611bc2576001600160a01b03169081156124f55780835260046020526040832080546001600160a01b031916831790557f0cfc624d946910f5098c5542f9fcfb7eb053a75ebd62a97a7bdae8ccb27d7d088380a380f35b50346103bd57806003193601126103bd57601a546040516001600160a01b039091168152602090f35b50346103bd57806003193601126103bd576020600c54604051908152f35b50346103bd57612b1036613ba9565b9091612b1a6141c4565b81810361077457845b818110612b2e578580f35b6001600160a01b03612b44610690838589613dfb565b16156107655780612b94612b63612b5e6001948789613dfb565b613fb5565b838060a01b03612b7761069085888c613dfb565b1689526002602052604089209060ff801983541691151516179055565b612ba2610690828589613dfb565b7f4e64f955f4c1a97a6779d936a2fe8f59e1674f3e1a4c883736b9131969860a896020612bd3612b5e85898b613dfb565b926040519315158452858060a01b031692a201612b23565b50346103bd57806003193601126103bd57602062ffffff60135416604051908152f35b50346103bd5760203660031901126103bd576004356001600160a01b038116908190036105ba57612c3d6141c4565b8015612c59576001600160601b0360a01b600a541617600a5580f35b633b136dc160e11b8252600482fd5b50346103bd5760203660031901126103bd57612c82613b5f565b612c8a6141c4565b6001600160a01b03168015612cd257601a80546001600160a01b031916821790557feee59a71c694e68368a1cb0d135c448051bbfb12289e6c2223b0ceb100c2321d8280a280f35b631559b7d760e21b8252600482fd5b50346103bd5760a03660031901126103bd57612cfb613b5f565b602435906064356001600160a01b03811690819003610de957608435906001600160401b03821161240157366023830112156124015781600401356001600160401b038111610de557820190366024830111610de557612d5961422c565b601f546001600160a01b031633036131685730036131595760ff601c5460181c1661314a5760409082900312610de957604460248201359101359283159384150361240157601e5482101561313b57818552601d602052612dbc60408620613e7d565b91602083019460028651511061312c575a95612dda600e5442613f87565b90516060860151906002821015613118576080870151906002821015610baa57600d549281516002811090811561310d575b50610d985787156130fe576001600160a01b03612e288361414a565b511682515f198101908111610d2057612e5d92879287928c91906001600160a01b0390612e559089614167565b5116906143bf565b9081156130ef5780515f198101908111610d7057612ea29594939291906001600160a01b0390612e8d9083614167565b5116906001600160a01b0390612e559061414a565b9586156130e057612eb560443585613f87565b968781106130d157612ec988604092613fa8565b95015185106130c257612710612ee1600c5486614053565b0485106130c25760195485106130b357916020959391612f07612f689896945a90613fa8565b90613061575b5050601a546001600160a01b031691905081151580613058575b612fec575b5050601f5460405163095ea7b360e01b81526001600160a01b039091166004820152602481019290925290928391908290869082906044820190565b03926001600160a01b03165af1908115612fe1578291612fa7575b5015612f985760019055602060405160018152f35b6340b27c2160e11b8152600490fd5b90506020813d602011612fd9575b81612fc260209383613ce7565b810103126105ba57612fd390613f1a565b5f612f83565b3d9150612fb5565b6040513d84823e3d90fd5b612ffc61271091601b5490614053565b04908115612f2c576130199082906001600160a01b0385166141eb565b601a546040519182526001600160a01b0316907ffa37b5e8ddad169e37000eda5f29f2d1b34e92f95c9327fc7d39ba2e8b8d826f908590a25f80612f2c565b50801515612f27565b604080519384526020840185905283019190915260608201526001600160a01b038316907f89a09201a027c60f41c5ba11894aa08a9f73b7b905d773646add4b4f4909bd8390608090a25f8080612f0d565b6366d786f960e01b8852600488fd5b6362ee2e6160e11b8852600488fd5b63bb2875c360e01b8952600489fd5b63081ceff360e41b8852600488fd5b63081ceff360e41b8c5260048cfd5b63162908e360e11b8c5260048cfd5b60049150115f612e0c565b634e487b7160e01b8a52602160045260248afd5b635640cba960e01b8752600487fd5b638f676f4960e01b8552600485fd5b63ab35696f60e01b8552600485fd5b6317fb43e560e31b8552600485fd5b635c427cd960e01b8652600486fd5b50346103bd5760203660031901126103bd577f9e3a5e37224532dea67b89face185703738a228a6e8a23dee546960180d3be6460206131b4613b8b565b6131bc6141c4565b1515601c5463ff0000008260181b169063ff000000191617601c55604051908152a180f35b50346103bd5760803660031901126103bd576004356001600160401b0381116105ba57613212903690600401613b2f565b90604435906002821015610de957606435906002821015612401576132356141c4565b60028410801561353b575b61352c5783156135185761325381613e1f565b5f198501858111918261176d576001600160a01b03613276610690848a88613dfb565b166001600160a01b0390911603613509576001600160a01b0361329886613c24565b5416156134fa576001600160a01b036132b085613c24565b5416156134fa5786905b86821061342757505050601e546132e2604051926132d784613cb1565b828452863691613d1f565b6020830190815260408301916024358352613301606085019687613e71565b61330f608085019586613e71565b8752601d60205260408720925183555180519060018401906001600160401b038311613413576020906133428484614066565b0190885260208820885b8381106133f657505050509060039151600282015501915160028110156122795761337790836140ab565b519060028210156133e2576020929161338f916140c3565b7f43afc9e063beaea4354ec60d8bc6c76e9ba2376ca51443fc69a6efd689a7282a601e54928392604051908152a25f1981146133ce57600101601e5580f35b634e487b7160e01b82526011600452602482fd5b634e487b7160e01b84526021600452602484fd5b82516001600160a01b03168183015560209092019160010161334c565b634e487b7160e01b89526041600452602489fd5b9196959492939092906001600160a01b03613446610690868989613dfb565b16156134eb5761345d610c4d610690868989613dfb565b156134dc576001840180851161176d57885b61176d57838110156134c957613489610690868989613dfb565b6001600160a01b0361349f610690848b8b613dfb565b6001600160a01b039092169116146134ba576001018861346f565b6313721e6160e11b8852600488fd5b50939260019097929195969701906132ba565b63350b944160e11b8752600487fd5b630f58058360e11b8752600487fd5b632a4251f760e21b8752600487fd5b630b6e9e5760e21b8752600487fd5b634e487b7160e01b85526032600452602485fd5b6366b045ff60e11b8552600485fd5b5060048411613240565b50346103bd5760203660031901126103bd5760209060ff906040906001600160a01b03613570613b5f565b168152600884522054166040519015158152f35b50346126e05760803660031901126126e05761359e613b5f565b602435906044356064358015158091036126e0576135ba61422c565b6135c26141c4565b601c549260ff8460181c166138e3576001600160a01b03169283156138d45784156138c55760185485116138b657601e548310156138a757835f52600260205260ff60405f205416156138985760081c60ff166136f1575b827f4de4e5710a82e29aa0540f39a91f17d0091e7251ba18403d8034555fa03168ef60408051878152856020820152a2604051916020830152604082015260408152613667606082613ce7565b601f546001600160a01b0316803b156126e0576136b6935f8094604051968795869485936310ac2ddf60e21b85523060048601526024850152604484015260a0606484015260a4830190613f63565b82608483015203925af180156136e6576136d3575b506001815580f35b6136df91505f90613ce7565b5f5f6136cb565b6040513d5f823e3d90fd5b815f52601d60205261370560405f20613e7d565b6020810151906060810151906002821015613884576080015160028110156138845761376a926101409261377461375993604051968795869563b3eeb62160e01b8752608060048801526084870190613f27565b938c60248701526044860190613c17565b6064840190613c17565b03815f305af19081156136e6575f916137dd575b50610120810151156137ce5760406101007f2d8c7de9d14f5d83e30045e1c848465afdd57594f3e9fc21ca0c5ed3fc339f1d9201518151908582526020820152a161361a565b632dd61d5b60e01b5f5260045ffd5b9050610140813d821161387c575b816137f96101409383613ce7565b810103126126e0576138706101206040519261381484613c81565b805184526020810151602085015260408101516040850152606081015160608501526080810151608085015260a081015160a085015260c081015160c085015260e081015160e085015261010081015161010085015201613f1a565b6101208201525f613788565b3d91506137eb565b634e487b7160e01b5f52602160045260245ffd5b63350b944160e11b5f5260045ffd5b638f676f4960e01b5f5260045ffd5b63499e798560e01b5f5260045ffd5b63162908e360e11b5f5260045ffd5b636448d6e960e11b5f5260045ffd5b63ab35696f60e01b5f5260045ffd5b346126e0575f3660031901126126e057602060ff601c54166040519015158152f35b346126e05760203660031901126126e0576001600160a01b03613935613b5f565b165f526008602052602060ff60405f2054166040519015158152f35b346126e0575f3660031901126126e0576020601054604051908152f35b346126e0575f3660031901126126e057600a546040516001600160a01b039091168152602090f35b346126e05760203660031901126126e0576004356001600160401b0381116126e0576139c6903690600401613b2f565b906139cf6141c4565b5f5b828110613a3c5747806139e057005b5f8080808460018060a01b03600154165af16139fa613e33565b5015613a2d5760207f043f607a14d3b4f0a11a0b2e192bbfcd894298ba5abf22553be6081406db28aa91604051908152a1005b63b12d13eb60e01b5f5260045ffd5b60249060206001600160a01b03613a57610690848888613dfb565b16604051938480926370a0823160e01b82523060048301525afa80156136e6575f90613afd575b6001925080613a8f575b50016139d1565b613ab781848060a01b03613aa7610690868a8a613dfb565b16858060a01b03865416906141eb565b7f23d6711a1d031134a36921253c75aa59e967d38e369ac625992824315e204f206020848060a01b03613aee610690868a8a613dfb565b1692604051908152a284613a88565b506020823d8211613b27575b81613b1660209383613ce7565b810103126126e05760019151613a7e565b3d9150613b09565b9181601f840112156126e0578235916001600160401b0383116126e0576020808501948460051b0101116126e057565b600435906001600160a01b03821682036126e057565b602435906001600160a01b03821682036126e057565b6004359081151582036126e057565b6024359081151582036126e057565b60406003198201126126e0576004356001600160401b0381116126e05781613bd391600401613b2f565b92909291602435906001600160401b0382116126e057613bf591600401613b2f565b9091565b60809060031901126126e05760043590602435906044359060643590565b9060028210156138845752565b6002811015613884575f52600660205260405f2090565b6002811015613884575f52600760205260405f2090565b60409060031901126126e05760043560028110156126e057906024356001600160a01b03811681036126e05790565b61014081019081106001600160401b03821117613c9d57604052565b634e487b7160e01b5f52604160045260245ffd5b60a081019081106001600160401b03821117613c9d57604052565b608081019081106001600160401b03821117613c9d57604052565b90601f801991011681019081106001600160401b03821117613c9d57604052565b6001600160401b038111613c9d5760051b60200190565b9291613d2a82613d08565b93613d386040519586613ce7565b602085848152019260051b81019182116126e057915b818310613d5a57505050565b82356001600160a01b03811681036126e057815260209283019201613d4e565b9060a08101918051825260208101519260a060208401528351809152602060c084019401905f5b818110613ddc5750505090608080836040613dd99501516040850152613dcf60608201516060860190613c17565b0151910190613c17565b90565b82516001600160a01b0316865260209586019590920191600101613da1565b9190811015613e0b5760051b0190565b634e487b7160e01b5f52603260045260245ffd5b356001600160a01b03811681036126e05790565b3d15613e6c573d906001600160401b038211613c9d5760405191613e61601f8201601f191660200184613ce7565b82523d5f602084013e565b606090565b60028210156138845752565b90604051613e8a81613cb1565b809280548252600181016040519081602082549182815201915f5260205f20905f5b818110613efb575050506003613ef9949383613ece60809560ff950382613ce7565b6020860152600281015460408601520154613eee82821660608601613e71565b60081c169101613e71565b565b82546001600160a01b0316845260209093019260019283019201613eac565b519081151582036126e057565b90602080835192838152019201905f5b818110613f445750505090565b82516001600160a01b0316845260209384019390920191600101613f37565b805180835260209291819084018484015e5f828201840152601f01601f1916010190565b91908201809211613f9457565b634e487b7160e01b5f52601160045260245ffd5b91908203918211613f9457565b3580151581036126e05790565b6001600160a01b03165f8181526005602052604090205460ff16908115613fe7575090565b60405163313ce56760e01b81529150602090829060049082905afa5f9181614015575b50613dd95750601290565b9091506020813d60201161404b575b8161403160209383613ce7565b810103126126e0575160ff811681036126e057905f61400a565b3d9150614024565b81810292918115918404141715613f9457565b90680100000000000000008111613c9d5781549181815582821061408957505050565b5f5260205f2091820191015b8181106140a0575050565b5f8155600101614095565b9060028110156138845760ff80198354169116179055565b9060028110156138845761ff0082549160081b169061ff001916179055565b818114614146578154916001600160401b038311613c9d576141048383614066565b5f5260205f20905f5260205f208154915f925b848410614125575050505050565b600191820180546001600160a01b0390921684860155939091019290614117565b5050565b805115613e0b5760200190565b805160011015613e0b5760400190565b8051821015613e0b5760209160051b010190565b8115614185570490565b634e487b7160e01b5f52601260045260245ffd5b604051906141a682613cb1565b5f608083828152606060208201528260408201528260608201520152565b6001546001600160a01b031633036141d857565b63118cdaa760e01b5f523360045260245ffd5b60405163a9059cbb60e01b60208201526001600160a01b03929092166024830152604480830193909352918152613ef991614227606483613ce7565b614367565b60025f541461423b5760025f55565b60405162461bcd60e51b815260206004820152601f60248201527f5265656e7472616e637947756172643a207265656e7472616e742063616c6c006044820152606490fd5b9260028110156138845761429757613dd992614805565b613dd99261470a565b519069ffffffffffffffffffff821682036126e057565b908160a09103126126e0576142cb816142a0565b91602082015191604081015191613dd96080606084015193016142a0565b80156138c55781156138c557670de0b6b3a76400008202918204670de0b6b3a764000003613f945761431a9161417b565b90670de0b6b3a7640000810290808204670de0b6b3a76400001490151715613f945761434e926143499161417b565b614959565b6011541061435857565b6369e2517960e11b5f5260045ffd5b905f602091828151910182855af1156136e6575f513d6143b657506001600160a01b0381163b155b6143965750565b635274afe760e01b5f9081526001600160a01b0391909116600452602490fd5b6001141561438f565b939091949260028110156138845761455f576001600160a01b036143e25f613c24565b541691821561455057825f52600860205260ff60405f205416156145415761441486846001600160a01b0388166149ce565b601354604051956001600160601b03199060601b16602087015262ffffff60e81b9060e81b1660348601526001600160601b03199060601b166037850152602b8452614461604b85613ce7565b61271003926127108411613f94575f6144db9161271061448360209789614053565b046040519161449183613cb1565b8252868201903082526040830196875260608301988952608083019081526040519889978896879563c04b8d5960e01b87528b60048801525160a0602488015260c4870190613f63565b93516001600160a01b031660448601525160648501525160848401525160a483015203925af19081156136e6575f91614512575090565b90506020813d602011614539575b8161452d60209383613ce7565b810103126126e0575190565b3d9150614520565b635bb5845760e11b5f5260045ffd5b632a4251f760e21b5f5260045ffd5b91939290916001600160a01b036145766001613c24565b541691821561455057825f52600860205260ff60405f20541615614541576001600160a01b0316926145a98584866149ce565b604051936145b8606086613ce7565b6002855260403660208701376145cd8561414a565b526145d784614157565b6001600160a01b03909116905261271090810394908511613f94575f84612710614605614636988498614053565b0492604051978896879586946338ed173960e01b86526004860152602485015260a0604485015260a4840190613f27565b90306064840152608483015203925af19081156136e6575f9161466f575b5080515f198101908111613f945761466b91614167565b5190565b61468b91503d805f833e6146838183613ce7565b810190614691565b5f614654565b6020818303126126e0578051906001600160401b0382116126e057019080601f830112156126e05781516146c481613d08565b926146d26040519485613ce7565b81845260208085019260051b8201019283116126e057602001905b8282106146fa5750505090565b81518152602091820191016146ed565b60015f5260066020527f3e5fec24aa4dc4e5aee2e025e51e1392c72a2500577559fae9665c6d52bd6a31546001600160a01b03168015614550576147bd935f9360405193614759606086613ce7565b60028552604036602087013761476e8561414a565b6001600160a01b03909116905261478484614157565b6001600160a01b0390911690526040805163d06ca61f60e01b815260048101929092526024820152938492839182916044830190613f27565b03915afa5f91816147e9575b506147d357505f90565b80515f198101908111613f945761466b91614167565b6147fe9192503d805f833e6146838183613ce7565b905f6147c9565b5f805260076020527f6d5257204ebe7d88fd91ae87941cb2dd9d8062b64ae5a2bd2d28ec40b9fbf6df549091906001600160a01b03168015614550576020925f60a49262ffffff6013541696604051978896879563f7729d4360e01b875260018060a01b0316600487015260018060a01b03166024860152604485015260648401528160848401525af15f91816148a1575b50613dd957505f90565b9091506020813d6020116148cd575b816148bd60209383613ce7565b810103126126e05751905f614897565b3d91506148b0565b60ff16604d8111613f9457600a0a90565b6001600160a01b039091165f9081526005602052604090205460ff168015614951575b60ff166012811061493357601119019060ff8211613f945761492d613dd9926148d5565b9061417b565b6012039060ff8211613f945761494b613dd9926148d5565b90614053565b506012614909565b801580156149c6575b6149b8578181119182156149a85761497a8183613fa8565b925b156149a157505b6127108202918083046127101490151715613f9457613dd99161417b565b9050614983565b6149b28282613fa8565b9261497c565b62fc7cad60e51b5f5260045ffd5b508115614962565b60405163095ea7b360e01b60208083019182526001600160a01b0385166024840152604480840196909652948252929390925f90614a0d606486613ce7565b84519082855af15f513d82614a6e575b505015614a2957505050565b60405163095ea7b360e01b60208201526001600160a01b0390931660248401525f6044808501919091528352613ef99261422790614a68606482613ce7565b82614367565b909150614a8b57506001600160a01b0381163b15155b5f80614a1d565b600114614a8456fea264697066735822122008d472252ad28635defaeeccbfe449597c36bd4a34847d641f15eaa0c59e9b4564736f6c634300081e0033",
			"opcodes": "PUSH1 0x80 PUSH1 0x40 MSTORE CALLVALUE PUSH2 0x2EC JUMPI PUSH1 0x1 PUSH0 SSTORE CALLER ISZERO PUSH2 0x2D9 JUMPI PUSH1 0x1 DUP1 SLOAD CALLER PUSH1 0x1 PUSH1 0x1 PUSH1 0xA0 SHL SUB NOT DUP3 AND DUP2 OR SWAP1 SWAP3 SSTORE PUSH1 0x1 PUSH1 0x1 PUSH1 0xA0 SHL SUB AND PUSH32 0x8BE0079C531659141344CD1FD0A4F28419497F9722A3DAAFE3B4186F6B6457E0 PUSH0 DUP1 LOG3 PUSH1 0x64 PUSH1 0xC SSTORE PUSH2 0x12C PUSH1 0xD DUP2 SWAP1 SSTORE PUSH1 0x5A PUSH1 0xE SSTORE PUSH3 0x7A120 PUSH1 0xF SSTORE PUSH1 0x10 SSTORE PUSH2 0x320 PUSH1 0x11 SSTORE PUSH2 0x4B0 PUSH1 0x12 SSTORE PUSH1 0x13 DUP1 SLOAD PUSH3 0xFFFFFF NOT AND PUSH2 0xBB8 OR SWAP1 SSTORE PUSH1 0xA PUSH1 0x14 DUP2 SWAP1 SSTORE PUSH1 0x32 PUSH1 0x15 SSTORE PUSH1 0x9 PUSH1 0x16 SSTORE PUSH5 0xBA43B7400 PUSH1 0x17 SSTORE PUSH10 0x21E19E0C9BAB2400000 PUSH1 0x18 SSTORE PUSH0 PUSH1 0x19 DUP2 SWAP1 SSTORE PUSH2 0x1388 PUSH1 0x1B SSTORE PUSH1 0x1C DUP1 SLOAD PUSH3 0x10101 PUSH4 0xFFFFFFFF NOT SWAP2 SWAP1 SWAP2 AND OR SWAP1 SSTORE PUSH1 0x1F DUP1 SLOAD PUSH1 0x1 PUSH1 0x1 PUSH1 0xA0 SHL SUB NOT SWAP1 DUP2 AND PUSH20 0x794A61358D6845594F94DC1DB02A252B5B4814AD OR SWAP1 SWAP2 SSTORE DUP3 SLOAD DUP2 AND PUSH20 0xA97684EAD0E402DC232D5A977953DF7ECBAB3CDB SWAP1 DUP2 OR SWAP1 SWAP4 SSTORE PUSH1 0xB DUP1 SLOAD DUP3 AND PUSH20 0xC02AAA39B223FE8D0A0E5C4F27EAD9083C756CC2 SWAP1 DUP2 OR SWAP1 SWAP2 SSTORE PUSH32 0x54CDD369E4E8A8515E52CA72EC816C2101831AD1F18BF44102ED171459C9B4F8 DUP1 SLOAD DUP4 AND PUSH20 0xE592427A0AECE92DE3EDEE1F18E0157C05861564 OR SWAP1 SSTORE PUSH32 0x6D5257204EBE7D88FD91AE87941CB2DD9D8062B64AE5A2BD2D28EC40B9FBF6DF DUP1 SLOAD DUP4 AND PUSH20 0x61FFE014BA17989E8A2D3BCCDA57B7A7FCD78F74 OR SWAP1 SSTORE PUSH32 0x676AB5D80CB25F08F2A36BA24D1FFAFD2A6B8F5601A3123E63B10106CC270CD0 DUP1 SLOAD PUSH1 0xFF NOT SWAP1 DUP2 AND PUSH1 0x1 SWAP1 DUP2 OR SWAP1 SWAP3 SSTORE PUSH32 0x3E5FEC24AA4DC4E5AEE2E025E51E1392C72A2500577559FAE9665C6D52BD6A31 DUP1 SLOAD DUP6 AND PUSH20 0xD9E1CE17F2641F24AE57B168B3C7A5BA3DF4039 SWAP1 DUP2 OR SWAP1 SWAP2 SSTORE PUSH32 0xB39221ACE053465EC3453CE2B36430BD138B997ECEA25C1043DA0C366812B828 DUP1 SLOAD DUP7 AND SWAP1 SSTORE DUP6 MSTORE PUSH1 0x8 PUSH1 0x20 MSTORE PUSH32 0x310B513C285BF9AAC1EE0F7B6CE3C697435CF41A05CC4A6B5E52B8A6ED2A34D4 DUP1 SLOAD SWAP1 SWAP2 AND SWAP1 SWAP2 OR SWAP1 SSTORE PUSH1 0x1A DUP1 SLOAD SWAP1 SWAP3 AND PUSH20 0xCF714F4C2932FF5148651FF8A3A91AF69CF9ADE3 OR SWAP1 SWAP2 SSTORE PUSH1 0x40 MLOAD SWAP3 SWAP1 SWAP2 PUSH32 0xFCFCEDFAFA92882DEF30B16E239A0C0512FD0CB251876B2709BE862356873E89 SWAP1 DUP1 LOG3 PUSH2 0x4AC9 SWAP1 DUP2 PUSH2 0x2F1 DUP3 CODECOPY RETURN JUMPDEST PUSH4 0x1E4FBDF7 PUSH1 0xE0 SHL PUSH0 MSTORE PUSH0 PUSH1 0x4 MSTORE PUSH1 0x24 PUSH0 REVERT JUMPDEST PUSH0 DUP1 REVERT INVALID PUSH1 0x80 PUSH1 0x40 MSTORE PUSH1 0x4 CALLDATASIZE LT ISZERO PUSH2 0x1A JUMPI JUMPDEST CALLDATASIZE ISZERO PUSH2 0x18 JUMPI PUSH0 DUP1 REVERT JUMPDEST STOP JUMPDEST PUSH0 PUSH0 CALLDATALOAD PUSH1 0xE0 SHR DUP1 PUSH4 0x33051C6 EQ PUSH2 0x3996 JUMPI DUP1 PUSH4 0x542975C EQ PUSH2 0x396E JUMPI DUP1 PUSH4 0x816C847 EQ PUSH2 0x3951 JUMPI DUP1 PUSH4 0xAEF023F EQ PUSH2 0x3914 JUMPI DUP1 PUSH4 0xDBA22AF EQ PUSH2 0x38F2 JUMPI DUP1 PUSH4 0xEA62CB5 EQ PUSH2 0x3584 JUMPI DUP1 PUSH4 0xF874A13 EQ PUSH2 0x3545 JUMPI DUP1 PUSH4 0xFEE470A EQ PUSH2 0x31E1 JUMPI DUP1 PUSH4 0x16C38B3C EQ PUSH2 0x3177 JUMPI DUP1 PUSH4 0x1B11D0FF EQ PUSH2 0x2CE1 JUMPI DUP1 PUSH4 0x1C31F710 EQ PUSH2 0x2C68 JUMPI DUP1 PUSH4 0x219A9822 EQ PUSH2 0x2C0E JUMPI DUP1 PUSH4 0x2C49C9A3 EQ PUSH2 0x2BEB JUMPI DUP1 PUSH4 0x312A634D EQ PUSH2 0x2B01 JUMPI DUP1 PUSH4 0x32252057 EQ PUSH2 0x1078 JUMPI DUP1 PUSH4 0x383AEEAE EQ PUSH2 0x2AE3 JUMPI DUP1 PUSH4 0x38AF3EED EQ PUSH2 0x2ABA JUMPI DUP1 PUSH4 0x3D59B5F1 EQ PUSH2 0x2A2C JUMPI DUP1 PUSH4 0x3FC8CEF3 EQ PUSH2 0x2A03 JUMPI DUP1 PUSH4 0x42D55497 EQ PUSH2 0x299C JUMPI DUP1 PUSH4 0x4E791437 EQ PUSH2 0x297E JUMPI DUP1 PUSH4 0x5688B8EF EQ PUSH2 0x2960 JUMPI DUP1 PUSH4 0x56D8940F EQ PUSH2 0x2942 JUMPI DUP1 PUSH4 0x5B6CCA80 EQ PUSH2 0x1BD1 JUMPI DUP1 PUSH4 0x5C975ABB EQ PUSH2 0x1B11 JUMPI DUP1 PUSH4 0x5CDCD8BB EQ PUSH2 0x28BE JUMPI DUP1 PUSH4 0x5FBAA51D EQ PUSH2 0x2898 JUMPI DUP1 PUSH4 0x68AAD172 EQ PUSH2 0x2806 JUMPI DUP1 PUSH4 0x68C4AC26 EQ PUSH2 0x27C7 JUMPI DUP1 PUSH4 0x6AE26C99 EQ PUSH2 0x27A1 JUMPI DUP1 PUSH4 0x6EE10175 EQ PUSH2 0x2706 JUMPI DUP1 PUSH4 0x6FF1C9BC EQ PUSH2 0x2608 JUMPI DUP1 PUSH4 0x715018A6 EQ PUSH2 0x25AB JUMPI DUP1 PUSH4 0x726F16D8 EQ PUSH2 0x254B JUMPI DUP1 PUSH4 0x72F94365 EQ PUSH2 0x252D JUMPI DUP1 PUSH4 0x75151B63 EQ PUSH2 0x2504 JUMPI DUP1 PUSH4 0x7535D246 EQ PUSH2 0x1FA6 JUMPI DUP1 PUSH4 0x76E11286 EQ PUSH2 0x2467 JUMPI DUP1 PUSH4 0x785B32F4 EQ PUSH2 0x2434 JUMPI DUP1 PUSH4 0x785C7CF6 EQ PUSH2 0x2405 JUMPI DUP1 PUSH4 0x79A73BBE EQ PUSH2 0x2095 JUMPI DUP1 PUSH4 0x7AE85183 EQ PUSH2 0x2035 JUMPI DUP1 PUSH4 0x84845FD4 EQ PUSH2 0x1FCF JUMPI DUP1 PUSH4 0x86A06FF0 EQ PUSH2 0x1FA6 JUMPI DUP1 PUSH4 0x8A611D55 EQ PUSH2 0x1F88 JUMPI DUP1 PUSH4 0x8DA5CB5B EQ PUSH2 0x1F5F JUMPI DUP1 PUSH4 0x8EE573AC EQ PUSH2 0x1F22 JUMPI DUP1 PUSH4 0x8F3ED683 EQ PUSH2 0x1EA3 JUMPI DUP1 PUSH4 0x90F73D3C EQ PUSH2 0x1DFA JUMPI DUP1 PUSH4 0x9693C4A4 EQ PUSH2 0x1CAF JUMPI DUP1 PUSH4 0x96F62AC7 EQ PUSH2 0x611 JUMPI DUP1 PUSH4 0x97AD7E2A EQ PUSH2 0x1C91 JUMPI DUP1 PUSH4 0x9B0AFE6D EQ PUSH2 0x1C12 JUMPI DUP1 PUSH4 0x9DCB511A EQ PUSH2 0x1BD1 JUMPI DUP1 PUSH4 0xA1836954 EQ PUSH2 0x1B37 JUMPI DUP1 PUSH4 0xB187BD26 EQ PUSH2 0x1B11 JUMPI DUP1 PUSH4 0xB2BCCCDA EQ PUSH2 0x1A81 JUMPI DUP1 PUSH4 0xB3EEB621 EQ PUSH2 0x1164 JUMPI DUP1 PUSH4 0xB76E053B EQ PUSH2 0x1100 JUMPI DUP1 PUSH4 0xB7E10191 EQ PUSH2 0x10BF JUMPI DUP1 PUSH4 0xBAF79C39 EQ PUSH2 0x1096 JUMPI DUP1 PUSH4 0xBF539CB4 EQ PUSH2 0x1078 JUMPI DUP1 PUSH4 0xC4AA7395 EQ PUSH2 0x105A JUMPI DUP1 PUSH4 0xC54CDAD8 EQ PUSH2 0x103C JUMPI DUP1 PUSH4 0xCC6A2924 EQ PUSH2 0xFE3 JUMPI DUP1 PUSH4 0xCCEB6C42 EQ PUSH2 0xF95 JUMPI DUP1 PUSH4 0xD83EA790 EQ PUSH2 0xF77 JUMPI DUP1 PUSH4 0xDB05852F EQ PUSH2 0xE29 JUMPI DUP1 PUSH4 0xDBDA2808 EQ PUSH2 0xE0B JUMPI DUP1 PUSH4 0xDDE6BEFD EQ PUSH2 0xDED JUMPI DUP1 PUSH4 0xDE3AE757 EQ PUSH2 0x8B9 JUMPI DUP1 PUSH4 0xDEB928EE EQ PUSH2 0x80F JUMPI DUP1 PUSH4 0xE086E5EC EQ PUSH2 0x783 JUMPI DUP1 PUSH4 0xE0925D6C EQ PUSH2 0x64E JUMPI DUP1 PUSH4 0xE095B465 EQ PUSH2 0x611 JUMPI DUP1 PUSH4 0xE292E876 EQ PUSH2 0x5BE JUMPI DUP1 PUSH4 0xEEACAFC3 EQ PUSH2 0x517 JUMPI DUP1 PUSH4 0xF2FDE38B EQ PUSH2 0x48E JUMPI DUP1 PUSH4 0xF984F70A EQ PUSH2 0x426 JUMPI DUP1 PUSH4 0xFA66358A EQ PUSH2 0x3C0 JUMPI PUSH4 0xFE173B97 EQ PUSH2 0x3A0 JUMPI POP PUSH2 0xE JUMP JUMPDEST CALLVALUE PUSH2 0x3BD JUMPI DUP1 PUSH1 0x3 NOT CALLDATASIZE ADD SLT PUSH2 0x3BD JUMPI PUSH1 0x20 PUSH1 0x17 SLOAD PUSH1 0x40 MLOAD SWAP1 DUP2 MSTORE RETURN JUMPDEST DUP1 REVERT JUMPDEST POP CALLVALUE PUSH2 0x3BD JUMPI PUSH1 0x20 CALLDATASIZE PUSH1 0x3 NOT ADD SLT PUSH2 0x3BD JUMPI PUSH1 0x4 CALLDATALOAD PUSH2 0x3DD PUSH2 0x4199 JUMP JUMPDEST POP PUSH1 0x1E SLOAD DUP2 LT ISZERO PUSH2 0x417 JUMPI PUSH1 0x40 DUP3 PUSH2 0x3FF SWAP3 PUSH2 0x413 SWAP5 MSTORE PUSH1 0x1D PUSH1 0x20 MSTORE KECCAK256 PUSH2 0x3E7D JUMP JUMPDEST PUSH1 0x40 MLOAD SWAP2 DUP3 SWAP2 PUSH1 0x20 DUP4 MSTORE PUSH1 0x20 DUP4 ADD SWAP1 PUSH2 0x3D7A JUMP JUMPDEST SUB SWAP1 RETURN JUMPDEST PUSH4 0x8F676F49 PUSH1 0xE0 SHL DUP3 MSTORE PUSH1 0x4 DUP3 REVERT JUMPDEST POP CALLVALUE PUSH2 0x3BD JUMPI PUSH1 0x20 CALLDATASIZE PUSH1 0x3 NOT ADD SLT PUSH2 0x3BD JUMPI PUSH32 0xB2A19CF961F334D257A8D5F75AFD9309A15B64C0BAE806BFFC30227902AC67B5 PUSH1 0x20 PUSH2 0x463 PUSH2 0x3B8B JUMP JUMPDEST PUSH2 0x46B PUSH2 0x41C4 JUMP JUMPDEST ISZERO ISZERO PUSH1 0x1C SLOAD PUSH3 0xFF0000 DUP3 PUSH1 0x10 SHL AND SWAP1 PUSH3 0xFF0000 NOT AND OR PUSH1 0x1C SSTORE PUSH1 0x40 MLOAD SWAP1 DUP2 MSTORE LOG1 DUP1 RETURN JUMPDEST POP CALLVALUE PUSH2 0x3BD JUMPI PUSH1 0x20 CALLDATASIZE PUSH1 0x3 NOT ADD SLT PUSH2 0x3BD JUMPI PUSH2 0x4A8 PUSH2 0x3B5F JUMP JUMPDEST PUSH2 0x4B0 PUSH2 0x41C4 JUMP JUMPDEST PUSH1 0x1 PUSH1 0x1 PUSH1 0xA0 SHL SUB AND DUP1 ISZERO PUSH2 0x503 JUMPI PUSH1 0x1 DUP1 SLOAD PUSH1 0x1 PUSH1 0x1 PUSH1 0xA0 SHL SUB NOT DUP2 AND DUP4 OR SWAP1 SWAP2 SSTORE PUSH1 0x1 PUSH1 0x1 PUSH1 0xA0 SHL SUB AND PUSH32 0x8BE0079C531659141344CD1FD0A4F28419497F9722A3DAAFE3B4186F6B6457E0 DUP4 DUP1 LOG3 DUP1 RETURN JUMPDEST PUSH4 0x1E4FBDF7 PUSH1 0xE0 SHL DUP3 MSTORE PUSH1 0x4 DUP3 SWAP1 MSTORE PUSH1 0x24 DUP3 REVERT JUMPDEST POP CALLVALUE PUSH2 0x3BD JUMPI PUSH1 0x20 CALLDATASIZE PUSH1 0x3 NOT ADD SLT PUSH2 0x3BD JUMPI PUSH1 0x4 CALLDATALOAD PUSH3 0xFFFFFF DUP2 AND DUP1 SWAP2 SUB PUSH2 0x5BA JUMPI PUSH2 0x541 PUSH2 0x41C4 JUMP JUMPDEST PUSH2 0x1F4 DUP2 EQ ISZERO DUP1 PUSH2 0x5AE JUMPI JUMPDEST DUP1 PUSH2 0x5A2 JUMPI JUMPDEST PUSH2 0x593 JUMPI PUSH1 0x20 DUP2 PUSH32 0x56387F26AC2F92610E692325D1DB5CE5E79D284DFF494CAA737C3923A67642E5 SWAP3 PUSH3 0xFFFFFF NOT PUSH1 0x13 SLOAD AND OR PUSH1 0x13 SSTORE PUSH1 0x40 MLOAD SWAP1 DUP2 MSTORE LOG1 DUP1 RETURN JUMPDEST PUSH4 0x58D620B3 PUSH1 0xE0 SHL DUP3 MSTORE PUSH1 0x4 DUP3 REVERT JUMPDEST POP PUSH2 0x2710 DUP2 EQ ISZERO PUSH2 0x553 JUMP JUMPDEST POP PUSH2 0xBB8 DUP2 EQ ISZERO PUSH2 0x54D JUMP JUMPDEST POP DUP1 REVERT JUMPDEST POP CALLVALUE PUSH2 0x3BD JUMPI PUSH1 0x20 CALLDATASIZE PUSH1 0x3 NOT ADD SLT PUSH2 0x3BD JUMPI PUSH1 0x4 CALLDATALOAD PUSH1 0x2 DUP2 LT ISZERO PUSH2 0x5BA JUMPI PUSH1 0x1 PUSH1 0x1 PUSH1 0xA0 SHL SUB SWAP1 PUSH2 0x5EE SWAP1 PUSH2 0x3C24 JUMP JUMPDEST SLOAD AND SWAP1 DUP2 ISZERO PUSH2 0x602 JUMPI PUSH1 0x20 DUP3 PUSH1 0x40 MLOAD SWAP1 DUP2 MSTORE RETURN JUMPDEST PUSH4 0x2A4251F7 PUSH1 0xE2 SHL DUP2 MSTORE PUSH1 0x4 SWAP1 REVERT JUMPDEST POP CALLVALUE PUSH2 0x3BD JUMPI PUSH1 0x20 CALLDATASIZE PUSH1 0x3 NOT ADD SLT PUSH2 0x3BD JUMPI PUSH1 0x4 CALLDATALOAD PUSH1 0x2 DUP2 LT ISZERO PUSH2 0x5BA JUMPI PUSH1 0x20 SWAP1 PUSH1 0x1 PUSH1 0x1 PUSH1 0xA0 SHL SUB SWAP1 PUSH2 0x644 SWAP1 PUSH2 0x3C3B JUMP JUMPDEST SLOAD AND PUSH1 0x40 MLOAD SWAP1 DUP2 MSTORE RETURN JUMPDEST POP CALLVALUE PUSH2 0x3BD JUMPI PUSH2 0x65D CALLDATASIZE PUSH2 0x3BA9 JUMP JUMPDEST SWAP2 PUSH2 0x666 PUSH2 0x41C4 JUMP JUMPDEST DUP3 DUP2 SUB PUSH2 0x774 JUMPI DUP5 JUMPDEST DUP2 DUP2 LT PUSH2 0x67A JUMPI DUP6 DUP1 RETURN JUMPDEST PUSH1 0x1 PUSH1 0x1 PUSH1 0xA0 SHL SUB PUSH2 0x695 PUSH2 0x690 DUP4 DUP6 DUP10 PUSH2 0x3DFB JUMP JUMPDEST PUSH2 0x3E1F JUMP JUMPDEST AND ISZERO PUSH2 0x765 JUMPI PUSH1 0x1 PUSH1 0x1 PUSH1 0xA0 SHL SUB PUSH2 0x6B1 PUSH2 0x690 DUP4 DUP8 DUP8 PUSH2 0x3DFB JUMP JUMPDEST AND ISZERO PUSH2 0x756 JUMPI DUP1 PUSH2 0x6C8 PUSH2 0x690 PUSH1 0x1 SWAP4 DUP8 DUP8 PUSH2 0x3DFB JUMP JUMPDEST DUP3 DUP1 PUSH1 0xA0 SHL SUB PUSH2 0x6DC PUSH2 0x690 DUP5 DUP8 DUP12 PUSH2 0x3DFB JUMP JUMPDEST AND DUP9 MSTORE PUSH1 0x3 PUSH1 0x20 MSTORE PUSH1 0x40 DUP9 KECCAK256 SWAP1 DUP4 DUP1 PUSH1 0xA0 SHL SUB AND PUSH1 0x1 PUSH1 0x1 PUSH1 0x60 SHL SUB PUSH1 0xA0 SHL DUP3 SLOAD AND OR SWAP1 SSTORE PUSH2 0x70F PUSH2 0x690 DUP3 DUP6 DUP10 PUSH2 0x3DFB JUMP JUMPDEST DUP3 DUP1 PUSH1 0xA0 SHL SUB PUSH2 0x723 PUSH2 0x690 DUP5 DUP10 DUP10 PUSH2 0x3DFB JUMP JUMPDEST AND SWAP1 DUP4 DUP1 PUSH1 0xA0 SHL SUB AND PUSH32 0xD2D8394CF7549A5DDBC2BA3DD7B2DE8D53C891472D1F2907008ED6A10045FDAE DUP10 DUP1 LOG3 ADD PUSH2 0x66F JUMP JUMPDEST PUSH4 0x1F86E17 PUSH1 0xE4 SHL DUP7 MSTORE PUSH1 0x4 DUP7 REVERT JUMPDEST PUSH4 0xC1AB6DC1 PUSH1 0xE0 SHL DUP7 MSTORE PUSH1 0x4 DUP7 REVERT JUMPDEST PUSH4 0x512509D3 PUSH1 0xE1 SHL DUP6 MSTORE PUSH1 0x4 DUP6 REVERT JUMPDEST POP CALLVALUE PUSH2 0x3BD JUMPI DUP1 PUSH1 0x3 NOT CALLDATASIZE ADD SLT PUSH2 0x3BD JUMPI PUSH2 0x79C PUSH2 0x41C4 JUMP JUMPDEST SELFBALANCE DUP1 ISZERO PUSH2 0x800 JUMPI DUP2 DUP1 DUP1 DUP1 DUP5 PUSH1 0x1 DUP1 PUSH1 0xA0 SHL SUB PUSH1 0x1 SLOAD AND GAS CALL PUSH2 0x7BD PUSH2 0x3E33 JUMP JUMPDEST POP ISZERO PUSH2 0x7F1 JUMPI PUSH1 0x20 PUSH32 0x43F607A14D3B4F0A11A0B2E192BBFCD894298BA5ABF22553BE6081406DB28AA SWAP2 PUSH1 0x40 MLOAD SWAP1 DUP2 MSTORE LOG1 DUP1 RETURN JUMPDEST PUSH4 0xB12D13EB PUSH1 0xE0 SHL DUP3 MSTORE PUSH1 0x4 DUP3 REVERT JUMPDEST PUSH4 0x61655153 PUSH1 0xE1 SHL DUP3 MSTORE PUSH1 0x4 DUP3 REVERT JUMPDEST POP CALLVALUE PUSH2 0x3BD JUMPI PUSH2 0x81E CALLDATASIZE PUSH2 0x3C52 JUMP JUMPDEST PUSH2 0x826 PUSH2 0x41C4 JUMP JUMPDEST PUSH1 0x1 PUSH1 0x1 PUSH1 0xA0 SHL SUB AND SWAP1 DUP2 ISZERO PUSH2 0x8AA JUMPI PUSH2 0x83F DUP2 PUSH2 0x3C24 JUMP JUMPDEST DUP1 SLOAD PUSH1 0x1 PUSH1 0x1 PUSH1 0xA0 SHL SUB NOT AND DUP4 OR SWAP1 SSTORE DUP2 DUP4 MSTORE PUSH1 0x8 PUSH1 0x20 MSTORE PUSH1 0x40 DUP4 KECCAK256 DUP1 SLOAD PUSH1 0xFF NOT AND PUSH1 0x1 OR SWAP1 SSTORE PUSH1 0x2 DUP2 LT ISZERO PUSH2 0x896 JUMPI PUSH32 0x1E7261F9F5E3815CA6AC940D15B46FF8FE93774A027CCFB4D5AD34DA3234F032 DUP4 DUP1 LOG3 DUP1 RETURN JUMPDEST PUSH4 0x4E487B71 PUSH1 0xE0 SHL DUP4 MSTORE PUSH1 0x21 PUSH1 0x4 MSTORE PUSH1 0x24 DUP4 REVERT JUMPDEST PUSH4 0x466D7FEF PUSH1 0xE0 SHL DUP4 MSTORE PUSH1 0x4 DUP4 REVERT JUMPDEST POP CALLVALUE PUSH2 0x3BD JUMPI PUSH1 0x80 CALLDATASIZE PUSH1 0x3 NOT ADD SLT PUSH2 0x3BD JUMPI PUSH1 0x4 CALLDATALOAD PUSH1 0x1 PUSH1 0x1 PUSH1 0x40 SHL SUB DUP2 GT PUSH2 0x5BA JUMPI PUSH2 0x8EA SWAP1 CALLDATASIZE SWAP1 PUSH1 0x4 ADD PUSH2 0x3B2F JUMP JUMPDEST SWAP1 SWAP2 PUSH1 0x24 CALLDATALOAD PUSH1 0x1 PUSH1 0x1 PUSH1 0x40 SHL SUB DUP2 GT PUSH2 0x5BA JUMPI PUSH2 0x90B SWAP1 CALLDATASIZE SWAP1 PUSH1 0x4 ADD PUSH2 0x3B2F JUMP JUMPDEST PUSH1 0x44 CALLDATALOAD PUSH1 0x1 PUSH1 0x1 PUSH1 0x40 SHL SUB DUP2 GT PUSH2 0xDE9 JUMPI PUSH2 0x92A SWAP1 CALLDATASIZE SWAP1 PUSH1 0x4 ADD PUSH2 0x3B2F JUMP JUMPDEST PUSH1 0x64 SWAP3 SWAP2 SWAP3 CALLDATALOAD PUSH1 0x1 PUSH1 0x1 PUSH1 0x40 SHL SUB DUP2 GT PUSH2 0xDE5 JUMPI PUSH2 0x94C SWAP1 CALLDATASIZE SWAP1 PUSH1 0x4 ADD PUSH2 0x3B2F JUMP JUMPDEST SWAP3 SWAP1 SWAP8 PUSH2 0x957 PUSH2 0x41C4 JUMP JUMPDEST DUP2 DUP9 EQ DUP1 ISZERO SWAP1 PUSH2 0xDDB JUMPI JUMPDEST DUP1 ISZERO PUSH2 0xDD1 JUMPI JUMPDEST PUSH2 0xDC2 JUMPI DUP7 JUMPDEST DUP9 DUP2 LT ISZERO PUSH2 0xDBE JUMPI DUP1 PUSH1 0x5 SHL DUP3 ADD CALLDATALOAD PUSH1 0x1E NOT DUP4 CALLDATASIZE SUB ADD DUP2 SLT ISZERO PUSH2 0xDBA JUMPI DUP3 ADD PUSH1 0x1 PUSH1 0x1 PUSH1 0x40 SHL SUB DUP2 CALLDATALOAD GT PUSH2 0xDBA JUMPI DUP1 CALLDATALOAD PUSH1 0x5 SHL CALLDATASIZE SUB PUSH1 0x20 DUP3 ADD SGT PUSH2 0xDBA JUMPI PUSH2 0x9B8 DUP3 DUP6 DUP11 PUSH2 0x3DFB JUMP JUMPDEST CALLDATALOAD PUSH2 0x9C4 DUP4 DUP8 DUP11 PUSH2 0x3DFB JUMP JUMPDEST CALLDATALOAD SWAP1 PUSH1 0x2 DUP3 LT ISZERO PUSH2 0xDB6 JUMPI PUSH2 0x9DA DUP5 DUP10 DUP16 PUSH2 0x3DFB JUMP JUMPDEST CALLDATALOAD PUSH1 0x2 DUP2 LT ISZERO PUSH2 0xDB2 JUMPI PUSH1 0x2 DUP5 CALLDATALOAD LT DUP1 ISZERO PUSH2 0xDA7 JUMPI JUMPDEST PUSH2 0xD98 JUMPI DUP4 CALLDATALOAD ISZERO PUSH2 0xD84 JUMPI PUSH2 0xA07 PUSH1 0x20 DUP6 ADD PUSH2 0x3E1F JUMP JUMPDEST DUP5 CALLDATALOAD PUSH0 NOT DUP2 ADD GT PUSH2 0xD70 JUMPI PUSH1 0x1 PUSH1 0x1 PUSH1 0xA0 SHL SUB PUSH2 0xA30 PUSH2 0x690 DUP8 CALLDATALOAD PUSH0 NOT DUP2 ADD SWAP1 PUSH1 0x20 DUP11 ADD PUSH2 0x3DFB JUMP JUMPDEST AND PUSH1 0x1 PUSH1 0x1 PUSH1 0xA0 SHL SUB SWAP1 SWAP2 AND SUB PUSH2 0xD61 JUMPI PUSH1 0x1 PUSH1 0x1 PUSH1 0xA0 SHL SUB PUSH2 0xA52 DUP5 PUSH2 0x3C24 JUMP JUMPDEST SLOAD AND ISZERO PUSH2 0xD52 JUMPI PUSH1 0x1 PUSH1 0x1 PUSH1 0xA0 SHL SUB PUSH2 0xA6A DUP3 PUSH2 0x3C24 JUMP JUMPDEST SLOAD AND ISZERO PUSH2 0xD52 JUMPI DUP12 JUMPDEST DUP5 CALLDATALOAD DUP2 LT PUSH2 0xC03 JUMPI POP PUSH2 0xAC4 PUSH1 0x1E SLOAD SWAP2 PUSH2 0xABB PUSH1 0x40 MLOAD SWAP6 PUSH2 0xA93 DUP8 PUSH2 0x3CB1 JUMP JUMPDEST DUP5 DUP8 MSTORE PUSH2 0xAA5 CALLDATASIZE DUP10 CALLDATALOAD PUSH1 0x20 DUP12 ADD PUSH2 0x3D1F JUMP JUMPDEST SWAP6 PUSH1 0x20 DUP9 ADD SWAP7 DUP8 MSTORE PUSH1 0x40 DUP9 ADD MSTORE PUSH1 0x60 DUP8 ADD PUSH2 0x3E71 JUMP JUMPDEST PUSH1 0x80 DUP6 ADD PUSH2 0x3E71 JUMP JUMPDEST DUP12 MSTORE PUSH1 0x1D PUSH1 0x20 MSTORE PUSH1 0x40 DUP12 KECCAK256 SWAP1 DUP3 MLOAD DUP3 SSTORE MLOAD DUP1 MLOAD SWAP1 PUSH1 0x1 PUSH1 0x1 PUSH1 0x40 SHL SUB DUP3 GT PUSH2 0xBEF JUMPI PUSH1 0x20 SWAP1 PUSH2 0xAF6 DUP4 PUSH1 0x1 DUP7 ADD PUSH2 0x4066 JUMP JUMPDEST ADD PUSH1 0x1 DUP4 ADD DUP14 MSTORE PUSH1 0x20 DUP14 KECCAK256 DUP14 JUMPDEST DUP4 DUP2 LT PUSH2 0xBD2 JUMPI POP POP POP POP PUSH1 0x3 SWAP1 PUSH1 0x40 DUP4 ADD MLOAD PUSH1 0x2 DUP3 ADD SSTORE ADD SWAP1 PUSH1 0x60 DUP2 ADD MLOAD PUSH1 0x2 DUP2 LT ISZERO PUSH2 0xBBE JUMPI SWAP1 PUSH2 0xB38 PUSH1 0x80 SWAP3 DUP5 PUSH2 0x40AB JUMP JUMPDEST ADD MLOAD SWAP1 PUSH1 0x2 DUP3 LT ISZERO PUSH2 0xBAA JUMPI PUSH1 0x20 SWAP3 SWAP2 PUSH2 0xB51 SWAP2 PUSH2 0x40C3 JUMP JUMPDEST PUSH32 0x43AFC9E063BEAEA4354EC60D8BC6C76E9BA2376CA51443FC69A6EFD689A7282A PUSH1 0x1E SLOAD SWAP3 DUP4 SWAP3 PUSH1 0x40 MLOAD SWAP1 CALLDATALOAD DUP2 MSTORE LOG2 PUSH0 NOT DUP2 EQ PUSH2 0xB96 JUMPI PUSH1 0x1 SWAP1 DUP2 ADD PUSH1 0x1E SSTORE ADD PUSH2 0x96F JUMP JUMPDEST PUSH4 0x4E487B71 PUSH1 0xE0 SHL DUP10 MSTORE PUSH1 0x11 PUSH1 0x4 MSTORE PUSH1 0x24 DUP10 REVERT JUMPDEST PUSH4 0x4E487B71 PUSH1 0xE0 SHL DUP12 MSTORE PUSH1 0x21 PUSH1 0x4 MSTORE PUSH1 0x24 DUP12 REVERT JUMPDEST PUSH4 0x4E487B71 PUSH1 0xE0 SHL DUP13 MSTORE PUSH1 0x21 PUSH1 0x4 MSTORE PUSH1 0x24 DUP13 REVERT JUMPDEST DUP3 MLOAD PUSH1 0x1 PUSH1 0x1 PUSH1 0xA0 SHL SUB AND DUP2 DUP4 ADD SSTORE PUSH1 0x20 SWAP1 SWAP3 ADD SWAP2 PUSH1 0x1 ADD PUSH2 0xB03 JUMP JUMPDEST PUSH4 0x4E487B71 PUSH1 0xE0 SHL DUP14 MSTORE PUSH1 0x41 PUSH1 0x4 MSTORE PUSH1 0x24 DUP14 REVERT JUMPDEST SWAP14 SWAP6 SWAP7 DUP5 DUP16 SWAP14 SWAP15 SWAP7 SWAP11 SWAP4 SWAP10 SWAP3 SWAP13 SWAP6 SWAP14 PUSH2 0x690 PUSH2 0xC2F SWAP2 PUSH1 0x1 SWAP8 SWAP15 SWAP8 DUP1 PUSH1 0xA0 SHL SUB SWAP4 PUSH1 0x20 DUP2 CALLDATALOAD SWAP2 ADD PUSH2 0x3DFB JUMP JUMPDEST AND ISZERO PUSH2 0xD43 JUMPI PUSH2 0xC6A DUP16 PUSH2 0x690 DUP16 SWAP2 DUP3 PUSH1 0x20 PUSH2 0xC4D SWAP5 CALLDATALOAD SWAP2 ADD PUSH2 0x3DFB JUMP JUMPDEST PUSH1 0x1 PUSH1 0x1 PUSH1 0xA0 SHL SUB AND PUSH0 SWAP1 DUP2 MSTORE PUSH1 0x2 PUSH1 0x20 MSTORE PUSH1 0x40 SWAP1 KECCAK256 SLOAD PUSH1 0xFF AND SWAP1 JUMP JUMPDEST ISZERO PUSH2 0xD34 JUMPI DUP15 PUSH1 0x1 DUP2 ADD LT PUSH2 0xD20 JUMPI PUSH1 0x1 DUP16 ADD JUMPDEST DUP14 CALLDATALOAD PUSH0 NOT DUP2 ADD GT PUSH2 0xD0C JUMPI DUP14 CALLDATALOAD PUSH0 NOT ADD DUP2 LT ISZERO PUSH2 0xCF2 JUMPI DUP16 PUSH2 0xCAA DUP16 SWAP2 PUSH2 0x690 SWAP1 DUP4 CALLDATALOAD PUSH1 0x20 DUP6 ADD PUSH2 0x3DFB JUMP JUMPDEST SWAP1 PUSH1 0x1 PUSH1 0x1 PUSH1 0xA0 SHL SUB SWAP1 PUSH2 0xCC9 SWAP1 PUSH2 0x690 SWAP1 DUP6 SWAP1 DUP1 CALLDATALOAD SWAP1 PUSH1 0x20 ADD PUSH2 0x3DFB JUMP JUMPDEST PUSH1 0x1 PUSH1 0x1 PUSH1 0xA0 SHL SUB SWAP1 SWAP3 AND SWAP2 AND EQ PUSH2 0xCE3 JUMPI PUSH1 0x1 ADD PUSH2 0xC7E JUMP JUMPDEST PUSH4 0x13721E61 PUSH1 0xE1 SHL DUP16 MSTORE PUSH1 0x4 DUP16 REVERT JUMPDEST POP SWAP7 SWAP6 SWAP14 PUSH1 0x1 SWAP1 SWAP14 SWAP13 SWAP5 SWAP12 SWAP2 SWAP9 SWAP3 SWAP10 SWAP6 SWAP14 SWAP11 SWAP4 SWAP11 ADD PUSH2 0xA73 JUMP JUMPDEST PUSH4 0x4E487B71 PUSH1 0xE0 SHL DUP16 MSTORE PUSH1 0x11 PUSH1 0x4 MSTORE PUSH1 0x24 DUP16 REVERT JUMPDEST PUSH4 0x4E487B71 PUSH1 0xE0 SHL DUP15 MSTORE PUSH1 0x11 PUSH1 0x4 MSTORE PUSH1 0x24 DUP15 REVERT JUMPDEST PUSH4 0x350B9441 PUSH1 0xE1 SHL DUP15 MSTORE PUSH1 0x4 DUP15 REVERT JUMPDEST PUSH4 0xF580583 PUSH1 0xE1 SHL DUP15 MSTORE PUSH1 0x4 DUP15 REVERT JUMPDEST PUSH4 0x2A4251F7 PUSH1 0xE2 SHL DUP13 MSTORE PUSH1 0x4 DUP13 REVERT JUMPDEST PUSH4 0xB6E9E57 PUSH1 0xE2 SHL DUP13 MSTORE PUSH1 0x4 DUP13 REVERT JUMPDEST PUSH4 0x4E487B71 PUSH1 0xE0 SHL DUP14 MSTORE PUSH1 0x11 PUSH1 0x4 MSTORE PUSH1 0x24 DUP14 REVERT JUMPDEST PUSH4 0x4E487B71 PUSH1 0xE0 SHL DUP13 MSTORE PUSH1 0x32 PUSH1 0x4 MSTORE PUSH1 0x24 DUP13 REVERT JUMPDEST PUSH4 0x66B045FF PUSH1 0xE1 SHL DUP13 MSTORE PUSH1 0x4 DUP13 REVERT JUMPDEST POP PUSH1 0x4 DUP5 CALLDATALOAD GT PUSH2 0x9F0 JUMP JUMPDEST DUP12 DUP1 REVERT JUMPDEST DUP11 DUP1 REVERT JUMPDEST DUP9 DUP1 REVERT JUMPDEST DUP8 DUP1 RETURN JUMPDEST PUSH4 0x512509D3 PUSH1 0xE1 SHL DUP8 MSTORE PUSH1 0x4 DUP8 REVERT JUMPDEST POP DUP4 DUP4 EQ ISZERO PUSH2 0x969 JUMP JUMPDEST POP DUP3 DUP3 EQ ISZERO PUSH2 0x962 JUMP JUMPDEST DUP6 DUP1 REVERT JUMPDEST DUP4 DUP1 REVERT JUMPDEST POP CALLVALUE PUSH2 0x3BD JUMPI DUP1 PUSH1 0x3 NOT CALLDATASIZE ADD SLT PUSH2 0x3BD JUMPI PUSH1 0x20 PUSH1 0x19 SLOAD PUSH1 0x40 MLOAD SWAP1 DUP2 MSTORE RETURN JUMPDEST POP CALLVALUE PUSH2 0x3BD JUMPI DUP1 PUSH1 0x3 NOT CALLDATASIZE ADD SLT PUSH2 0x3BD JUMPI PUSH1 0x20 PUSH1 0xF SLOAD PUSH1 0x40 MLOAD SWAP1 DUP2 MSTORE RETURN JUMPDEST POP CALLVALUE PUSH2 0x3BD JUMPI PUSH1 0x40 CALLDATASIZE PUSH1 0x3 NOT ADD SLT PUSH2 0x3BD JUMPI PUSH1 0x4 CALLDATALOAD PUSH1 0x1E SLOAD DUP1 DUP3 LT ISZERO PUSH2 0xF68 JUMPI PUSH2 0xE55 PUSH1 0x24 CALLDATALOAD DUP4 PUSH2 0x3F87 JUMP JUMPDEST SWAP1 DUP1 DUP3 GT PUSH2 0xF60 JUMPI JUMPDEST POP PUSH2 0xE69 DUP3 DUP3 PUSH2 0x3FA8 JUMP JUMPDEST SWAP2 PUSH2 0xE73 DUP4 PUSH2 0x3D08 JUMP JUMPDEST SWAP3 PUSH2 0xE81 PUSH1 0x40 MLOAD SWAP5 DUP6 PUSH2 0x3CE7 JUMP JUMPDEST DUP1 DUP5 MSTORE PUSH2 0xE90 PUSH1 0x1F NOT SWAP2 PUSH2 0x3D08 JUMP JUMPDEST ADD DUP5 JUMPDEST DUP2 DUP2 LT PUSH2 0xF49 JUMPI POP POP DUP1 JUMPDEST DUP3 DUP2 LT PUSH2 0xF0C JUMPI DUP4 DUP6 PUSH1 0x40 MLOAD SWAP2 DUP3 SWAP2 PUSH1 0x20 DUP4 ADD PUSH1 0x20 DUP5 MSTORE DUP3 MLOAD DUP1 SWAP2 MSTORE PUSH1 0x40 DUP5 ADD PUSH1 0x20 PUSH1 0x40 DUP4 PUSH1 0x5 SHL DUP8 ADD ADD SWAP5 ADD SWAP3 SWAP1 JUMPDEST DUP3 DUP3 LT PUSH2 0xEDD JUMPI POP POP POP POP SUB SWAP1 RETURN JUMPDEST SWAP2 SWAP4 PUSH1 0x1 SWAP2 SWAP4 SWAP6 POP PUSH1 0x20 PUSH2 0xEFC DUP2 SWAP3 PUSH1 0x3F NOT DUP11 DUP3 SUB ADD DUP7 MSTORE DUP9 MLOAD PUSH2 0x3D7A JUMP JUMPDEST SWAP7 ADD SWAP3 ADD SWAP3 ADD DUP6 SWAP5 SWAP4 SWAP2 SWAP3 PUSH2 0xECE JUMP JUMPDEST DUP1 PUSH1 0x1 SWAP2 DUP7 MSTORE PUSH1 0x1D PUSH1 0x20 MSTORE PUSH2 0xF42 PUSH1 0x40 DUP8 KECCAK256 PUSH2 0xF31 PUSH2 0xF2B DUP7 DUP6 PUSH2 0x3FA8 JUMP JUMPDEST SWAP2 PUSH2 0x3E7D JUMP JUMPDEST PUSH2 0xF3B DUP3 DUP10 PUSH2 0x4167 JUMP JUMPDEST MSTORE DUP7 PUSH2 0x4167 JUMP JUMPDEST POP ADD PUSH2 0xE9E JUMP JUMPDEST PUSH1 0x20 SWAP1 PUSH2 0xF54 PUSH2 0x4199 JUMP JUMPDEST DUP3 DUP3 DUP9 ADD ADD MSTORE ADD PUSH2 0xE93 JUMP JUMPDEST SWAP1 POP PUSH0 PUSH2 0xE5E JUMP JUMPDEST PUSH4 0x8F676F49 PUSH1 0xE0 SHL DUP4 MSTORE PUSH1 0x4 DUP4 REVERT JUMPDEST POP CALLVALUE PUSH2 0x3BD JUMPI DUP1 PUSH1 0x3 NOT CALLDATASIZE ADD SLT PUSH2 0x3BD JUMPI PUSH1 0x20 PUSH1 0x12 SLOAD PUSH1 0x40 MLOAD SWAP1 DUP2 MSTORE RETURN JUMPDEST POP CALLVALUE PUSH2 0x3BD JUMPI PUSH1 0x20 CALLDATASIZE PUSH1 0x3 NOT ADD SLT PUSH2 0x3BD JUMPI PUSH32 0x6CAF0E5993E373A80D1B08933A3A855A50EEE41CCEFC3425F05585826346CE37 PUSH1 0x20 PUSH1 0x4 CALLDATALOAD PUSH2 0xFD5 PUSH2 0x41C4 JUMP JUMPDEST DUP1 PUSH1 0x19 SSTORE PUSH1 0x40 MLOAD SWAP1 DUP2 MSTORE LOG1 DUP1 RETURN JUMPDEST POP CALLVALUE PUSH2 0x3BD JUMPI PUSH1 0x20 CALLDATASIZE PUSH1 0x3 NOT ADD SLT PUSH2 0x3BD JUMPI PUSH1 0x4 CALLDATALOAD PUSH1 0x1 PUSH1 0x1 PUSH1 0xA0 SHL SUB DUP2 AND SWAP1 DUP2 SWAP1 SUB PUSH2 0x5BA JUMPI PUSH2 0x1012 PUSH2 0x41C4 JUMP JUMPDEST DUP1 ISZERO PUSH2 0x102E JUMPI PUSH1 0x1 PUSH1 0x1 PUSH1 0x60 SHL SUB PUSH1 0xA0 SHL PUSH1 0x1F SLOAD AND OR PUSH1 0x1F SSTORE DUP1 RETURN JUMPDEST PUSH3 0x820F35 PUSH1 0xE6 SHL DUP3 MSTORE PUSH1 0x4 DUP3 REVERT JUMPDEST POP CALLVALUE PUSH2 0x3BD JUMPI DUP1 PUSH1 0x3 NOT CALLDATASIZE ADD SLT PUSH2 0x3BD JUMPI PUSH1 0x20 PUSH1 0xE SLOAD PUSH1 0x40 MLOAD SWAP1 DUP2 MSTORE RETURN JUMPDEST POP CALLVALUE PUSH2 0x3BD JUMPI DUP1 PUSH1 0x3 NOT CALLDATASIZE ADD SLT PUSH2 0x3BD JUMPI PUSH1 0x20 PUSH1 0xD SLOAD PUSH1 0x40 MLOAD SWAP1 DUP2 MSTORE RETURN JUMPDEST POP CALLVALUE PUSH2 0x3BD JUMPI DUP1 PUSH1 0x3 NOT CALLDATASIZE ADD SLT PUSH2 0x3BD JUMPI PUSH1 0x20 PUSH1 0x1E SLOAD PUSH1 0x40 MLOAD SWAP1 DUP2 MSTORE RETURN JUMPDEST POP CALLVALUE PUSH2 0x3BD JUMPI DUP1 PUSH1 0x3 NOT CALLDATASIZE ADD SLT PUSH2 0x3BD JUMPI PUSH1 0xA SLOAD PUSH1 0x40 MLOAD PUSH1 0x1 PUSH1 0x1 PUSH1 0xA0 SHL SUB SWAP1 SWAP2 AND DUP2 MSTORE PUSH1 0x20 SWAP1 RETURN JUMPDEST POP CALLVALUE PUSH2 0x3BD JUMPI PUSH1 0x20 CALLDATASIZE PUSH1 0x3 NOT ADD SLT PUSH2 0x3BD JUMPI PUSH1 0x20 SWAP1 PUSH1 0x1 PUSH1 0x1 PUSH1 0xA0 SHL SUB PUSH2 0x10E4 PUSH2 0x3B5F JUMP JUMPDEST AND DUP2 MSTORE PUSH1 0x4 DUP3 MSTORE PUSH1 0x40 PUSH1 0x1 DUP1 PUSH1 0xA0 SHL SUB SWAP2 KECCAK256 SLOAD AND PUSH1 0x40 MLOAD SWAP1 DUP2 MSTORE RETURN JUMPDEST POP CALLVALUE PUSH2 0x3BD JUMPI PUSH1 0x20 CALLDATASIZE PUSH1 0x3 NOT ADD SLT PUSH2 0x3BD JUMPI PUSH1 0x4 CALLDATALOAD PUSH2 0x111D PUSH2 0x41C4 JUMP JUMPDEST DUP1 ISZERO PUSH2 0x1155 JUMPI PUSH1 0x20 DUP2 PUSH32 0x8A9AAD99416BC5CF8E5E14F71AEB446C6C1CDCFB18998AC5C680C5F25EC31629 SWAP3 PUSH1 0x18 SSTORE PUSH1 0x40 MLOAD SWAP1 DUP2 MSTORE LOG1 DUP1 RETURN JUMPDEST PUSH4 0x162908E3 PUSH1 0xE1 SHL DUP3 MSTORE PUSH1 0x4 DUP3 REVERT JUMPDEST POP CALLVALUE PUSH2 0x3BD JUMPI PUSH1 0x80 CALLDATASIZE PUSH1 0x3 NOT ADD SLT PUSH2 0x3BD JUMPI PUSH1 0x4 CALLDATALOAD PUSH1 0x1 PUSH1 0x1 PUSH1 0x40 SHL SUB DUP2 GT PUSH2 0x5BA JUMPI CALLDATASIZE PUSH1 0x23 DUP3 ADD SLT ISZERO PUSH2 0x5BA JUMPI PUSH2 0x11A6 SWAP1 CALLDATASIZE SWAP1 PUSH1 0x24 DUP2 PUSH1 0x4 ADD CALLDATALOAD SWAP2 ADD PUSH2 0x3D1F JUMP JUMPDEST PUSH1 0x44 CALLDATALOAD SWAP2 SWAP1 PUSH1 0x24 CALLDATALOAD PUSH1 0x2 DUP5 LT ISZERO PUSH2 0x1A7D JUMPI PUSH1 0x64 CALLDATALOAD PUSH1 0x2 DUP2 LT ISZERO PUSH2 0xDE9 JUMPI DUP4 PUSH2 0x120 PUSH1 0x40 MLOAD PUSH2 0x11D3 DUP2 PUSH2 0x3C81 JUMP JUMPDEST DUP3 DUP2 MSTORE DUP3 PUSH1 0x20 DUP3 ADD MSTORE DUP3 PUSH1 0x40 DUP3 ADD MSTORE DUP3 PUSH1 0x60 DUP3 ADD MSTORE DUP3 PUSH1 0x80 DUP3 ADD MSTORE DUP3 PUSH1 0xA0 DUP3 ADD MSTORE DUP3 PUSH1 0xC0 DUP3 ADD MSTORE DUP3 PUSH1 0xE0 DUP3 ADD MSTORE DUP3 PUSH2 0x100 DUP3 ADD MSTORE ADD MSTORE DUP3 MLOAD PUSH1 0x2 DUP2 LT SWAP1 DUP2 ISZERO PUSH2 0x1A72 JUMPI JUMPDEST POP PUSH2 0x1A63 JUMPI DUP2 ISZERO PUSH2 0x1A54 JUMPI PUSH1 0x18 SLOAD DUP3 GT PUSH2 0x1A45 JUMPI PUSH1 0x1 PUSH1 0x1 PUSH1 0xA0 SHL SUB PUSH2 0x123C DUP5 PUSH2 0x414A JUMP JUMPDEST MLOAD AND DUP4 MLOAD PUSH0 NOT DUP2 ADD SWAP1 DUP2 GT PUSH2 0x1A31 JUMPI PUSH1 0x1 PUSH1 0x1 PUSH1 0xA0 SHL SUB SWAP1 PUSH2 0x125E SWAP1 DUP7 PUSH2 0x4167 JUMP JUMPDEST MLOAD AND SUB PUSH2 0x1A22 JUMPI DUP4 JUMPDEST DUP4 MLOAD DUP2 LT ISZERO PUSH2 0x12E8 JUMPI PUSH1 0x1 PUSH1 0x1 PUSH1 0xA0 SHL SUB PUSH2 0x1282 DUP3 DUP7 PUSH2 0x4167 JUMP JUMPDEST MLOAD AND ISZERO PUSH2 0x12D9 JUMPI PUSH2 0x12BD PUSH1 0x1 PUSH1 0x1 PUSH1 0xA0 SHL SUB PUSH2 0x129E DUP4 DUP8 PUSH2 0x4167 JUMP JUMPDEST MLOAD AND PUSH1 0x1 PUSH1 0x1 PUSH1 0xA0 SHL SUB AND PUSH0 SWAP1 DUP2 MSTORE PUSH1 0x2 PUSH1 0x20 MSTORE PUSH1 0x40 SWAP1 KECCAK256 SLOAD PUSH1 0xFF AND SWAP1 JUMP JUMPDEST ISZERO PUSH2 0x12CA JUMPI PUSH1 0x1 ADD PUSH2 0x1267 JUMP JUMPDEST PUSH4 0x350B9441 PUSH1 0xE1 SHL DUP6 MSTORE PUSH1 0x4 DUP6 REVERT JUMPDEST PUSH4 0xF580583 PUSH1 0xE1 SHL DUP6 MSTORE PUSH1 0x4 DUP6 REVERT JUMPDEST POP DUP4 DUP4 DUP7 PUSH1 0x1 PUSH1 0x1 PUSH1 0xA0 SHL SUB PUSH2 0x12FD DUP4 PUSH2 0x414A JUMP JUMPDEST MLOAD AND DUP3 MLOAD PUSH0 NOT DUP2 ADD SWAP1 DUP2 GT PUSH2 0x19EB JUMPI PUSH2 0x132E SWAP3 SWAP2 DUP8 SWAP2 PUSH1 0x1 PUSH1 0x1 PUSH1 0xA0 SHL SUB SWAP1 PUSH2 0x1326 SWAP1 DUP8 PUSH2 0x4167 JUMP JUMPDEST MLOAD AND SWAP1 PUSH2 0x4280 JUMP JUMPDEST SWAP3 DUP4 ISZERO PUSH2 0x19FF JUMPI DUP2 MLOAD PUSH0 NOT DUP2 ADD SWAP1 DUP2 GT PUSH2 0x1A0E JUMPI PUSH2 0x136F SWAP2 SWAP1 DUP6 SWAP1 PUSH1 0x1 PUSH1 0x1 PUSH1 0xA0 SHL SUB SWAP1 PUSH2 0x135C SWAP1 DUP7 PUSH2 0x4167 JUMP JUMPDEST MLOAD AND PUSH1 0x1 PUSH1 0x1 PUSH1 0xA0 SHL SUB PUSH2 0x1326 DUP7 PUSH2 0x414A JUMP JUMPDEST SWAP1 DUP2 ISZERO PUSH2 0x19FF JUMPI PUSH1 0x1 PUSH1 0x1 PUSH1 0xA0 SHL SUB PUSH2 0x1387 DUP3 PUSH2 0x414A JUMP JUMPDEST MLOAD AND DUP2 MLOAD PUSH0 NOT DUP2 ADD SWAP1 DUP2 GT PUSH2 0x19EB JUMPI PUSH1 0x1 PUSH1 0x1 PUSH1 0xA0 SHL SUB SWAP1 PUSH2 0x13A9 SWAP1 DUP5 PUSH2 0x4167 JUMP JUMPDEST MLOAD AND SWAP1 DUP5 PUSH1 0x60 PUSH1 0x40 MLOAD PUSH2 0x13BB DUP2 PUSH2 0x3CCC JUMP JUMPDEST DUP3 DUP2 MSTORE DUP3 PUSH1 0x20 DUP3 ADD MSTORE DUP3 PUSH1 0x40 DUP3 ADD MSTORE ADD MSTORE DUP1 DUP6 MSTORE PUSH1 0x3 PUSH1 0x20 MSTORE PUSH1 0x1 DUP1 PUSH1 0xA0 SHL SUB PUSH1 0x40 DUP7 KECCAK256 SLOAD AND ISZERO PUSH2 0x19DC JUMPI DUP2 DUP6 MSTORE PUSH1 0x3 PUSH1 0x20 MSTORE PUSH1 0x40 DUP6 KECCAK256 SLOAD PUSH1 0x1 PUSH1 0x1 PUSH1 0xA0 SHL SUB AND ISZERO PUSH2 0x19DC JUMPI DUP1 PUSH1 0x4 SWAP2 DUP7 MSTORE PUSH1 0x3 PUSH1 0x20 MSTORE PUSH1 0x1 DUP1 PUSH1 0xA0 SHL SUB PUSH1 0x40 DUP8 KECCAK256 SLOAD AND SWAP3 DUP1 DUP8 MSTORE PUSH1 0x3 PUSH1 0x20 MSTORE PUSH1 0xA0 PUSH1 0x1 DUP1 DUP3 SHL SUB PUSH1 0x40 DUP10 KECCAK256 SLOAD AND SWAP5 PUSH1 0x40 MLOAD SWAP5 DUP6 DUP1 SWAP3 PUSH4 0x3FABE5A3 PUSH1 0xE2 SHL DUP3 MSTORE GAS STATICCALL SWAP2 DUP3 ISZERO PUSH2 0x19D1 JUMPI DUP8 SWAP4 DUP9 SWAP4 PUSH2 0x19A2 JUMPI JUMPDEST POP PUSH1 0xA0 PUSH1 0x4 SWAP4 SWAP5 SWAP6 PUSH1 0x40 MLOAD SWAP5 DUP6 DUP1 SWAP3 PUSH4 0x3FABE5A3 PUSH1 0xE2 SHL DUP3 MSTORE GAS STATICCALL SWAP5 DUP6 ISZERO PUSH2 0x1997 JUMPI DUP9 SWAP4 DUP10 SWAP7 PUSH2 0x196D JUMPI JUMPDEST POP DUP9 DUP2 SGT DUP1 ISZERO SWAP1 PUSH2 0x1963 JUMPI JUMPDEST PUSH2 0x1955 JUMPI PUSH2 0x1499 DUP6 TIMESTAMP PUSH2 0x3FA8 JUMP JUMPDEST PUSH1 0x10 SLOAD DUP1 SWAP2 GT PUSH2 0x1946 JUMPI DUP1 PUSH2 0x14AE DUP9 TIMESTAMP PUSH2 0x3FA8 JUMP JUMPDEST GT PUSH2 0x1946 JUMPI PUSH1 0xFF PUSH1 0x1C SLOAD PUSH1 0x10 SHR AND PUSH2 0x1781 JUMPI JUMPDEST POP PUSH2 0x14D6 SWAP3 SWAP2 PUSH2 0x14D0 SWAP2 PUSH2 0x48E6 JUMP JUMPDEST SWAP3 PUSH2 0x48E6 JUMP JUMPDEST SWAP1 PUSH8 0xDE0B6B3A7640000 DUP2 MUL DUP2 DUP2 DIV PUSH8 0xDE0B6B3A7640000 EQ DUP3 ISZERO OR ISZERO PUSH2 0x176D JUMPI DUP3 PUSH2 0x1501 SWAP2 PUSH2 0x417B JUMP JUMPDEST SWAP2 PUSH8 0xDE0B6B3A7640000 DUP2 MUL SWAP1 DUP1 DUP3 DIV PUSH8 0xDE0B6B3A7640000 EQ SWAP1 ISZERO OR ISZERO PUSH2 0x176D JUMPI SWAP2 PUSH2 0x1536 PUSH2 0x1569 SWAP3 PUSH2 0x1574 SWAP7 SWAP6 SWAP5 PUSH2 0x417B JUMP JUMPDEST SWAP1 PUSH5 0xFFFFFFFFFF PUSH1 0x40 MLOAD SWAP6 PUSH2 0x154A DUP8 PUSH2 0x3CCC JUMP JUMPDEST DUP3 DUP8 MSTORE DUP2 PUSH1 0x20 DUP9 ADD SWAP7 DUP6 DUP9 MSTORE AND PUSH1 0x40 DUP9 ADD MSTORE AND PUSH1 0x60 DUP7 ADD MSTORE DUP10 DUP12 PUSH2 0x42E9 JUMP JUMPDEST MLOAD SWAP1 MLOAD SWAP1 DUP5 DUP8 PUSH2 0x42E9 JUMP JUMPDEST MLOAD PUSH1 0x2 DUP2 LT DUP1 ISZERO PUSH2 0x1763 JUMPI JUMPDEST PUSH2 0x1754 JUMPI PUSH0 NOT DUP2 ADD SWAP1 DUP2 GT PUSH2 0x1740 JUMPI DUP1 PUSH3 0x186A0 MUL SWAP1 PUSH3 0x186A0 DUP3 DIV SUB PUSH2 0x1740 JUMPI PUSH3 0x61A80 ADD DUP1 PUSH3 0x61A80 GT PUSH2 0x1740 JUMPI PUSH4 0x3B9ACA00 PUSH2 0x15D2 PUSH2 0x2710 PUSH2 0x15C7 PUSH1 0x16 SLOAD DUP10 PUSH2 0x4053 JUMP JUMPDEST DIV SWAP3 PUSH1 0x17 SLOAD SWAP1 PUSH2 0x4053 JUMP JUMPDEST DIV SWAP1 PUSH2 0x2710 PUSH2 0x15E3 PUSH1 0x14 SLOAD DUP9 PUSH2 0x4053 JUMP JUMPDEST DIV PUSH2 0x2710 PUSH2 0x15F3 PUSH1 0x15 SLOAD DUP10 PUSH2 0x4053 JUMP JUMPDEST DIV SWAP1 PUSH2 0x160C DUP3 PUSH2 0x1607 DUP4 PUSH2 0x1607 DUP9 DUP9 PUSH2 0x3F87 JUMP JUMPDEST PUSH2 0x3F87 JUMP JUMPDEST SWAP4 DUP9 DUP7 GT ISZERO PUSH2 0x1739 JUMPI PUSH2 0x161F DUP10 DUP8 PUSH2 0x3FA8 JUMP JUMPDEST SWAP4 JUMPDEST DUP6 DUP6 LT PUSH2 0x1732 JUMPI PUSH2 0x1632 DUP7 DUP7 PUSH2 0x3FA8 JUMP JUMPDEST SWAP7 JUMPDEST DUP8 ISZERO DUP1 ISZERO SWAP10 DUP11 PUSH2 0x16EC JUMPI JUMPDEST POP POP PUSH2 0x140 SWAP11 POP DUP9 PUSH2 0x16DF JUMPI JUMPDEST PUSH2 0x120 PUSH1 0x40 MLOAD PUSH2 0x165B DUP2 PUSH2 0x3C81 JUMP JUMPDEST DUP12 DUP2 MSTORE PUSH1 0x20 DUP2 ADD SWAP3 DUP4 MSTORE PUSH1 0x40 DUP2 ADD SWAP4 DUP5 MSTORE PUSH1 0x60 DUP2 ADD SWAP5 DUP6 MSTORE PUSH1 0x80 DUP2 ADD SWAP6 DUP7 MSTORE PUSH1 0xA0 DUP2 ADD SWAP7 DUP8 MSTORE PUSH1 0xC0 DUP2 ADD SWAP8 DUP9 MSTORE PUSH1 0xE0 DUP2 ADD SWAP9 DUP10 MSTORE PUSH2 0x100 DUP2 ADD SWAP10 DUP11 MSTORE ADD SWAP9 ISZERO ISZERO DUP10 MSTORE PUSH1 0x40 MLOAD SWAP10 DUP11 MSTORE MLOAD PUSH1 0x20 DUP11 ADD MSTORE MLOAD PUSH1 0x40 DUP10 ADD MSTORE MLOAD PUSH1 0x60 DUP9 ADD MSTORE MLOAD PUSH1 0x80 DUP8 ADD MSTORE MLOAD PUSH1 0xA0 DUP7 ADD MSTORE MLOAD PUSH1 0xC0 DUP6 ADD MSTORE MLOAD PUSH1 0xE0 DUP5 ADD MSTORE MLOAD PUSH2 0x100 DUP4 ADD MSTORE MLOAD ISZERO ISZERO PUSH2 0x120 DUP3 ADD MSTORE RETURN JUMPDEST PUSH1 0x19 SLOAD DUP9 LT ISZERO SWAP9 POP PUSH2 0x164C JUMP JUMPDEST SWAP1 SWAP2 SWAP10 POP PUSH2 0x2710 DUP10 MUL SWAP2 DUP10 DUP4 DIV PUSH2 0x2710 EQ OR ISZERO PUSH2 0x171E JUMPI POP PUSH2 0x140 SWAP11 PUSH2 0x1711 SWAP2 PUSH2 0x417B JUMP JUMPDEST PUSH1 0xC SLOAD GT ISZERO SWAP8 DUP12 DUP1 PUSH2 0x163F JUMP JUMPDEST PUSH4 0x4E487B71 PUSH1 0xE0 SHL DUP2 MSTORE PUSH1 0x11 PUSH1 0x4 MSTORE PUSH1 0x24 SWAP1 REVERT JUMPDEST DUP8 SWAP7 PUSH2 0x1634 JUMP JUMPDEST DUP7 SWAP4 PUSH2 0x1621 JUMP JUMPDEST PUSH4 0x4E487B71 PUSH1 0xE0 SHL DUP4 MSTORE PUSH1 0x11 PUSH1 0x4 MSTORE PUSH1 0x24 DUP4 REVERT JUMPDEST PUSH4 0x66B045FF PUSH1 0xE1 SHL DUP4 MSTORE PUSH1 0x4 DUP4 REVERT JUMPDEST POP PUSH1 0x4 DUP2 GT PUSH2 0x1580 JUMP JUMPDEST PUSH4 0x4E487B71 PUSH1 0xE0 SHL DUP9 MSTORE PUSH1 0x11 PUSH1 0x4 MSTORE PUSH1 0x24 DUP9 REVERT JUMPDEST DUP3 DUP11 MSTORE PUSH1 0x4 PUSH1 0x20 DUP2 DUP2 MSTORE PUSH1 0x40 DUP1 DUP14 KECCAK256 SLOAD DUP8 DUP15 MSTORE SWAP3 SWAP1 SWAP2 MSTORE DUP12 KECCAK256 SLOAD PUSH1 0x1 PUSH1 0x1 PUSH1 0xA0 SHL SUB SWAP1 DUP2 AND SWAP2 AND DUP1 ISZERO ISZERO DUP1 PUSH2 0x193D JUMPI JUMPDEST PUSH2 0x17BD JUMPI JUMPDEST POP POP PUSH2 0x14C1 JUMP JUMPDEST SWAP1 PUSH1 0xA0 PUSH1 0x4 SWAP4 SWAP3 PUSH1 0x40 MLOAD SWAP5 DUP6 DUP1 SWAP3 PUSH4 0x3FABE5A3 PUSH1 0xE2 SHL DUP3 MSTORE GAS STATICCALL SWAP1 DUP2 ISZERO PUSH2 0x1932 JUMPI DUP13 SWAP4 DUP14 SWAP3 PUSH2 0x1907 JUMPI JUMPDEST POP SWAP1 PUSH1 0xA0 PUSH1 0x4 SWAP3 PUSH1 0x40 MLOAD SWAP4 DUP5 DUP1 SWAP3 PUSH4 0x3FABE5A3 PUSH1 0xE2 SHL DUP3 MSTORE GAS STATICCALL SWAP2 DUP3 ISZERO PUSH2 0x18FC JUMPI SWAP1 DUP14 SWAP5 SWAP4 SWAP3 SWAP2 DUP6 SWAP3 PUSH2 0x18C3 JUMPI JUMPDEST POP DUP14 DUP5 SGT DUP1 ISZERO SWAP1 PUSH2 0x18B9 JUMPI JUMPDEST PUSH2 0x18AB JUMPI PUSH2 0x1830 DUP4 SWAP2 TIMESTAMP PUSH2 0x3FA8 JUMP JUMPDEST GT PUSH2 0x189C JUMPI PUSH2 0x183F SWAP1 TIMESTAMP PUSH2 0x3FA8 JUMP JUMPDEST GT PUSH2 0x188D JUMPI PUSH2 0x1851 PUSH2 0x1858 SWAP2 DUP5 PUSH2 0x4959 JUMP JUMPDEST SWAP2 DUP7 PUSH2 0x4959 JUMP JUMPDEST PUSH1 0x12 SLOAD DUP1 SWAP3 GT PUSH2 0x187E JUMPI GT PUSH2 0x186F JUMPI DUP12 DUP1 DUP1 PUSH2 0x17B6 JUMP JUMPDEST PUSH4 0x16977B95 PUSH1 0xE0 SHL DUP10 MSTORE PUSH1 0x4 DUP10 REVERT JUMPDEST PUSH4 0x16977B95 PUSH1 0xE0 SHL DUP12 MSTORE PUSH1 0x4 DUP12 REVERT JUMPDEST PUSH4 0x7ABDC0F PUSH1 0xE1 SHL DUP12 MSTORE PUSH1 0x4 DUP12 REVERT JUMPDEST PUSH4 0x7ABDC0F PUSH1 0xE1 SHL DUP14 MSTORE PUSH1 0x4 DUP14 REVERT JUMPDEST PUSH3 0xFC7CAD PUSH1 0xE5 SHL DUP15 MSTORE PUSH1 0x4 DUP15 REVERT JUMPDEST POP DUP14 DUP6 SGT ISZERO PUSH2 0x1821 JUMP JUMPDEST SWAP1 SWAP5 POP PUSH2 0x18E8 SWAP2 POP PUSH1 0xA0 RETURNDATASIZE PUSH1 0xA0 GT PUSH2 0x18F5 JUMPI JUMPDEST PUSH2 0x18E0 DUP2 DUP4 PUSH2 0x3CE7 JUMP JUMPDEST DUP2 ADD SWAP1 PUSH2 0x42B7 JUMP JUMPDEST POP SWAP6 SWAP3 POP POP SWAP4 SWAP1 PUSH0 PUSH2 0x1815 JUMP JUMPDEST POP RETURNDATASIZE PUSH2 0x18D6 JUMP JUMPDEST PUSH1 0x40 MLOAD RETURNDATASIZE DUP16 DUP3 RETURNDATACOPY RETURNDATASIZE SWAP1 REVERT JUMPDEST PUSH1 0xA0 SWAP5 POP PUSH1 0x4 SWAP3 POP PUSH2 0x1925 SWAP1 DUP6 RETURNDATASIZE DUP8 GT PUSH2 0x18F5 JUMPI PUSH2 0x18E0 DUP2 DUP4 PUSH2 0x3CE7 JUMP JUMPDEST POP SWAP7 SWAP3 POP POP SWAP5 SWAP3 POP PUSH2 0x17E7 JUMP JUMPDEST PUSH1 0x40 MLOAD RETURNDATASIZE DUP15 DUP3 RETURNDATACOPY RETURNDATASIZE SWAP1 REVERT JUMPDEST POP DUP2 ISZERO ISZERO PUSH2 0x17B1 JUMP JUMPDEST PUSH4 0x1087E109 PUSH1 0xE0 SHL DUP11 MSTORE PUSH1 0x4 DUP11 REVERT JUMPDEST PUSH3 0xFC7CAD PUSH1 0xE5 SHL DUP10 MSTORE PUSH1 0x4 DUP10 REVERT JUMPDEST POP DUP9 DUP5 SGT ISZERO PUSH2 0x148B JUMP JUMPDEST SWAP1 SWAP6 POP PUSH2 0x198A SWAP2 SWAP4 POP PUSH1 0xA0 RETURNDATASIZE PUSH1 0xA0 GT PUSH2 0x18F5 JUMPI PUSH2 0x18E0 DUP2 DUP4 PUSH2 0x3CE7 JUMP JUMPDEST POP SWAP5 SWAP3 POP POP SWAP3 SWAP5 DUP12 PUSH2 0x147F JUMP JUMPDEST PUSH1 0x40 MLOAD RETURNDATASIZE DUP11 DUP3 RETURNDATACOPY RETURNDATASIZE SWAP1 REVERT JUMPDEST PUSH1 0xA0 SWAP6 SWAP5 POP PUSH1 0x4 SWAP4 POP PUSH2 0x19C1 SWAP1 DUP7 RETURNDATASIZE DUP9 GT PUSH2 0x18F5 JUMPI PUSH2 0x18E0 DUP2 DUP4 PUSH2 0x3CE7 JUMP JUMPDEST POP SWAP8 SWAP3 POP POP SWAP6 SWAP4 POP SWAP5 SWAP4 SWAP5 PUSH2 0x1454 JUMP JUMPDEST PUSH1 0x40 MLOAD RETURNDATASIZE DUP10 DUP3 RETURNDATACOPY RETURNDATASIZE SWAP1 REVERT JUMPDEST PUSH4 0xFB94C4ED PUSH1 0xE0 SHL DUP6 MSTORE PUSH1 0x4 DUP6 REVERT JUMPDEST PUSH4 0x4E487B71 PUSH1 0xE0 SHL DUP6 MSTORE PUSH1 0x11 PUSH1 0x4 MSTORE PUSH1 0x24 DUP6 REVERT JUMPDEST PUSH4 0x38920627 PUSH1 0xE1 SHL DUP4 MSTORE PUSH1 0x4 DUP4 REVERT JUMPDEST PUSH4 0x4E487B71 PUSH1 0xE0 SHL DUP5 MSTORE PUSH1 0x11 PUSH1 0x4 MSTORE PUSH1 0x24 DUP5 REVERT JUMPDEST PUSH4 0xB6E9E57 PUSH1 0xE2 SHL DUP5 MSTORE PUSH1 0x4 DUP5 REVERT JUMPDEST PUSH4 0x4E487B71 PUSH1 0xE0 SHL DUP7 MSTORE PUSH1 0x11 PUSH1 0x4 MSTORE PUSH1 0x24 DUP7 REVERT JUMPDEST PUSH4 0x499E7985 PUSH1 0xE0 SHL DUP5 MSTORE PUSH1 0x4 DUP5 REVERT JUMPDEST PUSH4 0x162908E3 PUSH1 0xE1 SHL DUP5 MSTORE PUSH1 0x4 DUP5 REVERT JUMPDEST PUSH4 0x66B045FF PUSH1 0xE1 SHL DUP5 MSTORE PUSH1 0x4 DUP5 REVERT JUMPDEST PUSH1 0x4 SWAP2 POP GT PUSH0 PUSH2 0x1217 JUMP JUMPDEST DUP3 DUP1 REVERT JUMPDEST POP CALLVALUE PUSH2 0x3BD JUMPI PUSH1 0x60 CALLDATASIZE PUSH1 0x3 NOT ADD SLT PUSH2 0x3BD JUMPI PUSH1 0x4 CALLDATALOAD PUSH1 0x44 CALLDATALOAD PUSH1 0x24 CALLDATALOAD PUSH2 0x1AA4 PUSH2 0x41C4 JUMP JUMPDEST DUP3 ISZERO PUSH2 0x1A54 JUMPI PUSH2 0x2710 DUP2 GT PUSH2 0x1B02 JUMPI PUSH2 0x2710 DUP3 GT PUSH2 0x1B02 JUMPI SWAP2 PUSH1 0x60 SWAP2 PUSH32 0xC4BA1D97BC3B0F4500ED11CD963F8E6D5F9F47AD9E7E42160E8167E607859C92 SWAP4 DUP3 PUSH1 0x10 SSTORE DUP1 PUSH1 0x11 SSTORE DUP2 PUSH1 0x12 SSTORE PUSH1 0x40 MLOAD SWAP3 DUP4 MSTORE PUSH1 0x20 DUP4 ADD MSTORE PUSH1 0x40 DUP3 ADD MSTORE LOG1 DUP1 RETURN JUMPDEST PUSH4 0xC6CC5D7F PUSH1 0xE0 SHL DUP5 MSTORE PUSH1 0x4 DUP5 REVERT JUMPDEST POP CALLVALUE PUSH2 0x3BD JUMPI DUP1 PUSH1 0x3 NOT CALLDATASIZE ADD SLT PUSH2 0x3BD JUMPI PUSH1 0x20 PUSH1 0xFF PUSH1 0x1C SLOAD PUSH1 0x18 SHR AND PUSH1 0x40 MLOAD SWAP1 ISZERO ISZERO DUP2 MSTORE RETURN JUMPDEST POP CALLVALUE PUSH2 0x3BD JUMPI PUSH1 0x40 CALLDATASIZE PUSH1 0x3 NOT ADD SLT PUSH2 0x3BD JUMPI PUSH2 0x1B51 PUSH2 0x3B5F JUMP JUMPDEST PUSH2 0x1B59 PUSH2 0x3B9A JUMP JUMPDEST SWAP1 PUSH2 0x1B62 PUSH2 0x41C4 JUMP JUMPDEST PUSH1 0x1 PUSH1 0x1 PUSH1 0xA0 SHL SUB AND SWAP1 DUP2 ISZERO PUSH2 0x1BC2 JUMPI PUSH1 0x20 PUSH32 0x4E64F955F4C1A97A6779D936A2FE8F59E1674F3E1A4C883736B9131969860A89 SWAP2 DUP4 DUP6 MSTORE PUSH1 0x2 DUP3 MSTORE PUSH2 0x1BB6 DUP2 PUSH1 0x40 DUP8 KECCAK256 SWAP1 PUSH1 0xFF DUP1 NOT DUP4 SLOAD AND SWAP2 ISZERO ISZERO AND OR SWAP1 SSTORE JUMP JUMPDEST PUSH1 0x40 MLOAD SWAP1 ISZERO ISZERO DUP2 MSTORE LOG2 DUP1 RETURN JUMPDEST PUSH4 0xC1AB6DC1 PUSH1 0xE0 SHL DUP4 MSTORE PUSH1 0x4 DUP4 REVERT JUMPDEST POP CALLVALUE PUSH2 0x3BD JUMPI PUSH1 0x20 CALLDATASIZE PUSH1 0x3 NOT ADD SLT PUSH2 0x3BD JUMPI PUSH1 0x20 SWAP1 PUSH1 0x1 PUSH1 0x1 PUSH1 0xA0 SHL SUB PUSH2 0x1BF6 PUSH2 0x3B5F JUMP JUMPDEST AND DUP2 MSTORE PUSH1 0x3 DUP3 MSTORE PUSH1 0x40 PUSH1 0x1 DUP1 PUSH1 0xA0 SHL SUB SWAP2 KECCAK256 SLOAD AND PUSH1 0x40 MLOAD SWAP1 DUP2 MSTORE RETURN JUMPDEST POP CALLVALUE PUSH2 0x3BD JUMPI PUSH2 0x1C21 CALLDATASIZE PUSH2 0x3C52 JUMP JUMPDEST PUSH2 0x1C29 PUSH2 0x41C4 JUMP JUMPDEST PUSH1 0x1 PUSH1 0x1 PUSH1 0xA0 SHL SUB AND SWAP1 DUP2 ISZERO PUSH2 0x1C82 JUMPI PUSH2 0x1C42 DUP2 PUSH2 0x3C3B JUMP JUMPDEST DUP1 SLOAD PUSH1 0x1 PUSH1 0x1 PUSH1 0xA0 SHL SUB NOT AND DUP4 OR SWAP1 SSTORE PUSH1 0x2 DUP2 LT ISZERO PUSH2 0x896 JUMPI PUSH32 0x57192F60821083A491842D60A388A6427B0B757E252DCA6E02933C473A93CEE4 DUP4 DUP1 LOG3 DUP1 RETURN JUMPDEST PUSH4 0xC3A97787 PUSH1 0xE0 SHL DUP4 MSTORE PUSH1 0x4 DUP4 REVERT JUMPDEST POP CALLVALUE PUSH2 0x3BD JUMPI DUP1 PUSH1 0x3 NOT CALLDATASIZE ADD SLT PUSH2 0x3BD JUMPI PUSH1 0x20 PUSH1 0x1B SLOAD PUSH1 0x40 MLOAD SWAP1 DUP2 MSTORE RETURN JUMPDEST POP CALLVALUE PUSH2 0x3BD JUMPI PUSH1 0x20 CALLDATASIZE PUSH1 0x3 NOT ADD SLT PUSH2 0x3BD JUMPI PUSH1 0x4 CALLDATALOAD PUSH2 0x1CCC PUSH2 0x41C4 JUMP JUMPDEST PUSH1 0x1E SLOAD DUP1 DUP3 LT ISZERO PUSH2 0xF68 JUMPI PUSH0 NOT DUP2 ADD SWAP1 DUP2 GT PUSH2 0x1740 JUMPI DUP1 DUP3 SUB PUSH2 0x1D7B JUMPI JUMPDEST POP PUSH1 0x1E SLOAD PUSH0 NOT DUP2 ADD SWAP1 DUP2 GT PUSH2 0x1740 JUMPI DUP3 MSTORE PUSH1 0x1D PUSH1 0x20 MSTORE DUP2 PUSH1 0x40 DUP2 KECCAK256 DUP2 DUP2 SSTORE PUSH1 0x1 DUP2 ADD DUP1 SLOAD SWAP1 DUP4 DUP2 SSTORE DUP2 PUSH2 0x1D5B JUMPI JUMPDEST POP POP DUP1 DUP3 PUSH1 0x2 PUSH1 0x3 SWAP4 ADD SSTORE ADD SSTORE PUSH1 0x1E SLOAD DUP1 ISZERO PUSH2 0x1740 JUMPI PUSH0 NOT ADD PUSH1 0x1E SSTORE PUSH32 0xB951847F829979E971D5CE4C1F1B122A2E98F1D0C39E395AAEBFF750DA9F86BF DUP3 DUP1 LOG2 DUP1 RETURN JUMPDEST DUP4 MSTORE PUSH1 0x20 DUP4 KECCAK256 SWAP1 DUP2 ADD SWAP1 JUMPDEST DUP2 DUP2 LT ISZERO PUSH2 0x1D18 JUMPI SWAP3 DUP4 SSTORE DUP5 SWAP3 PUSH1 0x1 ADD PUSH2 0x1D66 JUMP JUMPDEST DUP3 MSTORE PUSH1 0x1D PUSH1 0x20 MSTORE PUSH1 0x40 DUP3 KECCAK256 DUP2 DUP4 MSTORE PUSH1 0x1D PUSH1 0x20 MSTORE PUSH1 0x40 DUP4 KECCAK256 SWAP1 DUP1 DUP3 SUB PUSH2 0x1DB1 JUMPI JUMPDEST POP POP DUP1 DUP3 MSTORE PUSH1 0x1D PUSH1 0x20 MSTORE DUP1 PUSH1 0x40 DUP4 KECCAK256 SSTORE PUSH0 PUSH2 0x1CEA JUMP JUMPDEST PUSH1 0xFF PUSH1 0x3 DUP1 PUSH2 0x1DF3 SWAP5 DUP5 SLOAD DUP2 SSTORE PUSH2 0x1DCE PUSH1 0x1 DUP7 ADD PUSH1 0x1 DUP4 ADD PUSH2 0x40E2 JUMP JUMPDEST PUSH1 0x2 DUP6 ADD SLOAD PUSH1 0x2 DUP3 ADD SSTORE ADD SWAP3 ADD PUSH2 0x1DE8 DUP3 DUP3 SLOAD AND DUP5 PUSH2 0x40AB JUMP JUMPDEST SLOAD PUSH1 0x8 SHR AND SWAP1 PUSH2 0x40C3 JUMP JUMPDEST PUSH0 DUP1 PUSH2 0x1D9B JUMP JUMPDEST POP CALLVALUE PUSH2 0x3BD JUMPI PUSH1 0x40 CALLDATASIZE PUSH1 0x3 NOT ADD SLT PUSH2 0x3BD JUMPI PUSH2 0x1E14 PUSH2 0x3B5F JUMP JUMPDEST PUSH2 0x1E1C PUSH2 0x3B75 JUMP JUMPDEST SWAP1 PUSH2 0x1E25 PUSH2 0x41C4 JUMP JUMPDEST PUSH1 0x1 PUSH1 0x1 PUSH1 0xA0 SHL SUB AND SWAP1 DUP2 ISZERO PUSH2 0x1E94 JUMPI PUSH1 0x1 PUSH1 0x1 PUSH1 0xA0 SHL SUB AND SWAP1 DUP2 ISZERO PUSH2 0x1BC2 JUMPI DUP1 PUSH1 0x1 PUSH1 0x1 PUSH1 0x60 SHL SUB PUSH1 0xA0 SHL PUSH1 0xA SLOAD AND OR PUSH1 0xA SSTORE DUP2 PUSH1 0x1 PUSH1 0x1 PUSH1 0x60 SHL SUB PUSH1 0xA0 SHL PUSH1 0xB SLOAD AND OR PUSH1 0xB SSTORE PUSH32 0xFCFCEDFAFA92882DEF30B16E239A0C0512FD0CB251876B2709BE862356873E89 DUP4 DUP1 LOG3 DUP1 RETURN JUMPDEST PUSH4 0x3B136DC1 PUSH1 0xE1 SHL DUP4 MSTORE PUSH1 0x4 DUP4 REVERT JUMPDEST POP CALLVALUE PUSH2 0x3BD JUMPI PUSH1 0x40 CALLDATASIZE PUSH1 0x3 NOT ADD SLT PUSH2 0x3BD JUMPI PUSH2 0x1EBD PUSH2 0x3B5F JUMP JUMPDEST PUSH2 0x1EC5 PUSH2 0x3B9A JUMP JUMPDEST SWAP1 PUSH2 0x1ECE PUSH2 0x41C4 JUMP JUMPDEST PUSH1 0x1 PUSH1 0x1 PUSH1 0xA0 SHL SUB AND SWAP1 DUP2 ISZERO PUSH2 0x8AA JUMPI PUSH1 0x20 PUSH32 0xCF2B36BF2AA8353623D06F58EAB9577176D9214E588362C013A7EEB0586463F1 SWAP2 DUP4 DUP6 MSTORE PUSH1 0x8 DUP3 MSTORE PUSH2 0x1BB6 DUP2 PUSH1 0x40 DUP8 KECCAK256 SWAP1 PUSH1 0xFF DUP1 NOT DUP4 SLOAD AND SWAP2 ISZERO ISZERO AND OR SWAP1 SSTORE JUMP JUMPDEST POP CALLVALUE PUSH2 0x3BD JUMPI PUSH1 0x20 CALLDATASIZE PUSH1 0x3 NOT ADD SLT PUSH2 0x3BD JUMPI PUSH1 0x20 SWAP1 PUSH1 0xFF SWAP1 PUSH1 0x40 SWAP1 PUSH1 0x1 PUSH1 0x1 PUSH1 0xA0 SHL SUB PUSH2 0x1F4D PUSH2 0x3B5F JUMP JUMPDEST AND DUP2 MSTORE PUSH1 0x5 DUP5 MSTORE KECCAK256 SLOAD AND PUSH1 0x40 MLOAD SWAP1 DUP2 MSTORE RETURN JUMPDEST POP CALLVALUE PUSH2 0x3BD JUMPI DUP1 PUSH1 0x3 NOT CALLDATASIZE ADD SLT PUSH2 0x3BD JUMPI PUSH1 0x1 SLOAD PUSH1 0x40 MLOAD PUSH1 0x1 PUSH1 0x1 PUSH1 0xA0 SHL SUB SWAP1 SWAP2 AND DUP2 MSTORE PUSH1 0x20 SWAP1 RETURN JUMPDEST POP CALLVALUE PUSH2 0x3BD JUMPI DUP1 PUSH1 0x3 NOT CALLDATASIZE ADD SLT PUSH2 0x3BD JUMPI PUSH1 0x20 PUSH1 0x11 SLOAD PUSH1 0x40 MLOAD SWAP1 DUP2 MSTORE RETURN JUMPDEST POP CALLVALUE PUSH2 0x3BD JUMPI DUP1 PUSH1 0x3 NOT CALLDATASIZE ADD SLT PUSH2 0x3BD JUMPI PUSH1 0x1F SLOAD PUSH1 0x40 MLOAD PUSH1 0x1 PUSH1 0x1 PUSH1 0xA0 SHL SUB SWAP1 SWAP2 AND DUP2 MSTORE PUSH1 0x20 SWAP1 RETURN JUMPDEST POP CALLVALUE PUSH2 0x3BD JUMPI PUSH1 0x20 CALLDATASIZE PUSH1 0x3 NOT ADD SLT PUSH2 0x3BD JUMPI PUSH32 0xEA86E89CF5FBA25D3B8F536E16C9354E32E76BA51D17E76899351A91F64F945D PUSH1 0x20 PUSH2 0x200C PUSH2 0x3B8B JUMP JUMPDEST PUSH2 0x2014 PUSH2 0x41C4 JUMP JUMPDEST ISZERO ISZERO PUSH1 0x1C SLOAD PUSH2 0xFF00 DUP3 PUSH1 0x8 SHL AND SWAP1 PUSH2 0xFF00 NOT AND OR PUSH1 0x1C SSTORE PUSH1 0x40 MLOAD SWAP1 DUP2 MSTORE LOG1 DUP1 RETURN JUMPDEST POP CALLVALUE PUSH2 0x3BD JUMPI PUSH1 0x20 CALLDATASIZE PUSH1 0x3 NOT ADD SLT PUSH2 0x3BD JUMPI PUSH32 0x16AFAE5B6EF5F079DC6A18D4AE705F5D2DB0FC0831B74DEE550D9FC0F80EB5DD PUSH1 0x20 PUSH2 0x2072 PUSH2 0x3B8B JUMP JUMPDEST PUSH2 0x207A PUSH2 0x41C4 JUMP JUMPDEST ISZERO ISZERO PUSH1 0xFF NOT PUSH1 0x1C SLOAD AND PUSH1 0xFF DUP3 AND OR PUSH1 0x1C SSTORE PUSH1 0x40 MLOAD SWAP1 DUP2 MSTORE LOG1 DUP1 RETURN JUMPDEST POP CALLVALUE PUSH2 0x3BD JUMPI PUSH1 0xA0 CALLDATASIZE PUSH1 0x3 NOT ADD SLT PUSH2 0x3BD JUMPI PUSH1 0x4 CALLDATALOAD PUSH1 0x24 CALLDATALOAD PUSH1 0x1 PUSH1 0x1 PUSH1 0x40 SHL SUB DUP2 GT PUSH2 0x1A7D JUMPI PUSH2 0x20C9 SWAP1 CALLDATASIZE SWAP1 PUSH1 0x4 ADD PUSH2 0x3B2F JUMP JUMPDEST SWAP1 PUSH1 0x64 CALLDATALOAD SWAP1 PUSH1 0x2 DUP3 LT ISZERO PUSH2 0x2401 JUMPI PUSH1 0x84 CALLDATALOAD SWAP1 PUSH1 0x2 DUP3 LT ISZERO PUSH2 0xDE5 JUMPI PUSH2 0x20EC PUSH2 0x41C4 JUMP JUMPDEST PUSH1 0x2 DUP5 LT DUP1 ISZERO PUSH2 0x23F7 JUMPI JUMPDEST PUSH2 0x23E8 JUMPI PUSH1 0x1E SLOAD DUP6 LT ISZERO PUSH2 0x23D9 JUMPI DUP4 ISZERO PUSH2 0x23C5 JUMPI PUSH2 0x2114 DUP2 PUSH2 0x3E1F JUMP JUMPDEST PUSH0 NOT DUP6 ADD DUP6 DUP2 GT SWAP2 DUP3 PUSH2 0xB96 JUMPI PUSH1 0x1 PUSH1 0x1 PUSH1 0xA0 SHL SUB PUSH2 0x2137 PUSH2 0x690 DUP5 DUP11 DUP9 PUSH2 0x3DFB JUMP JUMPDEST AND PUSH1 0x1 PUSH1 0x1 PUSH1 0xA0 SHL SUB SWAP1 SWAP2 AND SUB PUSH2 0x23B6 JUMPI PUSH1 0x1 PUSH1 0x1 PUSH1 0xA0 SHL SUB PUSH2 0x2159 DUP7 PUSH2 0x3C24 JUMP JUMPDEST SLOAD AND ISZERO PUSH2 0x23A7 JUMPI PUSH1 0x1 PUSH1 0x1 PUSH1 0xA0 SHL SUB PUSH2 0x2171 DUP6 PUSH2 0x3C24 JUMP JUMPDEST SLOAD AND ISZERO PUSH2 0x23A7 JUMPI DUP8 SWAP1 JUMPDEST DUP7 DUP3 LT PUSH2 0x22D2 JUMPI POP POP POP PUSH2 0x21A0 PUSH1 0x40 MLOAD SWAP2 PUSH2 0x2195 DUP4 PUSH2 0x3CB1 JUMP JUMPDEST DUP7 DUP4 MSTORE DUP6 CALLDATASIZE SWAP2 PUSH2 0x3D1F JUMP JUMPDEST PUSH1 0x20 DUP3 ADD SWAP1 DUP2 MSTORE PUSH1 0x40 DUP3 ADD SWAP1 PUSH1 0x44 CALLDATALOAD DUP3 MSTORE PUSH2 0x21BF PUSH1 0x60 DUP5 ADD SWAP6 DUP7 PUSH2 0x3E71 JUMP JUMPDEST PUSH2 0x21CD PUSH1 0x80 DUP5 ADD SWAP5 DUP6 PUSH2 0x3E71 JUMP JUMPDEST DUP7 DUP9 MSTORE PUSH1 0x1D PUSH1 0x20 MSTORE PUSH1 0x40 DUP9 KECCAK256 SWAP3 MLOAD DUP4 SSTORE MLOAD DUP1 MLOAD SWAP1 PUSH1 0x1 DUP5 ADD SWAP1 PUSH1 0x1 PUSH1 0x1 PUSH1 0x40 SHL SUB DUP4 GT PUSH2 0x22BE JUMPI PUSH1 0x20 SWAP1 PUSH2 0x2201 DUP5 DUP5 PUSH2 0x4066 JUMP JUMPDEST ADD SWAP1 DUP10 MSTORE PUSH1 0x20 DUP10 KECCAK256 DUP10 JUMPDEST DUP4 DUP2 LT PUSH2 0x22A1 JUMPI POP POP POP POP SWAP1 PUSH1 0x3 SWAP2 MLOAD PUSH1 0x2 DUP3 ADD SSTORE ADD SWAP2 MLOAD PUSH1 0x2 DUP2 LT ISZERO PUSH2 0x228D JUMPI PUSH2 0x2236 SWAP1 DUP4 PUSH2 0x40AB JUMP JUMPDEST MLOAD SWAP1 PUSH1 0x2 DUP3 LT ISZERO PUSH2 0x2279 JUMPI SWAP2 PUSH2 0x226F PUSH1 0x20 SWAP3 PUSH32 0x43AFC9E063BEAEA4354EC60D8BC6C76E9BA2376CA51443FC69A6EFD689A7282A SWAP5 PUSH2 0x40C3 JUMP JUMPDEST PUSH1 0x40 MLOAD SWAP1 DUP2 MSTORE LOG2 DUP1 RETURN JUMPDEST PUSH4 0x4E487B71 PUSH1 0xE0 SHL DUP6 MSTORE PUSH1 0x21 PUSH1 0x4 MSTORE PUSH1 0x24 DUP6 REVERT JUMPDEST PUSH4 0x4E487B71 PUSH1 0xE0 SHL DUP7 MSTORE PUSH1 0x21 PUSH1 0x4 MSTORE PUSH1 0x24 DUP7 REVERT JUMPDEST DUP3 MLOAD PUSH1 0x1 PUSH1 0x1 PUSH1 0xA0 SHL SUB AND DUP2 DUP4 ADD SSTORE PUSH1 0x20 SWAP1 SWAP3 ADD SWAP2 PUSH1 0x1 ADD PUSH2 0x220B JUMP JUMPDEST PUSH4 0x4E487B71 PUSH1 0xE0 SHL DUP11 MSTORE PUSH1 0x41 PUSH1 0x4 MSTORE PUSH1 0x24 DUP11 REVERT JUMPDEST SWAP2 SWAP8 SWAP7 SWAP3 SWAP5 SWAP1 SWAP4 SWAP2 SWAP3 SWAP2 PUSH1 0x1 PUSH1 0x1 PUSH1 0xA0 SHL SUB PUSH2 0x22F2 PUSH2 0x690 DUP8 DUP11 DUP11 PUSH2 0x3DFB JUMP JUMPDEST AND ISZERO PUSH2 0x2398 JUMPI PUSH2 0x2309 PUSH2 0xC4D PUSH2 0x690 DUP8 DUP11 DUP11 PUSH2 0x3DFB JUMP JUMPDEST ISZERO PUSH2 0x2389 JUMPI PUSH1 0x1 DUP6 ADD DUP1 DUP7 GT PUSH2 0xB96 JUMPI DUP10 JUMPDEST PUSH2 0xB96 JUMPI DUP5 DUP2 LT ISZERO PUSH2 0x2375 JUMPI PUSH2 0x2335 PUSH2 0x690 DUP8 DUP11 DUP11 PUSH2 0x3DFB JUMP JUMPDEST PUSH1 0x1 PUSH1 0x1 PUSH1 0xA0 SHL SUB PUSH2 0x234B PUSH2 0x690 DUP5 DUP13 DUP13 PUSH2 0x3DFB JUMP JUMPDEST PUSH1 0x1 PUSH1 0x1 PUSH1 0xA0 SHL SUB SWAP1 SWAP3 AND SWAP2 AND EQ PUSH2 0x2366 JUMPI PUSH1 0x1 ADD DUP10 PUSH2 0x231B JUMP JUMPDEST PUSH4 0x13721E61 PUSH1 0xE1 SHL DUP10 MSTORE PUSH1 0x4 DUP10 REVERT JUMPDEST POP SWAP4 PUSH1 0x1 SWAP1 SWAP9 SWAP3 SWAP8 SWAP9 SWAP6 SWAP4 SWAP2 SWAP6 ADD SWAP1 PUSH2 0x217B JUMP JUMPDEST PUSH4 0x350B9441 PUSH1 0xE1 SHL DUP9 MSTORE PUSH1 0x4 DUP9 REVERT JUMPDEST PUSH4 0xF580583 PUSH1 0xE1 SHL DUP9 MSTORE PUSH1 0x4 DUP9 REVERT JUMPDEST PUSH4 0x2A4251F7 PUSH1 0xE2 SHL DUP9 MSTORE PUSH1 0x4 DUP9 REVERT JUMPDEST PUSH4 0xB6E9E57 PUSH1 0xE2 SHL DUP9 MSTORE PUSH1 0x4 DUP9 REVERT JUMPDEST PUSH4 0x4E487B71 PUSH1 0xE0 SHL DUP7 MSTORE PUSH1 0x32 PUSH1 0x4 MSTORE PUSH1 0x24 DUP7 REVERT JUMPDEST PUSH4 0x8F676F49 PUSH1 0xE0 SHL DUP7 MSTORE PUSH1 0x4 DUP7 REVERT JUMPDEST PUSH4 0x66B045FF PUSH1 0xE1 SHL DUP7 MSTORE PUSH1 0x4 DUP7 REVERT JUMPDEST POP PUSH1 0x4 DUP5 GT PUSH2 0x20F7 JUMP JUMPDEST DUP5 DUP1 REVERT JUMPDEST POP CALLVALUE PUSH2 0x3BD JUMPI PUSH1 0x20 CALLDATASIZE PUSH1 0x3 NOT ADD SLT PUSH2 0x3BD JUMPI PUSH1 0x20 PUSH2 0x2429 PUSH2 0x2424 PUSH2 0x3B5F JUMP JUMPDEST PUSH2 0x3FC2 JUMP JUMPDEST PUSH1 0xFF PUSH1 0x40 MLOAD SWAP2 AND DUP2 MSTORE RETURN JUMPDEST POP CALLVALUE PUSH2 0x3BD JUMPI PUSH1 0x20 CALLDATASIZE PUSH1 0x3 NOT ADD SLT PUSH2 0x3BD JUMPI PUSH1 0x4 CALLDATALOAD PUSH1 0x2 DUP2 LT ISZERO PUSH2 0x5BA JUMPI PUSH1 0x20 SWAP1 PUSH1 0x1 PUSH1 0x1 PUSH1 0xA0 SHL SUB SWAP1 PUSH2 0x644 SWAP1 PUSH2 0x3C24 JUMP JUMPDEST POP CALLVALUE PUSH2 0x3BD JUMPI PUSH1 0x40 CALLDATASIZE PUSH1 0x3 NOT ADD SLT PUSH2 0x3BD JUMPI PUSH2 0x2481 PUSH2 0x3B5F JUMP JUMPDEST PUSH2 0x2489 PUSH2 0x3B75 JUMP JUMPDEST SWAP1 PUSH2 0x2492 PUSH2 0x41C4 JUMP JUMPDEST PUSH1 0x1 PUSH1 0x1 PUSH1 0xA0 SHL SUB AND SWAP1 DUP2 ISZERO PUSH2 0x1BC2 JUMPI PUSH1 0x1 PUSH1 0x1 PUSH1 0xA0 SHL SUB AND SWAP1 DUP2 ISZERO PUSH2 0x24F5 JUMPI DUP1 DUP4 MSTORE PUSH1 0x3 PUSH1 0x20 MSTORE PUSH1 0x40 DUP4 KECCAK256 DUP1 SLOAD PUSH1 0x1 PUSH1 0x1 PUSH1 0xA0 SHL SUB NOT AND DUP4 OR SWAP1 SSTORE PUSH32 0xD2D8394CF7549A5DDBC2BA3DD7B2DE8D53C891472D1F2907008ED6A10045FDAE DUP4 DUP1 LOG3 DUP1 RETURN JUMPDEST PUSH4 0x1F86E17 PUSH1 0xE4 SHL DUP4 MSTORE PUSH1 0x4 DUP4 REVERT JUMPDEST POP CALLVALUE PUSH2 0x3BD JUMPI PUSH1 0x20 CALLDATASIZE PUSH1 0x3 NOT ADD SLT PUSH2 0x3BD JUMPI PUSH1 0x20 PUSH2 0x2523 PUSH2 0xC4D PUSH2 0x3B5F JUMP JUMPDEST PUSH1 0x40 MLOAD SWAP1 ISZERO ISZERO DUP2 MSTORE RETURN JUMPDEST POP CALLVALUE PUSH2 0x3BD JUMPI DUP1 PUSH1 0x3 NOT CALLDATASIZE ADD SLT PUSH2 0x3BD JUMPI PUSH1 0x20 PUSH1 0x18 SLOAD PUSH1 0x40 MLOAD SWAP1 DUP2 MSTORE RETURN JUMPDEST POP CALLVALUE PUSH2 0x3BD JUMPI PUSH1 0x20 CALLDATASIZE PUSH1 0x3 NOT ADD SLT PUSH2 0x3BD JUMPI PUSH1 0x40 PUSH1 0x80 SWAP2 PUSH1 0x4 CALLDATALOAD DUP2 MSTORE PUSH1 0x1D PUSH1 0x20 MSTORE KECCAK256 PUSH2 0x25A9 DUP2 SLOAD SWAP2 PUSH1 0x3 PUSH1 0x2 DUP3 ADD SLOAD SWAP2 ADD SLOAD SWAP1 PUSH1 0x40 MLOAD SWAP4 DUP5 MSTORE PUSH1 0x20 DUP5 ADD MSTORE PUSH2 0x2599 PUSH1 0x40 DUP5 ADD PUSH1 0xFF DUP4 AND PUSH2 0x3C17 JUMP JUMPDEST PUSH1 0xFF PUSH1 0x60 DUP5 ADD SWAP2 PUSH1 0x8 SHR AND PUSH2 0x3C17 JUMP JUMPDEST RETURN JUMPDEST POP CALLVALUE PUSH2 0x3BD JUMPI DUP1 PUSH1 0x3 NOT CALLDATASIZE ADD SLT PUSH2 0x3BD JUMPI PUSH2 0x25C4 PUSH2 0x41C4 JUMP JUMPDEST PUSH1 0x1 DUP1 SLOAD PUSH1 0x1 PUSH1 0x1 PUSH1 0xA0 SHL SUB NOT DUP2 AND SWAP1 SWAP2 SSTORE DUP2 SWAP1 PUSH1 0x1 PUSH1 0x1 PUSH1 0xA0 SHL SUB AND PUSH32 0x8BE0079C531659141344CD1FD0A4F28419497F9722A3DAAFE3B4186F6B6457E0 DUP3 DUP1 LOG3 DUP1 RETURN JUMPDEST POP CALLVALUE PUSH2 0x3BD JUMPI PUSH1 0x20 CALLDATASIZE PUSH1 0x3 NOT ADD SLT PUSH2 0x3BD JUMPI PUSH2 0x2622 PUSH2 0x3B5F JUMP JUMPDEST PUSH2 0x262A PUSH2 0x41C4 JUMP JUMPDEST PUSH1 0x1 PUSH1 0x1 PUSH1 0xA0 SHL SUB AND DUP1 ISZERO PUSH2 0x26F7 JUMPI PUSH1 0x40 MLOAD PUSH4 0x70A08231 PUSH1 0xE0 SHL DUP2 MSTORE ADDRESS PUSH1 0x4 DUP3 ADD MSTORE PUSH1 0x20 DUP2 PUSH1 0x24 DUP2 DUP6 GAS STATICCALL SWAP1 DUP2 ISZERO PUSH2 0x26EC JUMPI DUP4 SWAP2 PUSH2 0x26B6 JUMPI JUMPDEST POP DUP1 ISZERO PUSH2 0x26A7 JUMPI PUSH1 0x1 SLOAD PUSH32 0x23D6711A1D031134A36921253C75AA59E967D38E369AC625992824315E204F20 SWAP2 PUSH1 0x20 SWAP2 PUSH2 0x226F SWAP1 DUP3 SWAP1 PUSH1 0x1 PUSH1 0x1 PUSH1 0xA0 SHL SUB AND DUP7 PUSH2 0x41EB JUMP JUMPDEST PUSH4 0x61655153 PUSH1 0xE1 SHL DUP4 MSTORE PUSH1 0x4 DUP4 REVERT JUMPDEST SWAP1 POP PUSH1 0x20 DUP2 RETURNDATASIZE PUSH1 0x20 GT PUSH2 0x26E4 JUMPI JUMPDEST DUP2 PUSH2 0x26D1 PUSH1 0x20 SWAP4 DUP4 PUSH2 0x3CE7 JUMP JUMPDEST DUP2 ADD SUB SLT PUSH2 0x26E0 JUMPI MLOAD PUSH0 PUSH2 0x2663 JUMP JUMPDEST PUSH0 DUP1 REVERT JUMPDEST RETURNDATASIZE SWAP2 POP PUSH2 0x26C4 JUMP JUMPDEST PUSH1 0x40 MLOAD RETURNDATASIZE DUP6 DUP3 RETURNDATACOPY RETURNDATASIZE SWAP1 REVERT JUMPDEST PUSH4 0xC1AB6DC1 PUSH1 0xE0 SHL DUP3 MSTORE PUSH1 0x4 DUP3 REVERT JUMPDEST POP CALLVALUE PUSH2 0x3BD JUMPI PUSH2 0x2715 CALLDATASIZE PUSH2 0x3BF9 JUMP JUMPDEST SWAP4 SWAP3 SWAP1 PUSH2 0x2720 PUSH2 0x41C4 JUMP JUMPDEST PUSH2 0x2710 DUP3 GT PUSH2 0x1B02 JUMPI PUSH2 0x2710 DUP4 GT PUSH2 0x1B02 JUMPI PUSH2 0x2710 DUP2 GT PUSH2 0x1B02 JUMPI DUP5 ISZERO PUSH2 0x1A54 JUMPI PUSH32 0x48CD2C7B7B236A850D5216488FE784FB3B0F4647DF68795DF7B66BCFCBFBFFDE SWAP4 SWAP5 PUSH2 0x279B SWAP2 DUP4 PUSH1 0x14 SSTORE DUP5 PUSH1 0x15 SSTORE DUP1 PUSH1 0x16 SSTORE DUP2 PUSH1 0x17 SSTORE PUSH1 0x40 MLOAD SWAP5 DUP6 SWAP5 DUP6 SWAP1 SWAP5 SWAP4 SWAP3 PUSH1 0x60 SWAP3 PUSH1 0x80 DUP4 ADD SWAP7 DUP4 MSTORE PUSH1 0x20 DUP4 ADD MSTORE PUSH1 0x40 DUP3 ADD MSTORE ADD MSTORE JUMP JUMPDEST SUB SWAP1 LOG1 DUP1 RETURN JUMPDEST POP CALLVALUE PUSH2 0x3BD JUMPI DUP1 PUSH1 0x3 NOT CALLDATASIZE ADD SLT PUSH2 0x3BD JUMPI PUSH1 0x20 PUSH1 0xFF PUSH1 0x1C SLOAD PUSH1 0x8 SHR AND PUSH1 0x40 MLOAD SWAP1 ISZERO ISZERO DUP2 MSTORE RETURN JUMPDEST POP CALLVALUE PUSH2 0x3BD JUMPI PUSH1 0x20 CALLDATASIZE PUSH1 0x3 NOT ADD SLT PUSH2 0x3BD JUMPI PUSH1 0x20 SWAP1 PUSH1 0xFF SWAP1 PUSH1 0x40 SWAP1 PUSH1 0x1 PUSH1 0x1 PUSH1 0xA0 SHL SUB PUSH2 0x27F2 PUSH2 0x3B5F JUMP JUMPDEST AND DUP2 MSTORE PUSH1 0x2 DUP5 MSTORE KECCAK256 SLOAD AND PUSH1 0x40 MLOAD SWAP1 ISZERO ISZERO DUP2 MSTORE RETURN JUMPDEST POP CALLVALUE PUSH2 0x3BD JUMPI PUSH2 0x2815 CALLDATASIZE PUSH2 0x3BF9 JUMP JUMPDEST SWAP4 SWAP3 SWAP1 PUSH2 0x2820 PUSH2 0x41C4 JUMP JUMPDEST PUSH2 0x2710 DUP3 GT PUSH2 0x1B02 JUMPI PUSH2 0x2710 DUP4 GT PUSH2 0x1B02 JUMPI DUP1 ISZERO PUSH2 0x1A54 JUMPI DUP5 ISZERO PUSH2 0x1A54 JUMPI PUSH32 0x5D3C7B528485E17FE0314971648177A48225C729BB2270E5426AD03876EB0889 SWAP4 SWAP5 PUSH2 0x279B SWAP2 DUP4 PUSH1 0xC SSTORE DUP5 PUSH1 0xD SSTORE DUP1 PUSH1 0xE SSTORE DUP2 PUSH1 0xF SSTORE PUSH1 0x40 MLOAD SWAP5 DUP6 SWAP5 DUP6 SWAP1 SWAP5 SWAP4 SWAP3 PUSH1 0x60 SWAP3 PUSH1 0x80 DUP4 ADD SWAP7 DUP4 MSTORE PUSH1 0x20 DUP4 ADD MSTORE PUSH1 0x40 DUP3 ADD MSTORE ADD MSTORE JUMP JUMPDEST POP CALLVALUE PUSH2 0x3BD JUMPI DUP1 PUSH1 0x3 NOT CALLDATASIZE ADD SLT PUSH2 0x3BD JUMPI PUSH1 0x20 PUSH1 0xFF PUSH1 0x1C SLOAD PUSH1 0x10 SHR AND PUSH1 0x40 MLOAD SWAP1 ISZERO ISZERO DUP2 MSTORE RETURN JUMPDEST POP CALLVALUE PUSH2 0x3BD JUMPI PUSH1 0x40 CALLDATASIZE PUSH1 0x3 NOT ADD SLT PUSH2 0x3BD JUMPI PUSH2 0x28D8 PUSH2 0x3B5F JUMP JUMPDEST PUSH1 0x24 CALLDATALOAD SWAP1 PUSH1 0xFF DUP3 AND DUP1 SWAP3 SUB PUSH2 0x1A7D JUMPI PUSH2 0x28EF PUSH2 0x41C4 JUMP JUMPDEST PUSH1 0x1 PUSH1 0x1 PUSH1 0xA0 SHL SUB AND SWAP1 DUP2 ISZERO PUSH2 0x1BC2 JUMPI PUSH1 0x20 PUSH32 0x30ADBAF26412995F345016C0844D56D7A715A5BD3B66BCF2AAAE58185D0EE0A8 SWAP2 DUP4 DUP6 MSTORE PUSH1 0x5 DUP3 MSTORE PUSH1 0x40 DUP6 KECCAK256 DUP2 PUSH1 0xFF NOT DUP3 SLOAD AND OR SWAP1 SSTORE PUSH1 0x40 MLOAD SWAP1 DUP2 MSTORE LOG2 DUP1 RETURN JUMPDEST POP CALLVALUE PUSH2 0x3BD JUMPI DUP1 PUSH1 0x3 NOT CALLDATASIZE ADD SLT PUSH2 0x3BD JUMPI PUSH1 0x20 PUSH1 0x16 SLOAD PUSH1 0x40 MLOAD SWAP1 DUP2 MSTORE RETURN JUMPDEST POP CALLVALUE PUSH2 0x3BD JUMPI DUP1 PUSH1 0x3 NOT CALLDATASIZE ADD SLT PUSH2 0x3BD JUMPI PUSH1 0x20 PUSH1 0x15 SLOAD PUSH1 0x40 MLOAD SWAP1 DUP2 MSTORE RETURN JUMPDEST POP CALLVALUE PUSH2 0x3BD JUMPI DUP1 PUSH1 0x3 NOT CALLDATASIZE ADD SLT PUSH2 0x3BD JUMPI PUSH1 0x20 PUSH1 0x14 SLOAD PUSH1 0x40 MLOAD SWAP1 DUP2 MSTORE RETURN JUMPDEST POP CALLVALUE PUSH2 0x3BD JUMPI PUSH1 0x20 CALLDATASIZE PUSH1 0x3 NOT ADD SLT PUSH2 0x3BD JUMPI PUSH1 0x4 CALLDATALOAD PUSH2 0x29B9 PUSH2 0x41C4 JUMP JUMPDEST PUSH2 0x1388 DUP2 GT PUSH2 0x29F4 JUMPI PUSH1 0x20 DUP2 PUSH32 0x3E92C8431D3AA0C589FF26250DD58A7A032B87A26DDB0E2A1DCB0C218DFA7928 SWAP3 PUSH1 0x1B SSTORE PUSH1 0x40 MLOAD SWAP1 DUP2 MSTORE LOG1 DUP1 RETURN JUMPDEST PUSH4 0x97DCE8A7 PUSH1 0xE0 SHL DUP3 MSTORE PUSH1 0x4 DUP3 REVERT JUMPDEST POP CALLVALUE PUSH2 0x3BD JUMPI DUP1 PUSH1 0x3 NOT CALLDATASIZE ADD SLT PUSH2 0x3BD JUMPI PUSH1 0xB SLOAD PUSH1 0x40 MLOAD PUSH1 0x1 PUSH1 0x1 PUSH1 0xA0 SHL SUB SWAP1 SWAP2 AND DUP2 MSTORE PUSH1 0x20 SWAP1 RETURN JUMPDEST POP CALLVALUE PUSH2 0x3BD JUMPI PUSH1 0x40 CALLDATASIZE PUSH1 0x3 NOT ADD SLT PUSH2 0x3BD JUMPI PUSH2 0x2A46 PUSH2 0x3B5F JUMP JUMPDEST PUSH2 0x2A4E PUSH2 0x3B75 JUMP JUMPDEST SWAP1 PUSH2 0x2A57 PUSH2 0x41C4 JUMP JUMPDEST PUSH1 0x1 PUSH1 0x1 PUSH1 0xA0 SHL SUB AND SWAP1 DUP2 ISZERO PUSH2 0x1BC2 JUMPI PUSH1 0x1 PUSH1 0x1 PUSH1 0xA0 SHL SUB AND SWAP1 DUP2 ISZERO PUSH2 0x24F5 JUMPI DUP1 DUP4 MSTORE PUSH1 0x4 PUSH1 0x20 MSTORE PUSH1 0x40 DUP4 KECCAK256 DUP1 SLOAD PUSH1 0x1 PUSH1 0x1 PUSH1 0xA0 SHL SUB NOT AND DUP4 OR SWAP1 SSTORE PUSH32 0xCFC624D946910F5098C5542F9FCFB7EB053A75EBD62A97A7BDAE8CCB27D7D08 DUP4 DUP1 LOG3 DUP1 RETURN JUMPDEST POP CALLVALUE PUSH2 0x3BD JUMPI DUP1 PUSH1 0x3 NOT CALLDATASIZE ADD SLT PUSH2 0x3BD JUMPI PUSH1 0x1A SLOAD PUSH1 0x40 MLOAD PUSH1 0x1 PUSH1 0x1 PUSH1 0xA0 SHL SUB SWAP1 SWAP2 AND DUP2 MSTORE PUSH1 0x20 SWAP1 RETURN JUMPDEST POP CALLVALUE PUSH2 0x3BD JUMPI DUP1 PUSH1 0x3 NOT CALLDATASIZE ADD SLT PUSH2 0x3BD JUMPI PUSH1 0x20 PUSH1 0xC SLOAD PUSH1 0x40 MLOAD SWAP1 DUP2 MSTORE RETURN JUMPDEST POP CALLVALUE PUSH2 0x3BD JUMPI PUSH2 0x2B10 CALLDATASIZE PUSH2 0x3BA9 JUMP JUMPDEST SWAP1 SWAP2 PUSH2 0x2B1A PUSH2 0x41C4 JUMP JUMPDEST DUP2 DUP2 SUB PUSH2 0x774 JUMPI DUP5 JUMPDEST DUP2 DUP2 LT PUSH2 0x2B2E JUMPI DUP6 DUP1 RETURN JUMPDEST PUSH1 0x1 PUSH1 0x1 PUSH1 0xA0 SHL SUB PUSH2 0x2B44 PUSH2 0x690 DUP4 DUP6 DUP10 PUSH2 0x3DFB JUMP JUMPDEST AND ISZERO PUSH2 0x765 JUMPI DUP1 PUSH2 0x2B94 PUSH2 0x2B63 PUSH2 0x2B5E PUSH1 0x1 SWAP5 DUP8 DUP10 PUSH2 0x3DFB JUMP JUMPDEST PUSH2 0x3FB5 JUMP JUMPDEST DUP4 DUP1 PUSH1 0xA0 SHL SUB PUSH2 0x2B77 PUSH2 0x690 DUP6 DUP9 DUP13 PUSH2 0x3DFB JUMP JUMPDEST AND DUP10 MSTORE PUSH1 0x2 PUSH1 0x20 MSTORE PUSH1 0x40 DUP10 KECCAK256 SWAP1 PUSH1 0xFF DUP1 NOT DUP4 SLOAD AND SWAP2 ISZERO ISZERO AND OR SWAP1 SSTORE JUMP JUMPDEST PUSH2 0x2BA2 PUSH2 0x690 DUP3 DUP6 DUP10 PUSH2 0x3DFB JUMP JUMPDEST PUSH32 0x4E64F955F4C1A97A6779D936A2FE8F59E1674F3E1A4C883736B9131969860A89 PUSH1 0x20 PUSH2 0x2BD3 PUSH2 0x2B5E DUP6 DUP10 DUP12 PUSH2 0x3DFB JUMP JUMPDEST SWAP3 PUSH1 0x40 MLOAD SWAP4 ISZERO ISZERO DUP5 MSTORE DUP6 DUP1 PUSH1 0xA0 SHL SUB AND SWAP3 LOG2 ADD PUSH2 0x2B23 JUMP JUMPDEST POP CALLVALUE PUSH2 0x3BD JUMPI DUP1 PUSH1 0x3 NOT CALLDATASIZE ADD SLT PUSH2 0x3BD JUMPI PUSH1 0x20 PUSH3 0xFFFFFF PUSH1 0x13 SLOAD AND PUSH1 0x40 MLOAD SWAP1 DUP2 MSTORE RETURN JUMPDEST POP CALLVALUE PUSH2 0x3BD JUMPI PUSH1 0x20 CALLDATASIZE PUSH1 0x3 NOT ADD SLT PUSH2 0x3BD JUMPI PUSH1 0x4 CALLDATALOAD PUSH1 0x1 PUSH1 0x1 PUSH1 0xA0 SHL SUB DUP2 AND SWAP1 DUP2 SWAP1 SUB PUSH2 0x5BA JUMPI PUSH2 0x2C3D PUSH2 0x41C4 JUMP JUMPDEST DUP1 ISZERO PUSH2 0x2C59 JUMPI PUSH1 0x1 PUSH1 0x1 PUSH1 0x60 SHL SUB PUSH1 0xA0 SHL PUSH1 0xA SLOAD AND OR PUSH1 0xA SSTORE DUP1 RETURN JUMPDEST PUSH4 0x3B136DC1 PUSH1 0xE1 SHL DUP3 MSTORE PUSH1 0x4 DUP3 REVERT JUMPDEST POP CALLVALUE PUSH2 0x3BD JUMPI PUSH1 0x20 CALLDATASIZE PUSH1 0x3 NOT ADD SLT PUSH2 0x3BD JUMPI PUSH2 0x2C82 PUSH2 0x3B5F JUMP JUMPDEST PUSH2 0x2C8A PUSH2 0x41C4 JUMP JUMPDEST PUSH1 0x1 PUSH1 0x1 PUSH1 0xA0 SHL SUB AND DUP1 ISZERO PUSH2 0x2CD2 JUMPI PUSH1 0x1A DUP1 SLOAD PUSH1 0x1 PUSH1 0x1 PUSH1 0xA0 SHL SUB NOT AND DUP3 OR SWAP1 SSTORE PUSH32 0xEEE59A71C694E68368A1CB0D135C448051BBFB12289E6C2223B0CEB100C2321D DUP3 DUP1 LOG2 DUP1 RETURN JUMPDEST PUSH4 0x1559B7D7 PUSH1 0xE2 SHL DUP3 MSTORE PUSH1 0x4 DUP3 REVERT JUMPDEST POP CALLVALUE PUSH2 0x3BD JUMPI PUSH1 0xA0 CALLDATASIZE PUSH1 0x3 NOT ADD SLT PUSH2 0x3BD JUMPI PUSH2 0x2CFB PUSH2 0x3B5F JUMP JUMPDEST PUSH1 0x24 CALLDATALOAD SWAP1 PUSH1 0x64 CALLDATALOAD PUSH1 0x1 PUSH1 0x1 PUSH1 0xA0 SHL SUB DUP2 AND SWAP1 DUP2 SWAP1 SUB PUSH2 0xDE9 JUMPI PUSH1 0x84 CALLDATALOAD SWAP1 PUSH1 0x1 PUSH1 0x1 PUSH1 0x40 SHL SUB DUP3 GT PUSH2 0x2401 JUMPI CALLDATASIZE PUSH1 0x23 DUP4 ADD SLT ISZERO PUSH2 0x2401 JUMPI DUP2 PUSH1 0x4 ADD CALLDATALOAD PUSH1 0x1 PUSH1 0x1 PUSH1 0x40 SHL SUB DUP2 GT PUSH2 0xDE5 JUMPI DUP3 ADD SWAP1 CALLDATASIZE PUSH1 0x24 DUP4 ADD GT PUSH2 0xDE5 JUMPI PUSH2 0x2D59 PUSH2 0x422C JUMP JUMPDEST PUSH1 0x1F SLOAD PUSH1 0x1 PUSH1 0x1 PUSH1 0xA0 SHL SUB AND CALLER SUB PUSH2 0x3168 JUMPI ADDRESS SUB PUSH2 0x3159 JUMPI PUSH1 0xFF PUSH1 0x1C SLOAD PUSH1 0x18 SHR AND PUSH2 0x314A JUMPI PUSH1 0x40 SWAP1 DUP3 SWAP1 SUB SLT PUSH2 0xDE9 JUMPI PUSH1 0x44 PUSH1 0x24 DUP3 ADD CALLDATALOAD SWAP2 ADD CALLDATALOAD SWAP3 DUP4 ISZERO SWAP4 DUP5 ISZERO SUB PUSH2 0x2401 JUMPI PUSH1 0x1E SLOAD DUP3 LT ISZERO PUSH2 0x313B JUMPI DUP2 DUP6 MSTORE PUSH1 0x1D PUSH1 0x20 MSTORE PUSH2 0x2DBC PUSH1 0x40 DUP7 KECCAK256 PUSH2 0x3E7D JUMP JUMPDEST SWAP2 PUSH1 0x20 DUP4 ADD SWAP5 PUSH1 0x2 DUP7 MLOAD MLOAD LT PUSH2 0x312C JUMPI GAS SWAP6 PUSH2 0x2DDA PUSH1 0xE SLOAD TIMESTAMP PUSH2 0x3F87 JUMP JUMPDEST SWAP1 MLOAD PUSH1 0x60 DUP7 ADD MLOAD SWAP1 PUSH1 0x2 DUP3 LT ISZERO PUSH2 0x3118 JUMPI PUSH1 0x80 DUP8 ADD MLOAD SWAP1 PUSH1 0x2 DUP3 LT ISZERO PUSH2 0xBAA JUMPI PUSH1 0xD SLOAD SWAP3 DUP2 MLOAD PUSH1 0x2 DUP2 LT SWAP1 DUP2 ISZERO PUSH2 0x310D JUMPI JUMPDEST POP PUSH2 0xD98 JUMPI DUP8 ISZERO PUSH2 0x30FE JUMPI PUSH1 0x1 PUSH1 0x1 PUSH1 0xA0 SHL SUB PUSH2 0x2E28 DUP4 PUSH2 0x414A JUMP JUMPDEST MLOAD AND DUP3 MLOAD PUSH0 NOT DUP2 ADD SWAP1 DUP2 GT PUSH2 0xD20 JUMPI PUSH2 0x2E5D SWAP3 DUP8 SWAP3 DUP8 SWAP3 DUP13 SWAP2 SWAP1 PUSH1 0x1 PUSH1 0x1 PUSH1 0xA0 SHL SUB SWAP1 PUSH2 0x2E55 SWAP1 DUP10 PUSH2 0x4167 JUMP JUMPDEST MLOAD AND SWAP1 PUSH2 0x43BF JUMP JUMPDEST SWAP1 DUP2 ISZERO PUSH2 0x30EF JUMPI DUP1 MLOAD PUSH0 NOT DUP2 ADD SWAP1 DUP2 GT PUSH2 0xD70 JUMPI PUSH2 0x2EA2 SWAP6 SWAP5 SWAP4 SWAP3 SWAP2 SWAP1 PUSH1 0x1 PUSH1 0x1 PUSH1 0xA0 SHL SUB SWAP1 PUSH2 0x2E8D SWAP1 DUP4 PUSH2 0x4167 JUMP JUMPDEST MLOAD AND SWAP1 PUSH1 0x1 PUSH1 0x1 PUSH1 0xA0 SHL SUB SWAP1 PUSH2 0x2E55 SWAP1 PUSH2 0x414A JUMP JUMPDEST SWAP6 DUP7 ISZERO PUSH2 0x30E0 JUMPI PUSH2 0x2EB5 PUSH1 0x44 CALLDATALOAD DUP6 PUSH2 0x3F87 JUMP JUMPDEST SWAP7 DUP8 DUP2 LT PUSH2 0x30D1 JUMPI PUSH2 0x2EC9 DUP9 PUSH1 0x40 SWAP3 PUSH2 0x3FA8 JUMP JUMPDEST SWAP6 ADD MLOAD DUP6 LT PUSH2 0x30C2 JUMPI PUSH2 0x2710 PUSH2 0x2EE1 PUSH1 0xC SLOAD DUP7 PUSH2 0x4053 JUMP JUMPDEST DIV DUP6 LT PUSH2 0x30C2 JUMPI PUSH1 0x19 SLOAD DUP6 LT PUSH2 0x30B3 JUMPI SWAP2 PUSH1 0x20 SWAP6 SWAP4 SWAP2 PUSH2 0x2F07 PUSH2 0x2F68 SWAP9 SWAP7 SWAP5 GAS SWAP1 PUSH2 0x3FA8 JUMP JUMPDEST SWAP1 PUSH2 0x3061 JUMPI JUMPDEST POP POP PUSH1 0x1A SLOAD PUSH1 0x1 PUSH1 0x1 PUSH1 0xA0 SHL SUB AND SWAP2 SWAP1 POP DUP2 ISZERO ISZERO DUP1 PUSH2 0x3058 JUMPI JUMPDEST PUSH2 0x2FEC JUMPI JUMPDEST POP POP PUSH1 0x1F SLOAD PUSH1 0x40 MLOAD PUSH4 0x95EA7B3 PUSH1 0xE0 SHL DUP2 MSTORE PUSH1 0x1 PUSH1 0x1 PUSH1 0xA0 SHL SUB SWAP1 SWAP2 AND PUSH1 0x4 DUP3 ADD MSTORE PUSH1 0x24 DUP2 ADD SWAP3 SWAP1 SWAP3 MSTORE SWAP1 SWAP3 DUP4 SWAP2 SWAP1 DUP3 SWAP1 DUP7 SWAP1 DUP3 SWAP1 PUSH1 0x44 DUP3 ADD SWAP1 JUMP JUMPDEST SUB SWAP3 PUSH1 0x1 PUSH1 0x1 PUSH1 0xA0 SHL SUB AND GAS CALL SWAP1 DUP2 ISZERO PUSH2 0x2FE1 JUMPI DUP3 SWAP2 PUSH2 0x2FA7 JUMPI JUMPDEST POP ISZERO PUSH2 0x2F98 JUMPI PUSH1 0x1 SWAP1 SSTORE PUSH1 0x20 PUSH1 0x40 MLOAD PUSH1 0x1 DUP2 MSTORE RETURN JUMPDEST PUSH4 0x40B27C21 PUSH1 0xE1 SHL DUP2 MSTORE PUSH1 0x4 SWAP1 REVERT JUMPDEST SWAP1 POP PUSH1 0x20 DUP2 RETURNDATASIZE PUSH1 0x20 GT PUSH2 0x2FD9 JUMPI JUMPDEST DUP2 PUSH2 0x2FC2 PUSH1 0x20 SWAP4 DUP4 PUSH2 0x3CE7 JUMP JUMPDEST DUP2 ADD SUB SLT PUSH2 0x5BA JUMPI PUSH2 0x2FD3 SWAP1 PUSH2 0x3F1A JUMP JUMPDEST PUSH0 PUSH2 0x2F83 JUMP JUMPDEST RETURNDATASIZE SWAP2 POP PUSH2 0x2FB5 JUMP JUMPDEST PUSH1 0x40 MLOAD RETURNDATASIZE DUP5 DUP3 RETURNDATACOPY RETURNDATASIZE SWAP1 REVERT JUMPDEST PUSH2 0x2FFC PUSH2 0x2710 SWAP2 PUSH1 0x1B SLOAD SWAP1 PUSH2 0x4053 JUMP JUMPDEST DIV SWAP1 DUP2 ISZERO PUSH2 0x2F2C JUMPI PUSH2 0x3019 SWAP1 DUP3 SWAP1 PUSH1 0x1 PUSH1 0x1 PUSH1 0xA0 SHL SUB DUP6 AND PUSH2 0x41EB JUMP JUMPDEST PUSH1 0x1A SLOAD PUSH1 0x40 MLOAD SWAP2 DUP3 MSTORE PUSH1 0x1 PUSH1 0x1 PUSH1 0xA0 SHL SUB AND SWAP1 PUSH32 0xFA37B5E8DDAD169E37000EDA5F29F2D1B34E92F95C9327FC7D39BA2E8B8D826F SWAP1 DUP6 SWAP1 LOG2 PUSH0 DUP1 PUSH2 0x2F2C JUMP JUMPDEST POP DUP1 ISZERO ISZERO PUSH2 0x2F27 JUMP JUMPDEST PUSH1 0x40 DUP1 MLOAD SWAP4 DUP5 MSTORE PUSH1 0x20 DUP5 ADD DUP6 SWAP1 MSTORE DUP4 ADD SWAP2 SWAP1 SWAP2 MSTORE PUSH1 0x60 DUP3 ADD MSTORE PUSH1 0x1 PUSH1 0x1 PUSH1 0xA0 SHL SUB DUP4 AND SWAP1 PUSH32 0x89A09201A027C60F41C5BA11894AA08A9F73B7B905D773646ADD4B4F4909BD83 SWAP1 PUSH1 0x80 SWAP1 LOG2 PUSH0 DUP1 DUP1 PUSH2 0x2F0D JUMP JUMPDEST PUSH4 0x66D786F9 PUSH1 0xE0 SHL DUP9 MSTORE PUSH1 0x4 DUP9 REVERT JUMPDEST PUSH4 0x62EE2E61 PUSH1 0xE1 SHL DUP9 MSTORE PUSH1 0x4 DUP9 REVERT JUMPDEST PUSH4 0xBB2875C3 PUSH1 0xE0 SHL DUP10 MSTORE PUSH1 0x4 DUP10 REVERT JUMPDEST PUSH4 0x81CEFF3 PUSH1 0xE4 SHL DUP9 MSTORE PUSH1 0x4 DUP9 REVERT JUMPDEST PUSH4 0x81CEFF3 PUSH1 0xE4 SHL DUP13 MSTORE PUSH1 0x4 DUP13 REVERT JUMPDEST PUSH4 0x162908E3 PUSH1 0xE1 SHL DUP13 MSTORE PUSH1 0x4 DUP13 REVERT JUMPDEST PUSH1 0x4 SWAP2 POP GT PUSH0 PUSH2 0x2E0C JUMP JUMPDEST PUSH4 0x4E487B71 PUSH1 0xE0 SHL DUP11 MSTORE PUSH1 0x21 PUSH1 0x4 MSTORE PUSH1 0x24 DUP11 REVERT JUMPDEST PUSH4 0x5640CBA9 PUSH1 0xE0 SHL DUP8 MSTORE PUSH1 0x4 DUP8 REVERT JUMPDEST PUSH4 0x8F676F49 PUSH1 0xE0 SHL DUP6 MSTORE PUSH1 0x4 DUP6 REVERT JUMPDEST PUSH4 0xAB35696F PUSH1 0xE0 SHL DUP6 MSTORE PUSH1 0x4 DUP6 REVERT JUMPDEST PUSH4 0x17FB43E5 PUSH1 0xE3 SHL DUP6 MSTORE PUSH1 0x4 DUP6 REVERT JUMPDEST PUSH4 0x5C427CD9 PUSH1 0xE0 SHL DUP7 MSTORE PUSH1 0x4 DUP7 REVERT JUMPDEST POP CALLVALUE PUSH2 0x3BD JUMPI PUSH1 0x20 CALLDATASIZE PUSH1 0x3 NOT ADD SLT PUSH2 0x3BD JUMPI PUSH32 0x9E3A5E37224532DEA67B89FACE185703738A228A6E8A23DEE546960180D3BE64 PUSH1 0x20 PUSH2 0x31B4 PUSH2 0x3B8B JUMP JUMPDEST PUSH2 0x31BC PUSH2 0x41C4 JUMP JUMPDEST ISZERO ISZERO PUSH1 0x1C SLOAD PUSH4 0xFF000000 DUP3 PUSH1 0x18 SHL AND SWAP1 PUSH4 0xFF000000 NOT AND OR PUSH1 0x1C SSTORE PUSH1 0x40 MLOAD SWAP1 DUP2 MSTORE LOG1 DUP1 RETURN JUMPDEST POP CALLVALUE PUSH2 0x3BD JUMPI PUSH1 0x80 CALLDATASIZE PUSH1 0x3 NOT ADD SLT PUSH2 0x3BD JUMPI PUSH1 0x4 CALLDATALOAD PUSH1 0x1 PUSH1 0x1 PUSH1 0x40 SHL SUB DUP2 GT PUSH2 0x5BA JUMPI PUSH2 0x3212 SWAP1 CALLDATASIZE SWAP1 PUSH1 0x4 ADD PUSH2 0x3B2F JUMP JUMPDEST SWAP1 PUSH1 0x44 CALLDATALOAD SWAP1 PUSH1 0x2 DUP3 LT ISZERO PUSH2 0xDE9 JUMPI PUSH1 0x64 CALLDATALOAD SWAP1 PUSH1 0x2 DUP3 LT ISZERO PUSH2 0x2401 JUMPI PUSH2 0x3235 PUSH2 0x41C4 JUMP JUMPDEST PUSH1 0x2 DUP5 LT DUP1 ISZERO PUSH2 0x353B JUMPI JUMPDEST PUSH2 0x352C JUMPI DUP4 ISZERO PUSH2 0x3518 JUMPI PUSH2 0x3253 DUP2 PUSH2 0x3E1F JUMP JUMPDEST PUSH0 NOT DUP6 ADD DUP6 DUP2 GT SWAP2 DUP3 PUSH2 0x176D JUMPI PUSH1 0x1 PUSH1 0x1 PUSH1 0xA0 SHL SUB PUSH2 0x3276 PUSH2 0x690 DUP5 DUP11 DUP9 PUSH2 0x3DFB JUMP JUMPDEST AND PUSH1 0x1 PUSH1 0x1 PUSH1 0xA0 SHL SUB SWAP1 SWAP2 AND SUB PUSH2 0x3509 JUMPI PUSH1 0x1 PUSH1 0x1 PUSH1 0xA0 SHL SUB PUSH2 0x3298 DUP7 PUSH2 0x3C24 JUMP JUMPDEST SLOAD AND ISZERO PUSH2 0x34FA JUMPI PUSH1 0x1 PUSH1 0x1 PUSH1 0xA0 SHL SUB PUSH2 0x32B0 DUP6 PUSH2 0x3C24 JUMP JUMPDEST SLOAD AND ISZERO PUSH2 0x34FA JUMPI DUP7 SWAP1 JUMPDEST DUP7 DUP3 LT PUSH2 0x3427 JUMPI POP POP POP PUSH1 0x1E SLOAD PUSH2 0x32E2 PUSH1 0x40 MLOAD SWAP3 PUSH2 0x32D7 DUP5 PUSH2 0x3CB1 JUMP JUMPDEST DUP3 DUP5 MSTORE DUP7 CALLDATASIZE SWAP2 PUSH2 0x3D1F JUMP JUMPDEST PUSH1 0x20 DUP4 ADD SWAP1 DUP2 MSTORE PUSH1 0x40 DUP4 ADD SWAP2 PUSH1 0x24 CALLDATALOAD DUP4 MSTORE PUSH2 0x3301 PUSH1 0x60 DUP6 ADD SWAP7 DUP8 PUSH2 0x3E71 JUMP JUMPDEST PUSH2 0x330F PUSH1 0x80 DUP6 ADD SWAP6 DUP7 PUSH2 0x3E71 JUMP JUMPDEST DUP8 MSTORE PUSH1 0x1D PUSH1 0x20 MSTORE PUSH1 0x40 DUP8 KECCAK256 SWAP3 MLOAD DUP4 SSTORE MLOAD DUP1 MLOAD SWAP1 PUSH1 0x1 DUP5 ADD SWAP1 PUSH1 0x1 PUSH1 0x1 PUSH1 0x40 SHL SUB DUP4 GT PUSH2 0x3413 JUMPI PUSH1 0x20 SWAP1 PUSH2 0x3342 DUP5 DUP5 PUSH2 0x4066 JUMP JUMPDEST ADD SWAP1 DUP9 MSTORE PUSH1 0x20 DUP9 KECCAK256 DUP9 JUMPDEST DUP4 DUP2 LT PUSH2 0x33F6 JUMPI POP POP POP POP SWAP1 PUSH1 0x3 SWAP2 MLOAD PUSH1 0x2 DUP3 ADD SSTORE ADD SWAP2 MLOAD PUSH1 0x2 DUP2 LT ISZERO PUSH2 0x2279 JUMPI PUSH2 0x3377 SWAP1 DUP4 PUSH2 0x40AB JUMP JUMPDEST MLOAD SWAP1 PUSH1 0x2 DUP3 LT ISZERO PUSH2 0x33E2 JUMPI PUSH1 0x20 SWAP3 SWAP2 PUSH2 0x338F SWAP2 PUSH2 0x40C3 JUMP JUMPDEST PUSH32 0x43AFC9E063BEAEA4354EC60D8BC6C76E9BA2376CA51443FC69A6EFD689A7282A PUSH1 0x1E SLOAD SWAP3 DUP4 SWAP3 PUSH1 0x40 MLOAD SWAP1 DUP2 MSTORE LOG2 PUSH0 NOT DUP2 EQ PUSH2 0x33CE JUMPI PUSH1 0x1 ADD PUSH1 0x1E SSTORE DUP1 RETURN JUMPDEST PUSH4 0x4E487B71 PUSH1 0xE0 SHL DUP3 MSTORE PUSH1 0x11 PUSH1 0x4 MSTORE PUSH1 0x24 DUP3 REVERT JUMPDEST PUSH4 0x4E487B71 PUSH1 0xE0 SHL DUP5 MSTORE PUSH1 0x21 PUSH1 0x4 MSTORE PUSH1 0x24 DUP5 REVERT JUMPDEST DUP3 MLOAD PUSH1 0x1 PUSH1 0x1 PUSH1 0xA0 SHL SUB AND DUP2 DUP4 ADD SSTORE PUSH1 0x20 SWAP1 SWAP3 ADD SWAP2 PUSH1 0x1 ADD PUSH2 0x334C JUMP JUMPDEST PUSH4 0x4E487B71 PUSH1 0xE0 SHL DUP10 MSTORE PUSH1 0x41 PUSH1 0x4 MSTORE PUSH1 0x24 DUP10 REVERT JUMPDEST SWAP2 SWAP7 SWAP6 SWAP5 SWAP3 SWAP4 SWAP1 SWAP3 SWAP1 PUSH1 0x1 PUSH1 0x1 PUSH1 0xA0 SHL SUB PUSH2 0x3446 PUSH2 0x690 DUP7 DUP10 DUP10 PUSH2 0x3DFB JUMP JUMPDEST AND ISZERO PUSH2 0x34EB JUMPI PUSH2 0x345D PUSH2 0xC4D PUSH2 0x690 DUP7 DUP10 DUP10 PUSH2 0x3DFB JUMP JUMPDEST ISZERO PUSH2 0x34DC JUMPI PUSH1 0x1 DUP5 ADD DUP1 DUP6 GT PUSH2 0x176D JUMPI DUP9 JUMPDEST PUSH2 0x176D JUMPI DUP4 DUP2 LT ISZERO PUSH2 0x34C9 JUMPI PUSH2 0x3489 PUSH2 0x690 DUP7 DUP10 DUP10 PUSH2 0x3DFB JUMP JUMPDEST PUSH1 0x1 PUSH1 0x1 PUSH1 0xA0 SHL SUB PUSH2 0x349F PUSH2 0x690 DUP5 DUP12 DUP12 PUSH2 0x3DFB JUMP JUMPDEST PUSH1 0x1 PUSH1 0x1 PUSH1 0xA0 SHL SUB SWAP1 SWAP3 AND SWAP2 AND EQ PUSH2 0x34BA JUMPI PUSH1 0x1 ADD DUP9 PUSH2 0x346F JUMP JUMPDEST PUSH4 0x13721E61 PUSH1 0xE1 SHL DUP9 MSTORE PUSH1 0x4 DUP9 REVERT JUMPDEST POP SWAP4 SWAP3 PUSH1 0x1 SWAP1 SWAP8 SWAP3 SWAP2 SWAP6 SWAP7 SWAP8 ADD SWAP1 PUSH2 0x32BA JUMP JUMPDEST PUSH4 0x350B9441 PUSH1 0xE1 SHL DUP8 MSTORE PUSH1 0x4 DUP8 REVERT JUMPDEST PUSH4 0xF580583 PUSH1 0xE1 SHL DUP8 MSTORE PUSH1 0x4 DUP8 REVERT JUMPDEST PUSH4 0x2A4251F7 PUSH1 0xE2 SHL DUP8 MSTORE PUSH1 0x4 DUP8 REVERT JUMPDEST PUSH4 0xB6E9E57 PUSH1 0xE2 SHL DUP8 MSTORE PUSH1 0x4 DUP8 REVERT JUMPDEST PUSH4 0x4E487B71 PUSH1 0xE0 SHL DUP6 MSTORE PUSH1 0x32 PUSH1 0x4 MSTORE PUSH1 0x24 DUP6 REVERT JUMPDEST PUSH4 0x66B045FF PUSH1 0xE1 SHL DUP6 MSTORE PUSH1 0x4 DUP6 REVERT JUMPDEST POP PUSH1 0x4 DUP5 GT PUSH2 0x3240 JUMP JUMPDEST POP CALLVALUE PUSH2 0x3BD JUMPI PUSH1 0x20 CALLDATASIZE PUSH1 0x3 NOT ADD SLT PUSH2 0x3BD JUMPI PUSH1 0x20 SWAP1 PUSH1 0xFF SWAP1 PUSH1 0x40 SWAP1 PUSH1 0x1 PUSH1 0x1 PUSH1 0xA0 SHL SUB PUSH2 0x3570 PUSH2 0x3B5F JUMP JUMPDEST AND DUP2 MSTORE PUSH1 0x8 DUP5 MSTORE KECCAK256 SLOAD AND PUSH1 0x40 MLOAD SWAP1 ISZERO ISZERO DUP2 MSTORE RETURN JUMPDEST POP CALLVALUE PUSH2 0x26E0 JUMPI PUSH1 0x80 CALLDATASIZE PUSH1 0x3 NOT ADD SLT PUSH2 0x26E0 JUMPI PUSH2 0x359E PUSH2 0x3B5F JUMP JUMPDEST PUSH1 0x24 CALLDATALOAD SWAP1 PUSH1 0x44 CALLDATALOAD PUSH1 0x64 CALLDATALOAD DUP1 ISZERO ISZERO DUP1 SWAP2 SUB PUSH2 0x26E0 JUMPI PUSH2 0x35BA PUSH2 0x422C JUMP JUMPDEST PUSH2 0x35C2 PUSH2 0x41C4 JUMP JUMPDEST PUSH1 0x1C SLOAD SWAP3 PUSH1 0xFF DUP5 PUSH1 0x18 SHR AND PUSH2 0x38E3 JUMPI PUSH1 0x1 PUSH1 0x1 PUSH1 0xA0 SHL SUB AND SWAP3 DUP4 ISZERO PUSH2 0x38D4 JUMPI DUP5 ISZERO PUSH2 0x38C5 JUMPI PUSH1 0x18 SLOAD DUP6 GT PUSH2 0x38B6 JUMPI PUSH1 0x1E SLOAD DUP4 LT ISZERO PUSH2 0x38A7 JUMPI DUP4 PUSH0 MSTORE PUSH1 0x2 PUSH1 0x20 MSTORE PUSH1 0xFF PUSH1 0x40 PUSH0 KECCAK256 SLOAD AND ISZERO PUSH2 0x3898 JUMPI PUSH1 0x8 SHR PUSH1 0xFF AND PUSH2 0x36F1 JUMPI JUMPDEST DUP3 PUSH32 0x4DE4E5710A82E29AA0540F39A91F17D0091E7251BA18403D8034555FA03168EF PUSH1 0x40 DUP1 MLOAD DUP8 DUP2 MSTORE DUP6 PUSH1 0x20 DUP3 ADD MSTORE LOG2 PUSH1 0x40 MLOAD SWAP2 PUSH1 0x20 DUP4 ADD MSTORE PUSH1 0x40 DUP3 ADD MSTORE PUSH1 0x40 DUP2 MSTORE PUSH2 0x3667 PUSH1 0x60 DUP3 PUSH2 0x3CE7 JUMP JUMPDEST PUSH1 0x1F SLOAD PUSH1 0x1 PUSH1 0x1 PUSH1 0xA0 SHL SUB AND DUP1 EXTCODESIZE ISZERO PUSH2 0x26E0 JUMPI PUSH2 0x36B6 SWAP4 PUSH0 DUP1 SWAP5 PUSH1 0x40 MLOAD SWAP7 DUP8 SWAP6 DUP7 SWAP5 DUP6 SWAP4 PUSH4 0x10AC2DDF PUSH1 0xE2 SHL DUP6 MSTORE ADDRESS PUSH1 0x4 DUP7 ADD MSTORE PUSH1 0x24 DUP6 ADD MSTORE PUSH1 0x44 DUP5 ADD MSTORE PUSH1 0xA0 PUSH1 0x64 DUP5 ADD MSTORE PUSH1 0xA4 DUP4 ADD SWAP1 PUSH2 0x3F63 JUMP JUMPDEST DUP3 PUSH1 0x84 DUP4 ADD MSTORE SUB SWAP3 GAS CALL DUP1 ISZERO PUSH2 0x36E6 JUMPI PUSH2 0x36D3 JUMPI JUMPDEST POP PUSH1 0x1 DUP2 SSTORE DUP1 RETURN JUMPDEST PUSH2 0x36DF SWAP2 POP PUSH0 SWAP1 PUSH2 0x3CE7 JUMP JUMPDEST PUSH0 PUSH0 PUSH2 0x36CB JUMP JUMPDEST PUSH1 0x40 MLOAD RETURNDATASIZE PUSH0 DUP3 RETURNDATACOPY RETURNDATASIZE SWAP1 REVERT JUMPDEST DUP2 PUSH0 MSTORE PUSH1 0x1D PUSH1 0x20 MSTORE PUSH2 0x3705 PUSH1 0x40 PUSH0 KECCAK256 PUSH2 0x3E7D JUMP JUMPDEST PUSH1 0x20 DUP2 ADD MLOAD SWAP1 PUSH1 0x60 DUP2 ADD MLOAD SWAP1 PUSH1 0x2 DUP3 LT ISZERO PUSH2 0x3884 JUMPI PUSH1 0x80 ADD MLOAD PUSH1 0x2 DUP2 LT ISZERO PUSH2 0x3884 JUMPI PUSH2 0x376A SWAP3 PUSH2 0x140 SWAP3 PUSH2 0x3774 PUSH2 0x3759 SWAP4 PUSH1 0x40 MLOAD SWAP7 DUP8 SWAP6 DUP7 SWAP6 PUSH4 0xB3EEB621 PUSH1 0xE0 SHL DUP8 MSTORE PUSH1 0x80 PUSH1 0x4 DUP9 ADD MSTORE PUSH1 0x84 DUP8 ADD SWAP1 PUSH2 0x3F27 JUMP JUMPDEST SWAP4 DUP13 PUSH1 0x24 DUP8 ADD MSTORE PUSH1 0x44 DUP7 ADD SWAP1 PUSH2 0x3C17 JUMP JUMPDEST PUSH1 0x64 DUP5 ADD SWAP1 PUSH2 0x3C17 JUMP JUMPDEST SUB DUP2 PUSH0 ADDRESS GAS CALL SWAP1 DUP2 ISZERO PUSH2 0x36E6 JUMPI PUSH0 SWAP2 PUSH2 0x37DD JUMPI JUMPDEST POP PUSH2 0x120 DUP2 ADD MLOAD ISZERO PUSH2 0x37CE JUMPI PUSH1 0x40 PUSH2 0x100 PUSH32 0x2D8C7DE9D14F5D83E30045E1C848465AFDD57594F3E9FC21CA0C5ED3FC339F1D SWAP3 ADD MLOAD DUP2 MLOAD SWAP1 DUP6 DUP3 MSTORE PUSH1 0x20 DUP3 ADD MSTORE LOG1 PUSH2 0x361A JUMP JUMPDEST PUSH4 0x2DD61D5B PUSH1 0xE0 SHL PUSH0 MSTORE PUSH1 0x4 PUSH0 REVERT JUMPDEST SWAP1 POP PUSH2 0x140 DUP2 RETURNDATASIZE DUP3 GT PUSH2 0x387C JUMPI JUMPDEST DUP2 PUSH2 0x37F9 PUSH2 0x140 SWAP4 DUP4 PUSH2 0x3CE7 JUMP JUMPDEST DUP2 ADD SUB SLT PUSH2 0x26E0 JUMPI PUSH2 0x3870 PUSH2 0x120 PUSH1 0x40 MLOAD SWAP3 PUSH2 0x3814 DUP5 PUSH2 0x3C81 JUMP JUMPDEST DUP1 MLOAD DUP5 MSTORE PUSH1 0x20 DUP2 ADD MLOAD PUSH1 0x20 DUP6 ADD MSTORE PUSH1 0x40 DUP2 ADD MLOAD PUSH1 0x40 DUP6 ADD MSTORE PUSH1 0x60 DUP2 ADD MLOAD PUSH1 0x60 DUP6 ADD MSTORE PUSH1 0x80 DUP2 ADD MLOAD PUSH1 0x80 DUP6 ADD MSTORE PUSH1 0xA0 DUP2 ADD MLOAD PUSH1 0xA0 DUP6 ADD MSTORE PUSH1 0xC0 DUP2 ADD MLOAD PUSH1 0xC0 DUP6 ADD MSTORE PUSH1 0xE0 DUP2 ADD MLOAD PUSH1 0xE0 DUP6 ADD MSTORE PUSH2 0x100 DUP2 ADD MLOAD PUSH2 0x100 DUP6 ADD MSTORE ADD PUSH2 0x3F1A JUMP JUMPDEST PUSH2 0x120 DUP3 ADD MSTORE PUSH0 PUSH2 0x3788 JUMP JUMPDEST RETURNDATASIZE SWAP2 POP PUSH2 0x37EB JUMP JUMPDEST PUSH4 0x4E487B71 PUSH1 0xE0 SHL PUSH0 MSTORE PUSH1 0x21 PUSH1 0x4 MSTORE PUSH1 0x24 PUSH0 REVERT JUMPDEST PUSH4 0x350B9441 PUSH1 0xE1 SHL PUSH0 MSTORE PUSH1 0x4 PUSH0 REVERT JUMPDEST PUSH4 0x8F676F49 PUSH1 0xE0 SHL PUSH0 MSTORE PUSH1 0x4 PUSH0 REVERT JUMPDEST PUSH4 0x499E7985 PUSH1 0xE0 SHL PUSH0 MSTORE PUSH1 0x4 PUSH0 REVERT JUMPDEST PUSH4 0x162908E3 PUSH1 0xE1 SHL PUSH0 MSTORE PUSH1 0x4 PUSH0 REVERT JUMPDEST PUSH4 0x6448D6E9 PUSH1 0xE1 SHL PUSH0 MSTORE PUSH1 0x4 PUSH0 REVERT JUMPDEST PUSH4 0xAB35696F PUSH1 0xE0 SHL PUSH0 MSTORE PUSH1 0x4 PUSH0 REVERT JUMPDEST CALLVALUE PUSH2 0x26E0 JUMPI PUSH0 CALLDATASIZE PUSH1 0x3 NOT ADD SLT PUSH2 0x26E0 JUMPI PUSH1 0x20 PUSH1 0xFF PUSH1 0x1C SLOAD AND PUSH1 0x40 MLOAD SWAP1 ISZERO ISZERO DUP2 MSTORE RETURN JUMPDEST CALLVALUE PUSH2 0x26E0 JUMPI PUSH1 0x20 CALLDATASIZE PUSH1 0x3 NOT ADD SLT PUSH2 0x26E0 JUMPI PUSH1 0x1 PUSH1 0x1 PUSH1 0xA0 SHL SUB PUSH2 0x3935 PUSH2 0x3B5F JUMP JUMPDEST AND PUSH0 MSTORE PUSH1 0x8 PUSH1 0x20 MSTORE PUSH1 0x20 PUSH1 0xFF PUSH1 0x40 PUSH0 KECCAK256 SLOAD AND PUSH1 0x40 MLOAD SWAP1 ISZERO ISZERO DUP2 MSTORE RETURN JUMPDEST CALLVALUE PUSH2 0x26E0 JUMPI PUSH0 CALLDATASIZE PUSH1 0x3 NOT ADD SLT PUSH2 0x26E0 JUMPI PUSH1 0x20 PUSH1 0x10 SLOAD PUSH1 0x40 MLOAD SWAP1 DUP2 MSTORE RETURN JUMPDEST CALLVALUE PUSH2 0x26E0 JUMPI PUSH0 CALLDATASIZE PUSH1 0x3 NOT ADD SLT PUSH2 0x26E0 JUMPI PUSH1 0xA SLOAD PUSH1 0x40 MLOAD PUSH1 0x1 PUSH1 0x1 PUSH1 0xA0 SHL SUB SWAP1 SWAP2 AND DUP2 MSTORE PUSH1 0x20 SWAP1 RETURN JUMPDEST CALLVALUE PUSH2 0x26E0 JUMPI PUSH1 0x20 CALLDATASIZE PUSH1 0x3 NOT ADD SLT PUSH2 0x26E0 JUMPI PUSH1 0x4 CALLDATALOAD PUSH1 0x1 PUSH1 0x1 PUSH1 0x40 SHL SUB DUP2 GT PUSH2 0x26E0 JUMPI PUSH2 0x39C6 SWAP1 CALLDATASIZE SWAP1 PUSH1 0x4 ADD PUSH2 0x3B2F JUMP JUMPDEST SWAP1 PUSH2 0x39CF PUSH2 0x41C4 JUMP JUMPDEST PUSH0 JUMPDEST DUP3 DUP2 LT PUSH2 0x3A3C JUMPI SELFBALANCE DUP1 PUSH2 0x39E0 JUMPI STOP JUMPDEST PUSH0 DUP1 DUP1 DUP1 DUP5 PUSH1 0x1 DUP1 PUSH1 0xA0 SHL SUB PUSH1 0x1 SLOAD AND GAS CALL PUSH2 0x39FA PUSH2 0x3E33 JUMP JUMPDEST POP ISZERO PUSH2 0x3A2D JUMPI PUSH1 0x20 PUSH32 0x43F607A14D3B4F0A11A0B2E192BBFCD894298BA5ABF22553BE6081406DB28AA SWAP2 PUSH1 0x40 MLOAD SWAP1 DUP2 MSTORE LOG1 STOP JUMPDEST PUSH4 0xB12D13EB PUSH1 0xE0 SHL PUSH0 MSTORE PUSH1 0x4 PUSH0 REVERT JUMPDEST PUSH1 0x24 SWAP1 PUSH1 0x20 PUSH1 0x1 PUSH1 0x1 PUSH1 0xA0 SHL SUB PUSH2 0x3A57 PUSH2 0x690 DUP5 DUP9 DUP9 PUSH2 0x3DFB JUMP JUMPDEST AND PUSH1 0x40 MLOAD SWAP4 DUP5 DUP1 SWAP3 PUSH4 0x70A08231 PUSH1 0xE0 SHL DUP3 MSTORE ADDRESS PUSH1 0x4 DUP4 ADD MSTORE GAS STATICCALL DUP1 ISZERO PUSH2 0x36E6 JUMPI PUSH0 SWAP1 PUSH2 0x3AFD JUMPI JUMPDEST PUSH1 0x1 SWAP3 POP DUP1 PUSH2 0x3A8F JUMPI JUMPDEST POP ADD PUSH2 0x39D1 JUMP JUMPDEST PUSH2 0x3AB7 DUP2 DUP5 DUP1 PUSH1 0xA0 SHL SUB PUSH2 0x3AA7 PUSH2 0x690 DUP7 DUP11 DUP11 PUSH2 0x3DFB JUMP JUMPDEST AND DUP6 DUP1 PUSH1 0xA0 SHL SUB DUP7 SLOAD AND SWAP1 PUSH2 0x41EB JUMP JUMPDEST PUSH32 0x23D6711A1D031134A36921253C75AA59E967D38E369AC625992824315E204F20 PUSH1 0x20 DUP5 DUP1 PUSH1 0xA0 SHL SUB PUSH2 0x3AEE PUSH2 0x690 DUP7 DUP11 DUP11 PUSH2 0x3DFB JUMP JUMPDEST AND SWAP3 PUSH1 0x40 MLOAD SWAP1 DUP2 MSTORE LOG2 DUP5 PUSH2 0x3A88 JUMP JUMPDEST POP PUSH1 0x20 DUP3 RETURNDATASIZE DUP3 GT PUSH2 0x3B27 JUMPI JUMPDEST DUP2 PUSH2 0x3B16 PUSH1 0x20 SWAP4 DUP4 PUSH2 0x3CE7 JUMP JUMPDEST DUP2 ADD SUB SLT PUSH2 0x26E0 JUMPI PUSH1 0x1 SWAP2 MLOAD PUSH2 0x3A7E JUMP JUMPDEST RETURNDATASIZE SWAP2 POP PUSH2 0x3B09 JUMP JUMPDEST SWAP2 DUP2 PUSH1 0x1F DUP5 ADD SLT ISZERO PUSH2 0x26E0 JUMPI DUP3 CALLDATALOAD SWAP2 PUSH1 0x1 PUSH1 0x1 PUSH1 0x40 SHL SUB DUP4 GT PUSH2 0x26E0 JUMPI PUSH1 0x20 DUP1 DUP6 ADD SWAP5 DUP5 PUSH1 0x5 SHL ADD ADD GT PUSH2 0x26E0 JUMPI JUMP JUMPDEST PUSH1 0x4 CALLDATALOAD SWAP1 PUSH1 0x1 PUSH1 0x1 PUSH1 0xA0 SHL SUB DUP3 AND DUP3 SUB PUSH2 0x26E0 JUMPI JUMP JUMPDEST PUSH1 0x24 CALLDATALOAD SWAP1 PUSH1 0x1 PUSH1 0x1 PUSH1 0xA0 SHL SUB DUP3 AND DUP3 SUB PUSH2 0x26E0 JUMPI JUMP JUMPDEST PUSH1 0x4 CALLDATALOAD SWAP1 DUP2 ISZERO ISZERO DUP3 SUB PUSH2 0x26E0 JUMPI JUMP JUMPDEST PUSH1 0x24 CALLDATALOAD SWAP1 DUP2 ISZERO ISZERO DUP3 SUB PUSH2 0x26E0 JUMPI JUMP JUMPDEST PUSH1 0x40 PUSH1 0x3 NOT DUP3 ADD SLT PUSH2 0x26E0 JUMPI PUSH1 0x4 CALLDATALOAD PUSH1 0x1 PUSH1 0x1 PUSH1 0x40 SHL SUB DUP2 GT PUSH2 0x26E0 JUMPI DUP2 PUSH2 0x3BD3 SWAP2 PUSH1 0x4 ADD PUSH2 0x3B2F JUMP JUMPDEST SWAP3 SWAP1 SWAP3 SWAP2 PUSH1 0x24 CALLDATALOAD SWAP1 PUSH1 0x1 PUSH1 0x1 PUSH1 0x40 SHL SUB DUP3 GT PUSH2 0x26E0 JUMPI PUSH2 0x3BF5 SWAP2 PUSH1 0x4 ADD PUSH2 0x3B2F JUMP JUMPDEST SWAP1 SWAP2 JUMP JUMPDEST PUSH1 0x80 SWAP1 PUSH1 0x3 NOT ADD SLT PUSH2 0x26E0 JUMPI PUSH1 0x4 CALLDATALOAD SWAP1 PUSH1 0x24 CALLDATALOAD SWAP1 PUSH1 0x44 CALLDATALOAD SWAP1 PUSH1 0x64 CALLDATALOAD SWAP1 JUMP JUMPDEST SWAP1 PUSH1 0x2 DUP3 LT ISZERO PUSH2 0x3884 JUMPI MSTORE JUMP JUMPDEST PUSH1 0x2 DUP2 LT ISZERO PUSH2 0x3884 JUMPI PUSH0 MSTORE PUSH1 0x6 PUSH1 0x20 MSTORE PUSH1 0x40 PUSH0 KECCAK256 SWAP1 JUMP JUMPDEST PUSH1 0x2 DUP2 LT ISZERO PUSH2 0x3884 JUMPI PUSH0 MSTORE PUSH1 0x7 PUSH1 0x20 MSTORE PUSH1 0x40 PUSH0 KECCAK256 SWAP1 JUMP JUMPDEST PUSH1 0x40 SWAP1 PUSH1 0x3 NOT ADD SLT PUSH2 0x26E0 JUMPI PUSH1 0x4 CALLDATALOAD PUSH1 0x2 DUP2 LT ISZERO PUSH2 0x26E0 JUMPI SWAP1 PUSH1 0x24 CALLDATALOAD PUSH1 0x1 PUSH1 0x1 PUSH1 0xA0 SHL SUB DUP2 AND DUP2 SUB PUSH2 0x26E0 JUMPI SWAP1 JUMP JUMPDEST PUSH2 0x140 DUP2 ADD SWAP1 DUP2 LT PUSH1 0x1 PUSH1 0x1 PUSH1 0x40 SHL SUB DUP3 GT OR PUSH2 0x3C9D JUMPI PUSH1 0x40 MSTORE JUMP JUMPDEST PUSH4 0x4E487B71 PUSH1 0xE0 SHL PUSH0 MSTORE PUSH1 0x41 PUSH1 0x4 MSTORE PUSH1 0x24 PUSH0 REVERT JUMPDEST PUSH1 0xA0 DUP2 ADD SWAP1 DUP2 LT PUSH1 0x1 PUSH1 0x1 PUSH1 0x40 SHL SUB DUP3 GT OR PUSH2 0x3C9D JUMPI PUSH1 0x40 MSTORE JUMP JUMPDEST PUSH1 0x80 DUP2 ADD SWAP1 DUP2 LT PUSH1 0x1 PUSH1 0x1 PUSH1 0x40 SHL SUB DUP3 GT OR PUSH2 0x3C9D JUMPI PUSH1 0x40 MSTORE JUMP JUMPDEST SWAP1 PUSH1 0x1F DUP1 NOT SWAP2 ADD AND DUP2 ADD SWAP1 DUP2 LT PUSH1 0x1 PUSH1 0x1 PUSH1 0x40 SHL SUB DUP3 GT OR PUSH2 0x3C9D JUMPI PUSH1 0x40 MSTORE JUMP JUMPDEST PUSH1 0x1 PUSH1 0x1 PUSH1 0x40 SHL SUB DUP2 GT PUSH2 0x3C9D JUMPI PUSH1 0x5 SHL PUSH1 0x20 ADD SWAP1 JUMP JUMPDEST SWAP3 SWAP2 PUSH2 0x3D2A DUP3 PUSH2 0x3D08 JUMP JUMPDEST SWAP4 PUSH2 0x3D38 PUSH1 0x40 MLOAD SWAP6 DUP7 PUSH2 0x3CE7 JUMP JUMPDEST PUSH1 0x20 DUP6 DUP5 DUP2 MSTORE ADD SWAP3 PUSH1 0x5 SHL DUP2 ADD SWAP2 DUP3 GT PUSH2 0x26E0 JUMPI SWAP2 JUMPDEST DUP2 DUP4 LT PUSH2 0x3D5A JUMPI POP POP POP JUMP JUMPDEST DUP3 CALLDATALOAD PUSH1 0x1 PUSH1 0x1 PUSH1 0xA0 SHL SUB DUP2 AND DUP2 SUB PUSH2 0x26E0 JUMPI DUP2 MSTORE PUSH1 0x20 SWAP3 DUP4 ADD SWAP3 ADD PUSH2 0x3D4E JUMP JUMPDEST SWAP1 PUSH1 0xA0 DUP2 ADD SWAP2 DUP1 MLOAD DUP3 MSTORE PUSH1 0x20 DUP2 ADD MLOAD SWAP3 PUSH1 0xA0 PUSH1 0x20 DUP5 ADD MSTORE DUP4 MLOAD DUP1 SWAP2 MSTORE PUSH1 0x20 PUSH1 0xC0 DUP5 ADD SWAP5 ADD SWAP1 PUSH0 JUMPDEST DUP2 DUP2 LT PUSH2 0x3DDC JUMPI POP POP POP SWAP1 PUSH1 0x80 DUP1 DUP4 PUSH1 0x40 PUSH2 0x3DD9 SWAP6 ADD MLOAD PUSH1 0x40 DUP6 ADD MSTORE PUSH2 0x3DCF PUSH1 0x60 DUP3 ADD MLOAD PUSH1 0x60 DUP7 ADD SWAP1 PUSH2 0x3C17 JUMP JUMPDEST ADD MLOAD SWAP2 ADD SWAP1 PUSH2 0x3C17 JUMP JUMPDEST SWAP1 JUMP JUMPDEST DUP3 MLOAD PUSH1 0x1 PUSH1 0x1 PUSH1 0xA0 SHL SUB AND DUP7 MSTORE PUSH1 0x20 SWAP6 DUP7 ADD SWAP6 SWAP1 SWAP3 ADD SWAP2 PUSH1 0x1 ADD PUSH2 0x3DA1 JUMP JUMPDEST SWAP2 SWAP1 DUP2 LT ISZERO PUSH2 0x3E0B JUMPI PUSH1 0x5 SHL ADD SWAP1 JUMP JUMPDEST PUSH4 0x4E487B71 PUSH1 0xE0 SHL PUSH0 MSTORE PUSH1 0x32 PUSH1 0x4 MSTORE PUSH1 0x24 PUSH0 REVERT JUMPDEST CALLDATALOAD PUSH1 0x1 PUSH1 0x1 PUSH1 0xA0 SHL SUB DUP2 AND DUP2 SUB PUSH2 0x26E0 JUMPI SWAP1 JUMP JUMPDEST RETURNDATASIZE ISZERO PUSH2 0x3E6C JUMPI RETURNDATASIZE SWAP1 PUSH1 0x1 PUSH1 0x1 PUSH1 0x40 SHL SUB DUP3 GT PUSH2 0x3C9D JUMPI PUSH1 0x40 MLOAD SWAP2 PUSH2 0x3E61 PUSH1 0x1F DUP3 ADD PUSH1 0x1F NOT AND PUSH1 0x20 ADD DUP5 PUSH2 0x3CE7 JUMP JUMPDEST DUP3 MSTORE RETURNDATASIZE PUSH0 PUSH1 0x20 DUP5 ADD RETURNDATACOPY JUMP JUMPDEST PUSH1 0x60 SWAP1 JUMP JUMPDEST PUSH1 0x2 DUP3 LT ISZERO PUSH2 0x3884 JUMPI MSTORE JUMP JUMPDEST SWAP1 PUSH1 0x40 MLOAD PUSH2 0x3E8A DUP2 PUSH2 0x3CB1 JUMP JUMPDEST DUP1 SWAP3 DUP1 SLOAD DUP3 MSTORE PUSH1 0x1 DUP2 ADD PUSH1 0x40 MLOAD SWAP1 DUP2 PUSH1 0x20 DUP3 SLOAD SWAP2 DUP3 DUP2 MSTORE ADD SWAP2 PUSH0 MSTORE PUSH1 0x20 PUSH0 KECCAK256 SWAP1 PUSH0 JUMPDEST DUP2 DUP2 LT PUSH2 0x3EFB JUMPI POP POP POP PUSH1 0x3 PUSH2 0x3EF9 SWAP5 SWAP4 DUP4 PUSH2 0x3ECE PUSH1 0x80 SWAP6 PUSH1 0xFF SWAP6 SUB DUP3 PUSH2 0x3CE7 JUMP JUMPDEST PUSH1 0x20 DUP7 ADD MSTORE PUSH1 0x2 DUP2 ADD SLOAD PUSH1 0x40 DUP7 ADD MSTORE ADD SLOAD PUSH2 0x3EEE DUP3 DUP3 AND PUSH1 0x60 DUP7 ADD PUSH2 0x3E71 JUMP JUMPDEST PUSH1 0x8 SHR AND SWAP2 ADD PUSH2 0x3E71 JUMP JUMPDEST JUMP JUMPDEST DUP3 SLOAD PUSH1 0x1 PUSH1 0x1 PUSH1 0xA0 SHL SUB AND DUP5 MSTORE PUSH1 0x20 SWAP1 SWAP4 ADD SWAP3 PUSH1 0x1 SWAP3 DUP4 ADD SWAP3 ADD PUSH2 0x3EAC JUMP JUMPDEST MLOAD SWAP1 DUP2 ISZERO ISZERO DUP3 SUB PUSH2 0x26E0 JUMPI JUMP JUMPDEST SWAP1 PUSH1 0x20 DUP1 DUP4 MLOAD SWAP3 DUP4 DUP2 MSTORE ADD SWAP3 ADD SWAP1 PUSH0 JUMPDEST DUP2 DUP2 LT PUSH2 0x3F44 JUMPI POP POP POP SWAP1 JUMP JUMPDEST DUP3 MLOAD PUSH1 0x1 PUSH1 0x1 PUSH1 0xA0 SHL SUB AND DUP5 MSTORE PUSH1 0x20 SWAP4 DUP5 ADD SWAP4 SWAP1 SWAP3 ADD SWAP2 PUSH1 0x1 ADD PUSH2 0x3F37 JUMP JUMPDEST DUP1 MLOAD DUP1 DUP4 MSTORE PUSH1 0x20 SWAP3 SWAP2 DUP2 SWAP1 DUP5 ADD DUP5 DUP5 ADD MCOPY PUSH0 DUP3 DUP3 ADD DUP5 ADD MSTORE PUSH1 0x1F ADD PUSH1 0x1F NOT AND ADD ADD SWAP1 JUMP JUMPDEST SWAP2 SWAP1 DUP3 ADD DUP1 SWAP3 GT PUSH2 0x3F94 JUMPI JUMP JUMPDEST PUSH4 0x4E487B71 PUSH1 0xE0 SHL PUSH0 MSTORE PUSH1 0x11 PUSH1 0x4 MSTORE PUSH1 0x24 PUSH0 REVERT JUMPDEST SWAP2 SWAP1 DUP3 SUB SWAP2 DUP3 GT PUSH2 0x3F94 JUMPI JUMP JUMPDEST CALLDATALOAD DUP1 ISZERO ISZERO DUP2 SUB PUSH2 0x26E0 JUMPI SWAP1 JUMP JUMPDEST PUSH1 0x1 PUSH1 0x1 PUSH1 0xA0 SHL SUB AND PUSH0 DUP2 DUP2 MSTORE PUSH1 0x5 PUSH1 0x20 MSTORE PUSH1 0x40 SWAP1 KECCAK256 SLOAD PUSH1 0xFF AND SWAP1 DUP2 ISZERO PUSH2 0x3FE7 JUMPI POP SWAP1 JUMP JUMPDEST PUSH1 0x40 MLOAD PUSH4 0x313CE567 PUSH1 0xE0 SHL DUP2 MSTORE SWAP2 POP PUSH1 0x20 SWAP1 DUP3 SWAP1 PUSH1 0x4 SWAP1 DUP3 SWAP1 GAS STATICCALL PUSH0 SWAP2 DUP2 PUSH2 0x4015 JUMPI JUMPDEST POP PUSH2 0x3DD9 JUMPI POP PUSH1 0x12 SWAP1 JUMP JUMPDEST SWAP1 SWAP2 POP PUSH1 0x20 DUP2 RETURNDATASIZE PUSH1 0x20 GT PUSH2 0x404B JUMPI JUMPDEST DUP2 PUSH2 0x4031 PUSH1 0x20 SWAP4 DUP4 PUSH2 0x3CE7 JUMP JUMPDEST DUP2 ADD SUB SLT PUSH2 0x26E0 JUMPI MLOAD PUSH1 0xFF DUP2 AND DUP2 SUB PUSH2 0x26E0 JUMPI SWAP1 PUSH0 PUSH2 0x400A JUMP JUMPDEST RETURNDATASIZE SWAP2 POP PUSH2 0x4024 JUMP JUMPDEST DUP2 DUP2 MUL SWAP3 SWAP2 DUP2 ISZERO SWAP2 DUP5 DIV EQ OR ISZERO PUSH2 0x3F94 JUMPI JUMP JUMPDEST SWAP1 PUSH9 0x10000000000000000 DUP2 GT PUSH2 0x3C9D JUMPI DUP2 SLOAD SWAP2 DUP2 DUP2 SSTORE DUP3 DUP3 LT PUSH2 0x4089 JUMPI POP POP POP JUMP JUMPDEST PUSH0 MSTORE PUSH1 0x20 PUSH0 KECCAK256 SWAP2 DUP3 ADD SWAP2 ADD JUMPDEST DUP2 DUP2 LT PUSH2 0x40A0 JUMPI POP POP JUMP JUMPDEST PUSH0 DUP2 SSTORE PUSH1 0x1 ADD PUSH2 0x4095 JUMP JUMPDEST SWAP1 PUSH1 0x2 DUP2 LT ISZERO PUSH2 0x3884 JUMPI PUSH1 0xFF DUP1 NOT DUP4 SLOAD AND SWAP2 AND OR SWAP1 SSTORE JUMP JUMPDEST SWAP1 PUSH1 0x2 DUP2 LT ISZERO PUSH2 0x3884 JUMPI PUSH2 0xFF00 DUP3 SLOAD SWAP2 PUSH1 0x8 SHL AND SWAP1 PUSH2 0xFF00 NOT AND OR SWAP1 SSTORE JUMP JUMPDEST DUP2 DUP2 EQ PUSH2 0x4146 JUMPI DUP2 SLOAD SWAP2 PUSH1 0x1 PUSH1 0x1 PUSH1 0x40 SHL SUB DUP4 GT PUSH2 0x3C9D JUMPI PUSH2 0x4104 DUP4 DUP4 PUSH2 0x4066 JUMP JUMPDEST PUSH0 MSTORE PUSH1 0x20 PUSH0 KECCAK256 SWAP1 PUSH0 MSTORE PUSH1 0x20 PUSH0 KECCAK256 DUP2 SLOAD SWAP2 PUSH0 SWAP3 JUMPDEST DUP5 DUP5 LT PUSH2 0x4125 JUMPI POP POP POP POP POP JUMP JUMPDEST PUSH1 0x1 SWAP2 DUP3 ADD DUP1 SLOAD PUSH1 0x1 PUSH1 0x1 PUSH1 0xA0 SHL SUB SWAP1 SWAP3 AND DUP5 DUP7 ADD SSTORE SWAP4 SWAP1 SWAP2 ADD SWAP3 SWAP1 PUSH2 0x4117 JUMP JUMPDEST POP POP JUMP JUMPDEST DUP1 MLOAD ISZERO PUSH2 0x3E0B JUMPI PUSH1 0x20 ADD SWAP1 JUMP JUMPDEST DUP1 MLOAD PUSH1 0x1 LT ISZERO PUSH2 0x3E0B JUMPI PUSH1 0x40 ADD SWAP1 JUMP JUMPDEST DUP1 MLOAD DUP3 LT ISZERO PUSH2 0x3E0B JUMPI PUSH1 0x20 SWAP2 PUSH1 0x5 SHL ADD ADD SWAP1 JUMP JUMPDEST DUP2 ISZERO PUSH2 0x4185 JUMPI DIV SWAP1 JUMP JUMPDEST PUSH4 0x4E487B71 PUSH1 0xE0 SHL PUSH0 MSTORE PUSH1 0x12 PUSH1 0x4 MSTORE PUSH1 0x24 PUSH0 REVERT JUMPDEST PUSH1 0x40 MLOAD SWAP1 PUSH2 0x41A6 DUP3 PUSH2 0x3CB1 JUMP JUMPDEST PUSH0 PUSH1 0x80 DUP4 DUP3 DUP2 MSTORE PUSH1 0x60 PUSH1 0x20 DUP3 ADD MSTORE DUP3 PUSH1 0x40 DUP3 ADD MSTORE DUP3 PUSH1 0x60 DUP3 ADD MSTORE ADD MSTORE JUMP JUMPDEST PUSH1 0x1 SLOAD PUSH1 0x1 PUSH1 0x1 PUSH1 0xA0 SHL SUB AND CALLER SUB PUSH2 0x41D8 JUMPI JUMP JUMPDEST PUSH4 0x118CDAA7 PUSH1 0xE0 SHL PUSH0 MSTORE CALLER PUSH1 0x4 MSTORE PUSH1 0x24 PUSH0 REVERT JUMPDEST PUSH1 0x40 MLOAD PUSH4 0xA9059CBB PUSH1 0xE0 SHL PUSH1 0x20 DUP3 ADD MSTORE PUSH1 0x1 PUSH1 0x1 PUSH1 0xA0 SHL SUB SWAP3 SWAP1 SWAP3 AND PUSH1 0x24 DUP4 ADD MSTORE PUSH1 0x44 DUP1 DUP4 ADD SWAP4 SWAP1 SWAP4 MSTORE SWAP2 DUP2 MSTORE PUSH2 0x3EF9 SWAP2 PUSH2 0x4227 PUSH1 0x64 DUP4 PUSH2 0x3CE7 JUMP JUMPDEST PUSH2 0x4367 JUMP JUMPDEST PUSH1 0x2 PUSH0 SLOAD EQ PUSH2 0x423B JUMPI PUSH1 0x2 PUSH0 SSTORE JUMP JUMPDEST PUSH1 0x40 MLOAD PUSH3 0x461BCD PUSH1 0xE5 SHL DUP2 MSTORE PUSH1 0x20 PUSH1 0x4 DUP3 ADD MSTORE PUSH1 0x1F PUSH1 0x24 DUP3 ADD MSTORE PUSH32 0x5265656E7472616E637947756172643A207265656E7472616E742063616C6C00 PUSH1 0x44 DUP3 ADD MSTORE PUSH1 0x64 SWAP1 REVERT JUMPDEST SWAP3 PUSH1 0x2 DUP2 LT ISZERO PUSH2 0x3884 JUMPI PUSH2 0x4297 JUMPI PUSH2 0x3DD9 SWAP3 PUSH2 0x4805 JUMP JUMPDEST PUSH2 0x3DD9 SWAP3 PUSH2 0x470A JUMP JUMPDEST MLOAD SWAP1 PUSH10 0xFFFFFFFFFFFFFFFFFFFF DUP3 AND DUP3 SUB PUSH2 0x26E0 JUMPI JUMP JUMPDEST SWAP1 DUP2 PUSH1 0xA0 SWAP2 SUB SLT PUSH2 0x26E0 JUMPI PUSH2 0x42CB DUP2 PUSH2 0x42A0 JUMP JUMPDEST SWAP2 PUSH1 0x20 DUP3 ADD MLOAD SWAP2 PUSH1 0x40 DUP2 ADD MLOAD SWAP2 PUSH2 0x3DD9 PUSH1 0x80 PUSH1 0x60 DUP5 ADD MLOAD SWAP4 ADD PUSH2 0x42A0 JUMP JUMPDEST DUP1 ISZERO PUSH2 0x38C5 JUMPI DUP2 ISZERO PUSH2 0x38C5 JUMPI PUSH8 0xDE0B6B3A7640000 DUP3 MUL SWAP2 DUP3 DIV PUSH8 0xDE0B6B3A7640000 SUB PUSH2 0x3F94 JUMPI PUSH2 0x431A SWAP2 PUSH2 0x417B JUMP JUMPDEST SWAP1 PUSH8 0xDE0B6B3A7640000 DUP2 MUL SWAP1 DUP1 DUP3 DIV PUSH8 0xDE0B6B3A7640000 EQ SWAP1 ISZERO OR ISZERO PUSH2 0x3F94 JUMPI PUSH2 0x434E SWAP3 PUSH2 0x4349 SWAP2 PUSH2 0x417B JUMP JUMPDEST PUSH2 0x4959 JUMP JUMPDEST PUSH1 0x11 SLOAD LT PUSH2 0x4358 JUMPI JUMP JUMPDEST PUSH4 0x69E25179 PUSH1 0xE1 SHL PUSH0 MSTORE PUSH1 0x4 PUSH0 REVERT JUMPDEST SWAP1 PUSH0 PUSH1 0x20 SWAP2 DUP3 DUP2 MLOAD SWAP2 ADD DUP3 DUP6 GAS CALL ISZERO PUSH2 0x36E6 JUMPI PUSH0 MLOAD RETURNDATASIZE PUSH2 0x43B6 JUMPI POP PUSH1 0x1 PUSH1 0x1 PUSH1 0xA0 SHL SUB DUP2 AND EXTCODESIZE ISZERO JUMPDEST PUSH2 0x4396 JUMPI POP JUMP JUMPDEST PUSH4 0x5274AFE7 PUSH1 0xE0 SHL PUSH0 SWAP1 DUP2 MSTORE PUSH1 0x1 PUSH1 0x1 PUSH1 0xA0 SHL SUB SWAP2 SWAP1 SWAP2 AND PUSH1 0x4 MSTORE PUSH1 0x24 SWAP1 REVERT JUMPDEST PUSH1 0x1 EQ ISZERO PUSH2 0x438F JUMP JUMPDEST SWAP4 SWAP1 SWAP2 SWAP5 SWAP3 PUSH1 0x2 DUP2 LT ISZERO PUSH2 0x3884 JUMPI PUSH2 0x455F JUMPI PUSH1 0x1 PUSH1 0x1 PUSH1 0xA0 SHL SUB PUSH2 0x43E2 PUSH0 PUSH2 0x3C24 JUMP JUMPDEST SLOAD AND SWAP2 DUP3 ISZERO PUSH2 0x4550 JUMPI DUP3 PUSH0 MSTORE PUSH1 0x8 PUSH1 0x20 MSTORE PUSH1 0xFF PUSH1 0x40 PUSH0 KECCAK256 SLOAD AND ISZERO PUSH2 0x4541 JUMPI PUSH2 0x4414 DUP7 DUP5 PUSH1 0x1 PUSH1 0x1 PUSH1 0xA0 SHL SUB DUP9 AND PUSH2 0x49CE JUMP JUMPDEST PUSH1 0x13 SLOAD PUSH1 0x40 MLOAD SWAP6 PUSH1 0x1 PUSH1 0x1 PUSH1 0x60 SHL SUB NOT SWAP1 PUSH1 0x60 SHL AND PUSH1 0x20 DUP8 ADD MSTORE PUSH3 0xFFFFFF PUSH1 0xE8 SHL SWAP1 PUSH1 0xE8 SHL AND PUSH1 0x34 DUP7 ADD MSTORE PUSH1 0x1 PUSH1 0x1 PUSH1 0x60 SHL SUB NOT SWAP1 PUSH1 0x60 SHL AND PUSH1 0x37 DUP6 ADD MSTORE PUSH1 0x2B DUP5 MSTORE PUSH2 0x4461 PUSH1 0x4B DUP6 PUSH2 0x3CE7 JUMP JUMPDEST PUSH2 0x2710 SUB SWAP3 PUSH2 0x2710 DUP5 GT PUSH2 0x3F94 JUMPI PUSH0 PUSH2 0x44DB SWAP2 PUSH2 0x2710 PUSH2 0x4483 PUSH1 0x20 SWAP8 DUP10 PUSH2 0x4053 JUMP JUMPDEST DIV PUSH1 0x40 MLOAD SWAP2 PUSH2 0x4491 DUP4 PUSH2 0x3CB1 JUMP JUMPDEST DUP3 MSTORE DUP7 DUP3 ADD SWAP1 ADDRESS DUP3 MSTORE PUSH1 0x40 DUP4 ADD SWAP7 DUP8 MSTORE PUSH1 0x60 DUP4 ADD SWAP9 DUP10 MSTORE PUSH1 0x80 DUP4 ADD SWAP1 DUP2 MSTORE PUSH1 0x40 MLOAD SWAP9 DUP10 SWAP8 DUP9 SWAP7 DUP8 SWAP6 PUSH4 0xC04B8D59 PUSH1 0xE0 SHL DUP8 MSTORE DUP12 PUSH1 0x4 DUP9 ADD MSTORE MLOAD PUSH1 0xA0 PUSH1 0x24 DUP9 ADD MSTORE PUSH1 0xC4 DUP8 ADD SWAP1 PUSH2 0x3F63 JUMP JUMPDEST SWAP4 MLOAD PUSH1 0x1 PUSH1 0x1 PUSH1 0xA0 SHL SUB AND PUSH1 0x44 DUP7 ADD MSTORE MLOAD PUSH1 0x64 DUP6 ADD MSTORE MLOAD PUSH1 0x84 DUP5 ADD MSTORE MLOAD PUSH1 0xA4 DUP4 ADD MSTORE SUB SWAP3 GAS CALL SWAP1 DUP2 ISZERO PUSH2 0x36E6 JUMPI PUSH0 SWAP2 PUSH2 0x4512 JUMPI POP SWAP1 JUMP JUMPDEST SWAP1 POP PUSH1 0x20 DUP2 RETURNDATASIZE PUSH1 0x20 GT PUSH2 0x4539 JUMPI JUMPDEST DUP2 PUSH2 0x452D PUSH1 0x20 SWAP4 DUP4 PUSH2 0x3CE7 JUMP JUMPDEST DUP2 ADD SUB SLT PUSH2 0x26E0 JUMPI MLOAD SWAP1 JUMP JUMPDEST RETURNDATASIZE SWAP2 POP PUSH2 0x4520 JUMP JUMPDEST PUSH4 0x5BB58457 PUSH1 0xE1 SHL PUSH0 MSTORE PUSH1 0x4 PUSH0 REVERT JUMPDEST PUSH4 0x2A4251F7 PUSH1 0xE2 SHL PUSH0 MSTORE PUSH1 0x4 PUSH0 REVERT JUMPDEST SWAP2 SWAP4 SWAP3 SWAP1 SWAP2 PUSH1 0x1 PUSH1 0x1 PUSH1 0xA0 SHL SUB PUSH2 0x4576 PUSH1 0x1 PUSH2 0x3C24 JUMP JUMPDEST SLOAD AND SWAP2 DUP3 ISZERO PUSH2 0x4550 JUMPI DUP3 PUSH0 MSTORE PUSH1 0x8 PUSH1 0x20 MSTORE PUSH1 0xFF PUSH1 0x40 PUSH0 KECCAK256 SLOAD AND ISZERO PUSH2 0x4541 JUMPI PUSH1 0x1 PUSH1 0x1 PUSH1 0xA0 SHL SUB AND SWAP3 PUSH2 0x45A9 DUP6 DUP5 DUP7 PUSH2 0x49CE JUMP JUMPDEST PUSH1 0x40 MLOAD SWAP4 PUSH2 0x45B8 PUSH1 0x60 DUP7 PUSH2 0x3CE7 JUMP JUMPDEST PUSH1 0x2 DUP6 MSTORE PUSH1 0x40 CALLDATASIZE PUSH1 0x20 DUP8 ADD CALLDATACOPY PUSH2 0x45CD DUP6 PUSH2 0x414A JUMP JUMPDEST MSTORE PUSH2 0x45D7 DUP5 PUSH2 0x4157 JUMP JUMPDEST PUSH1 0x1 PUSH1 0x1 PUSH1 0xA0 SHL SUB SWAP1 SWAP2 AND SWAP1 MSTORE PUSH2 0x2710 SWAP1 DUP2 SUB SWAP5 SWAP1 DUP6 GT PUSH2 0x3F94 JUMPI PUSH0 DUP5 PUSH2 0x2710 PUSH2 0x4605 PUSH2 0x4636 SWAP9 DUP5 SWAP9 PUSH2 0x4053 JUMP JUMPDEST DIV SWAP3 PUSH1 0x40 MLOAD SWAP8 DUP9 SWAP7 DUP8 SWAP6 DUP7 SWAP5 PUSH4 0x38ED1739 PUSH1 0xE0 SHL DUP7 MSTORE PUSH1 0x4 DUP7 ADD MSTORE PUSH1 0x24 DUP6 ADD MSTORE PUSH1 0xA0 PUSH1 0x44 DUP6 ADD MSTORE PUSH1 0xA4 DUP5 ADD SWAP1 PUSH2 0x3F27 JUMP JUMPDEST SWAP1 ADDRESS PUSH1 0x64 DUP5 ADD MSTORE PUSH1 0x84 DUP4 ADD MSTORE SUB SWAP3 GAS CALL SWAP1 DUP2 ISZERO PUSH2 0x36E6 JUMPI PUSH0 SWAP2 PUSH2 0x466F JUMPI JUMPDEST POP DUP1 MLOAD PUSH0 NOT DUP2 ADD SWAP1 DUP2 GT PUSH2 0x3F94 JUMPI PUSH2 0x466B SWAP2 PUSH2 0x4167 JUMP JUMPDEST MLOAD SWAP1 JUMP JUMPDEST PUSH2 0x468B SWAP2 POP RETURNDATASIZE DUP1 PUSH0 DUP4 RETURNDATACOPY PUSH2 0x4683 DUP2 DUP4 PUSH2 0x3CE7 JUMP JUMPDEST DUP2 ADD SWAP1 PUSH2 0x4691 JUMP JUMPDEST PUSH0 PUSH2 0x4654 JUMP JUMPDEST PUSH1 0x20 DUP2 DUP4 SUB SLT PUSH2 0x26E0 JUMPI DUP1 MLOAD SWAP1 PUSH1 0x1 PUSH1 0x1 PUSH1 0x40 SHL SUB DUP3 GT PUSH2 0x26E0 JUMPI ADD SWAP1 DUP1 PUSH1 0x1F DUP4 ADD SLT ISZERO PUSH2 0x26E0 JUMPI DUP2 MLOAD PUSH2 0x46C4 DUP2 PUSH2 0x3D08 JUMP JUMPDEST SWAP3 PUSH2 0x46D2 PUSH1 0x40 MLOAD SWAP5 DUP6 PUSH2 0x3CE7 JUMP JUMPDEST DUP2 DUP5 MSTORE PUSH1 0x20 DUP1 DUP6 ADD SWAP3 PUSH1 0x5 SHL DUP3 ADD ADD SWAP3 DUP4 GT PUSH2 0x26E0 JUMPI PUSH1 0x20 ADD SWAP1 JUMPDEST DUP3 DUP3 LT PUSH2 0x46FA JUMPI POP POP POP SWAP1 JUMP JUMPDEST DUP2 MLOAD DUP2 MSTORE PUSH1 0x20 SWAP2 DUP3 ADD SWAP2 ADD PUSH2 0x46ED JUMP JUMPDEST PUSH1 0x1 PUSH0 MSTORE PUSH1 0x6 PUSH1 0x20 MSTORE PUSH32 0x3E5FEC24AA4DC4E5AEE2E025E51E1392C72A2500577559FAE9665C6D52BD6A31 SLOAD PUSH1 0x1 PUSH1 0x1 PUSH1 0xA0 SHL SUB AND DUP1 ISZERO PUSH2 0x4550 JUMPI PUSH2 0x47BD SWAP4 PUSH0 SWAP4 PUSH1 0x40 MLOAD SWAP4 PUSH2 0x4759 PUSH1 0x60 DUP7 PUSH2 0x3CE7 JUMP JUMPDEST PUSH1 0x2 DUP6 MSTORE PUSH1 0x40 CALLDATASIZE PUSH1 0x20 DUP8 ADD CALLDATACOPY PUSH2 0x476E DUP6 PUSH2 0x414A JUMP JUMPDEST PUSH1 0x1 PUSH1 0x1 PUSH1 0xA0 SHL SUB SWAP1 SWAP2 AND SWAP1 MSTORE PUSH2 0x4784 DUP5 PUSH2 0x4157 JUMP JUMPDEST PUSH1 0x1 PUSH1 0x1 PUSH1 0xA0 SHL SUB SWAP1 SWAP2 AND SWAP1 MSTORE PUSH1 0x40 DUP1 MLOAD PUSH4 0xD06CA61F PUSH1 0xE0 SHL DUP2 MSTORE PUSH1 0x4 DUP2 ADD SWAP3 SWAP1 SWAP3 MSTORE PUSH1 0x24 DUP3 ADD MSTORE SWAP4 DUP5 SWAP3 DUP4 SWAP2 DUP3 SWAP2 PUSH1 0x44 DUP4 ADD SWAP1 PUSH2 0x3F27 JUMP JUMPDEST SUB SWAP2 GAS STATICCALL PUSH0 SWAP2 DUP2 PUSH2 0x47E9 JUMPI JUMPDEST POP PUSH2 0x47D3 JUMPI POP PUSH0 SWAP1 JUMP JUMPDEST DUP1 MLOAD PUSH0 NOT DUP2 ADD SWAP1 DUP2 GT PUSH2 0x3F94 JUMPI PUSH2 0x466B SWAP2 PUSH2 0x4167 JUMP JUMPDEST PUSH2 0x47FE SWAP2 SWAP3 POP RETURNDATASIZE DUP1 PUSH0 DUP4 RETURNDATACOPY PUSH2 0x4683 DUP2 DUP4 PUSH2 0x3CE7 JUMP JUMPDEST SWAP1 PUSH0 PUSH2 0x47C9 JUMP JUMPDEST PUSH0 DUP1 MSTORE PUSH1 0x7 PUSH1 0x20 MSTORE PUSH32 0x6D5257204EBE7D88FD91AE87941CB2DD9D8062B64AE5A2BD2D28EC40B9FBF6DF SLOAD SWAP1 SWAP2 SWAP1 PUSH1 0x1 PUSH1 0x1 PUSH1 0xA0 SHL SUB AND DUP1 ISZERO PUSH2 0x4550 JUMPI PUSH1 0x20 SWAP3 PUSH0 PUSH1 0xA4 SWAP3 PUSH3 0xFFFFFF PUSH1 0x13 SLOAD AND SWAP7 PUSH1 0x40 MLOAD SWAP8 DUP9 SWAP7 DUP8 SWAP6 PUSH4 0xF7729D43 PUSH1 0xE0 SHL DUP8 MSTORE PUSH1 0x1 DUP1 PUSH1 0xA0 SHL SUB AND PUSH1 0x4 DUP8 ADD MSTORE PUSH1 0x1 DUP1 PUSH1 0xA0 SHL SUB AND PUSH1 0x24 DUP7 ADD MSTORE PUSH1 0x44 DUP6 ADD MSTORE PUSH1 0x64 DUP5 ADD MSTORE DUP2 PUSH1 0x84 DUP5 ADD MSTORE GAS CALL PUSH0 SWAP2 DUP2 PUSH2 0x48A1 JUMPI JUMPDEST POP PUSH2 0x3DD9 JUMPI POP PUSH0 SWAP1 JUMP JUMPDEST SWAP1 SWAP2 POP PUSH1 0x20 DUP2 RETURNDATASIZE PUSH1 0x20 GT PUSH2 0x48CD JUMPI JUMPDEST DUP2 PUSH2 0x48BD PUSH1 0x20 SWAP4 DUP4 PUSH2 0x3CE7 JUMP JUMPDEST DUP2 ADD SUB SLT PUSH2 0x26E0 JUMPI MLOAD SWAP1 PUSH0 PUSH2 0x4897 JUMP JUMPDEST RETURNDATASIZE SWAP2 POP PUSH2 0x48B0 JUMP JUMPDEST PUSH1 0xFF AND PUSH1 0x4D DUP2 GT PUSH2 0x3F94 JUMPI PUSH1 0xA EXP SWAP1 JUMP JUMPDEST PUSH1 0x1 PUSH1 0x1 PUSH1 0xA0 SHL SUB SWAP1 SWAP2 AND PUSH0 SWAP1 DUP2 MSTORE PUSH1 0x5 PUSH1 0x20 MSTORE PUSH1 0x40 SWAP1 KECCAK256 SLOAD PUSH1 0xFF AND DUP1 ISZERO PUSH2 0x4951 JUMPI JUMPDEST PUSH1 0xFF AND PUSH1 0x12 DUP2 LT PUSH2 0x4933 JUMPI PUSH1 0x11 NOT ADD SWAP1 PUSH1 0xFF DUP3 GT PUSH2 0x3F94 JUMPI PUSH2 0x492D PUSH2 0x3DD9 SWAP3 PUSH2 0x48D5 JUMP JUMPDEST SWAP1 PUSH2 0x417B JUMP JUMPDEST PUSH1 0x12 SUB SWAP1 PUSH1 0xFF DUP3 GT PUSH2 0x3F94 JUMPI PUSH2 0x494B PUSH2 0x3DD9 SWAP3 PUSH2 0x48D5 JUMP JUMPDEST SWAP1 PUSH2 0x4053 JUMP JUMPDEST POP PUSH1 0x12 PUSH2 0x4909 JUMP JUMPDEST DUP1 ISZERO DUP1 ISZERO PUSH2 0x49C6 JUMPI JUMPDEST PUSH2 0x49B8 JUMPI DUP2 DUP2 GT SWAP2 DUP3 ISZERO PUSH2 0x49A8 JUMPI PUSH2 0x497A DUP2 DUP4 PUSH2 0x3FA8 JUMP JUMPDEST SWAP3 JUMPDEST ISZERO PUSH2 0x49A1 JUMPI POP JUMPDEST PUSH2 0x2710 DUP3 MUL SWAP2 DUP1 DUP4 DIV PUSH2 0x2710 EQ SWAP1 ISZERO OR ISZERO PUSH2 0x3F94 JUMPI PUSH2 0x3DD9 SWAP2 PUSH2 0x417B JUMP JUMPDEST SWAP1 POP PUSH2 0x4983 JUMP JUMPDEST PUSH2 0x49B2 DUP3 DUP3 PUSH2 0x3FA8 JUMP JUMPDEST SWAP3 PUSH2 0x497C JUMP JUMPDEST PUSH3 0xFC7CAD PUSH1 0xE5 SHL PUSH0 MSTORE PUSH1 0x4 PUSH0 REVERT JUMPDEST POP DUP2 ISZERO PUSH2 0x4962 JUMP JUMPDEST PUSH1 0x40 MLOAD PUSH4 0x95EA7B3 PUSH1 0xE0 SHL PUSH1 0x20 DUP1 DUP4 ADD SWAP2 DUP3 MSTORE PUSH1 0x1 PUSH1 0x1 PUSH1 0xA0 SHL SUB DUP6 AND PUSH1 0x24 DUP5 ADD MSTORE PUSH1 0x44 DUP1 DUP5 ADD SWAP7 SWAP1 SWAP7 MSTORE SWAP5 DUP3 MSTORE SWAP3 SWAP4 SWAP1 SWAP3 PUSH0 SWAP1 PUSH2 0x4A0D PUSH1 0x64 DUP7 PUSH2 0x3CE7 JUMP JUMPDEST DUP5 MLOAD SWAP1 DUP3 DUP6 GAS CALL PUSH0 MLOAD RETURNDATASIZE DUP3 PUSH2 0x4A6E JUMPI JUMPDEST POP POP ISZERO PUSH2 0x4A29 JUMPI POP POP POP JUMP JUMPDEST PUSH1 0x40 MLOAD PUSH4 0x95EA7B3 PUSH1 0xE0 SHL PUSH1 0x20 DUP3 ADD MSTORE PUSH1 0x1 PUSH1 0x1 PUSH1 0xA0 SHL SUB SWAP1 SWAP4 AND PUSH1 0x24 DUP5 ADD MSTORE PUSH0 PUSH1 0x44 DUP1 DUP6 ADD SWAP2 SWAP1 SWAP2 MSTORE DUP4 MSTORE PUSH2 0x3EF9 SWAP3 PUSH2 0x4227 SWAP1 PUSH2 0x4A68 PUSH1 0x64 DUP3 PUSH2 0x3CE7 JUMP JUMPDEST DUP3 PUSH2 0x4367 JUMP JUMPDEST SWAP1 SWAP2 POP PUSH2 0x4A8B JUMPI POP PUSH1 0x1 PUSH1 0x1 PUSH1 0xA0 SHL SUB DUP2 AND EXTCODESIZE ISZERO ISZERO JUMPDEST PUSH0 DUP1 PUSH2 0x4A1D JUMP JUMPDEST PUSH1 0x1 EQ PUSH2 0x4A84 JUMP INVALID LOG2 PUSH5 0x6970667358 0x22 SLT KECCAK256 ADDMOD 0xD4 PUSH19 0x252AD28635DEFAEECCBFE449597C36BD4A3484 PUSH30 0x641F15EAA0C59E9B4564736F6C634300081E003300000000000000000000 "
		},
		"gasEstimates": {
			"creation": {
				"codeDepositCost": "3829000",
				"executionCost": "636927",
				"totalCost": "4465927"
			},
			"external": {
				"ADDRESSES_PROVIDER()": "2296",
				"POOL()": "3069",
				"aaveV3AddressesProvider()": "3597",
				"aaveV3Pool()": "3223",
				"addRoute(address[],uint256,uint8,uint8)": "infinite",
				"addRoutesBatch(address[][],uint256[],uint8[],uint8[])": "infinite",
				"autoUnwrapWETH()": "2350",
				"beneficiary()": "2629",
				"beneficiaryShareBps()": "3375",
				"builderTipBps()": "2693",
				"calculateProfitability(address[],uint256,uint8,uint8)": "infinite",
				"deadlineSeconds()": "3639",
				"defaultUniV3Fee()": "2523",
				"deleteRoute(uint256)": "infinite",
				"dexQuoters(uint8)": "4049",
				"dexRouters(uint8)": "3257",
				"emergencyCleanup(address[])": "infinite",
				"emergencyWithdraw(address)": "infinite",
				"enforceProfitabilityCheck()": "2909",
				"enforceSecondaryOracle()": "2843",
				"executeOperation(address,uint256,uint256,address,bytes)": "infinite",
				"flashLoanPremiumBps()": "2737",
				"gasPrice()": "4008",
				"gasUnitsEstimate()": "3749",
				"getAllRoutes(uint256,uint256)": "infinite",
				"getDEXQuoter(uint8)": "3521",
				"getDEXRouter(uint8)": "4093",
				"getPriceFeed(address)": "2931",
				"getRoute(uint256)": "infinite",
				"getRouteCount()": "2561",
				"getTokenDecimals(address)": "infinite",
				"initiateArbitrage(address,uint256,uint256,bool)": "infinite",
				"isPaused()": "3481",
				"isRouterWhitelisted(address)": "2478",
				"isTokenSupported(address)": "3206",
				"maxLoanAmount()": "3001",
				"maxPriceFeedAge()": "2294",
				"maxSlippageBps()": "3617",
				"minProfitAbsolute()": "3771",
				"minProfitBps()": "2583",
				"oracleDeviationBps()": "3221",
				"owner()": "3267",
				"paused()": "2799",
				"priceFeeds(address)": "3591",
				"renounceOwnership()": "28765",
				"routeCount()": "3595",
				"routes(uint256)": "infinite",
				"safetyBufferBps()": "2715",
				"secondaryOracleDeviationBps()": "3705",
				"secondaryPriceFeeds(address)": "3723",
				"setAutoUnwrapWETH(bool)": "28521",
				"setBeneficiary(address)": "27992",
				"setBeneficiaryShare(uint256)": "25880",
				"setDEXQuoter(uint8,address)": "29469",
				"setDEXRouter(uint8,address)": "54174",
				"setDefaultUniV3Fee(uint24)": "29369",
				"setEnforceProfitabilityCheck(bool)": "28552",
				"setEnforceSecondaryOracle(bool)": "29344",
				"setMaxLoanAmount(uint256)": "26735",
				"setMinProfitAbsolute(uint256)": "26867",
				"setPaused(bool)": "27804",
				"setPriceFeed(address,address)": "29143",
				"setPriceFeedsBatch(address[],address[])": "infinite",
				"setProtocolAddresses(address,address)": "53558",
				"setSecondaryPriceFeed(address,address)": "28703",
				"setTokenDecimals(address,uint8)": "28693",
				"setTokenSupported(address,bool)": "29391",
				"setTokensSupportedBatch(address[],bool[])": "infinite",
				"supportedTokens(address)": "3038",
				"tokenDecimals(address)": "3428",
				"transferOwnership(address)": "29865",
				"updateAaveV3Pool(address)": "28004",
				"updateAddressesProvider(address)": "26838",
				"updateOracleParams(uint256,uint256,uint256)": "71507",
				"updateProfitabilityParams(uint256,uint256,uint256,uint256)": "93436",
				"updateRiskParams(uint256,uint256,uint256,uint256)": "93367",
				"updateRoute(uint256,address[],uint256,uint8,uint8)": "infinite",
				"weth()": "2673",
				"whitelistRouter(address,bool)": "29237",
				"whitelistedRouters(address)": "2554",
				"withdrawETH()": "infinite"
			},
			"internal": {
				"_addRouteInternal(address[] calldata,uint256,enum ArbExecutor.DEXType,enum ArbExecutor.DEXType)": "infinite",
				"_calculateBps(uint256,uint256)": "infinite",
				"_calculateDeviation(uint256,uint256)": "333",
				"_calculateDynamicGasEstimate(uint256)": "infinite",
				"_calculateDynamicSlippage(uint256,uint256)": "infinite",
				"_distributeProfitToBeneficiary(address,uint256)": "infinite",
				"_executeArbitrage(address[] memory,uint256,enum ArbExecutor.DEXType,enum ArbExecutor.DEXType,uint256,uint256)": "infinite",
				"_executeDexSwap(address,address,uint256,enum ArbExecutor.DEXType,uint256,uint256)": "infinite",
				"_executeSushiswapSwap(address,address,uint256,uint256,uint256)": "infinite",
				"_executeUniswapV3Swap(address,address,uint256,uint256,uint256)": "infinite",
				"_getOraclePricesAndValidate(address,address)": "infinite",
				"_getQuote(address,address,uint256,enum ArbExecutor.DEXType)": "infinite",
				"_getSushiswapQuote(address,address,uint256)": "infinite",
				"_getUniswapV3Quote(address,address,uint256)": "infinite",
				"_normalizePrice(uint256,address)": "2440",
				"_validatePriceDeviationWithCache(uint256,uint256,uint256,uint256)": "infinite",
				"_validateSecondaryOracle(address,address,int256,int256)": "infinite"
			}
		},
		"methodIdentifiers": {
			"ADDRESSES_PROVIDER()": "0542975c",
			"POOL()": "7535d246",
			"aaveV3AddressesProvider()": "baf79c39",
			"aaveV3Pool()": "86a06ff0",
			"addRoute(address[],uint256,uint8,uint8)": "0fee470a",
			"addRoutesBatch(address[][],uint256[],uint8[],uint8[])": "de3ae757",
			"autoUnwrapWETH()": "0dba22af",
			"beneficiary()": "38af3eed",
			"beneficiaryShareBps()": "97ad7e2a",
			"builderTipBps()": "4e791437",
			"calculateProfitability(address[],uint256,uint8,uint8)": "b3eeb621",
			"deadlineSeconds()": "c54cdad8",
			"defaultUniV3Fee()": "2c49c9a3",
			"deleteRoute(uint256)": "9693c4a4",
			"dexQuoters(uint8)": "e095b465",
			"dexRouters(uint8)": "785b32f4",
			"emergencyCleanup(address[])": "033051c6",
			"emergencyWithdraw(address)": "6ff1c9bc",
			"enforceProfitabilityCheck()": "6ae26c99",
			"enforceSecondaryOracle()": "5fbaa51d",
			"executeOperation(address,uint256,uint256,address,bytes)": "1b11d0ff",
			"flashLoanPremiumBps()": "56d8940f",
			"gasPrice()": "fe173b97",
			"gasUnitsEstimate()": "dbda2808",
			"getAllRoutes(uint256,uint256)": "db05852f",
			"getDEXQuoter(uint8)": "96f62ac7",
			"getDEXRouter(uint8)": "e292e876",
			"getPriceFeed(address)": "5b6cca80",
			"getRoute(uint256)": "fa66358a",
			"getRouteCount()": "32252057",
			"getTokenDecimals(address)": "785c7cf6",
			"initiateArbitrage(address,uint256,uint256,bool)": "0ea62cb5",
			"isPaused()": "b187bd26",
			"isRouterWhitelisted(address)": "0aef023f",
			"isTokenSupported(address)": "75151b63",
			"maxLoanAmount()": "72f94365",
			"maxPriceFeedAge()": "0816c847",
			"maxSlippageBps()": "c4aa7395",
			"minProfitAbsolute()": "dde6befd",
			"minProfitBps()": "383aeeae",
			"oracleDeviationBps()": "8a611d55",
			"owner()": "8da5cb5b",
			"paused()": "5c975abb",
			"priceFeeds(address)": "9dcb511a",
			"renounceOwnership()": "715018a6",
			"routeCount()": "bf539cb4",
			"routes(uint256)": "726f16d8",
			"safetyBufferBps()": "5688b8ef",
			"secondaryOracleDeviationBps()": "d83ea790",
			"secondaryPriceFeeds(address)": "b7e10191",
			"setAutoUnwrapWETH(bool)": "7ae85183",
			"setBeneficiary(address)": "1c31f710",
			"setBeneficiaryShare(uint256)": "42d55497",
			"setDEXQuoter(uint8,address)": "9b0afe6d",
			"setDEXRouter(uint8,address)": "deb928ee",
			"setDefaultUniV3Fee(uint24)": "eeacafc3",
			"setEnforceProfitabilityCheck(bool)": "84845fd4",
			"setEnforceSecondaryOracle(bool)": "f984f70a",
			"setMaxLoanAmount(uint256)": "b76e053b",
			"setMinProfitAbsolute(uint256)": "cceb6c42",
			"setPaused(bool)": "16c38b3c",
			"setPriceFeed(address,address)": "76e11286",
			"setPriceFeedsBatch(address[],address[])": "e0925d6c",
			"setProtocolAddresses(address,address)": "90f73d3c",
			"setSecondaryPriceFeed(address,address)": "3d59b5f1",
			"setTokenDecimals(address,uint8)": "5cdcd8bb",
			"setTokenSupported(address,bool)": "a1836954",
			"setTokensSupportedBatch(address[],bool[])": "312a634d",
			"supportedTokens(address)": "68c4ac26",
			"tokenDecimals(address)": "8ee573ac",
			"transferOwnership(address)": "f2fde38b",
			"updateAaveV3Pool(address)": "cc6a2924",
			"updateAddressesProvider(address)": "219a9822",
			"updateOracleParams(uint256,uint256,uint256)": "b2bcccda",
			"updateProfitabilityParams(uint256,uint256,uint256,uint256)": "6ee10175",
			"updateRiskParams(uint256,uint256,uint256,uint256)": "68aad172",
			"updateRoute(uint256,address[],uint256,uint8,uint8)": "79a73bbe",
			"weth()": "3fc8cef3",
			"whitelistRouter(address,bool)": "8f3ed683",
			"whitelistedRouters(address)": "0f874a13",
			"withdrawETH()": "e086e5ec"
		}
	},
	"abi": [
		{
			"inputs": [],
			"stateMutability": "nonpayable",
			"type": "constructor"
		},
		{
			"inputs": [],
			"name": "ApprovalFailed",
			"type": "error"
		},
		{
			"inputs": [],
			"name": "ArrayLengthMismatch",
			"type": "error"
		},
		{
			"inputs": [],
			"name": "BeneficiaryShareExceedsMax",
			"type": "error"
		},
		{
			"inputs": [],
			"name": "CircularPathRequired",
			"type": "error"
		},
		{
			"inputs": [],
			"name": "ContractPaused",
			"type": "error"
		},
		{
			"inputs": [],
			"name": "DEXNotConfigured",
			"type": "error"
		},
		{
			"inputs": [],
			"name": "DuplicateTokenInPath",
			"type": "error"
		},
		{
			"inputs": [],
			"name": "ETHTransferFailed",
			"type": "error"
		},
		{
			"inputs": [],
			"name": "ExceedsMaxLoan",
			"type": "error"
		},
		{
			"inputs": [],
			"name": "InsufficientLiquidityForRoute",
			"type": "error"
		},
		{
			"inputs": [],
			"name": "InsufficientOutput",
			"type": "error"
		},
		{
			"inputs": [],
			"name": "InvalidAmount",
			"type": "error"
		},
		{
			"inputs": [],
			"name": "InvalidAsset",
			"type": "error"
		},
		{
			"inputs": [],
			"name": "InvalidBeneficiary",
			"type": "error"
		},
		{
			"inputs": [],
			"name": "InvalidBps",
			"type": "error"
		},
		{
			"inputs": [],
			"name": "InvalidFee",
			"type": "error"
		},
		{
			"inputs": [],
			"name": "InvalidFeed",
			"type": "error"
		},
		{
			"inputs": [],
			"name": "InvalidInitiator",
			"type": "error"
		},
		{
			"inputs": [],
			"name": "InvalidOraclePrice",
			"type": "error"
		},
		{
			"inputs": [],
			"name": "InvalidPathLength",
			"type": "error"
		},
		{
			"inputs": [],
			"name": "InvalidPool",
			"type": "error"
		},
		{
			"inputs": [],
			"name": "InvalidProvider",
			"type": "error"
		},
		{
			"inputs": [],
			"name": "InvalidQuoter",
			"type": "error"
		},
		{
			"inputs": [],
			"name": "InvalidRouteId",
			"type": "error"
		},
		{
			"inputs": [],
			"name": "InvalidRoutePath",
			"type": "error"
		},
		{
			"inputs": [],
			"name": "InvalidRouter",
			"type": "error"
		},
		{
			"inputs": [],
			"name": "InvalidToken",
			"type": "error"
		},
		{
			"inputs": [],
			"name": "InvalidTokenAddress",
			"type": "error"
		},
		{
			"inputs": [],
			"name": "NoBalance",
			"type": "error"
		},
		{
			"inputs": [],
			"name": "NoPriceFeed",
			"type": "error"
		},
		{
			"inputs": [
				{
					"internalType": "address",
					"name": "owner",
					"type": "address"
				}
			],
			"name": "OwnableInvalidOwner",
			"type": "error"
		},
		{
			"inputs": [
				{
					"internalType": "address",
					"name": "account",
					"type": "address"
				}
			],
			"name": "OwnableUnauthorizedAccount",
			"type": "error"
		},
		{
			"inputs": [],
			"name": "PriceDeviationTooHigh",
			"type": "error"
		},
		{
			"inputs": [],
			"name": "ProfitBelowAbsoluteMinimum",
			"type": "error"
		},
		{
			"inputs": [],
			"name": "ProfitBelowMinimum",
			"type": "error"
		},
		{
			"inputs": [],
			"name": "QuoteFailed",
			"type": "error"
		},
		{
			"inputs": [],
			"name": "RouterNotWhitelisted",
			"type": "error"
		},
		{
			"inputs": [
				{
					"internalType": "address",
					"name": "token",
					"type": "address"
				}
			],
			"name": "SafeERC20FailedOperation",
			"type": "error"
		},
		{
			"inputs": [],
			"name": "SecondaryPriceDeviationTooHigh",
			"type": "error"
		},
		{
			"inputs": [],
			"name": "StalePriceFeed",
			"type": "error"
		},
		{
			"inputs": [],
			"name": "StaleSecondaryFeed",
			"type": "error"
		},
		{
			"inputs": [],
			"name": "SwapFailed",
			"type": "error"
		},
		{
			"inputs": [],
			"name": "TradNotProfitable",
			"type": "error"
		},
		{
			"inputs": [],
			"name": "UnauthorizedCaller",
			"type": "error"
		},
		{
			"inputs": [],
			"name": "UnsupportedToken",
			"type": "error"
		},
		{
			"anonymous": false,
			"inputs": [
				{
					"indexed": true,
					"internalType": "address",
					"name": "asset",
					"type": "address"
				},
				{
					"indexed": false,
					"internalType": "uint256",
					"name": "amount",
					"type": "uint256"
				},
				{
					"indexed": false,
					"internalType": "uint256",
					"name": "routeId",
					"type": "uint256"
				}
			],
			"name": "ArbitrageInitiated",
			"type": "event"
		},
		{
			"anonymous": false,
			"inputs": [
				{
					"indexed": true,
					"internalType": "address",
					"name": "asset",
					"type": "address"
				},
				{
					"indexed": false,
					"internalType": "uint256",
					"name": "amount",
					"type": "uint256"
				},
				{
					"indexed": false,
					"internalType": "uint256",
					"name": "profit",
					"type": "uint256"
				},
				{
					"indexed": false,
					"internalType": "uint256",
					"name": "routeId",
					"type": "uint256"
				},
				{
					"indexed": false,
					"internalType": "uint256",
					"name": "gasUsed",
					"type": "uint256"
				}
			],
			"name": "ArbitrageSuccess",
			"type": "event"
		},
		{
			"anonymous": false,
			"inputs": [
				{
					"indexed": false,
					"internalType": "bool",
					"name": "enabled",
					"type": "bool"
				}
			],
			"name": "AutoUnwrapWETHUpdated",
			"type": "event"
		},
		{
			"anonymous": false,
			"inputs": [
				{
					"indexed": false,
					"internalType": "uint256",
					"name": "beneficiaryShareBps",
					"type": "uint256"
				}
			],
			"name": "BeneficiaryShareUpdated",
			"type": "event"
		},
		{
			"anonymous": false,
			"inputs": [
				{
					"indexed": true,
					"internalType": "address",
					"name": "beneficiary",
					"type": "address"
				}
			],
			"name": "BeneficiaryUpdated",
			"type": "event"
		},
		{
			"anonymous": false,
			"inputs": [
				{
					"indexed": true,
					"internalType": "enum ArbExecutor.DEXType",
					"name": "dexType",
					"type": "uint8"
				},
				{
					"indexed": true,
					"internalType": "address",
					"name": "quoter",
					"type": "address"
				}
			],
			"name": "DEXQuoterSet",
			"type": "event"
		},
		{
			"anonymous": false,
			"inputs": [
				{
					"indexed": true,
					"internalType": "enum ArbExecutor.DEXType",
					"name": "dexType",
					"type": "uint8"
				},
				{
					"indexed": true,
					"internalType": "address",
					"name": "router",
					"type": "address"
				}
			],
			"name": "DEXRouterSet",
			"type": "event"
		},
		{
			"anonymous": false,
			"inputs": [
				{
					"indexed": false,
					"internalType": "uint256",
					"name": "amount",
					"type": "uint256"
				}
			],
			"name": "ETHWithdrawn",
			"type": "event"
		},
		{
			"anonymous": false,
			"inputs": [
				{
					"indexed": true,
					"internalType": "address",
					"name": "token",
					"type": "address"
				},
				{
					"indexed": false,
					"internalType": "uint256",
					"name": "amount",
					"type": "uint256"
				}
			],
			"name": "EmergencyWithdrawal",
			"type": "event"
		},
		{
			"anonymous": false,
			"inputs": [
				{
					"indexed": false,
					"internalType": "bool",
					"name": "enabled",
					"type": "bool"
				}
			],
			"name": "EnforceProfitabilityCheckUpdated",
			"type": "event"
		},
		{
			"anonymous": false,
			"inputs": [
				{
					"indexed": false,
					"internalType": "bool",
					"name": "enabled",
					"type": "bool"
				}
			],
			"name": "EnforceSecondaryOracleUpdated",
			"type": "event"
		},
		{
			"anonymous": false,
			"inputs": [
				{
					"indexed": false,
					"internalType": "uint256",
					"name": "maxLoanAmount",
					"type": "uint256"
				}
			],
			"name": "MaxLoanAmountUpdated",
			"type": "event"
		},
		{
			"anonymous": false,
			"inputs": [
				{
					"indexed": false,
					"internalType": "uint256",
					"name": "minProfitAbsolute",
					"type": "uint256"
				}
			],
			"name": "MinProfitAbsoluteUpdated",
			"type": "event"
		},
		{
			"anonymous": false,
			"inputs": [
				{
					"indexed": false,
					"internalType": "uint256",
					"name": "maxPriceFeedAge",
					"type": "uint256"
				},
				{
					"indexed": false,
					"internalType": "uint256",
					"name": "oracleDeviationBps",
					"type": "uint256"
				},
				{
					"indexed": false,
					"internalType": "uint256",
					"name": "secondaryOracleDeviationBps",
					"type": "uint256"
				}
			],
			"name": "OracleParamsUpdated",
			"type": "event"
		},
		{
			"anonymous": false,
			"inputs": [
				{
					"indexed": true,
					"internalType": "address",
					"name": "previousOwner",
					"type": "address"
				},
				{
					"indexed": true,
					"internalType": "address",
					"name": "newOwner",
					"type": "address"
				}
			],
			"name": "OwnershipTransferred",
			"type": "event"
		},
		{
			"anonymous": false,
			"inputs": [
				{
					"indexed": false,
					"internalType": "bool",
					"name": "paused",
					"type": "bool"
				}
			],
			"name": "PausedStateChanged",
			"type": "event"
		},
		{
			"anonymous": false,
			"inputs": [
				{
					"indexed": true,
					"internalType": "address",
					"name": "token",
					"type": "address"
				},
				{
					"indexed": false,
					"internalType": "uint256",
					"name": "price",
					"type": "uint256"
				}
			],
			"name": "PriceCacheUpdated",
			"type": "event"
		},
		{
			"anonymous": false,
			"inputs": [
				{
					"indexed": true,
					"internalType": "address",
					"name": "token",
					"type": "address"
				},
				{
					"indexed": true,
					"internalType": "address",
					"name": "feed",
					"type": "address"
				}
			],
			"name": "PriceFeedSet",
			"type": "event"
		},
		{
			"anonymous": false,
			"inputs": [
				{
					"indexed": true,
					"internalType": "address",
					"name": "beneficiary",
					"type": "address"
				},
				{
					"indexed": false,
					"internalType": "uint256",
					"name": "amount",
					"type": "uint256"
				}
			],
			"name": "ProfitDistributed",
			"type": "event"
		},
		{
			"anonymous": false,
			"inputs": [
				{
					"indexed": false,
					"internalType": "uint256",
					"name": "routeId",
					"type": "uint256"
				},
				{
					"indexed": false,
					"internalType": "string",
					"name": "reason",
					"type": "string"
				}
			],
			"name": "ProfitabilityCheckFailed",
			"type": "event"
		},
		{
			"anonymous": false,
			"inputs": [
				{
					"indexed": false,
					"internalType": "uint256",
					"name": "routeId",
					"type": "uint256"
				},
				{
					"indexed": false,
					"internalType": "uint256",
					"name": "expectedNetProfit",
					"type": "uint256"
				}
			],
			"name": "ProfitabilityCheckPassed",
			"type": "event"
		},
		{
			"anonymous": false,
			"inputs": [
				{
					"indexed": false,
					"internalType": "uint256",
					"name": "builderTipBps",
					"type": "uint256"
				},
				{
					"indexed": false,
					"internalType": "uint256",
					"name": "safetyBufferBps",
					"type": "uint256"
				},
				{
					"indexed": false,
					"internalType": "uint256",
					"name": "flashLoanPremiumBps",
					"type": "uint256"
				},
				{
					"indexed": false,
					"internalType": "uint256",
					"name": "gasPrice",
					"type": "uint256"
				}
			],
			"name": "ProfitabilityParamsUpdated",
			"type": "event"
		},
		{
			"anonymous": false,
			"inputs": [
				{
					"indexed": true,
					"internalType": "address",
					"name": "aaveV3Provider",
					"type": "address"
				},
				{
					"indexed": true,
					"internalType": "address",
					"name": "weth",
					"type": "address"
				}
			],
			"name": "ProtocolAddressesSet",
			"type": "event"
		},
		{
			"anonymous": false,
			"inputs": [
				{
					"indexed": false,
					"internalType": "uint256",
					"name": "minProfitBps",
					"type": "uint256"
				},
				{
					"indexed": false,
					"internalType": "uint256",
					"name": "maxSlippageBps",
					"type": "uint256"
				},
				{
					"indexed": false,
					"internalType": "uint256",
					"name": "deadlineSeconds",
					"type": "uint256"
				},
				{
					"indexed": false,
					"internalType": "uint256",
					"name": "gasUnitsEstimate",
					"type": "uint256"
				}
			],
			"name": "RiskParamsUpdated",
			"type": "event"
		},
		{
			"anonymous": false,
			"inputs": [
				{
					"indexed": true,
					"internalType": "uint256",
					"name": "routeId",
					"type": "uint256"
				}
			],
			"name": "RouteDeleted",
			"type": "event"
		},
		{
			"anonymous": false,
			"inputs": [
				{
					"indexed": true,
					"internalType": "address",
					"name": "router",
					"type": "address"
				},
				{
					"indexed": false,
					"internalType": "bool",
					"name": "whitelisted",
					"type": "bool"
				}
			],
			"name": "RouterWhitelisted",
			"type": "event"
		},
		{
			"anonymous": false,
			"inputs": [
				{
					"indexed": true,
					"internalType": "uint256",
					"name": "routeId",
					"type": "uint256"
				},
				{
					"indexed": false,
					"internalType": "uint256",
					"name": "pathLength",
					"type": "uint256"
				}
			],
			"name": "RoutesUpdated",
			"type": "event"
		},
		{
			"anonymous": false,
			"inputs": [
				{
					"indexed": true,
					"internalType": "address",
					"name": "token",
					"type": "address"
				},
				{
					"indexed": true,
					"internalType": "address",
					"name": "feed",
					"type": "address"
				}
			],
			"name": "SecondaryPriceFeedSet",
			"type": "event"
		},
		{
			"anonymous": false,
			"inputs": [
				{
					"indexed": true,
					"internalType": "address",
					"name": "token",
					"type": "address"
				},
				{
					"indexed": false,
					"internalType": "uint8",
					"name": "decimals",
					"type": "uint8"
				}
			],
			"name": "TokenDecimalsSet",
			"type": "event"
		},
		{
			"anonymous": false,
			"inputs": [
				{
					"indexed": true,
					"internalType": "address",
					"name": "token",
					"type": "address"
				},
				{
					"indexed": false,
					"internalType": "bool",
					"name": "supported",
					"type": "bool"
				}
			],
			"name": "TokenSupportChanged",
			"type": "event"
		},
		{
			"anonymous": false,
			"inputs": [
				{
					"indexed": false,
					"internalType": "uint24",
					"name": "fee",
					"type": "uint24"
				}
			],
			"name": "UniV3FeeUpdated",
			"type": "event"
		},
		{
			"inputs": [],
			"name": "ADDRESSES_PROVIDER",
			"outputs": [
				{
					"internalType": "contract IPoolAddressesProvider",
					"name": "",
					"type": "address"
				}
			],
			"stateMutability": "view",
			"type": "function"
		},
		{
			"inputs": [],
			"name": "POOL",
			"outputs": [
				{
					"internalType": "contract IPool",
					"name": "",
					"type": "address"
				}
			],
			"stateMutability": "view",
			"type": "function"
		},
		{
			"inputs": [],
			"name": "aaveV3AddressesProvider",
			"outputs": [
				{
					"internalType": "address",
					"name": "",
					"type": "address"
				}
			],
			"stateMutability": "view",
			"type": "function"
		},
		{
			"inputs": [],
			"name": "aaveV3Pool",
			"outputs": [
				{
					"internalType": "contract IPool",
					"name": "",
					"type": "address"
				}
			],
			"stateMutability": "view",
			"type": "function"
		},
		{
			"inputs": [
				{
					"internalType": "address[]",
					"name": "path",
					"type": "address[]"
				},
				{
					"internalType": "uint256",
					"name": "minProfit",
					"type": "uint256"
				},
				{
					"internalType": "enum ArbExecutor.DEXType",
					"name": "dexA",
					"type": "uint8"
				},
				{
					"internalType": "enum ArbExecutor.DEXType",
					"name": "dexB",
					"type": "uint8"
				}
			],
			"name": "addRoute",
			"outputs": [],
			"stateMutability": "nonpayable",
			"type": "function"
		},
		{
			"inputs": [
				{
					"internalType": "address[][]",
					"name": "paths",
					"type": "address[][]"
				},
				{
					"internalType": "uint256[]",
					"name": "minProfits",
					"type": "uint256[]"
				},
				{
					"internalType": "enum ArbExecutor.DEXType[]",
					"name": "dexAs",
					"type": "uint8[]"
				},
				{
					"internalType": "enum ArbExecutor.DEXType[]",
					"name": "dexBs",
					"type": "uint8[]"
				}
			],
			"name": "addRoutesBatch",
			"outputs": [],
			"stateMutability": "nonpayable",
			"type": "function"
		},
		{
			"inputs": [],
			"name": "autoUnwrapWETH",
			"outputs": [
				{
					"internalType": "bool",
					"name": "",
					"type": "bool"
				}
			],
			"stateMutability": "view",
			"type": "function"
		},
		{
			"inputs": [],
			"name": "beneficiary",
			"outputs": [
				{
					"internalType": "address",
					"name": "",
					"type": "address"
				}
			],
			"stateMutability": "view",
			"type": "function"
		},
		{
			"inputs": [],
			"name": "beneficiaryShareBps",
			"outputs": [
				{
					"internalType": "uint256",
					"name": "",
					"type": "uint256"
				}
			],
			"stateMutability": "view",
			"type": "function"
		},
		{
			"inputs": [],
			"name": "builderTipBps",
			"outputs": [
				{
					"internalType": "uint256",
					"name": "",
					"type": "uint256"
				}
			],
			"stateMutability": "view",
			"type": "function"
		},
		{
			"inputs": [
				{
					"internalType": "address[]",
					"name": "path",
					"type": "address[]"
				},
				{
					"internalType": "uint256",
					"name": "borrowAmount",
					"type": "uint256"
				},
				{
					"internalType": "enum ArbExecutor.DEXType",
					"name": "dexA",
					"type": "uint8"
				},
				{
					"internalType": "enum ArbExecutor.DEXType",
					"name": "dexB",
					"type": "uint8"
				}
			],
			"name": "calculateProfitability",
			"outputs": [
				{
					"components": [
						{
							"internalType": "uint256",
							"name": "leg1AmountOut",
							"type": "uint256"
						},
						{
							"internalType": "uint256",
							"name": "leg2AmountOut",
							"type": "uint256"
						},
						{
							"internalType": "uint256",
							"name": "flashLoanPremium",
							"type": "uint256"
						},
						{
							"internalType": "uint256",
							"name": "gasCostEstimate",
							"type": "uint256"
						},
						{
							"internalType": "uint256",
							"name": "builderTip",
							"type": "uint256"
						},
						{
							"internalType": "uint256",
							"name": "safetyBuffer",
							"type": "uint256"
						},
						{
							"internalType": "uint256",
							"name": "expectedGrossProfit",
							"type": "uint256"
						},
						{
							"internalType": "uint256",
							"name": "totalCosts",
							"type": "uint256"
						},
						{
							"internalType": "uint256",
							"name": "expectedNetProfit",
							"type": "uint256"
						},
						{
							"internalType": "bool",
							"name": "isProfitable",
							"type": "bool"
						}
					],
					"internalType": "struct ArbExecutor.ProfitabilityQuote",
					"name": "",
					"type": "tuple"
				}
			],
			"stateMutability": "nonpayable",
			"type": "function"
		},
		{
			"inputs": [],
			"name": "deadlineSeconds",
			"outputs": [
				{
					"internalType": "uint256",
					"name": "",
					"type": "uint256"
				}
			],
			"stateMutability": "view",
			"type": "function"
		},
		{
			"inputs": [],
			"name": "defaultUniV3Fee",
			"outputs": [
				{
					"internalType": "uint24",
					"name": "",
					"type": "uint24"
				}
			],
			"stateMutability": "view",
			"type": "function"
		},
		{
			"inputs": [
				{
					"internalType": "uint256",
					"name": "routeId",
					"type": "uint256"
				}
			],
			"name": "deleteRoute",
			"outputs": [],
			"stateMutability": "nonpayable",
			"type": "function"
		},
		{
			"inputs": [
				{
					"internalType": "enum ArbExecutor.DEXType",
					"name": "",
					"type": "uint8"
				}
			],
			"name": "dexQuoters",
			"outputs": [
				{
					"internalType": "address",
					"name": "",
					"type": "address"
				}
			],
			"stateMutability": "view",
			"type": "function"
		},
		{
			"inputs": [
				{
					"internalType": "enum ArbExecutor.DEXType",
					"name": "",
					"type": "uint8"
				}
			],
			"name": "dexRouters",
			"outputs": [
				{
					"internalType": "address",
					"name": "",
					"type": "address"
				}
			],
			"stateMutability": "view",
			"type": "function"
		},
		{
			"inputs": [
				{
					"internalType": "address[]",
					"name": "tokens",
					"type": "address[]"
				}
			],
			"name": "emergencyCleanup",
			"outputs": [],
			"stateMutability": "nonpayable",
			"type": "function"
		},
		{
			"inputs": [
				{
					"internalType": "address",
					"name": "token",
					"type": "address"
				}
			],
			"name": "emergencyWithdraw",
			"outputs": [],
			"stateMutability": "nonpayable",
			"type": "function"
		},
		{
			"inputs": [],
			"name": "enforceProfitabilityCheck",
			"outputs": [
				{
					"internalType": "bool",
					"name": "",
					"type": "bool"
				}
			],
			"stateMutability": "view",
			"type": "function"
		},
		{
			"inputs": [],
			"name": "enforceSecondaryOracle",
			"outputs": [
				{
					"internalType": "bool",
					"name": "",
					"type": "bool"
				}
			],
			"stateMutability": "view",
			"type": "function"
		},
		{
			"inputs": [
				{
					"internalType": "address",
					"name": "asset",
					"type": "address"
				},
				{
					"internalType": "uint256",
					"name": "amount",
					"type": "uint256"
				},
				{
					"internalType": "uint256",
					"name": "premium",
					"type": "uint256"
				},
				{
					"internalType": "address",
					"name": "initiator",
					"type": "address"
				},
				{
					"internalType": "bytes",
					"name": "params",
					"type": "bytes"
				}
			],
			"name": "executeOperation",
			"outputs": [
				{
					"internalType": "bool",
					"name": "",
					"type": "bool"
				}
			],
			"stateMutability": "nonpayable",
			"type": "function"
		},
		{
			"inputs": [],
			"name": "flashLoanPremiumBps",
			"outputs": [
				{
					"internalType": "uint256",
					"name": "",
					"type": "uint256"
				}
			],
			"stateMutability": "view",
			"type": "function"
		},
		{
			"inputs": [],
			"name": "gasPrice",
			"outputs": [
				{
					"internalType": "uint256",
					"name": "",
					"type": "uint256"
				}
			],
			"stateMutability": "view",
			"type": "function"
		},
		{
			"inputs": [],
			"name": "gasUnitsEstimate",
			"outputs": [
				{
					"internalType": "uint256",
					"name": "",
					"type": "uint256"
				}
			],
			"stateMutability": "view",
			"type": "function"
		},
		{
			"inputs": [
				{
					"internalType": "uint256",
					"name": "offset",
					"type": "uint256"
				},
				{
					"internalType": "uint256",
					"name": "limit",
					"type": "uint256"
				}
			],
			"name": "getAllRoutes",
			"outputs": [
				{
					"components": [
						{
							"internalType": "uint256",
							"name": "routeId",
							"type": "uint256"
						},
						{
							"internalType": "address[]",
							"name": "path",
							"type": "address[]"
						},
						{
							"internalType": "uint256",
							"name": "minProfit",
							"type": "uint256"
						},
						{
							"internalType": "enum ArbExecutor.DEXType",
							"name": "dexA",
							"type": "uint8"
						},
						{
							"internalType": "enum ArbExecutor.DEXType",
							"name": "dexB",
							"type": "uint8"
						}
					],
					"internalType": "struct ArbExecutor.ArbitrageRoute[]",
					"name": "",
					"type": "tuple[]"
				}
			],
			"stateMutability": "view",
			"type": "function"
		},
		{
			"inputs": [
				{
					"internalType": "enum ArbExecutor.DEXType",
					"name": "dexType",
					"type": "uint8"
				}
			],
			"name": "getDEXQuoter",
			"outputs": [
				{
					"internalType": "address",
					"name": "",
					"type": "address"
				}
			],
			"stateMutability": "view",
			"type": "function"
		},
		{
			"inputs": [
				{
					"internalType": "enum ArbExecutor.DEXType",
					"name": "dexType",
					"type": "uint8"
				}
			],
			"name": "getDEXRouter",
			"outputs": [
				{
					"internalType": "address",
					"name": "",
					"type": "address"
				}
			],
			"stateMutability": "view",
			"type": "function"
		},
		{
			"inputs": [
				{
					"internalType": "address",
					"name": "token",
					"type": "address"
				}
			],
			"name": "getPriceFeed",
			"outputs": [
				{
					"internalType": "address",
					"name": "",
					"type": "address"
				}
			],
			"stateMutability": "view",
			"type": "function"
		},
		{
			"inputs": [
				{
					"internalType": "uint256",
					"name": "routeId",
					"type": "uint256"
				}
			],
			"name": "getRoute",
			"outputs": [
				{
					"components": [
						{
							"internalType": "uint256",
							"name": "routeId",
							"type": "uint256"
						},
						{
							"internalType": "address[]",
							"name": "path",
							"type": "address[]"
						},
						{
							"internalType": "uint256",
							"name": "minProfit",
							"type": "uint256"
						},
						{
							"internalType": "enum ArbExecutor.DEXType",
							"name": "dexA",
							"type": "uint8"
						},
						{
							"internalType": "enum ArbExecutor.DEXType",
							"name": "dexB",
							"type": "uint8"
						}
					],
					"internalType": "struct ArbExecutor.ArbitrageRoute",
					"name": "",
					"type": "tuple"
				}
			],
			"stateMutability": "view",
			"type": "function"
		},
		{
			"inputs": [],
			"name": "getRouteCount",
			"outputs": [
				{
					"internalType": "uint256",
					"name": "",
					"type": "uint256"
				}
			],
			"stateMutability": "view",
			"type": "function"
		},
		{
			"inputs": [
				{
					"internalType": "address",
					"name": "token",
					"type": "address"
				}
			],
			"name": "getTokenDecimals",
			"outputs": [
				{
					"internalType": "uint8",
					"name": "",
					"type": "uint8"
				}
			],
			"stateMutability": "view",
			"type": "function"
		},
		{
			"inputs": [
				{
					"internalType": "address",
					"name": "asset",
					"type": "address"
				},
				{
					"internalType": "uint256",
					"name": "amount",
					"type": "uint256"
				},
				{
					"internalType": "uint256",
					"name": "routeId",
					"type": "uint256"
				},
				{
					"internalType": "bool",
					"name": "quietEvents",
					"type": "bool"
				}
			],
			"name": "initiateArbitrage",
			"outputs": [],
			"stateMutability": "nonpayable",
			"type": "function"
		},
		{
			"inputs": [],
			"name": "isPaused",
			"outputs": [
				{
					"internalType": "bool",
					"name": "",
					"type": "bool"
				}
			],
			"stateMutability": "view",
			"type": "function"
		},
		{
			"inputs": [
				{
					"internalType": "address",
					"name": "router",
					"type": "address"
				}
			],
			"name": "isRouterWhitelisted",
			"outputs": [
				{
					"internalType": "bool",
					"name": "",
					"type": "bool"
				}
			],
			"stateMutability": "view",
			"type": "function"
		},
		{
			"inputs": [
				{
					"internalType": "address",
					"name": "token",
					"type": "address"
				}
			],
			"name": "isTokenSupported",
			"outputs": [
				{
					"internalType": "bool",
					"name": "",
					"type": "bool"
				}
			],
			"stateMutability": "view",
			"type": "function"
		},
		{
			"inputs": [],
			"name": "maxLoanAmount",
			"outputs": [
				{
					"internalType": "uint256",
					"name": "",
					"type": "uint256"
				}
			],
			"stateMutability": "view",
			"type": "function"
		},
		{
			"inputs": [],
			"name": "maxPriceFeedAge",
			"outputs": [
				{
					"internalType": "uint256",
					"name": "",
					"type": "uint256"
				}
			],
			"stateMutability": "view",
			"type": "function"
		},
		{
			"inputs": [],
			"name": "maxSlippageBps",
			"outputs": [
				{
					"internalType": "uint256",
					"name": "",
					"type": "uint256"
				}
			],
			"stateMutability": "view",
			"type": "function"
		},
		{
			"inputs": [],
			"name": "minProfitAbsolute",
			"outputs": [
				{
					"internalType": "uint256",
					"name": "",
					"type": "uint256"
				}
			],
			"stateMutability": "view",
			"type": "function"
		},
		{
			"inputs": [],
			"name": "minProfitBps",
			"outputs": [
				{
					"internalType": "uint256",
					"name": "",
					"type": "uint256"
				}
			],
			"stateMutability": "view",
			"type": "function"
		},
		{
			"inputs": [],
			"name": "oracleDeviationBps",
			"outputs": [
				{
					"internalType": "uint256",
					"name": "",
					"type": "uint256"
				}
			],
			"stateMutability": "view",
			"type": "function"
		},
		{
			"inputs": [],
			"name": "owner",
			"outputs": [
				{
					"internalType": "address",
					"name": "",
					"type": "address"
				}
			],
			"stateMutability": "view",
			"type": "function"
		},
		{
			"inputs": [],
			"name": "paused",
			"outputs": [
				{
					"internalType": "bool",
					"name": "",
					"type": "bool"
				}
			],
			"stateMutability": "view",
			"type": "function"
		},
		{
			"inputs": [
				{
					"internalType": "address",
					"name": "",
					"type": "address"
				}
			],
			"name": "priceFeeds",
			"outputs": [
				{
					"internalType": "address",
					"name": "",
					"type": "address"
				}
			],
			"stateMutability": "view",
			"type": "function"
		},
		{
			"inputs": [],
			"name": "renounceOwnership",
			"outputs": [],
			"stateMutability": "nonpayable",
			"type": "function"
		},
		{
			"inputs": [],
			"name": "routeCount",
			"outputs": [
				{
					"internalType": "uint256",
					"name": "",
					"type": "uint256"
				}
			],
			"stateMutability": "view",
			"type": "function"
		},
		{
			"inputs": [
				{
					"internalType": "uint256",
					"name": "",
					"type": "uint256"
				}
			],
			"name": "routes",
			"outputs": [
				{
					"internalType": "uint256",
					"name": "routeId",
					"type": "uint256"
				},
				{
					"internalType": "uint256",
					"name": "minProfit",
					"type": "uint256"
				},
				{
					"internalType": "enum ArbExecutor.DEXType",
					"name": "dexA",
					"type": "uint8"
				},
				{
					"internalType": "enum ArbExecutor.DEXType",
					"name": "dexB",
					"type": "uint8"
				}
			],
			"stateMutability": "view",
			"type": "function"
		},
		{
			"inputs": [],
			"name": "safetyBufferBps",
			"outputs": [
				{
					"internalType": "uint256",
					"name": "",
					"type": "uint256"
				}
			],
			"stateMutability": "view",
			"type": "function"
		},
		{
			"inputs": [],
			"name": "secondaryOracleDeviationBps",
			"outputs": [
				{
					"internalType": "uint256",
					"name": "",
					"type": "uint256"
				}
			],
			"stateMutability": "view",
			"type": "function"
		},
		{
			"inputs": [
				{
					"internalType": "address",
					"name": "",
					"type": "address"
				}
			],
			"name": "secondaryPriceFeeds",
			"outputs": [
				{
					"internalType": "address",
					"name": "",
					"type": "address"
				}
			],
			"stateMutability": "view",
			"type": "function"
		},
		{
			"inputs": [
				{
					"internalType": "bool",
					"name": "enabled",
					"type": "bool"
				}
			],
			"name": "setAutoUnwrapWETH",
			"outputs": [],
			"stateMutability": "nonpayable",
			"type": "function"
		},
		{
			"inputs": [
				{
					"internalType": "address",
					"name": "_beneficiary",
					"type": "address"
				}
			],
			"name": "setBeneficiary",
			"outputs": [],
			"stateMutability": "nonpayable",
			"type": "function"
		},
		{
			"inputs": [
				{
					"internalType": "uint256",
					"name": "_beneficiaryShareBps",
					"type": "uint256"
				}
			],
			"name": "setBeneficiaryShare",
			"outputs": [],
			"stateMutability": "nonpayable",
			"type": "function"
		},
		{
			"inputs": [
				{
					"internalType": "enum ArbExecutor.DEXType",
					"name": "dexType",
					"type": "uint8"
				},
				{
					"internalType": "address",
					"name": "quoter",
					"type": "address"
				}
			],
			"name": "setDEXQuoter",
			"outputs": [],
			"stateMutability": "nonpayable",
			"type": "function"
		},
		{
			"inputs": [
				{
					"internalType": "enum ArbExecutor.DEXType",
					"name": "dexType",
					"type": "uint8"
				},
				{
					"internalType": "address",
					"name": "router",
					"type": "address"
				}
			],
			"name": "setDEXRouter",
			"outputs": [],
			"stateMutability": "nonpayable",
			"type": "function"
		},
		{
			"inputs": [
				{
					"internalType": "uint24",
					"name": "fee",
					"type": "uint24"
				}
			],
			"name": "setDefaultUniV3Fee",
			"outputs": [],
			"stateMutability": "nonpayable",
			"type": "function"
		},
		{
			"inputs": [
				{
					"internalType": "bool",
					"name": "enabled",
					"type": "bool"
				}
			],
			"name": "setEnforceProfitabilityCheck",
			"outputs": [],
			"stateMutability": "nonpayable",
			"type": "function"
		},
		{
			"inputs": [
				{
					"internalType": "bool",
					"name": "enabled",
					"type": "bool"
				}
			],
			"name": "setEnforceSecondaryOracle",
			"outputs": [],
			"stateMutability": "nonpayable",
			"type": "function"
		},
		{
			"inputs": [
				{
					"internalType": "uint256",
					"name": "_maxLoanAmount",
					"type": "uint256"
				}
			],
			"name": "setMaxLoanAmount",
			"outputs": [],
			"stateMutability": "nonpayable",
			"type": "function"
		},
		{
			"inputs": [
				{
					"internalType": "uint256",
					"name": "_minProfitAbsolute",
					"type": "uint256"
				}
			],
			"name": "setMinProfitAbsolute",
			"outputs": [],
			"stateMutability": "nonpayable",
			"type": "function"
		},
		{
			"inputs": [
				{
					"internalType": "bool",
					"name": "_paused",
					"type": "bool"
				}
			],
			"name": "setPaused",
			"outputs": [],
			"stateMutability": "nonpayable",
			"type": "function"
		},
		{
			"inputs": [
				{
					"internalType": "address",
					"name": "token",
					"type": "address"
				},
				{
					"internalType": "address",
					"name": "feed",
					"type": "address"
				}
			],
			"name": "setPriceFeed",
			"outputs": [],
			"stateMutability": "nonpayable",
			"type": "function"
		},
		{
			"inputs": [
				{
					"internalType": "address[]",
					"name": "tokens",
					"type": "address[]"
				},
				{
					"internalType": "address[]",
					"name": "feeds",
					"type": "address[]"
				}
			],
			"name": "setPriceFeedsBatch",
			"outputs": [],
			"stateMutability": "nonpayable",
			"type": "function"
		},
		{
			"inputs": [
				{
					"internalType": "address",
					"name": "_aaveV3Provider",
					"type": "address"
				},
				{
					"internalType": "address",
					"name": "_weth",
					"type": "address"
				}
			],
			"name": "setProtocolAddresses",
			"outputs": [],
			"stateMutability": "nonpayable",
			"type": "function"
		},
		{
			"inputs": [
				{
					"internalType": "address",
					"name": "token",
					"type": "address"
				},
				{
					"internalType": "address",
					"name": "feed",
					"type": "address"
				}
			],
			"name": "setSecondaryPriceFeed",
			"outputs": [],
			"stateMutability": "nonpayable",
			"type": "function"
		},
		{
			"inputs": [
				{
					"internalType": "address",
					"name": "token",
					"type": "address"
				},
				{
					"internalType": "uint8",
					"name": "decimals",
					"type": "uint8"
				}
			],
			"name": "setTokenDecimals",
			"outputs": [],
			"stateMutability": "nonpayable",
			"type": "function"
		},
		{
			"inputs": [
				{
					"internalType": "address",
					"name": "token",
					"type": "address"
				},
				{
					"internalType": "bool",
					"name": "supported",
					"type": "bool"
				}
			],
			"name": "setTokenSupported",
			"outputs": [],
			"stateMutability": "nonpayable",
			"type": "function"
		},
		{
			"inputs": [
				{
					"internalType": "address[]",
					"name": "tokens",
					"type": "address[]"
				},
				{
					"internalType": "bool[]",
					"name": "supported",
					"type": "bool[]"
				}
			],
			"name": "setTokensSupportedBatch",
			"outputs": [],
			"stateMutability": "nonpayable",
			"type": "function"
		},
		{
			"inputs": [
				{
					"internalType": "address",
					"name": "",
					"type": "address"
				}
			],
			"name": "supportedTokens",
			"outputs": [
				{
					"internalType": "bool",
					"name": "",
					"type": "bool"
				}
			],
			"stateMutability": "view",
			"type": "function"
		},
		{
			"inputs": [
				{
					"internalType": "address",
					"name": "",
					"type": "address"
				}
			],
			"name": "tokenDecimals",
			"outputs": [
				{
					"internalType": "uint8",
					"name": "",
					"type": "uint8"
				}
			],
			"stateMutability": "view",
			"type": "function"
		},
		{
			"inputs": [
				{
					"internalType": "address",
					"name": "newOwner",
					"type": "address"
				}
			],
			"name": "transferOwnership",
			"outputs": [],
			"stateMutability": "nonpayable",
			"type": "function"
		},
		{
			"inputs": [
				{
					"internalType": "contract IPool",
					"name": "_newPool",
					"type": "address"
				}
			],
			"name": "updateAaveV3Pool",
			"outputs": [],
			"stateMutability": "nonpayable",
			"type": "function"
		},
		{
			"inputs": [
				{
					"internalType": "contract IPoolAddressesProvider",
					"name": "_newProvider",
					"type": "address"
				}
			],
			"name": "updateAddressesProvider",
			"outputs": [],
			"stateMutability": "nonpayable",
			"type": "function"
		},
		{
			"inputs": [
				{
					"internalType": "uint256",
					"name": "_maxPriceFeedAge",
					"type": "uint256"
				},
				{
					"internalType": "uint256",
					"name": "_oracleDeviationBps",
					"type": "uint256"
				},
				{
					"internalType": "uint256",
					"name": "_secondaryOracleDeviationBps",
					"type": "uint256"
				}
			],
			"name": "updateOracleParams",
			"outputs": [],
			"stateMutability": "nonpayable",
			"type": "function"
		},
		{
			"inputs": [
				{
					"internalType": "uint256",
					"name": "_builderTipBps",
					"type": "uint256"
				},
				{
					"internalType": "uint256",
					"name": "_safetyBufferBps",
					"type": "uint256"
				},
				{
					"internalType": "uint256",
					"name": "_flashLoanPremiumBps",
					"type": "uint256"
				},
				{
					"internalType": "uint256",
					"name": "_gasPrice",
					"type": "uint256"
				}
			],
			"name": "updateProfitabilityParams",
			"outputs": [],
			"stateMutability": "nonpayable",
			"type": "function"
		},
		{
			"inputs": [
				{
					"internalType": "uint256",
					"name": "_minProfitBps",
					"type": "uint256"
				},
				{
					"internalType": "uint256",
					"name": "_maxSlippageBps",
					"type": "uint256"
				},
				{
					"internalType": "uint256",
					"name": "_deadlineSeconds",
					"type": "uint256"
				},
				{
					"internalType": "uint256",
					"name": "_gasUnitsEstimate",
					"type": "uint256"
				}
			],
			"name": "updateRiskParams",
			"outputs": [],
			"stateMutability": "nonpayable",
			"type": "function"
		},
		{
			"inputs": [
				{
					"internalType": "uint256",
					"name": "routeId",
					"type": "uint256"
				},
				{
					"internalType": "address[]",
					"name": "path",
					"type": "address[]"
				},
				{
					"internalType": "uint256",
					"name": "minProfit",
					"type": "uint256"
				},
				{
					"internalType": "enum ArbExecutor.DEXType",
					"name": "dexA",
					"type": "uint8"
				},
				{
					"internalType": "enum ArbExecutor.DEXType",
					"name": "dexB",
					"type": "uint8"
				}
			],
			"name": "updateRoute",
			"outputs": [],
			"stateMutability": "nonpayable",
			"type": "function"
		},
		{
			"inputs": [],
			"name": "weth",
			"outputs": [
				{
					"internalType": "address",
					"name": "",
					"type": "address"
				}
			],
			"stateMutability": "view",
			"type": "function"
		},
		{
			"inputs": [
				{
					"internalType": "address",
					"name": "router",
					"type": "address"
				},
				{
					"internalType": "bool",
					"name": "whitelisted",
					"type": "bool"
				}
			],
			"name": "whitelistRouter",
			"outputs": [],
			"stateMutability": "nonpayable",
			"type": "function"
		},
		{
			"inputs": [
				{
					"internalType": "address",
					"name": "",
					"type": "address"
				}
			],
			"name": "whitelistedRouters",
			"outputs": [
				{
					"internalType": "bool",
					"name": "",
					"type": "bool"
				}
			],
			"stateMutability": "view",
			"type": "function"
		},
		{
			"inputs": [],
			"name": "withdrawETH",
			"outputs": [],
			"stateMutability": "nonpayable",
			"type": "function"
		},
		{
			"stateMutability": "payable",
			"type": "receive"
		}
	]
}