{
	"contracts/ArbOptimizer.sol": {
		"ArbOptimizer": {
			"abi": [
				{
					"inputs": [],
					"stateMutability": "nonpayable",
					"type": "constructor"
				},
				{
					"inputs": [
						{
							"internalType": "address",
							"name": "owner",
							"type": "address"
						}
					],
					"name": "OwnableInvalidOwner",
					"type": "error"
				},
				{
					"inputs": [
						{
							"internalType": "address",
							"name": "account",
							"type": "address"
						}
					],
					"name": "OwnableUnauthorizedAccount",
					"type": "error"
				},
				{
					"anonymous": false,
					"inputs": [
						{
							"indexed": true,
							"internalType": "uint256",
							"name": "routeIndex",
							"type": "uint256"
						},
						{
							"indexed": false,
							"internalType": "uint256",
							"name": "flashLoanAmount",
							"type": "uint256"
						},
						{
							"indexed": false,
							"internalType": "uint256",
							"name": "estimatedProfit",
							"type": "uint256"
						}
					],
					"name": "ArbitrageExecuted",
					"type": "event"
				},
				{
					"anonymous": false,
					"inputs": [
						{
							"indexed": false,
							"internalType": "uint256",
							"name": "minFlashLoan",
							"type": "uint256"
						},
						{
							"indexed": false,
							"internalType": "uint256",
							"name": "maxFlashLoan",
							"type": "uint256"
						},
						{
							"indexed": false,
							"internalType": "uint256",
							"name": "minBps",
							"type": "uint256"
						},
						{
							"indexed": false,
							"internalType": "uint256",
							"name": "minAmount",
							"type": "uint256"
						}
					],
					"name": "ConfigurationUpdated",
					"type": "event"
				},
				{
					"anonymous": false,
					"inputs": [
						{
							"indexed": false,
							"internalType": "uint256",
							"name": "amount",
							"type": "uint256"
						},
						{
							"indexed": true,
							"internalType": "address",
							"name": "recipient",
							"type": "address"
						}
					],
					"name": "ETHWithdrawn",
					"type": "event"
				},
				{
					"anonymous": false,
					"inputs": [
						{
							"indexed": true,
							"internalType": "uint256",
							"name": "bestRouteIndex",
							"type": "uint256"
						},
						{
							"indexed": false,
							"internalType": "uint256",
							"name": "highestProfit",
							"type": "uint256"
						},
						{
							"indexed": false,
							"internalType": "uint256",
							"name": "flashLoanAmount",
							"type": "uint256"
						}
					],
					"name": "OptimalRouteSelected",
					"type": "event"
				},
				{
					"anonymous": false,
					"inputs": [
						{
							"indexed": true,
							"internalType": "address",
							"name": "previousOwner",
							"type": "address"
						},
						{
							"indexed": true,
							"internalType": "address",
							"name": "newOwner",
							"type": "address"
						}
					],
					"name": "OwnershipTransferred",
					"type": "event"
				},
				{
					"anonymous": false,
					"inputs": [
						{
							"indexed": false,
							"internalType": "address",
							"name": "account",
							"type": "address"
						}
					],
					"name": "Paused",
					"type": "event"
				},
				{
					"anonymous": false,
					"inputs": [
						{
							"indexed": true,
							"internalType": "address",
							"name": "token",
							"type": "address"
						},
						{
							"indexed": false,
							"internalType": "uint256",
							"name": "amount",
							"type": "uint256"
						},
						{
							"indexed": true,
							"internalType": "address",
							"name": "recipient",
							"type": "address"
						}
					],
					"name": "ProfitWithdrawn",
					"type": "event"
				},
				{
					"anonymous": false,
					"inputs": [
						{
							"indexed": true,
							"internalType": "uint256",
							"name": "routeIndex",
							"type": "uint256"
						},
						{
							"indexed": false,
							"internalType": "uint256",
							"name": "estimatedProfit",
							"type": "uint256"
						},
						{
							"indexed": false,
							"internalType": "uint256",
							"name": "flashLoanAmount",
							"type": "uint256"
						},
						{
							"indexed": false,
							"internalType": "bool",
							"name": "isProfitable",
							"type": "bool"
						}
					],
					"name": "RouteAnalyzed",
					"type": "event"
				},
				{
					"anonymous": false,
					"inputs": [
						{
							"indexed": false,
							"internalType": "address",
							"name": "account",
							"type": "address"
						}
					],
					"name": "Unpaused",
					"type": "event"
				},
				{
					"inputs": [
						{
							"internalType": "uint256",
							"name": "flashLoanAmount",
							"type": "uint256"
						}
					],
					"name": "analyzeAllRoutes",
					"outputs": [
						{
							"internalType": "uint256[]",
							"name": "routeProfits",
							"type": "uint256[]"
						},
						{
							"internalType": "bool[]",
							"name": "routesProfitable",
							"type": "bool[]"
						}
					],
					"stateMutability": "nonpayable",
					"type": "function"
				},
				{
					"inputs": [
						{
							"internalType": "uint256",
							"name": "routeIndex",
							"type": "uint256"
						},
						{
							"internalType": "uint256",
							"name": "flashLoanAmount",
							"type": "uint256"
						}
					],
					"name": "analyzeRoute",
					"outputs": [
						{
							"internalType": "uint256",
							"name": "estimatedProfit",
							"type": "uint256"
						},
						{
							"internalType": "bool",
							"name": "isProfitable",
							"type": "bool"
						}
					],
					"stateMutability": "nonpayable",
					"type": "function"
				},
				{
					"inputs": [],
					"name": "arbExec",
					"outputs": [
						{
							"internalType": "contract IArbExec",
							"name": "",
							"type": "address"
						}
					],
					"stateMutability": "view",
					"type": "function"
				},
				{
					"inputs": [],
					"name": "autoExecute",
					"outputs": [
						{
							"internalType": "bool",
							"name": "",
							"type": "bool"
						}
					],
					"stateMutability": "view",
					"type": "function"
				},
				{
					"inputs": [
						{
							"internalType": "uint256",
							"name": "flashLoanAmount",
							"type": "uint256"
						}
					],
					"name": "executeOptimalArbitrage",
					"outputs": [
						{
							"internalType": "bool",
							"name": "success",
							"type": "bool"
						}
					],
					"stateMutability": "nonpayable",
					"type": "function"
				},
				{
					"inputs": [],
					"name": "executionCooldown",
					"outputs": [
						{
							"internalType": "uint256",
							"name": "",
							"type": "uint256"
						}
					],
					"stateMutability": "view",
					"type": "function"
				},
				{
					"inputs": [
						{
							"internalType": "uint256",
							"name": "flashLoanAmount",
							"type": "uint256"
						}
					],
					"name": "findOptimalRoute",
					"outputs": [
						{
							"internalType": "uint256",
							"name": "bestRouteIndex",
							"type": "uint256"
						},
						{
							"internalType": "uint256",
							"name": "highestProfit",
							"type": "uint256"
						},
						{
							"internalType": "bool",
							"name": "isProfitable",
							"type": "bool"
						}
					],
					"stateMutability": "nonpayable",
					"type": "function"
				},
				{
					"inputs": [],
					"name": "getAllBalances",
					"outputs": [
						{
							"internalType": "uint256",
							"name": "wethBalance",
							"type": "uint256"
						},
						{
							"internalType": "uint256",
							"name": "usdcBalance",
							"type": "uint256"
						},
						{
							"internalType": "uint256",
							"name": "usdtBalance",
							"type": "uint256"
						},
						{
							"internalType": "uint256",
							"name": "daiBalance",
							"type": "uint256"
						},
						{
							"internalType": "uint256",
							"name": "ethBalance",
							"type": "uint256"
						}
					],
					"stateMutability": "view",
					"type": "function"
				},
				{
					"inputs": [],
					"name": "getArbExecAddress",
					"outputs": [
						{
							"internalType": "address",
							"name": "",
							"type": "address"
						}
					],
					"stateMutability": "pure",
					"type": "function"
				},
				{
					"inputs": [],
					"name": "getETHBalance",
					"outputs": [
						{
							"internalType": "uint256",
							"name": "",
							"type": "uint256"
						}
					],
					"stateMutability": "view",
					"type": "function"
				},
				{
					"inputs": [],
					"name": "getSupportedTokens",
					"outputs": [
						{
							"internalType": "address[]",
							"name": "",
							"type": "address[]"
						}
					],
					"stateMutability": "pure",
					"type": "function"
				},
				{
					"inputs": [
						{
							"internalType": "address",
							"name": "token",
							"type": "address"
						}
					],
					"name": "getTokenBalance",
					"outputs": [
						{
							"internalType": "uint256",
							"name": "",
							"type": "uint256"
						}
					],
					"stateMutability": "view",
					"type": "function"
				},
				{
					"inputs": [],
					"name": "getWETHAddress",
					"outputs": [
						{
							"internalType": "address",
							"name": "",
							"type": "address"
						}
					],
					"stateMutability": "pure",
					"type": "function"
				},
				{
					"inputs": [],
					"name": "getWethValueInUsd",
					"outputs": [
						{
							"internalType": "int256",
							"name": "",
							"type": "int256"
						}
					],
					"stateMutability": "view",
					"type": "function"
				},
				{
					"inputs": [],
					"name": "lastExecutionTime",
					"outputs": [
						{
							"internalType": "uint256",
							"name": "",
							"type": "uint256"
						}
					],
					"stateMutability": "view",
					"type": "function"
				},
				{
					"inputs": [],
					"name": "maxFlashLoanAmount",
					"outputs": [
						{
							"internalType": "uint256",
							"name": "",
							"type": "uint256"
						}
					],
					"stateMutability": "view",
					"type": "function"
				},
				{
					"inputs": [],
					"name": "minFlashLoanAmount",
					"outputs": [
						{
							"internalType": "uint256",
							"name": "",
							"type": "uint256"
						}
					],
					"stateMutability": "view",
					"type": "function"
				},
				{
					"inputs": [],
					"name": "minProfitAmount",
					"outputs": [
						{
							"internalType": "uint256",
							"name": "",
							"type": "uint256"
						}
					],
					"stateMutability": "view",
					"type": "function"
				},
				{
					"inputs": [],
					"name": "minProfitBps",
					"outputs": [
						{
							"internalType": "uint256",
							"name": "",
							"type": "uint256"
						}
					],
					"stateMutability": "view",
					"type": "function"
				},
				{
					"inputs": [],
					"name": "owner",
					"outputs": [
						{
							"internalType": "address",
							"name": "",
							"type": "address"
						}
					],
					"stateMutability": "view",
					"type": "function"
				},
				{
					"inputs": [],
					"name": "pause",
					"outputs": [],
					"stateMutability": "nonpayable",
					"type": "function"
				},
				{
					"inputs": [],
					"name": "paused",
					"outputs": [
						{
							"internalType": "bool",
							"name": "",
							"type": "bool"
						}
					],
					"stateMutability": "view",
					"type": "function"
				},
				{
					"inputs": [],
					"name": "renounceOwnership",
					"outputs": [],
					"stateMutability": "nonpayable",
					"type": "function"
				},
				{
					"inputs": [
						{
							"internalType": "bool",
							"name": "_enabled",
							"type": "bool"
						}
					],
					"name": "setAutoExecute",
					"outputs": [],
					"stateMutability": "nonpayable",
					"type": "function"
				},
				{
					"inputs": [
						{
							"internalType": "uint256",
							"name": "_cooldown",
							"type": "uint256"
						}
					],
					"name": "setExecutionCooldown",
					"outputs": [],
					"stateMutability": "nonpayable",
					"type": "function"
				},
				{
					"inputs": [
						{
							"internalType": "uint256",
							"name": "_min",
							"type": "uint256"
						},
						{
							"internalType": "uint256",
							"name": "_max",
							"type": "uint256"
						}
					],
					"name": "setFlashLoanLimits",
					"outputs": [],
					"stateMutability": "nonpayable",
					"type": "function"
				},
				{
					"inputs": [
						{
							"internalType": "uint256",
							"name": "_bps",
							"type": "uint256"
						},
						{
							"internalType": "uint256",
							"name": "_amount",
							"type": "uint256"
						}
					],
					"name": "setMinProfitThresholds",
					"outputs": [],
					"stateMutability": "nonpayable",
					"type": "function"
				},
				{
					"inputs": [
						{
							"internalType": "address",
							"name": "newOwner",
							"type": "address"
						}
					],
					"name": "transferOwnership",
					"outputs": [],
					"stateMutability": "nonpayable",
					"type": "function"
				},
				{
					"inputs": [],
					"name": "unpause",
					"outputs": [],
					"stateMutability": "nonpayable",
					"type": "function"
				},
				{
					"inputs": [],
					"name": "withdrawAll",
					"outputs": [],
					"stateMutability": "nonpayable",
					"type": "function"
				},
				{
					"inputs": [],
					"name": "withdrawDAI",
					"outputs": [],
					"stateMutability": "nonpayable",
					"type": "function"
				},
				{
					"inputs": [],
					"name": "withdrawETH",
					"outputs": [],
					"stateMutability": "nonpayable",
					"type": "function"
				},
				{
					"inputs": [
						{
							"internalType": "address",
							"name": "token",
							"type": "address"
						}
					],
					"name": "withdrawToken",
					"outputs": [],
					"stateMutability": "nonpayable",
					"type": "function"
				},
				{
					"inputs": [],
					"name": "withdrawUSDC",
					"outputs": [],
					"stateMutability": "nonpayable",
					"type": "function"
				},
				{
					"inputs": [],
					"name": "withdrawUSDT",
					"outputs": [],
					"stateMutability": "nonpayable",
					"type": "function"
				},
				{
					"inputs": [],
					"name": "withdrawWETH",
					"outputs": [],
					"stateMutability": "nonpayable",
					"type": "function"
				},
				{
					"stateMutability": "payable",
					"type": "receive"
				}
			],
			"devdoc": {
				"errors": {
					"OwnableInvalidOwner(address)": [
						{
							"details": "The owner is not a valid owner account. (eg. `address(0)`)"
						}
					],
					"OwnableUnauthorizedAccount(address)": [
						{
							"details": "The caller account is not authorized to perform an operation."
						}
					]
				},
				"events": {
					"Paused(address)": {
						"details": "Emitted when the pause is triggered by `account`."
					},
					"Unpaused(address)": {
						"details": "Emitted when the pause is lifted by `account`."
					}
				},
				"kind": "dev",
				"methods": {
					"analyzeAllRoutes(uint256)": {
						"params": {
							"flashLoanAmount": "Amount to flash loan"
						},
						"returns": {
							"routeProfits": "Array of profits for each route",
							"routesProfitable": "Array of profitability flags"
						}
					},
					"analyzeRoute(uint256,uint256)": {
						"params": {
							"flashLoanAmount": "Amount to flash loan",
							"routeIndex": "Index of the route to analyze"
						},
						"returns": {
							"estimatedProfit": "Expected profit in base token",
							"isProfitable": "Whether route meets minimum profit threshold"
						}
					},
					"executeOptimalArbitrage(uint256)": {
						"params": {
							"flashLoanAmount": "Amount to flash loan (in wei, e.g., 10e18 for 10 WETH)"
						},
						"returns": {
							"success": "Whether execution was successful"
						}
					},
					"findOptimalRoute(uint256)": {
						"params": {
							"flashLoanAmount": "Amount to flash loan"
						},
						"returns": {
							"bestRouteIndex": "Index of most profitable route",
							"highestProfit": "Estimated profit of best route",
							"isProfitable": "Whether best route meets minimum threshold"
						}
					},
					"getWethValueInUsd()": {
						"returns": {
							"_0": "usdValue The value in USD (scaled by 8 decimals, same as Chainlink)"
						}
					},
					"owner()": {
						"details": "Returns the address of the current owner."
					},
					"paused()": {
						"details": "Returns true if the contract is paused, and false otherwise."
					},
					"renounceOwnership()": {
						"details": "Leaves the contract without owner. It will not be possible to call `onlyOwner` functions. Can only be called by the current owner. NOTE: Renouncing ownership will leave the contract without an owner, thereby disabling any functionality that is only available to the owner."
					},
					"transferOwnership(address)": {
						"details": "Transfers ownership of the contract to a new account (`newOwner`). Can only be called by the current owner."
					},
					"withdrawToken(address)": {
						"params": {
							"token": "Token address to withdraw"
						}
					}
				},
				"version": 1
			},
			"evm": {
				"assembly": "    /* \"contracts/ArbOptimizer.sol\":1772:17949  contract ArbOptimizer is Ownable, ReentrancyGuard, Pausable {... */\n  0x80\n  dup1\n  0x40\n  mstore\n  jumpi(tag_1, callvalue)\n    /* \"contracts/ArbOptimizer.sol\":5505:5515  msg.sender */\n  caller\n    /* \"@openzeppelin/contracts/access/Ownable.sol\":1273:1299  initialOwner == address(0) */\n  iszero\n    /* \"@openzeppelin/contracts/access/Ownable.sol\":1269:1364  if (initialOwner == address(0)) {... */\n  tag_3\n  jumpi\n    /* \"@openzeppelin/contracts/access/Ownable.sol\":1297:1298  0 */\n  0x00\n    /* \"contracts/ArbOptimizer.sol\":1772:17949  contract ArbOptimizer is Ownable, ReentrancyGuard, Pausable {... */\n  dup1\n  sload\n    /* \"contracts/ArbOptimizer.sol\":5505:5515  msg.sender */\n  caller\n  not(sub(shl(0xa0, 0x01), 0x01))\n    /* \"contracts/ArbOptimizer.sol\":1772:17949  contract ArbOptimizer is Ownable, ReentrancyGuard, Pausable {... */\n  dup3\n  and\n  dup2\n  or\n  dup4\n  sstore\n  mload(0x40)\n  swap3\n    /* \"contracts/ArbOptimizer.sol\":5505:5515  msg.sender */\n  swap1\n  swap2\n  sub(shl(0xa0, 0x01), 0x01)\n    /* \"contracts/ArbOptimizer.sol\":1983:2025  0xEfac88d8e212ca21d4FE670F715c4fE12CFbEF05 */\n  and\n  swap1\n    /* \"@openzeppelin/contracts/access/Ownable.sol\":3052:3092  OwnershipTransferred(oldOwner, newOwner) */\n  0x8be0079c531659141344cd1fd0a4f28419497f9722a3daafe3b4186f6b6457e0\n  swap1\n    /* \"@openzeppelin/contracts/access/Ownable.sol\":1297:1298  0 */\n  dup1\n    /* \"@openzeppelin/contracts/access/Ownable.sol\":3052:3092  OwnershipTransferred(oldOwner, newOwner) */\n  log3\n    /* \"contracts/ArbOptimizer.sol\":1772:17949  contract ArbOptimizer is Ownable, ReentrancyGuard, Pausable {... */\n  0x01\n  dup1\n  sstore\n    /* \"@openzeppelin/contracts/security/Pausable.sol\":996:1011  _paused = false */\n  0x02\n    /* \"contracts/ArbOptimizer.sol\":1772:17949  contract ArbOptimizer is Ownable, ReentrancyGuard, Pausable {... */\n  dup1\n  sload\n    /* \"contracts/ArbOptimizer.sol\":4328:4332  1e18 */\n  0x0de0b6b3a7640000\n  0x03\n    /* \"contracts/ArbOptimizer.sol\":1772:17949  contract ArbOptimizer is Ownable, ReentrancyGuard, Pausable {... */\n  sstore\n    /* \"contracts/ArbOptimizer.sol\":4375:4382  1000e18 */\n  0x3635c9adc5dea00000\n  0x04\n    /* \"contracts/ArbOptimizer.sol\":1772:17949  contract ArbOptimizer is Ownable, ReentrancyGuard, Pausable {... */\n  sstore\n    /* \"contracts/ArbOptimizer.sol\":4419:4421  50 */\n  0x32\n  0x05\n    /* \"contracts/ArbOptimizer.sol\":1772:17949  contract ArbOptimizer is Ownable, ReentrancyGuard, Pausable {... */\n  sstore\n    /* \"contracts/ArbOptimizer.sol\":4461:4468  0.01e18 */\n  0x2386f26fc10000\n  0x06\n    /* \"contracts/ArbOptimizer.sol\":1772:17949  contract ArbOptimizer is Ownable, ReentrancyGuard, Pausable {... */\n  sstore\n    /* \"contracts/ArbOptimizer.sol\":4503:4508  false */\n  0x07\n    /* \"contracts/ArbOptimizer.sol\":1772:17949  contract ArbOptimizer is Ownable, ReentrancyGuard, Pausable {... */\n  dup1\n  sload\n  not(0xff)\n  and\n  swap1\n  sstore\n    /* \"contracts/ArbOptimizer.sol\":4589:4599  60 seconds */\n  0x3c\n  0x09\n    /* \"contracts/ArbOptimizer.sol\":1772:17949  contract ArbOptimizer is Ownable, ReentrancyGuard, Pausable {... */\n  sstore\n  not(sub(shl(0xa8, 0x01), 0x01))\n    /* \"contracts/ArbOptimizer.sol\":1983:2025  0xEfac88d8e212ca21d4FE670F715c4fE12CFbEF05 */\n  and\n  0xefac88d8e212ca21d4fe670f715c4fe12cfbef0500\n  or\n  swap1\n  sstore\n    /* \"contracts/ArbOptimizer.sol\":1772:17949  contract ArbOptimizer is Ownable, ReentrancyGuard, Pausable {... */\n  dataSize(sub_0)\n  swap1\n  dup2\n  dataOffset(sub_0)\n  dup3\n  codecopy\n  return\n    /* \"@openzeppelin/contracts/access/Ownable.sol\":1269:1364  if (initialOwner == address(0)) {... */\ntag_3:\n  shl(0xe0, 0x1e4fbdf7)\n    /* \"@openzeppelin/contracts/access/Ownable.sol\":1322:1353  OwnableInvalidOwner(address(0)) */\n  dup2\n  mstore\n    /* \"@openzeppelin/contracts/access/Ownable.sol\":1297:1298  0 */\n  0x00\n    /* \"@openzeppelin/contracts/access/Ownable.sol\":1322:1353  OwnableInvalidOwner(address(0)) */\n  0x04\n  dup3\n  add\n    /* \"contracts/ArbOptimizer.sol\":1772:17949  contract ArbOptimizer is Ownable, ReentrancyGuard, Pausable {... */\n  mstore\n  0x24\n  swap1\n    /* \"@openzeppelin/contracts/access/Ownable.sol\":1322:1353  OwnableInvalidOwner(address(0)) */\n  revert\n    /* \"contracts/ArbOptimizer.sol\":1772:17949  contract ArbOptimizer is Ownable, ReentrancyGuard, Pausable {... */\ntag_1:\n  0x00\n  dup1\n  revert\nstop\n\nsub_0: assembly {\n        /* \"contracts/ArbOptimizer.sol\":1772:17949  contract ArbOptimizer is Ownable, ReentrancyGuard, Pausable {... */\n      0x40\n      0x80\n      dup2\n      mstore\n      0x04\n      dup1\n      calldatasize\n      lt\n      iszero\n      tag_22\n      jumpi\n    tag_23:\n      pop\n      pop\n      jumpi(tag_24, iszero(calldatasize))\n      0x00\n      dup1\n      revert\n    tag_24:\n      stop\n    tag_22:\n      0x00\n      swap1\n      dup2\n      calldataload\n      0xe0\n      shr\n      dup1\n      0x020bcc9e\n      eq\n      tag_26\n      jumpi\n      dup1\n      0x0af95101\n      eq\n      tag_28\n      jumpi\n      dup1\n      0x2e610fb8\n      eq\n      tag_30\n      jumpi\n      dup1\n      0x315b41ce\n      eq\n      tag_32\n      jumpi\n      dup1\n      0x362e496b\n      eq\n      tag_34\n      jumpi\n      dup1\n      0x383aeeae\n      eq\n      tag_36\n      jumpi\n      dup1\n      0x3aecd0e3\n      eq\n      tag_38\n      jumpi\n      dup1\n      0x3f4ba83a\n      eq\n      tag_40\n      jumpi\n      dup1\n      0x4c02f62e\n      eq\n      tag_42\n      jumpi\n      dup1\n      0x5c975abb\n      eq\n      tag_44\n      jumpi\n      dup1\n      0x6b9c189f\n      eq\n      tag_46\n      jumpi\n      dup1\n      0x6e947298\n      eq\n      tag_48\n      jumpi\n      dup1\n      0x715018a6\n      eq\n      tag_50\n      jumpi\n      dup1\n      0x716ad825\n      eq\n      tag_52\n      jumpi\n      dup1\n      0x73b379bd\n      eq\n      tag_54\n      jumpi\n      dup1\n      0x8456cb59\n      eq\n      tag_56\n      jumpi\n      dup1\n      0x853828b6\n      eq\n      tag_58\n      jumpi\n      dup1\n      0x867e7c27\n      eq\n      tag_60\n      jumpi\n      dup1\n      0x89476069\n      eq\n      tag_62\n      jumpi\n      dup1\n      0x8da5cb5b\n      eq\n      tag_64\n      jumpi\n      dup1\n      0x8f40f0a6\n      eq\n      tag_66\n      jumpi\n      dup1\n      0x9517ed85\n      eq\n      tag_68\n      jumpi\n      dup1\n      0xa140edb4\n      eq\n      tag_70\n      jumpi\n      dup1\n      0xa6b8ec96\n      eq\n      tag_72\n      jumpi\n      dup1\n      0xa911f736\n      eq\n      tag_74\n      jumpi\n      dup1\n      0xad3707d4\n      eq\n      tag_76\n      jumpi\n      dup1\n      0xaffa8817\n      eq\n      tag_78\n      jumpi\n      dup1\n      0xb4804ce7\n      eq\n      tag_80\n      jumpi\n      dup1\n      0xcf224d07\n      eq\n      tag_82\n      jumpi\n      dup1\n      0xd3c7c2c7\n      eq\n      tag_84\n      jumpi\n      dup1\n      0xd7b3a397\n      eq\n      tag_86\n      jumpi\n      dup1\n      0xd8fc063d\n      eq\n      tag_88\n      jumpi\n      dup1\n      0xe086e5ec\n      eq\n      tag_90\n      jumpi\n      dup1\n      0xe6419b3f\n      eq\n      tag_92\n      jumpi\n      dup1\n      0xf2fde38b\n      eq\n      tag_94\n      jumpi\n      0xf7d5e663\n      eq\n      tag_96\n      jumpi\n      pop\n      jump(tag_23)\n    tag_96:\n      jumpi(tag_98, callvalue)\n      tag_100\n      calldatasize\n      tag_1\n      jump\t// in\n    tag_100:\n        /* \"@openzeppelin/contracts/access/Ownable.sol\":1500:1562  modifier onlyOwner() {... */\n      swap2\n      tag_101\n      tag_4\n      jump\t// in\n    tag_101:\n        /* \"contracts/ArbOptimizer.sol\":14784:14792  _min > 0 */\n      dup2\n      iszero\n      iszero\n        /* \"contracts/ArbOptimizer.sol\":14784:14807  _min > 0 && _max > _min */\n      dup1\n      tag_102\n      jumpi\n        /* \"contracts/ArbOptimizer.sol\":1772:17949  contract ArbOptimizer is Ownable, ReentrancyGuard, Pausable {... */\n    tag_103:\n      iszero\n      tag_104\n      jumpi\n        /* \"contracts/ArbOptimizer.sol\":14914:14977  ConfigurationUpdated(_min, _max, minProfitBps, minProfitAmount) */\n      0xb332ff846a7f7e49c967d592cb8ecccd56f3693ab85af2f484aa5bfabcd2a57a\n        /* \"contracts/ArbOptimizer.sol\":2081:2123  0xC02aaA39b223FE8D0A0e5C4F27eAD9083C756Cc2 */\n      swap4\n      swap5\n      dup4\n        /* \"contracts/ArbOptimizer.sol\":14914:14977  ConfigurationUpdated(_min, _max, minProfitBps, minProfitAmount) */\n      tag_106\n        /* \"contracts/ArbOptimizer.sol\":2081:2123  0xC02aaA39b223FE8D0A0e5C4F27eAD9083C756Cc2 */\n      swap3\n      dup5\n        /* \"contracts/ArbOptimizer.sol\":14837:14862  minFlashLoanAmount = _min */\n      0x03\n        /* \"contracts/ArbOptimizer.sol\":2081:2123  0xC02aaA39b223FE8D0A0e5C4F27eAD9083C756Cc2 */\n      sstore\n      sstore\n        /* \"contracts/ArbOptimizer.sol\":14947:14959  minProfitBps */\n      0x05\n        /* \"contracts/ArbOptimizer.sol\":1772:17949  contract ArbOptimizer is Ownable, ReentrancyGuard, Pausable {... */\n      sload\n        /* \"contracts/ArbOptimizer.sol\":14961:14976  minProfitAmount */\n      0x06\n        /* \"contracts/ArbOptimizer.sol\":1772:17949  contract ArbOptimizer is Ownable, ReentrancyGuard, Pausable {... */\n      sload\n      swap2\n      mload\n        /* \"contracts/ArbOptimizer.sol\":14914:14977  ConfigurationUpdated(_min, _max, minProfitBps, minProfitAmount) */\n      swap5\n      dup6\n      swap5\n      dup6\n        /* \"contracts/ArbOptimizer.sol\":1772:17949  contract ArbOptimizer is Ownable, ReentrancyGuard, Pausable {... */\n      swap1\n      swap5\n      swap4\n      swap3\n      0x60\n      swap3\n      0x80\n      dup4\n      add\n      swap7\n      dup4\n      mstore\n      0x20\n      dup4\n      add\n      mstore\n      0x40\n      dup3\n      add\n      mstore\n      add\n      mstore\n      jump\n        /* \"contracts/ArbOptimizer.sol\":14914:14977  ConfigurationUpdated(_min, _max, minProfitBps, minProfitAmount) */\n    tag_106:\n      sub\n      swap1\n      log1\n        /* \"contracts/ArbOptimizer.sol\":1772:17949  contract ArbOptimizer is Ownable, ReentrancyGuard, Pausable {... */\n      dup1\n      return\n    tag_104:\n      0x64\n      swap1\n      0x20\n      dup7\n      mload\n      swap2\n      shl(0xe5, 0x461bcd)\n      dup4\n      mstore\n      dup3\n      add\n      mstore\n      0x0e\n      0x24\n      dup3\n      add\n      mstore\n      shl(0x90, 0x496e76616c6964206c696d697473)\n      0x44\n      dup3\n      add\n      mstore\n      revert\n        /* \"contracts/ArbOptimizer.sol\":14784:14807  _min > 0 && _max > _min */\n    tag_102:\n        /* \"contracts/ArbOptimizer.sol\":14796:14807  _max > _min */\n      pop\n      dup2\n      dup4\n      gt\n        /* \"contracts/ArbOptimizer.sol\":14784:14807  _min > 0 && _max > _min */\n      jump(tag_103)\n        /* \"contracts/ArbOptimizer.sol\":1772:17949  contract ArbOptimizer is Ownable, ReentrancyGuard, Pausable {... */\n    tag_98:\n      pop\n      dup1\n      revert\n    tag_94:\n      pop\n      dup3\n      jumpi(tag_109, callvalue)\n      jumpi(tag_109, slt(add(not(0x03), calldatasize), 0x20))\n      sub(shl(0xa0, 0x01), 0x01)\n      dup3\n      calldataload\n      dup2\n      dup2\n      and\n      swap4\n      swap2\n      swap3\n      swap1\n      dup5\n      swap1\n      sub\n      tag_111\n      jumpi\n        /* \"@openzeppelin/contracts/access/Ownable.sol\":1500:1562  modifier onlyOwner() {... */\n      tag_113\n      tag_4\n      jump\t// in\n    tag_113:\n        /* \"@openzeppelin/contracts/access/Ownable.sol\":2627:2649  newOwner == address(0) */\n      dup4\n      iszero\n        /* \"@openzeppelin/contracts/access/Ownable.sol\":2623:2714  if (newOwner == address(0)) {... */\n      tag_114\n      jumpi\n        /* \"contracts/ArbOptimizer.sol\":1772:17949  contract ArbOptimizer is Ownable, ReentrancyGuard, Pausable {... */\n      pop\n      pop\n      sload(0x00)\n      dup3\n      shl(0xa0, 0xffffffffffffffffffffffff)\n      dup3\n      and\n      or\n      0x00\n      sstore\n      and\n        /* \"@openzeppelin/contracts/access/Ownable.sol\":3052:3092  OwnershipTransferred(oldOwner, newOwner) */\n      0x8be0079c531659141344cd1fd0a4f28419497f9722a3daafe3b4186f6b6457e0\n        /* \"contracts/ArbOptimizer.sol\":1772:17949  contract ArbOptimizer is Ownable, ReentrancyGuard, Pausable {... */\n      0x00\n        /* \"@openzeppelin/contracts/access/Ownable.sol\":3052:3092  OwnershipTransferred(oldOwner, newOwner) */\n      dup1\n      log3\n        /* \"contracts/ArbOptimizer.sol\":1772:17949  contract ArbOptimizer is Ownable, ReentrancyGuard, Pausable {... */\n      dup1\n      return\n        /* \"@openzeppelin/contracts/access/Ownable.sol\":2623:2714  if (newOwner == address(0)) {... */\n    tag_114:\n        /* \"contracts/ArbOptimizer.sol\":1772:17949  contract ArbOptimizer is Ownable, ReentrancyGuard, Pausable {... */\n      mload\n      shl(0xe0, 0x1e4fbdf7)\n        /* \"@openzeppelin/contracts/access/Ownable.sol\":2672:2703  OwnableInvalidOwner(address(0)) */\n      dup2\n      mstore\n      swap1\n      dup2\n      add\n        /* \"contracts/ArbOptimizer.sol\":1772:17949  contract ArbOptimizer is Ownable, ReentrancyGuard, Pausable {... */\n      dup5\n      swap1\n      mstore\n      0x24\n      swap1\n        /* \"@openzeppelin/contracts/access/Ownable.sol\":2672:2703  OwnableInvalidOwner(address(0)) */\n      revert\n        /* \"contracts/ArbOptimizer.sol\":1772:17949  contract ArbOptimizer is Ownable, ReentrancyGuard, Pausable {... */\n    tag_111:\n      dup5\n      dup1\n      revert\n    tag_109:\n      dup3\n      dup1\n      revert\n    tag_92:\n      dup3\n      dup5\n      jumpi(tag_98, callvalue)\n      dup2\n      add(calldatasize, not(0x03))\n      slt\n      tag_98\n      jumpi\n        /* \"contracts/ArbOptimizer.sol\":4260:4283  IArbExec public arbExec */\n      0x02\n        /* \"contracts/ArbOptimizer.sol\":1772:17949  contract ArbOptimizer is Ownable, ReentrancyGuard, Pausable {... */\n      sload\n      swap1\n      mload\n      0x08\n      swap2\n      swap1\n      swap2\n      shr\n      sub(shl(0xa0, 0x01), 0x01)\n      and\n      dup2\n      mstore\n      0x20\n      swap1\n      return\n    tag_90:\n      pop\n      dup2\n      dup4\n      swap2\n      jumpi(tag_98, callvalue)\n      dup2\n      add(calldatasize, not(0x03))\n      slt\n      tag_98\n      jumpi\n        /* \"@openzeppelin/contracts/security/ReentrancyGuard.sol\":2227:2330  modifier nonReentrant() {... */\n      tag_124\n      tag_16\n      jump\t// in\n    tag_124:\n        /* \"@openzeppelin/contracts/access/Ownable.sol\":1500:1562  modifier onlyOwner() {... */\n      tag_125\n      tag_4\n      jump\t// in\n    tag_125:\n        /* \"contracts/ArbOptimizer.sol\":13188:13195  arbExec */\n      0x02\n        /* \"contracts/ArbOptimizer.sol\":1772:17949  contract ArbOptimizer is Ownable, ReentrancyGuard, Pausable {... */\n      sload\n      0x08\n      shr\n      sub(shl(0xa0, 0x01), 0x01)\n      and\n      swap1\n        /* \"contracts/ArbOptimizer.sol\":13188:13209  arbExec.withdrawETH() */\n      dup2\n      extcodesize\n      iszero\n      tag_109\n      jumpi\n        /* \"contracts/ArbOptimizer.sol\":1772:17949  contract ArbOptimizer is Ownable, ReentrancyGuard, Pausable {... */\n      dup4\n      mload\n      shl(0xe2, 0x3821b97b)\n        /* \"contracts/ArbOptimizer.sol\":13188:13209  arbExec.withdrawETH() */\n      dup2\n      mstore\n        /* \"contracts/ArbOptimizer.sol\":1772:17949  contract ArbOptimizer is Ownable, ReentrancyGuard, Pausable {... */\n      swap2\n      dup4\n      swap2\n      dup4\n      swap2\n      dup3\n      swap1\n      dup5\n      swap1\n        /* \"contracts/ArbOptimizer.sol\":13188:13209  arbExec.withdrawETH() */\n      gas\n      call\n      dup1\n      iszero\n      tag_128\n      jumpi\n      tag_130\n      jumpi\n        /* \"contracts/ArbOptimizer.sol\":1772:17949  contract ArbOptimizer is Ownable, ReentrancyGuard, Pausable {... */\n    tag_131:\n        /* \"contracts/ArbOptimizer.sol\":13238:13259  address(this).balance */\n      pop\n      pop\n      selfbalance\n        /* \"contracts/ArbOptimizer.sol\":13274:13285  balance > 0 */\n      swap1\n      dup2\n        /* \"contracts/ArbOptimizer.sol\":13270:13475  if (balance > 0) {... */\n      tag_132\n      jumpi\n        /* \"contracts/ArbOptimizer.sol\":1772:17949  contract ArbOptimizer is Ownable, ReentrancyGuard, Pausable {... */\n    tag_133:\n        /* \"contracts/ArbOptimizer.sol\":2081:2123  0xC02aaA39b223FE8D0A0e5C4F27eAD9083C756Cc2 */\n      dup3\n        /* \"contracts/ArbOptimizer.sol\":1772:17949  contract ArbOptimizer is Ownable, ReentrancyGuard, Pausable {... */\n      0x01\n        /* \"contracts/ArbOptimizer.sol\":2081:2123  0xC02aaA39b223FE8D0A0e5C4F27eAD9083C756Cc2 */\n      dup1\n      sstore\n        /* \"contracts/ArbOptimizer.sol\":1772:17949  contract ArbOptimizer is Ownable, ReentrancyGuard, Pausable {... */\n      dup1\n      return\n        /* \"contracts/ArbOptimizer.sol\":13270:13475  if (balance > 0) {... */\n    tag_132:\n        /* \"contracts/ArbOptimizer.sol\":13371:13410  require(success, \"ETH transfer failed\") */\n      tag_134\n        /* \"contracts/ArbOptimizer.sol\":13321:13331  msg.sender */\n      dup4\n      dup1\n      dup1\n      dup1\n      dup7\n      caller\n        /* \"contracts/ArbOptimizer.sol\":13321:13356  msg.sender.call{value: balance}(\"\") */\n      gas\n      call\n      tag_135\n      tag_19\n      jump\t// in\n    tag_135:\n      pop\n        /* \"contracts/ArbOptimizer.sol\":13371:13410  require(success, \"ETH transfer failed\") */\n      tag_20\n      jump\t// in\n    tag_134:\n        /* \"contracts/ArbOptimizer.sol\":1772:17949  contract ArbOptimizer is Ownable, ReentrancyGuard, Pausable {... */\n      mload\n      swap1\n      dup2\n      mstore\n        /* \"contracts/ArbOptimizer.sol\":13430:13463  ETHWithdrawn(balance, msg.sender) */\n      0x6148672a948a12b8e0bf92a9338349b9ac890fad62a234abaf0a4da99f62cfcc\n        /* \"contracts/ArbOptimizer.sol\":1772:17949  contract ArbOptimizer is Ownable, ReentrancyGuard, Pausable {... */\n      0x20\n        /* \"contracts/ArbOptimizer.sol\":13321:13331  msg.sender */\n      caller\n        /* \"contracts/ArbOptimizer.sol\":13430:13463  ETHWithdrawn(balance, msg.sender) */\n      swap3\n      log2\n        /* \"contracts/ArbOptimizer.sol\":13270:13475  if (balance > 0) {... */\n      dup2\n      dup1\n      jump(tag_133)\n        /* \"contracts/ArbOptimizer.sol\":13188:13209  arbExec.withdrawETH() */\n    tag_130:\n      tag_136\n      swap1\n      tag_5\n      jump\t// in\n    tag_136:\n        /* \"contracts/ArbOptimizer.sol\":1772:17949  contract ArbOptimizer is Ownable, ReentrancyGuard, Pausable {... */\n      tag_98\n      jumpi\n        /* \"contracts/ArbOptimizer.sol\":13188:13209  arbExec.withdrawETH() */\n      dup2\n      dup4\n      jump(tag_131)\n    tag_128:\n        /* \"contracts/ArbOptimizer.sol\":1772:17949  contract ArbOptimizer is Ownable, ReentrancyGuard, Pausable {... */\n      pop\n      pop\n      pop\n      mload\n        /* \"contracts/ArbOptimizer.sol\":3532:3597  AggregatorV3Interface(0x5f4eC3Df9cbd43714FE2740f5E3616155c5b8419) */\n      swap1\n      returndatasize\n      swap1\n      dup3\n      returndatacopy\n      returndatasize\n      swap1\n      revert\n        /* \"contracts/ArbOptimizer.sol\":1772:17949  contract ArbOptimizer is Ownable, ReentrancyGuard, Pausable {... */\n    tag_88:\n      pop\n      dup3\n      swap1\n      jumpi(tag_109, callvalue)\n      dup3\n      add(calldatasize, not(0x03))\n      slt\n      tag_109\n      jumpi\n        /* \"@openzeppelin/contracts/security/ReentrancyGuard.sol\":2227:2330  modifier nonReentrant() {... */\n      tag_143\n      tag_16\n      jump\t// in\n    tag_143:\n        /* \"@openzeppelin/contracts/access/Ownable.sol\":1500:1562  modifier onlyOwner() {... */\n      tag_144\n      tag_4\n      jump\t// in\n    tag_144:\n        /* \"contracts/ArbOptimizer.sol\":11366:11373  arbExec */\n      0x02\n        /* \"contracts/ArbOptimizer.sol\":1772:17949  contract ArbOptimizer is Ownable, ReentrancyGuard, Pausable {... */\n      sload\n      0x08\n      shr\n      sub(shl(0xa0, 0x01), 0x01)\n      and\n      swap1\n        /* \"contracts/ArbOptimizer.sol\":11366:11397  arbExec.emergencyWithdraw(USDC) */\n      dup2\n      extcodesize\n      iszero\n      tag_174\n      jumpi\n        /* \"contracts/ArbOptimizer.sol\":1772:17949  contract ArbOptimizer is Ownable, ReentrancyGuard, Pausable {... */\n      dup4\n      dup4\n      mload\n        /* \"contracts/ArbOptimizer.sol\":3532:3597  AggregatorV3Interface(0x5f4eC3Df9cbd43714FE2740f5E3616155c5b8419) */\n      shl(0xe2, 0x1bfc726f)\n        /* \"contracts/ArbOptimizer.sol\":11366:11397  arbExec.emergencyWithdraw(USDC) */\n      dup2\n      mstore\n        /* \"contracts/ArbOptimizer.sol\":2162:2204  0xA0b86991c6218b36c1d19D4a2e9Eb0cE3606eB48 */\n      dup2\n      dup2\n        /* \"contracts/ArbOptimizer.sol\":1772:17949  contract ArbOptimizer is Ownable, ReentrancyGuard, Pausable {... */\n      0x24\n        /* \"contracts/ArbOptimizer.sol\":2162:2204  0xA0b86991c6218b36c1d19D4a2e9Eb0cE3606eB48 */\n      dup2\n      dup4\n      0xa0b86991c6218b36c1d19d4a2e9eb0ce3606eb48\n        /* \"contracts/ArbOptimizer.sol\":11366:11397  arbExec.emergencyWithdraw(USDC) */\n      swap9\n      dup10\n      dup10\n      dup5\n      add\n        /* \"contracts/ArbOptimizer.sol\":1772:17949  contract ArbOptimizer is Ownable, ReentrancyGuard, Pausable {... */\n      mstore\n        /* \"contracts/ArbOptimizer.sol\":11366:11397  arbExec.emergencyWithdraw(USDC) */\n      gas\n      call\n      dup1\n      iszero\n      tag_147\n      jumpi\n      tag_149\n      jumpi\n        /* \"contracts/ArbOptimizer.sol\":1772:17949  contract ArbOptimizer is Ownable, ReentrancyGuard, Pausable {... */\n    tag_150:\n      pop\n      pop\n      dup3\n      mload\n      shl(0xe0, 0x70a08231)\n        /* \"contracts/ArbOptimizer.sol\":11426:11463  IERC20(USDC).balanceOf(address(this)) */\n      dup2\n      mstore\n        /* \"contracts/ArbOptimizer.sol\":11457:11461  this */\n      address\n        /* \"contracts/ArbOptimizer.sol\":11426:11463  IERC20(USDC).balanceOf(address(this)) */\n      dup3\n      dup3\n      add\n        /* \"contracts/ArbOptimizer.sol\":1772:17949  contract ArbOptimizer is Ownable, ReentrancyGuard, Pausable {... */\n      mstore\n      swap3\n      0x20\n      swap1\n      dup2\n      dup6\n      0x24\n      dup2\n        /* \"contracts/ArbOptimizer.sol\":11426:11463  IERC20(USDC).balanceOf(address(this)) */\n      dup8\n      gas\n      staticcall\n      swap5\n      dup6\n      iszero\n      tag_158\n      jumpi\n      dup7\n      swap6\n      tag_153\n      jumpi\n        /* \"contracts/ArbOptimizer.sol\":1772:17949  contract ArbOptimizer is Ownable, ReentrancyGuard, Pausable {... */\n    tag_154:\n        /* \"contracts/ArbOptimizer.sol\":11478:11489  balance > 0 */\n      pop\n      dup5\n        /* \"contracts/ArbOptimizer.sol\":11474:11622  if (balance > 0) {... */\n      tag_155\n      jumpi\n        /* \"contracts/ArbOptimizer.sol\":1772:17949  contract ArbOptimizer is Ownable, ReentrancyGuard, Pausable {... */\n    tag_156:\n        /* \"contracts/ArbOptimizer.sol\":2081:2123  0xC02aaA39b223FE8D0A0e5C4F27eAD9083C756Cc2 */\n      dup6\n        /* \"contracts/ArbOptimizer.sol\":1772:17949  contract ArbOptimizer is Ownable, ReentrancyGuard, Pausable {... */\n      0x01\n        /* \"contracts/ArbOptimizer.sol\":2081:2123  0xC02aaA39b223FE8D0A0e5C4F27eAD9083C756Cc2 */\n      dup1\n      sstore\n        /* \"contracts/ArbOptimizer.sol\":1772:17949  contract ArbOptimizer is Ownable, ReentrancyGuard, Pausable {... */\n      dup1\n      return\n        /* \"contracts/ArbOptimizer.sol\":11474:11622  if (balance > 0) {... */\n    tag_155:\n        /* \"contracts/ArbOptimizer.sol\":1772:17949  contract ArbOptimizer is Ownable, ReentrancyGuard, Pausable {... */\n      dup1\n      mload\n      shl(0xe0, 0xa9059cbb)\n        /* \"contracts/ArbOptimizer.sol\":11506:11548  IERC20(USDC).transfer(msg.sender, balance) */\n      dup2\n      mstore\n        /* \"contracts/ArbOptimizer.sol\":11528:11538  msg.sender */\n      caller\n        /* \"contracts/ArbOptimizer.sol\":11506:11548  IERC20(USDC).transfer(msg.sender, balance) */\n      swap4\n      dup2\n      add\n        /* \"contracts/ArbOptimizer.sol\":1772:17949  contract ArbOptimizer is Ownable, ReentrancyGuard, Pausable {... */\n      swap4\n      dup5\n      mstore\n      0x20\n      dup5\n      add\n      dup7\n      swap1\n      mstore\n      swap3\n      dup3\n      swap1\n      dup5\n      swap1\n      dup2\n      swap1\n      0x40\n      add\n        /* \"contracts/ArbOptimizer.sol\":11506:11548  IERC20(USDC).transfer(msg.sender, balance) */\n      sub\n      dup2\n      dup10\n      dup9\n      gas\n      call\n      dup1\n      iszero\n      tag_158\n      jumpi\n      tag_160\n      jumpi\n        /* \"contracts/ArbOptimizer.sol\":11474:11622  if (balance > 0) {... */\n    tag_161:\n      0x00\n      dup1\n      mload\n      0x20\n      data_084f00436a29ddf9fe96da3f0df8ffde36506fc292725425a43a4251d44f1f53\n      dup4\n      codecopy\n      dup2\n      mload\n      swap2\n      mstore\n        /* \"contracts/ArbOptimizer.sol\":1772:17949  contract ArbOptimizer is Ownable, ReentrancyGuard, Pausable {... */\n      swap3\n      pop\n      mload\n      swap4\n      dup5\n      mstore\n        /* \"contracts/ArbOptimizer.sol\":11528:11538  msg.sender */\n      caller\n        /* \"contracts/ArbOptimizer.sol\":11568:11610  ProfitWithdrawn(USDC, balance, msg.sender) */\n      swap4\n      log3\n        /* \"contracts/ArbOptimizer.sol\":11474:11622  if (balance > 0) {... */\n      dup2\n      dup1\n      dup1\n      dup1\n      dup1\n      jump(tag_156)\n        /* \"contracts/ArbOptimizer.sol\":11506:11548  IERC20(USDC).transfer(msg.sender, balance) */\n    tag_160:\n      dup2\n      dup4\n      dup2\n      returndatasize\n      dup4\n      gt\n      tag_162\n      jumpi\n    tag_163:\n      tag_164\n      dup2\n      dup4\n      tag_6\n      jump\t// in\n    tag_164:\n      dup2\n      add\n        /* \"contracts/ArbOptimizer.sol\":1772:17949  contract ArbOptimizer is Ownable, ReentrancyGuard, Pausable {... */\n      sub\n      slt\n      tag_165\n      jumpi\n      tag_167\n      0x00\n      dup1\n      mload\n      0x20\n      data_084f00436a29ddf9fe96da3f0df8ffde36506fc292725425a43a4251d44f1f53\n      dup4\n      codecopy\n      dup2\n      mload\n      swap2\n      mstore\n      swap4\n      tag_11\n      jump\t// in\n    tag_167:\n      pop\n        /* \"contracts/ArbOptimizer.sol\":11506:11548  IERC20(USDC).transfer(msg.sender, balance) */\n      jump(tag_161)\n        /* \"contracts/ArbOptimizer.sol\":1772:17949  contract ArbOptimizer is Ownable, ReentrancyGuard, Pausable {... */\n    tag_165:\n      dup6\n      dup1\n      revert\n        /* \"contracts/ArbOptimizer.sol\":11506:11548  IERC20(USDC).transfer(msg.sender, balance) */\n    tag_162:\n      pop\n      returndatasize\n      jump(tag_163)\n    tag_158:\n        /* \"contracts/ArbOptimizer.sol\":1772:17949  contract ArbOptimizer is Ownable, ReentrancyGuard, Pausable {... */\n      dup2\n      mload\n        /* \"contracts/ArbOptimizer.sol\":3532:3597  AggregatorV3Interface(0x5f4eC3Df9cbd43714FE2740f5E3616155c5b8419) */\n      returndatasize\n        /* \"contracts/ArbOptimizer.sol\":1772:17949  contract ArbOptimizer is Ownable, ReentrancyGuard, Pausable {... */\n      dup9\n      dup3\n        /* \"contracts/ArbOptimizer.sol\":3532:3597  AggregatorV3Interface(0x5f4eC3Df9cbd43714FE2740f5E3616155c5b8419) */\n      returndatacopy\n      returndatasize\n      swap1\n      revert\n        /* \"contracts/ArbOptimizer.sol\":11426:11463  IERC20(USDC).balanceOf(address(this)) */\n    tag_153:\n      swap1\n      swap5\n      pop\n      dup2\n      dup2\n      dup2\n      returndatasize\n      dup4\n      gt\n      tag_168\n      jumpi\n    tag_169:\n      tag_170\n      dup2\n      dup4\n      tag_6\n      jump\t// in\n    tag_170:\n      dup2\n      add\n        /* \"contracts/ArbOptimizer.sol\":1772:17949  contract ArbOptimizer is Ownable, ReentrancyGuard, Pausable {... */\n      sub\n      slt\n      tag_171\n      jumpi\n        /* \"contracts/ArbOptimizer.sol\":3532:3597  AggregatorV3Interface(0x5f4eC3Df9cbd43714FE2740f5E3616155c5b8419) */\n      mload\n        /* \"contracts/ArbOptimizer.sol\":11426:11463  IERC20(USDC).balanceOf(address(this)) */\n      swap4\n      dup7\n      jump(tag_154)\n        /* \"contracts/ArbOptimizer.sol\":1772:17949  contract ArbOptimizer is Ownable, ReentrancyGuard, Pausable {... */\n    tag_171:\n      0x00\n      dup1\n      revert\n        /* \"contracts/ArbOptimizer.sol\":11426:11463  IERC20(USDC).balanceOf(address(this)) */\n    tag_168:\n      pop\n      returndatasize\n      jump(tag_169)\n        /* \"contracts/ArbOptimizer.sol\":11366:11397  arbExec.emergencyWithdraw(USDC) */\n    tag_149:\n      tag_173\n      swap1\n      tag_5\n      jump\t// in\n    tag_173:\n        /* \"contracts/ArbOptimizer.sol\":1772:17949  contract ArbOptimizer is Ownable, ReentrancyGuard, Pausable {... */\n      tag_174\n      jumpi\n        /* \"contracts/ArbOptimizer.sol\":11366:11397  arbExec.emergencyWithdraw(USDC) */\n      dup4\n      dup6\n      jump(tag_150)\n        /* \"contracts/ArbOptimizer.sol\":1772:17949  contract ArbOptimizer is Ownable, ReentrancyGuard, Pausable {... */\n    tag_174:\n      dup4\n      dup1\n      revert\n        /* \"contracts/ArbOptimizer.sol\":11366:11397  arbExec.emergencyWithdraw(USDC) */\n    tag_147:\n        /* \"contracts/ArbOptimizer.sol\":1772:17949  contract ArbOptimizer is Ownable, ReentrancyGuard, Pausable {... */\n      dup6\n      mload\n        /* \"contracts/ArbOptimizer.sol\":3532:3597  AggregatorV3Interface(0x5f4eC3Df9cbd43714FE2740f5E3616155c5b8419) */\n      returndatasize\n        /* \"contracts/ArbOptimizer.sol\":1772:17949  contract ArbOptimizer is Ownable, ReentrancyGuard, Pausable {... */\n      dup5\n      dup3\n        /* \"contracts/ArbOptimizer.sol\":3532:3597  AggregatorV3Interface(0x5f4eC3Df9cbd43714FE2740f5E3616155c5b8419) */\n      returndatacopy\n      returndatasize\n      swap1\n      revert\n        /* \"contracts/ArbOptimizer.sol\":1772:17949  contract ArbOptimizer is Ownable, ReentrancyGuard, Pausable {... */\n    tag_86:\n      pop\n      swap2\n      jumpi(tag_98, callvalue)\n      dup2\n      add(calldatasize, not(0x03))\n      slt\n      tag_98\n      jumpi\n      dup1\n      mload\n      shl(0xe2, 0x3fabe5a3)\n        /* \"contracts/ArbOptimizer.sol\":3977:4016  ETH_USD_FEED_CONTRACT.latestRoundData() */\n      dup2\n      mstore\n        /* \"contracts/ArbOptimizer.sol\":1772:17949  contract ArbOptimizer is Ownable, ReentrancyGuard, Pausable {... */\n      swap2\n        /* \"contracts/ArbOptimizer.sol\":3977:4016  ETH_USD_FEED_CONTRACT.latestRoundData() */\n      0xa0\n        /* \"contracts/ArbOptimizer.sol\":1772:17949  contract ArbOptimizer is Ownable, ReentrancyGuard, Pausable {... */\n      dup4\n        /* \"contracts/ArbOptimizer.sol\":3977:4016  ETH_USD_FEED_CONTRACT.latestRoundData() */\n      dup6\n        /* \"contracts/ArbOptimizer.sol\":1772:17949  contract ArbOptimizer is Ownable, ReentrancyGuard, Pausable {... */\n      dup2\n        /* \"contracts/ArbOptimizer.sol\":3554:3596  0x5f4eC3Df9cbd43714FE2740f5E3616155c5b8419 */\n      0x5f4ec3df9cbd43714fe2740f5e3616155c5b8419\n        /* \"contracts/ArbOptimizer.sol\":3977:4016  ETH_USD_FEED_CONTRACT.latestRoundData() */\n      gas\n      staticcall\n      swap3\n      dup4\n      iszero\n      tag_180\n      jumpi\n        /* \"contracts/ArbOptimizer.sol\":3532:3597  AggregatorV3Interface(0x5f4eC3Df9cbd43714FE2740f5E3616155c5b8419) */\n      dup2\n        /* \"contracts/ArbOptimizer.sol\":3977:4016  ETH_USD_FEED_CONTRACT.latestRoundData() */\n      swap4\n      tag_182\n      jumpi\n        /* \"contracts/ArbOptimizer.sol\":1772:17949  contract ArbOptimizer is Ownable, ReentrancyGuard, Pausable {... */\n    tag_183:\n        /* \"contracts/ArbOptimizer.sol\":4035:4050  ethUsdPrice > 0 */\n      pop\n      dup1\n      dup4\n      sgt\n        /* \"contracts/ArbOptimizer.sol\":3532:3597  AggregatorV3Interface(0x5f4eC3Df9cbd43714FE2740f5E3616155c5b8419) */\n      iszero\n      tag_184\n      jumpi\n        /* \"contracts/ArbOptimizer.sol\":4187:4190  100 */\n      0x64\n        /* \"contracts/ArbOptimizer.sol\":3532:3597  AggregatorV3Interface(0x5f4eC3Df9cbd43714FE2740f5E3616155c5b8419) */\n      dup4\n      mul\n      swap3\n      dup1\n      dup5\n      sdiv\n        /* \"contracts/ArbOptimizer.sol\":4187:4190  100 */\n      0x64\n        /* \"contracts/ArbOptimizer.sol\":3532:3597  AggregatorV3Interface(0x5f4eC3Df9cbd43714FE2740f5E3616155c5b8419) */\n      eq\n      swap1\n      iszero\n      or\n      iszero\n      tag_186\n      jumpi\n        /* \"contracts/ArbOptimizer.sol\":1772:17949  contract ArbOptimizer is Ownable, ReentrancyGuard, Pausable {... */\n      0x20\n      dup4\n      dup4\n      mload\n      swap1\n      dup2\n      mstore\n      return\n        /* \"contracts/ArbOptimizer.sol\":3532:3597  AggregatorV3Interface(0x5f4eC3Df9cbd43714FE2740f5E3616155c5b8419) */\n    tag_186:\n      shl(0xe0, 0x4e487b71)\n      dup2\n      mstore\n      0x11\n      dup5\n      mstore\n      0x24\n      swap1\n      revert\n    tag_184:\n        /* \"contracts/ArbOptimizer.sol\":1772:17949  contract ArbOptimizer is Ownable, ReentrancyGuard, Pausable {... */\n      dup2\n      mload\n      shl(0xe5, 0x461bcd)\n        /* \"contracts/ArbOptimizer.sol\":3532:3597  AggregatorV3Interface(0x5f4eC3Df9cbd43714FE2740f5E3616155c5b8419) */\n      dup2\n      mstore\n      0x20\n      dup2\n      dup7\n      add\n      dup2\n      swap1\n      mstore\n      0x24\n      dup3\n      add\n        /* \"contracts/ArbOptimizer.sol\":1772:17949  contract ArbOptimizer is Ownable, ReentrancyGuard, Pausable {... */\n      mstore\n        /* \"contracts/ArbOptimizer.sol\":3532:3597  AggregatorV3Interface(0x5f4eC3Df9cbd43714FE2740f5E3616155c5b8419) */\n      0x436861696e6c696e6b3a20496e76616c6964204554482f555344207072696365\n        /* \"contracts/ArbOptimizer.sol\":1772:17949  contract ArbOptimizer is Ownable, ReentrancyGuard, Pausable {... */\n      0x44\n      dup3\n      add\n        /* \"contracts/ArbOptimizer.sol\":3532:3597  AggregatorV3Interface(0x5f4eC3Df9cbd43714FE2740f5E3616155c5b8419) */\n      mstore\n      0x64\n      swap1\n      revert\n        /* \"contracts/ArbOptimizer.sol\":3977:4016  ETH_USD_FEED_CONTRACT.latestRoundData() */\n    tag_182:\n      swap1\n      swap3\n      pop\n      0xa0\n      dup2\n      returndatasize\n      dup3\n      gt\n      tag_188\n      jumpi\n    tag_189:\n      dup2\n      tag_190\n      0xa0\n      swap4\n      dup4\n      tag_6\n      jump\t// in\n    tag_190:\n      dup2\n      add\n        /* \"contracts/ArbOptimizer.sol\":3532:3597  AggregatorV3Interface(0x5f4eC3Df9cbd43714FE2740f5E3616155c5b8419) */\n      sub\n      slt\n      tag_109\n      jumpi\n      tag_193\n      dup2\n      tag_7\n      jump\t// in\n    tag_193:\n      pop\n      tag_194\n      0x80\n      0x20\n      dup4\n      add\n      mload\n      swap3\n      add\n      tag_7\n      jump\t// in\n    tag_194:\n      pop\n        /* \"contracts/ArbOptimizer.sol\":3977:4016  ETH_USD_FEED_CONTRACT.latestRoundData() */\n      swap2\n      0x00\n      jump(tag_183)\n    tag_188:\n      returndatasize\n      swap2\n      pop\n      jump(tag_189)\n    tag_180:\n        /* \"contracts/ArbOptimizer.sol\":1772:17949  contract ArbOptimizer is Ownable, ReentrancyGuard, Pausable {... */\n      pop\n      swap1\n      mload\n        /* \"contracts/ArbOptimizer.sol\":3532:3597  AggregatorV3Interface(0x5f4eC3Df9cbd43714FE2740f5E3616155c5b8419) */\n      swap1\n      returndatasize\n      swap1\n      dup3\n      returndatacopy\n      returndatasize\n      swap1\n      revert\n        /* \"contracts/ArbOptimizer.sol\":1772:17949  contract ArbOptimizer is Ownable, ReentrancyGuard, Pausable {... */\n    tag_84:\n      pop\n      swap2\n      swap1\n      jumpi(tag_197, callvalue)\n      dup1\n      add(calldatasize, not(0x03))\n      slt\n      tag_197\n      jumpi\n      pop\n      dup1\n      mload\n        /* \"contracts/ArbOptimizer.sol\":3532:3597  AggregatorV3Interface(0x5f4eC3Df9cbd43714FE2740f5E3616155c5b8419) */\n      swap1\n        /* \"contracts/ArbOptimizer.sol\":1772:17949  contract ArbOptimizer is Ownable, ReentrancyGuard, Pausable {... */\n      0xa0\n        /* \"contracts/ArbOptimizer.sol\":3532:3597  AggregatorV3Interface(0x5f4eC3Df9cbd43714FE2740f5E3616155c5b8419) */\n      dup3\n      add\n      dup3\n      dup2\n      lt\n      0xffffffffffffffff\n      dup3\n      gt\n      or\n      tag_199\n      jumpi\n      dup2\n      mstore\n        /* \"contracts/ArbOptimizer.sol\":1772:17949  contract ArbOptimizer is Ownable, ReentrancyGuard, Pausable {... */\n      dup3\n      dup3\n      mstore\n      0x20\n      dup3\n      add\n      0x80\n      calldatasize\n      dup3\n      calldatacopy\n      dup3\n      mload\n      iszero\n      tag_201\n      jumpi\n        /* \"contracts/ArbOptimizer.sol\":2081:2123  0xC02aaA39b223FE8D0A0e5C4F27eAD9083C756Cc2 */\n      0xc02aaa39b223fe8d0a0e5c4f27ead9083c756cc2\n        /* \"contracts/ArbOptimizer.sol\":1772:17949  contract ArbOptimizer is Ownable, ReentrancyGuard, Pausable {... */\n      swap1\n      mstore\n      dup2\n      mload\n        /* \"contracts/ArbOptimizer.sol\":16770:16771  1 */\n      0x01\n        /* \"contracts/ArbOptimizer.sol\":1772:17949  contract ArbOptimizer is Ownable, ReentrancyGuard, Pausable {... */\n      lt\n      iszero\n      tag_207\n      jumpi\n        /* \"contracts/ArbOptimizer.sol\":2162:2204  0xA0b86991c6218b36c1d19D4a2e9Eb0cE3606eB48 */\n      0xa0b86991c6218b36c1d19d4a2e9eb0ce3606eb48\n        /* \"contracts/ArbOptimizer.sol\":1772:17949  contract ArbOptimizer is Ownable, ReentrancyGuard, Pausable {... */\n      dup2\n      dup4\n      add\n      mstore\n      dup2\n      mload\n        /* \"contracts/ArbOptimizer.sol\":16797:16798  2 */\n      0x02\n        /* \"contracts/ArbOptimizer.sol\":1772:17949  contract ArbOptimizer is Ownable, ReentrancyGuard, Pausable {... */\n      lt\n      iszero\n      tag_207\n      jumpi\n        /* \"contracts/ArbOptimizer.sol\":2243:2285  0xdAC17F958D2ee523a2206206994597C13D831ec7 */\n      0xdac17f958d2ee523a2206206994597c13d831ec7\n        /* \"contracts/ArbOptimizer.sol\":1772:17949  contract ArbOptimizer is Ownable, ReentrancyGuard, Pausable {... */\n      0x60\n      dup4\n      add\n      mstore\n      dup2\n      mload\n      0x03\n      lt\n      iszero\n      tag_207\n      jumpi\n      tag_209\n      swap3\n      pop\n        /* \"contracts/ArbOptimizer.sol\":2323:2365  0x6B175474E89094C44Da98b954EedeAC495271d0F */\n      0x6b175474e89094c44da98b954eedeac495271d0f\n        /* \"contracts/ArbOptimizer.sol\":1772:17949  contract ArbOptimizer is Ownable, ReentrancyGuard, Pausable {... */\n      0x80\n      dup4\n      add\n      mstore\n      mload\n      swap2\n      dup3\n      swap2\n      0x20\n      dup4\n      mstore\n      0x20\n      dup4\n      add\n      swap1\n      tag_3\n      jump\t// in\n    tag_209:\n      sub\n      swap1\n      return\n    tag_207:\n      0x32\n        /* \"contracts/ArbOptimizer.sol\":3532:3597  AggregatorV3Interface(0x5f4eC3Df9cbd43714FE2740f5E3616155c5b8419) */\n      dup4\n      shl(0xe0, 0x4e487b71)\n        /* \"contracts/ArbOptimizer.sol\":1772:17949  contract ArbOptimizer is Ownable, ReentrancyGuard, Pausable {... */\n      0x00\n      mstore\n      mstore\n      revert(0x00, 0x24)\n    tag_201:\n      0x32\n        /* \"contracts/ArbOptimizer.sol\":3532:3597  AggregatorV3Interface(0x5f4eC3Df9cbd43714FE2740f5E3616155c5b8419) */\n      dup5\n      shl(0xe0, 0x4e487b71)\n        /* \"contracts/ArbOptimizer.sol\":1772:17949  contract ArbOptimizer is Ownable, ReentrancyGuard, Pausable {... */\n      0x00\n      mstore\n      mstore\n      revert(0x00, 0x24)\n        /* \"contracts/ArbOptimizer.sol\":3532:3597  AggregatorV3Interface(0x5f4eC3Df9cbd43714FE2740f5E3616155c5b8419) */\n    tag_199:\n      0x41\n      dup5\n      shl(0xe0, 0x4e487b71)\n        /* \"contracts/ArbOptimizer.sol\":1772:17949  contract ArbOptimizer is Ownable, ReentrancyGuard, Pausable {... */\n      0x00\n        /* \"contracts/ArbOptimizer.sol\":3532:3597  AggregatorV3Interface(0x5f4eC3Df9cbd43714FE2740f5E3616155c5b8419) */\n      mstore\n      mstore\n      0x24\n        /* \"contracts/ArbOptimizer.sol\":1772:17949  contract ArbOptimizer is Ownable, ReentrancyGuard, Pausable {... */\n      0x00\n        /* \"contracts/ArbOptimizer.sol\":3532:3597  AggregatorV3Interface(0x5f4eC3Df9cbd43714FE2740f5E3616155c5b8419) */\n      revert\n        /* \"contracts/ArbOptimizer.sol\":1772:17949  contract ArbOptimizer is Ownable, ReentrancyGuard, Pausable {... */\n    tag_197:\n      dup1\n      revert\n    tag_82:\n      dup3\n      dup5\n      jumpi(tag_98, callvalue)\n      dup2\n      add(calldatasize, not(0x03))\n      slt\n      tag_98\n      jumpi\n      0x20\n      swap1\n        /* \"contracts/ArbOptimizer.sol\":4428:4468  uint256 public minProfitAmount = 0.01e18 */\n      0x06\n        /* \"contracts/ArbOptimizer.sol\":1772:17949  contract ArbOptimizer is Ownable, ReentrancyGuard, Pausable {... */\n      sload\n      swap1\n      mload\n      swap1\n      dup2\n      mstore\n      return\n    tag_80:\n      pop\n      jumpi(tag_98, callvalue)\n      jumpi(tag_98, slt(add(not(0x03), calldatasize), 0x20))\n      calldataload\n      dup1\n      iszero\n      iszero\n      dup1\n      swap2\n      sub\n      tag_98\n      jumpi\n        /* \"@openzeppelin/contracts/access/Ownable.sol\":1500:1562  modifier onlyOwner() {... */\n      tag_220\n      tag_4\n      jump\t// in\n    tag_220:\n        /* \"contracts/ArbOptimizer.sol\":1772:17949  contract ArbOptimizer is Ownable, ReentrancyGuard, Pausable {... */\n      0xff\n      dup1\n      not\n        /* \"contracts/ArbOptimizer.sol\":15539:15561  autoExecute = _enabled */\n      0x07\n        /* \"contracts/ArbOptimizer.sol\":1772:17949  contract ArbOptimizer is Ownable, ReentrancyGuard, Pausable {... */\n      sload\n      and\n      swap2\n      and\n      or\n        /* \"contracts/ArbOptimizer.sol\":15539:15561  autoExecute = _enabled */\n      0x07\n        /* \"contracts/ArbOptimizer.sol\":1772:17949  contract ArbOptimizer is Ownable, ReentrancyGuard, Pausable {... */\n      sstore\n      dup1\n      return\n    tag_78:\n      dup3\n      dup5\n      jumpi(tag_98, callvalue)\n      dup2\n      add(calldatasize, not(0x03))\n      slt\n      tag_98\n      jumpi\n      0x20\n      swap1\n      mload\n        /* \"contracts/ArbOptimizer.sol\":2081:2123  0xC02aaA39b223FE8D0A0e5C4F27eAD9083C756Cc2 */\n      0xc02aaa39b223fe8d0a0e5c4f27ead9083c756cc2\n        /* \"contracts/ArbOptimizer.sol\":1772:17949  contract ArbOptimizer is Ownable, ReentrancyGuard, Pausable {... */\n      dup2\n      mstore\n      return\n    tag_76:\n      dup3\n      dup5\n      jumpi(tag_98, callvalue)\n      dup2\n      add(calldatasize, not(0x03))\n      slt\n      tag_98\n      jumpi\n      0x20\n      swap1\n      mload\n        /* \"contracts/ArbOptimizer.sol\":1983:2025  0xEfac88d8e212ca21d4FE670F715c4fE12CFbEF05 */\n      0xefac88d8e212ca21d4fe670f715c4fe12cfbef05\n        /* \"contracts/ArbOptimizer.sol\":1772:17949  contract ArbOptimizer is Ownable, ReentrancyGuard, Pausable {... */\n      dup2\n      mstore\n      return\n    tag_74:\n      dup3\n      dup5\n      jumpi(tag_98, callvalue)\n      dup2\n      add(calldatasize, not(0x03))\n      slt\n      tag_98\n      jumpi\n      0x20\n      swap1\n      0xff\n        /* \"contracts/ArbOptimizer.sol\":4477:4508  bool public autoExecute = false */\n      0x07\n        /* \"contracts/ArbOptimizer.sol\":1772:17949  contract ArbOptimizer is Ownable, ReentrancyGuard, Pausable {... */\n      sload\n      and\n      swap1\n      mload\n      swap1\n      iszero\n      iszero\n      dup2\n      mstore\n      return\n    tag_72:\n      pop\n      dup3\n      swap1\n      jumpi(tag_109, callvalue)\n      jumpi(tag_109, slt(add(not(0x03), calldatasize), 0x20))\n      dup1\n      calldataload\n        /* \"@openzeppelin/contracts/access/Ownable.sol\":1500:1562  modifier onlyOwner() {... */\n      swap2\n      tag_237\n      tag_4\n      jump\t// in\n    tag_237:\n        /* \"contracts/ArbOptimizer.sol\":15764:15770  1 days */\n      0x015180\n        /* \"contracts/ArbOptimizer.sol\":15751:15770  _cooldown <= 1 days */\n      dup4\n      gt\n        /* \"contracts/ArbOptimizer.sol\":1772:17949  contract ArbOptimizer is Ownable, ReentrancyGuard, Pausable {... */\n      tag_238\n      jumpi\n        /* \"contracts/ArbOptimizer.sol\":2081:2123  0xC02aaA39b223FE8D0A0e5C4F27eAD9083C756Cc2 */\n      pop\n      pop\n        /* \"contracts/ArbOptimizer.sol\":15803:15832  executionCooldown = _cooldown */\n      0x09\n        /* \"contracts/ArbOptimizer.sol\":2081:2123  0xC02aaA39b223FE8D0A0e5C4F27eAD9083C756Cc2 */\n      sstore\n        /* \"contracts/ArbOptimizer.sol\":1772:17949  contract ArbOptimizer is Ownable, ReentrancyGuard, Pausable {... */\n      dup1\n      return\n    tag_238:\n      swap1\n      0x20\n      0x64\n      swap3\n      mload\n      swap2\n      shl(0xe5, 0x461bcd)\n      dup4\n      mstore\n      dup3\n      add\n      mstore\n      0x11\n      0x24\n      dup3\n      add\n      mstore\n      shl(0x78, 0x436f6f6c646f776e20746f6f206c6f6e67)\n      0x44\n      dup3\n      add\n      mstore\n      revert\n    tag_70:\n      pop\n      dup3\n      swap1\n      jumpi(tag_109, callvalue)\n      dup3\n      add(calldatasize, not(0x03))\n      slt\n      tag_109\n      jumpi\n      0x20\n      swap3\n      pop\n      sload\n      swap1\n      mload\n      swap1\n      dup2\n      mstore\n      return\n    tag_68:\n      pop\n      swap2\n      swap1\n      jumpi(tag_197, callvalue)\n      tag_246\n      calldatasize\n      tag_1\n      jump\t// in\n    tag_246:\n        /* \"contracts/ArbOptimizer.sol\":6112:6186  require(flashLoanAmount >= minFlashLoanAmount, \"Below minimum flash loan\") */\n      tag_247\n        /* \"contracts/ArbOptimizer.sol\":6139:6157  minFlashLoanAmount */\n      0x03\n        /* \"contracts/ArbOptimizer.sol\":1772:17949  contract ArbOptimizer is Ownable, ReentrancyGuard, Pausable {... */\n      sload\n        /* \"contracts/ArbOptimizer.sol\":6120:6157  flashLoanAmount >= minFlashLoanAmount */\n      dup3\n      lt\n      iszero\n        /* \"contracts/ArbOptimizer.sol\":6112:6186  require(flashLoanAmount >= minFlashLoanAmount, \"Below minimum flash loan\") */\n      tag_8\n      jump\t// in\n    tag_247:\n        /* \"contracts/ArbOptimizer.sol\":6197:6273  require(flashLoanAmount <= maxFlashLoanAmount, \"Exceeds maximum flash loan\") */\n      tag_248\n        /* \"contracts/ArbOptimizer.sol\":1772:17949  contract ArbOptimizer is Ownable, ReentrancyGuard, Pausable {... */\n      dup6\n      sload\n        /* \"contracts/ArbOptimizer.sol\":6205:6242  flashLoanAmount <= maxFlashLoanAmount */\n      dup3\n      gt\n      iszero\n        /* \"contracts/ArbOptimizer.sol\":6197:6273  require(flashLoanAmount <= maxFlashLoanAmount, \"Exceeds maximum flash loan\") */\n      tag_9\n      jump\t// in\n    tag_248:\n        /* \"contracts/ArbOptimizer.sol\":6325:6332  arbExec */\n      0x02\n        /* \"contracts/ArbOptimizer.sol\":1772:17949  contract ArbOptimizer is Ownable, ReentrancyGuard, Pausable {... */\n      dup1\n      sload\n      dup6\n      mload\n      shl(0xe1, 0x7d331ac5)\n        /* \"contracts/ArbOptimizer.sol\":6325:6353  arbExec.getRoute(routeIndex) */\n      dup2\n      mstore\n      dup1\n      dup9\n      add\n        /* \"contracts/ArbOptimizer.sol\":1772:17949  contract ArbOptimizer is Ownable, ReentrancyGuard, Pausable {... */\n      dup6\n      swap1\n      mstore\n      0x24\n      swap8\n        /* \"contracts/ArbOptimizer.sol\":6325:6332  arbExec */\n      swap3\n      sub(shl(0xa0, 0x01), 0x01)\n        /* \"contracts/ArbOptimizer.sol\":1772:17949  contract ArbOptimizer is Ownable, ReentrancyGuard, Pausable {... */\n      swap3\n        /* \"contracts/ArbOptimizer.sol\":6325:6332  arbExec */\n      swap1\n      swap2\n        /* \"contracts/ArbOptimizer.sol\":1772:17949  contract ArbOptimizer is Ownable, ReentrancyGuard, Pausable {... */\n      0x08\n      swap2\n      swap1\n      swap2\n      shr\n      dup4\n      and\n      swap1\n        /* \"contracts/ArbOptimizer.sol\":6325:6353  arbExec.getRoute(routeIndex) */\n      dup8\n        /* \"contracts/ArbOptimizer.sol\":1772:17949  contract ArbOptimizer is Ownable, ReentrancyGuard, Pausable {... */\n      dup2\n      dup12\n      dup2\n      dup6\n        /* \"contracts/ArbOptimizer.sol\":6325:6353  arbExec.getRoute(routeIndex) */\n      gas\n      staticcall\n      swap4\n      dup5\n      iszero\n      tag_249\n      jumpi\n      dup9\n      swap5\n      tag_251\n      jumpi\n        /* \"contracts/ArbOptimizer.sol\":1772:17949  contract ArbOptimizer is Ownable, ReentrancyGuard, Pausable {... */\n    tag_252:\n        /* \"contracts/ArbOptimizer.sol\":6372:6382  route.path */\n      pop\n      pop\n        /* \"contracts/ArbOptimizer.sol\":1772:17949  contract ArbOptimizer is Ownable, ReentrancyGuard, Pausable {... */\n      0x20\n        /* \"contracts/ArbOptimizer.sol\":6372:6382  route.path */\n      dup4\n      add\n      dup3\n      dup2\n      mload\n        /* \"contracts/ArbOptimizer.sol\":1772:17949  contract ArbOptimizer is Ownable, ReentrancyGuard, Pausable {... */\n      mload\n        /* \"contracts/ArbOptimizer.sol\":6372:6394  route.path.length >= 2 */\n      lt\n        /* \"contracts/ArbOptimizer.sol\":1772:17949  contract ArbOptimizer is Ownable, ReentrancyGuard, Pausable {... */\n      tag_253\n      jumpi\n        /* \"contracts/ArbOptimizer.sol\":6513:6523  route.path */\n      mload\n        /* \"contracts/ArbOptimizer.sol\":6568:6578  route.dexA */\n      swap2\n      0x60\n      dup5\n      add\n        /* \"contracts/ArbOptimizer.sol\":1772:17949  contract ArbOptimizer is Ownable, ReentrancyGuard, Pausable {... */\n      mload\n      swap4\n      dup2\n      dup6\n      lt\n      iszero\n      tag_255\n      jumpi\n        /* \"contracts/ArbOptimizer.sol\":6593:6603  route.dexB */\n      0x80\n      add\n        /* \"contracts/ArbOptimizer.sol\":1772:17949  contract ArbOptimizer is Ownable, ReentrancyGuard, Pausable {... */\n      mload\n      swap1\n      dup2\n      lt\n      iszero\n      tag_257\n      jumpi\n      swap2\n      dup9\n      swap10\n      swap4\n      swap2\n      tag_259\n      tag_260\n      swap5\n      tag_261\n      swap12\n      mload\n        /* \"contracts/ArbOptimizer.sol\":3532:3597  AggregatorV3Interface(0x5f4eC3Df9cbd43714FE2740f5E3616155c5b8419) */\n      swap12\n      dup13\n      swap7\n      dup8\n      swap6\n      shl(0xe0, 0xb3eeb621)\n        /* \"contracts/ArbOptimizer.sol\":6468:6614  arbExec.calculateProfitability(... */\n      dup8\n      mstore\n        /* \"contracts/ArbOptimizer.sol\":6593:6603  route.dexB */\n      0x80\n        /* \"contracts/ArbOptimizer.sol\":6468:6614  arbExec.calculateProfitability(... */\n      dup12\n      dup9\n      add\n        /* \"contracts/ArbOptimizer.sol\":1772:17949  contract ArbOptimizer is Ownable, ReentrancyGuard, Pausable {... */\n      mstore\n      0x84\n      dup8\n      add\n      swap1\n      tag_3\n      jump\t// in\n    tag_260:\n      swap6\n      dup11\n      dup10\n      dup8\n      add\n      mstore\n      0x44\n      dup7\n      add\n      swap1\n      tag_12\n      jump\t// in\n    tag_261:\n      0x64\n      dup5\n      add\n      swap1\n      tag_12\n      jump\t// in\n    tag_259:\n        /* \"contracts/ArbOptimizer.sol\":6468:6614  arbExec.calculateProfitability(... */\n      dup2\n      dup10\n      0x0140\n      swap6\n      dup7\n      swap6\n      sub\n      swap3\n      gas\n      call\n      swap7\n      dup8\n      iszero\n      tag_262\n      jumpi\n      dup7\n      swap8\n      tag_264\n      jumpi\n        /* \"contracts/ArbOptimizer.sol\":1772:17949  contract ArbOptimizer is Ownable, ReentrancyGuard, Pausable {... */\n    tag_265:\n        /* \"contracts/ArbOptimizer.sol\":6645:6668  quote.expectedNetProfit */\n      pop\n      pop\n        /* \"contracts/ArbOptimizer.sol\":6694:6712  quote.isProfitable */\n      0x0120\n        /* \"contracts/ArbOptimizer.sol\":6645:6668  quote.expectedNetProfit */\n      0x0100\n      dup8\n      add\n        /* \"contracts/ArbOptimizer.sol\":1772:17949  contract ArbOptimizer is Ownable, ReentrancyGuard, Pausable {... */\n      mload\n        /* \"contracts/ArbOptimizer.sol\":6694:6712  quote.isProfitable */\n      swap7\n      add\n        /* \"contracts/ArbOptimizer.sol\":1772:17949  contract ArbOptimizer is Ownable, ReentrancyGuard, Pausable {... */\n      mload\n      iszero\n      iszero\n        /* \"contracts/ArbOptimizer.sol\":6694:6774  quote.isProfitable &&... */\n      swap5\n      dup6\n      tag_266\n      jumpi\n        /* \"contracts/ArbOptimizer.sol\":1772:17949  contract ArbOptimizer is Ownable, ReentrancyGuard, Pausable {... */\n    tag_267:\n        /* \"contracts/ArbOptimizer.sol\":6694:6861  quote.isProfitable &&... */\n      dup6\n      tag_268\n      jumpi\n        /* \"contracts/ArbOptimizer.sol\":1772:17949  contract ArbOptimizer is Ownable, ReentrancyGuard, Pausable {... */\n    tag_269:\n      pop\n      pop\n      dup6\n      mload\n      dup6\n      dup2\n      mstore\n      0x20\n      dup2\n      add\n      swap3\n      swap1\n      swap3\n      mstore\n      pop\n      dup3\n      iszero\n      iszero\n      0x40\n      dup3\n      add\n      mstore\n        /* \"contracts/ArbOptimizer.sol\":6879:6952  RouteAnalyzed(routeIndex, estimatedProfit, flashLoanAmount, isProfitable) */\n      0xc30ee1c478b9b474754862f7feeeadc800dce627c1b0621a98906b3d4d97df2c\n      swap1\n        /* \"contracts/ArbOptimizer.sol\":1772:17949  contract ArbOptimizer is Ownable, ReentrancyGuard, Pausable {... */\n      0x60\n      swap1\n        /* \"contracts/ArbOptimizer.sol\":6879:6952  RouteAnalyzed(routeIndex, estimatedProfit, flashLoanAmount, isProfitable) */\n      log2\n        /* \"contracts/ArbOptimizer.sol\":1772:17949  contract ArbOptimizer is Ownable, ReentrancyGuard, Pausable {... */\n      dup3\n      mload\n      swap2\n      dup3\n      mstore\n      iszero\n      iszero\n      0x20\n      dup3\n      add\n      mstore\n      return\n        /* \"contracts/ArbOptimizer.sol\":6694:6861  quote.isProfitable &&... */\n    tag_268:\n        /* \"contracts/ArbOptimizer.sol\":6821:6826  10000 */\n      swap1\n      swap2\n      swap3\n      swap5\n      pop\n      0x2710\n        /* \"contracts/ArbOptimizer.sol\":1772:17949  contract ArbOptimizer is Ownable, ReentrancyGuard, Pausable {... */\n      swap3\n      dup4\n      dup8\n      mul\n      swap4\n      dup8\n      dup6\n      div\n      eq\n      dup8\n      iszero\n      or\n      iszero\n      tag_271\n      jumpi\n      dup6\n      iszero\n      tag_273\n      jumpi\n      pop\n      pop\n      pop\n        /* \"contracts/ArbOptimizer.sol\":6879:6952  RouteAnalyzed(routeIndex, estimatedProfit, flashLoanAmount, isProfitable) */\n      0xc30ee1c478b9b474754862f7feeeadc800dce627c1b0621a98906b3d4d97df2c\n        /* \"contracts/ArbOptimizer.sol\":1772:17949  contract ArbOptimizer is Ownable, ReentrancyGuard, Pausable {... */\n      swap1\n      dup4\n        /* \"contracts/ArbOptimizer.sol\":6849:6861  minProfitBps */\n      0x05\n        /* \"contracts/ArbOptimizer.sol\":1772:17949  contract ArbOptimizer is Ownable, ReentrancyGuard, Pausable {... */\n      sload\n      swap2\n      div\n        /* \"contracts/ArbOptimizer.sol\":6802:6861  (estimatedProfit * 10000) / flashLoanAmount >= minProfitBps */\n      lt\n      iszero\n        /* \"contracts/ArbOptimizer.sol\":6694:6861  quote.isProfitable &&... */\n      swap3\n      swap1\n      0x00\n      dup1\n      jump(tag_269)\n        /* \"contracts/ArbOptimizer.sol\":1772:17949  contract ArbOptimizer is Ownable, ReentrancyGuard, Pausable {... */\n    tag_273:\n      shl(0xe0, 0x4e487b71)\n      dup3\n      mstore\n      0x12\n      swap1\n      mstore\n      revert\n    tag_271:\n      shl(0xe0, 0x4e487b71)\n        /* \"contracts/ArbOptimizer.sol\":3532:3597  AggregatorV3Interface(0x5f4eC3Df9cbd43714FE2740f5E3616155c5b8419) */\n      dup3\n      mstore\n      0x11\n      swap1\n      mstore\n      revert\n        /* \"contracts/ArbOptimizer.sol\":6694:6774  quote.isProfitable &&... */\n    tag_266:\n        /* \"contracts/ArbOptimizer.sol\":6759:6774  minProfitAmount */\n      0x06\n        /* \"contracts/ArbOptimizer.sol\":1772:17949  contract ArbOptimizer is Ownable, ReentrancyGuard, Pausable {... */\n      sload\n        /* \"contracts/ArbOptimizer.sol\":6740:6774  estimatedProfit >= minProfitAmount */\n      dup8\n      lt\n      iszero\n      swap6\n      pop\n        /* \"contracts/ArbOptimizer.sol\":6694:6774  quote.isProfitable &&... */\n      jump(tag_267)\n        /* \"contracts/ArbOptimizer.sol\":6468:6614  arbExec.calculateProfitability(... */\n    tag_264:\n      swap1\n      dup1\n      swap3\n      swap8\n      pop\n      dup2\n      dup2\n      returndatasize\n      dup4\n      gt\n      tag_275\n      jumpi\n    tag_276:\n      tag_277\n      dup2\n      dup4\n      tag_6\n      jump\t// in\n    tag_277:\n      dup2\n      add\n        /* \"contracts/ArbOptimizer.sol\":1772:17949  contract ArbOptimizer is Ownable, ReentrancyGuard, Pausable {... */\n      sub\n      slt\n      tag_165\n      jumpi\n      dup8\n      mload\n        /* \"contracts/ArbOptimizer.sol\":3532:3597  AggregatorV3Interface(0x5f4eC3Df9cbd43714FE2740f5E3616155c5b8419) */\n      swap2\n      dup3\n      add\n      dup3\n      dup2\n      lt\n      0xffffffffffffffff\n      dup3\n      gt\n      or\n      tag_280\n      jumpi\n      dup9\n      mstore\n      dup1\n      mload\n        /* \"contracts/ArbOptimizer.sol\":1772:17949  contract ArbOptimizer is Ownable, ReentrancyGuard, Pausable {... */\n      dup3\n      mstore\n      0x20\n      dup2\n      add\n        /* \"contracts/ArbOptimizer.sol\":3532:3597  AggregatorV3Interface(0x5f4eC3Df9cbd43714FE2740f5E3616155c5b8419) */\n      mload\n        /* \"contracts/ArbOptimizer.sol\":1772:17949  contract ArbOptimizer is Ownable, ReentrancyGuard, Pausable {... */\n      0x20\n      dup4\n      add\n      mstore\n      dup8\n      dup2\n      add\n        /* \"contracts/ArbOptimizer.sol\":3532:3597  AggregatorV3Interface(0x5f4eC3Df9cbd43714FE2740f5E3616155c5b8419) */\n      mload\n        /* \"contracts/ArbOptimizer.sol\":1772:17949  contract ArbOptimizer is Ownable, ReentrancyGuard, Pausable {... */\n      dup9\n      dup4\n      add\n      mstore\n        /* \"contracts/ArbOptimizer.sol\":6568:6578  route.dexA */\n      0x60\n        /* \"contracts/ArbOptimizer.sol\":1772:17949  contract ArbOptimizer is Ownable, ReentrancyGuard, Pausable {... */\n      dup2\n      add\n        /* \"contracts/ArbOptimizer.sol\":3532:3597  AggregatorV3Interface(0x5f4eC3Df9cbd43714FE2740f5E3616155c5b8419) */\n      mload\n        /* \"contracts/ArbOptimizer.sol\":6568:6578  route.dexA */\n      0x60\n        /* \"contracts/ArbOptimizer.sol\":1772:17949  contract ArbOptimizer is Ownable, ReentrancyGuard, Pausable {... */\n      dup4\n      add\n      mstore\n        /* \"contracts/ArbOptimizer.sol\":6593:6603  route.dexB */\n      0x80\n        /* \"contracts/ArbOptimizer.sol\":1772:17949  contract ArbOptimizer is Ownable, ReentrancyGuard, Pausable {... */\n      dup2\n      add\n        /* \"contracts/ArbOptimizer.sol\":3532:3597  AggregatorV3Interface(0x5f4eC3Df9cbd43714FE2740f5E3616155c5b8419) */\n      mload\n        /* \"contracts/ArbOptimizer.sol\":6593:6603  route.dexB */\n      0x80\n        /* \"contracts/ArbOptimizer.sol\":1772:17949  contract ArbOptimizer is Ownable, ReentrancyGuard, Pausable {... */\n      dup4\n      add\n      mstore\n      0xa0\n      dup2\n      add\n        /* \"contracts/ArbOptimizer.sol\":3532:3597  AggregatorV3Interface(0x5f4eC3Df9cbd43714FE2740f5E3616155c5b8419) */\n      mload\n        /* \"contracts/ArbOptimizer.sol\":1772:17949  contract ArbOptimizer is Ownable, ReentrancyGuard, Pausable {... */\n      0xa0\n      dup4\n      add\n      mstore\n      0xc0\n      dup2\n      add\n        /* \"contracts/ArbOptimizer.sol\":3532:3597  AggregatorV3Interface(0x5f4eC3Df9cbd43714FE2740f5E3616155c5b8419) */\n      mload\n        /* \"contracts/ArbOptimizer.sol\":1772:17949  contract ArbOptimizer is Ownable, ReentrancyGuard, Pausable {... */\n      0xc0\n      dup4\n      add\n      mstore\n      0xe0\n      dup2\n      add\n        /* \"contracts/ArbOptimizer.sol\":3532:3597  AggregatorV3Interface(0x5f4eC3Df9cbd43714FE2740f5E3616155c5b8419) */\n      mload\n        /* \"contracts/ArbOptimizer.sol\":1772:17949  contract ArbOptimizer is Ownable, ReentrancyGuard, Pausable {... */\n      0xe0\n      dup4\n      add\n      mstore\n      0x0100\n      dup1\n      dup3\n      add\n        /* \"contracts/ArbOptimizer.sol\":3532:3597  AggregatorV3Interface(0x5f4eC3Df9cbd43714FE2740f5E3616155c5b8419) */\n      mload\n        /* \"contracts/ArbOptimizer.sol\":1772:17949  contract ArbOptimizer is Ownable, ReentrancyGuard, Pausable {... */\n      swap1\n      dup4\n      add\n      mstore\n      tag_282\n      0x0120\n      dup1\n      swap3\n      add\n      tag_11\n      jump\t// in\n    tag_282:\n      swap1\n      dup3\n      add\n      mstore\n        /* \"contracts/ArbOptimizer.sol\":6468:6614  arbExec.calculateProfitability(... */\n      swap5\n      0x00\n      dup1\n      jump(tag_265)\n        /* \"contracts/ArbOptimizer.sol\":3532:3597  AggregatorV3Interface(0x5f4eC3Df9cbd43714FE2740f5E3616155c5b8419) */\n    tag_280:\n      dup8\n      0x41\n      dup6\n      shl(0xe0, 0x4e487b71)\n        /* \"contracts/ArbOptimizer.sol\":1772:17949  contract ArbOptimizer is Ownable, ReentrancyGuard, Pausable {... */\n      0x00\n        /* \"contracts/ArbOptimizer.sol\":3532:3597  AggregatorV3Interface(0x5f4eC3Df9cbd43714FE2740f5E3616155c5b8419) */\n      mstore\n      mstore\n        /* \"contracts/ArbOptimizer.sol\":1772:17949  contract ArbOptimizer is Ownable, ReentrancyGuard, Pausable {... */\n      0x00\n        /* \"contracts/ArbOptimizer.sol\":3532:3597  AggregatorV3Interface(0x5f4eC3Df9cbd43714FE2740f5E3616155c5b8419) */\n      revert\n        /* \"contracts/ArbOptimizer.sol\":6468:6614  arbExec.calculateProfitability(... */\n    tag_275:\n      pop\n      returndatasize\n      jump(tag_276)\n    tag_262:\n        /* \"contracts/ArbOptimizer.sol\":1772:17949  contract ArbOptimizer is Ownable, ReentrancyGuard, Pausable {... */\n      dup9\n      mload\n        /* \"contracts/ArbOptimizer.sol\":3532:3597  AggregatorV3Interface(0x5f4eC3Df9cbd43714FE2740f5E3616155c5b8419) */\n      returndatasize\n        /* \"contracts/ArbOptimizer.sol\":1772:17949  contract ArbOptimizer is Ownable, ReentrancyGuard, Pausable {... */\n      dup9\n      dup3\n        /* \"contracts/ArbOptimizer.sol\":3532:3597  AggregatorV3Interface(0x5f4eC3Df9cbd43714FE2740f5E3616155c5b8419) */\n      returndatacopy\n      returndatasize\n      swap1\n      revert\n        /* \"contracts/ArbOptimizer.sol\":1772:17949  contract ArbOptimizer is Ownable, ReentrancyGuard, Pausable {... */\n    tag_257:\n      shl(0xe0, 0x4e487b71)\n      dup9\n      mstore\n      0x21\n      dup6\n      mstore\n        /* \"contracts/ArbOptimizer.sol\":3532:3597  AggregatorV3Interface(0x5f4eC3Df9cbd43714FE2740f5E3616155c5b8419) */\n      dup10\n      dup9\n        /* \"contracts/ArbOptimizer.sol\":1772:17949  contract ArbOptimizer is Ownable, ReentrancyGuard, Pausable {... */\n      revert\n    tag_255:\n      shl(0xe0, 0x4e487b71)\n      dup10\n      mstore\n      0x21\n      dup7\n      mstore\n        /* \"contracts/ArbOptimizer.sol\":3532:3597  AggregatorV3Interface(0x5f4eC3Df9cbd43714FE2740f5E3616155c5b8419) */\n      dup11\n      dup10\n        /* \"contracts/ArbOptimizer.sol\":1772:17949  contract ArbOptimizer is Ownable, ReentrancyGuard, Pausable {... */\n      revert\n    tag_253:\n      dup9\n      mload\n      shl(0xe5, 0x461bcd)\n      dup2\n      mstore\n      0x20\n      dup2\n      dup8\n      add\n      mstore\n      0x0d\n      dup2\n      dup13\n      add\n      mstore\n      shl(0x98, 0x496e76616c696420726f757465)\n      0x44\n      dup3\n      add\n      mstore\n      0x64\n      swap1\n      revert\n        /* \"contracts/ArbOptimizer.sol\":6325:6353  arbExec.getRoute(routeIndex) */\n    tag_251:\n      swap1\n      swap2\n      swap4\n      pop\n      returndatasize\n      dup1\n      dup10\n      dup5\n      returndatacopy\n      tag_283\n      dup2\n      dup5\n      tag_6\n      jump\t// in\n    tag_283:\n      dup3\n      add\n        /* \"contracts/ArbOptimizer.sol\":1772:17949  contract ArbOptimizer is Ownable, ReentrancyGuard, Pausable {... */\n      0x20\n      swap1\n      dup2\n      dup5\n      dup3\n      sub\n      slt\n      tag_284\n      jumpi\n      dup4\n      mload\n      0xffffffffffffffff\n      swap5\n      dup6\n      dup3\n      gt\n      tag_294\n      jumpi\n      add\n      swap3\n      0xa0\n      dup5\n      dup4\n      sub\n      slt\n      tag_288\n      jumpi\n      dup12\n      mload\n        /* \"contracts/ArbOptimizer.sol\":3532:3597  AggregatorV3Interface(0x5f4eC3Df9cbd43714FE2740f5E3616155c5b8419) */\n      swap5\n        /* \"contracts/ArbOptimizer.sol\":1772:17949  contract ArbOptimizer is Ownable, ReentrancyGuard, Pausable {... */\n      0xa0\n        /* \"contracts/ArbOptimizer.sol\":3532:3597  AggregatorV3Interface(0x5f4eC3Df9cbd43714FE2740f5E3616155c5b8419) */\n      dup7\n      add\n      dup7\n      dup2\n      lt\n      dup3\n      dup3\n      gt\n      or\n      tag_290\n      jumpi\n      dup14\n      mstore\n      dup5\n      mload\n        /* \"contracts/ArbOptimizer.sol\":1772:17949  contract ArbOptimizer is Ownable, ReentrancyGuard, Pausable {... */\n      dup7\n      mstore\n      dup4\n      dup6\n      add\n      mload\n      swap1\n      dup2\n      gt\n      tag_294\n      jumpi\n      dup5\n      add\n      swap1\n      dup3\n      0x1f\n      dup4\n      add\n      slt\n      iszero\n      tag_294\n      jumpi\n      swap1\n      dup13\n      swap4\n      swap3\n      swap2\n      dup2\n      mload\n      swap2\n      tag_296\n      tag_297\n      dup5\n      tag_10\n      jump\t// in\n    tag_297:\n      swap7\n      mload\n      swap7\n      dup8\n      tag_6\n      jump\t// in\n    tag_296:\n      dup3\n      dup7\n      mstore\n      dup5\n      dup1\n      dup8\n      add\n      swap4\n      0x05\n      shl\n      dup3\n      add\n      add\n      swap4\n      dup5\n      gt\n      tag_298\n      jumpi\n      dup5\n      add\n      swap2\n    tag_300:\n      dup4\n      dup4\n      lt\n      tag_301\n      jumpi\n      pop\n      pop\n      pop\n      pop\n      dup4\n      add\n      mstore\n      dup9\n      dup2\n      add\n        /* \"contracts/ArbOptimizer.sol\":3532:3597  AggregatorV3Interface(0x5f4eC3Df9cbd43714FE2740f5E3616155c5b8419) */\n      mload\n        /* \"contracts/ArbOptimizer.sol\":1772:17949  contract ArbOptimizer is Ownable, ReentrancyGuard, Pausable {... */\n      dup10\n      dup4\n      add\n      mstore\n      0x60\n      dup2\n      add\n      mload\n      dup4\n      dup2\n      lt\n      iszero\n      tag_303\n      jumpi\n      0x60\n      dup4\n      add\n      mstore\n      0x80\n      add\n      mload\n      dup3\n      dup2\n      lt\n      iszero\n      tag_305\n      jumpi\n      0x80\n      dup3\n      add\n      mstore\n        /* \"contracts/ArbOptimizer.sol\":6325:6353  arbExec.getRoute(routeIndex) */\n      swap2\n      0x00\n      dup1\n      jump(tag_252)\n        /* \"contracts/ArbOptimizer.sol\":1772:17949  contract ArbOptimizer is Ownable, ReentrancyGuard, Pausable {... */\n    tag_305:\n      dup8\n      dup1\n      revert\n    tag_303:\n      dup9\n      dup1\n      revert\n    tag_301:\n      dup3\n      mload\n      dup3\n      dup2\n      and\n      dup2\n      sub\n      tag_307\n      jumpi\n      dup2\n      mstore\n      swap2\n      dup5\n      add\n      swap2\n      dup5\n      add\n      jump(tag_300)\n    tag_307:\n      dup15\n      dup1\n      revert\n    tag_298:\n      dup14\n      dup1\n      revert\n    tag_294:\n      dup12\n      dup1\n      revert\n        /* \"contracts/ArbOptimizer.sol\":3532:3597  AggregatorV3Interface(0x5f4eC3Df9cbd43714FE2740f5E3616155c5b8419) */\n    tag_290:\n      dup15\n      0x41\n      dup12\n      shl(0xe0, 0x4e487b71)\n        /* \"contracts/ArbOptimizer.sol\":1772:17949  contract ArbOptimizer is Ownable, ReentrancyGuard, Pausable {... */\n      0x00\n        /* \"contracts/ArbOptimizer.sol\":3532:3597  AggregatorV3Interface(0x5f4eC3Df9cbd43714FE2740f5E3616155c5b8419) */\n      mstore\n      mstore\n        /* \"contracts/ArbOptimizer.sol\":1772:17949  contract ArbOptimizer is Ownable, ReentrancyGuard, Pausable {... */\n      0x00\n        /* \"contracts/ArbOptimizer.sol\":3532:3597  AggregatorV3Interface(0x5f4eC3Df9cbd43714FE2740f5E3616155c5b8419) */\n      revert\n        /* \"contracts/ArbOptimizer.sol\":1772:17949  contract ArbOptimizer is Ownable, ReentrancyGuard, Pausable {... */\n    tag_288:\n      dup11\n      dup1\n      revert\n    tag_284:\n      dup10\n      dup1\n      revert\n        /* \"contracts/ArbOptimizer.sol\":6325:6353  arbExec.getRoute(routeIndex) */\n    tag_249:\n        /* \"contracts/ArbOptimizer.sol\":1772:17949  contract ArbOptimizer is Ownable, ReentrancyGuard, Pausable {... */\n      dup10\n      mload\n        /* \"contracts/ArbOptimizer.sol\":3532:3597  AggregatorV3Interface(0x5f4eC3Df9cbd43714FE2740f5E3616155c5b8419) */\n      returndatasize\n        /* \"contracts/ArbOptimizer.sol\":1772:17949  contract ArbOptimizer is Ownable, ReentrancyGuard, Pausable {... */\n      dup11\n      dup3\n        /* \"contracts/ArbOptimizer.sol\":3532:3597  AggregatorV3Interface(0x5f4eC3Df9cbd43714FE2740f5E3616155c5b8419) */\n      returndatacopy\n      returndatasize\n      swap1\n      revert\n        /* \"contracts/ArbOptimizer.sol\":1772:17949  contract ArbOptimizer is Ownable, ReentrancyGuard, Pausable {... */\n    tag_66:\n      pop\n      dup3\n      swap1\n      jumpi(tag_109, callvalue)\n      0x20\n      dup1\n      add(calldatasize, not(0x03))\n      slt\n      tag_174\n      jumpi\n        /* \"contracts/ArbOptimizer.sol\":10157:10164  arbExec */\n      0x02\n        /* \"contracts/ArbOptimizer.sol\":1772:17949  contract ArbOptimizer is Ownable, ReentrancyGuard, Pausable {... */\n      sload\n      dup4\n      mload\n      shl(0xe0, 0x32252057)\n        /* \"contracts/ArbOptimizer.sol\":10157:10180  arbExec.getRouteCount() */\n      dup2\n      mstore\n        /* \"contracts/ArbOptimizer.sol\":1772:17949  contract ArbOptimizer is Ownable, ReentrancyGuard, Pausable {... */\n      swap4\n      swap5\n      swap1\n      dup4\n      calldataload\n      swap1\n      dup4\n      swap1\n      dup7\n      swap1\n      dup7\n      swap1\n      dup3\n      swap1\n      0x08\n      shr\n      sub(shl(0xa0, 0x01), 0x01)\n      and\n        /* \"contracts/ArbOptimizer.sol\":10157:10180  arbExec.getRouteCount() */\n      gas\n      staticcall\n      swap5\n      dup6\n      iszero\n      tag_313\n      jumpi\n      dup3\n      swap6\n      tag_315\n      jumpi\n        /* \"contracts/ArbOptimizer.sol\":1772:17949  contract ArbOptimizer is Ownable, ReentrancyGuard, Pausable {... */\n    tag_316:\n      pop\n      swap4\n      swap3\n      swap1\n      swap2\n      tag_317\n      dup5\n      tag_10\n      jump\t// in\n    tag_317:\n      swap5\n      tag_318\n      dup8\n      mload\n      swap7\n      dup8\n      tag_6\n      jump\t// in\n    tag_318:\n      dup5\n      dup7\n      mstore\n      tag_319\n      dup6\n      tag_10\n      jump\t// in\n    tag_319:\n      swap5\n      dup3\n      dup8\n      add\n      swap4\n      not(0x1f)\n      dup1\n      swap8\n      add\n      calldatasize\n      dup7\n      calldatacopy\n      tag_320\n      dup3\n      tag_10\n      jump\t// in\n    tag_320:\n      swap3\n      tag_321\n      dup11\n      mload\n      swap5\n      dup6\n      tag_6\n      jump\t// in\n    tag_321:\n      dup3\n      dup5\n      mstore\n      tag_322\n      dup4\n      tag_10\n      jump\t// in\n    tag_322:\n      dup5\n      dup7\n      add\n      swap9\n      add\n      calldatasize\n      dup10\n      calldatacopy\n        /* \"contracts/ArbOptimizer.sol\":10301:10314  uint256 i = 0 */\n      dup7\n        /* \"contracts/ArbOptimizer.sol\":10316:10330  i < routeCount */\n    tag_323:\n      dup4\n      dup2\n      lt\n      tag_324\n      jumpi\n        /* \"contracts/ArbOptimizer.sol\":1772:17949  contract ArbOptimizer is Ownable, ReentrancyGuard, Pausable {... */\n      pop\n      pop\n      pop\n      pop\n      dup7\n      mload\n      swap7\n      dup8\n      swap7\n      dup2\n      dup9\n      add\n      swap2\n      dup9\n      mstore\n      mload\n      dup1\n      swap2\n      mstore\n      0x60\n      dup8\n      add\n      swap4\n      swap1\n      dup6\n    tag_326:\n      dup2\n      dup2\n      lt\n      tag_327\n      jumpi\n      pop\n      pop\n      pop\n      dup6\n      dup4\n      sub\n      dup7\n      dup4\n      add\n      mstore\n      mload\n      dup1\n      dup4\n      mstore\n      swap2\n      dup2\n      add\n      swap4\n      swap3\n    tag_329:\n      dup3\n      dup2\n      lt\n      tag_330\n      jumpi\n      pop\n      pop\n      pop\n      pop\n      sub\n      swap1\n      return\n    tag_330:\n      dup4\n      mload\n      iszero\n      iszero\n      dup6\n      mstore\n      dup7\n      swap6\n      pop\n      swap4\n      dup2\n      add\n      swap4\n      swap3\n      dup2\n      add\n      swap3\n      0x01\n      add\n      jump(tag_329)\n    tag_327:\n      dup3\n      mload\n      dup7\n      mstore\n      dup10\n      swap9\n      pop\n      swap5\n      dup5\n      add\n      swap5\n      swap2\n      dup5\n      add\n      swap2\n      0x01\n      add\n      jump(tag_326)\n        /* \"contracts/ArbOptimizer.sol\":10332:10335  i++ */\n    tag_324:\n        /* \"contracts/ArbOptimizer.sol\":1772:17949  contract ArbOptimizer is Ownable, ReentrancyGuard, Pausable {... */\n      dup1\n      dup11\n      dup10\n        /* \"contracts/ArbOptimizer.sol\":10332:10335  i++ */\n      tag_332\n        /* \"contracts/ArbOptimizer.sol\":1772:17949  contract ArbOptimizer is Ownable, ReentrancyGuard, Pausable {... */\n      swap4\n      dup15\n      swap9\n      swap10\n      swap12\n      swap11\n      swap13\n      swap14\n      swap15\n      mload\n        /* \"contracts/ArbOptimizer.sol\":3532:3597  AggregatorV3Interface(0x5f4eC3Df9cbd43714FE2740f5E3616155c5b8419) */\n      swap3\n      shl(0xe0, 0x9517ed85)\n        /* \"contracts/ArbOptimizer.sol\":10356:10393  this.analyzeRoute(i, flashLoanAmount) */\n      dup5\n      mstore\n      dup2\n      dup9\n      dup6\n      add\n        /* \"contracts/ArbOptimizer.sol\":1772:17949  contract ArbOptimizer is Ownable, ReentrancyGuard, Pausable {... */\n      mstore\n      dup7\n      0x24\n      dup6\n      add\n      mstore\n        /* \"contracts/ArbOptimizer.sol\":10356:10360  this */\n      dup10\n      dup5\n        /* \"contracts/ArbOptimizer.sol\":1772:17949  contract ArbOptimizer is Ownable, ReentrancyGuard, Pausable {... */\n      0x44\n        /* \"contracts/ArbOptimizer.sol\":10356:10360  this */\n      dup2\n      dup7\n      address\n        /* \"contracts/ArbOptimizer.sol\":10356:10393  this.analyzeRoute(i, flashLoanAmount) */\n      gas\n      call\n      swap4\n      dup5\n      dup5\n      swap2\n      dup6\n      swap7\n      tag_333\n      jumpi\n        /* \"contracts/ArbOptimizer.sol\":10332:10335  i++ */\n    tag_334:\n      pop\n        /* \"contracts/ArbOptimizer.sol\":10352:10702  try this.analyzeRoute(i, flashLoanAmount) returns (... */\n      tag_335\n      jumpi\n        /* \"contracts/ArbOptimizer.sol\":10621:10640  routeProfits[i] = 0 */\n      pop\n      tag_337\n      swap3\n      swap4\n      pop\n      tag_17\n      jump\t// in\n    tag_337:\n        /* \"contracts/ArbOptimizer.sol\":1772:17949  contract ArbOptimizer is Ownable, ReentrancyGuard, Pausable {... */\n      mstore\n        /* \"contracts/ArbOptimizer.sol\":10659:10686  routesProfitable[i] = false */\n      dup8\n      tag_338\n      dup3\n      dup10\n      tag_17\n      jump\t// in\n    tag_338:\n        /* \"contracts/ArbOptimizer.sol\":1772:17949  contract ArbOptimizer is Ownable, ReentrancyGuard, Pausable {... */\n      mstore\n        /* \"contracts/ArbOptimizer.sol\":10332:10335  i++ */\n      tag_13\n      jump\t// in\n    tag_332:\n        /* \"contracts/ArbOptimizer.sol\":10301:10314  uint256 i = 0 */\n      swap10\n      swap9\n      swap8\n      swap6\n      swap7\n      swap5\n      swap4\n      swap10\n      jump(tag_323)\n        /* \"contracts/ArbOptimizer.sol\":10352:10702  try this.analyzeRoute(i, flashLoanAmount) returns (... */\n    tag_335:\n        /* \"contracts/ArbOptimizer.sol\":10504:10528  routeProfits[i] = profit */\n      swap3\n      pop\n      swap1\n      tag_340\n      swap2\n      tag_17\n      jump\t// in\n    tag_340:\n        /* \"contracts/ArbOptimizer.sol\":1772:17949  contract ArbOptimizer is Ownable, ReentrancyGuard, Pausable {... */\n      mstore\n        /* \"contracts/ArbOptimizer.sol\":10547:10579  routesProfitable[i] = profitable */\n      tag_341\n      dup3\n      dup10\n      tag_17\n      jump\t// in\n    tag_341:\n        /* \"contracts/ArbOptimizer.sol\":1772:17949  contract ArbOptimizer is Ownable, ReentrancyGuard, Pausable {... */\n      swap1\n      iszero\n      iszero\n      swap1\n      mstore\n        /* \"contracts/ArbOptimizer.sol\":10332:10335  i++ */\n      tag_13\n      jump\t// in\n        /* \"contracts/ArbOptimizer.sol\":10356:10393  this.analyzeRoute(i, flashLoanAmount) */\n    tag_333:\n      swap1\n      swap6\n      pop\n      tag_342\n      swap2\n      pop\n      dup12\n      returndatasize\n      dup14\n      gt\n      tag_343\n      jumpi\n    tag_344:\n      tag_345\n      dup2\n      dup4\n      tag_6\n      jump\t// in\n    tag_345:\n      dup2\n      add\n      swap1\n      tag_14\n      jump\t// in\n    tag_342:\n      swap5\n      0x00\n      jump(tag_334)\n    tag_343:\n      pop\n      returndatasize\n      jump(tag_344)\n        /* \"contracts/ArbOptimizer.sol\":10157:10180  arbExec.getRouteCount() */\n    tag_315:\n      swap1\n      swap5\n      pop\n      dup3\n      dup2\n      dup2\n      returndatasize\n      dup4\n      gt\n      tag_346\n      jumpi\n    tag_347:\n      tag_348\n      dup2\n      dup4\n      tag_6\n      jump\t// in\n    tag_348:\n      dup2\n      add\n        /* \"contracts/ArbOptimizer.sol\":1772:17949  contract ArbOptimizer is Ownable, ReentrancyGuard, Pausable {... */\n      sub\n      slt\n      tag_171\n      jumpi\n        /* \"contracts/ArbOptimizer.sol\":3532:3597  AggregatorV3Interface(0x5f4eC3Df9cbd43714FE2740f5E3616155c5b8419) */\n      mload\n        /* \"contracts/ArbOptimizer.sol\":10157:10180  arbExec.getRouteCount() */\n      swap4\n      dup7\n      jump(tag_316)\n    tag_346:\n      pop\n      returndatasize\n      jump(tag_347)\n    tag_313:\n        /* \"contracts/ArbOptimizer.sol\":1772:17949  contract ArbOptimizer is Ownable, ReentrancyGuard, Pausable {... */\n      dup7\n      mload\n        /* \"contracts/ArbOptimizer.sol\":3532:3597  AggregatorV3Interface(0x5f4eC3Df9cbd43714FE2740f5E3616155c5b8419) */\n      returndatasize\n        /* \"contracts/ArbOptimizer.sol\":1772:17949  contract ArbOptimizer is Ownable, ReentrancyGuard, Pausable {... */\n      dup5\n      dup3\n        /* \"contracts/ArbOptimizer.sol\":3532:3597  AggregatorV3Interface(0x5f4eC3Df9cbd43714FE2740f5E3616155c5b8419) */\n      returndatacopy\n      returndatasize\n      swap1\n      revert\n        /* \"contracts/ArbOptimizer.sol\":1772:17949  contract ArbOptimizer is Ownable, ReentrancyGuard, Pausable {... */\n    tag_64:\n      dup3\n      dup5\n      jumpi(tag_98, callvalue)\n      dup2\n      add(calldatasize, not(0x03))\n      slt\n      tag_98\n      jumpi\n      swap1\n      sload\n      swap1\n      mload\n      sub(shl(0xa0, 0x01), 0x01)\n      swap1\n      swap2\n      and\n      dup2\n      mstore\n      0x20\n      swap1\n      return\n    tag_62:\n      pop\n      dup3\n      swap1\n      jumpi(tag_109, callvalue)\n      0x20\n      swap1\n      dup2\n      add(calldatasize, not(0x03))\n      slt\n      tag_174\n      jumpi\n      dup1\n      calldataload\n      sub(shl(0xa0, 0x01), 0x01)\n      dup2\n      dup2\n      and\n      swap4\n      swap2\n      dup5\n      swap1\n      sub\n      tag_165\n      jumpi\n        /* \"@openzeppelin/contracts/security/ReentrancyGuard.sol\":2227:2330  modifier nonReentrant() {... */\n      tag_361\n      tag_16\n      jump\t// in\n    tag_361:\n        /* \"@openzeppelin/contracts/access/Ownable.sol\":1500:1562  modifier onlyOwner() {... */\n      tag_362\n      tag_4\n      jump\t// in\n    tag_362:\n        /* \"contracts/ArbOptimizer.sol\":12712:12731  token != address(0) */\n      dup4\n      iszero\n        /* \"contracts/ArbOptimizer.sol\":1772:17949  contract ArbOptimizer is Ownable, ReentrancyGuard, Pausable {... */\n      tag_363\n      jumpi\n      dup6\n      swap1\n        /* \"contracts/ArbOptimizer.sol\":12760:12767  arbExec */\n      0x02\n        /* \"contracts/ArbOptimizer.sol\":1772:17949  contract ArbOptimizer is Ownable, ReentrancyGuard, Pausable {... */\n      sload\n      0x08\n      shr\n      and\n        /* \"contracts/ArbOptimizer.sol\":12760:12792  arbExec.emergencyWithdraw(token) */\n      dup1\n      extcodesize\n      iszero\n      tag_98\n      jumpi\n        /* \"contracts/ArbOptimizer.sol\":1772:17949  contract ArbOptimizer is Ownable, ReentrancyGuard, Pausable {... */\n      dup2\n      dup1\n      swap2\n      0x24\n      dup9\n      mload\n        /* \"contracts/ArbOptimizer.sol\":3532:3597  AggregatorV3Interface(0x5f4eC3Df9cbd43714FE2740f5E3616155c5b8419) */\n      dup1\n      swap5\n      dup2\n      swap4\n      shl(0xe2, 0x1bfc726f)\n        /* \"contracts/ArbOptimizer.sol\":12760:12792  arbExec.emergencyWithdraw(token) */\n      dup4\n      mstore\n      dup11\n      dup11\n      dup5\n      add\n        /* \"contracts/ArbOptimizer.sol\":1772:17949  contract ArbOptimizer is Ownable, ReentrancyGuard, Pausable {... */\n      mstore\n        /* \"contracts/ArbOptimizer.sol\":12760:12792  arbExec.emergencyWithdraw(token) */\n      gas\n      call\n      dup1\n      iszero\n      tag_313\n      jumpi\n      tag_369\n      jumpi\n        /* \"contracts/ArbOptimizer.sol\":1772:17949  contract ArbOptimizer is Ownable, ReentrancyGuard, Pausable {... */\n    tag_370:\n      pop\n      pop\n      dup4\n      mload\n      shl(0xe0, 0x70a08231)\n        /* \"contracts/ArbOptimizer.sol\":12821:12859  IERC20(token).balanceOf(address(this)) */\n      dup2\n      mstore\n        /* \"contracts/ArbOptimizer.sol\":12853:12857  this */\n      address\n        /* \"contracts/ArbOptimizer.sol\":12821:12859  IERC20(token).balanceOf(address(this)) */\n      dup4\n      dup3\n      add\n        /* \"contracts/ArbOptimizer.sol\":1772:17949  contract ArbOptimizer is Ownable, ReentrancyGuard, Pausable {... */\n      mstore\n      swap4\n        /* \"contracts/ArbOptimizer.sol\":12821:12859  IERC20(token).balanceOf(address(this)) */\n      dup2\n        /* \"contracts/ArbOptimizer.sol\":1772:17949  contract ArbOptimizer is Ownable, ReentrancyGuard, Pausable {... */\n      dup6\n      0x24\n      dup2\n        /* \"contracts/ArbOptimizer.sol\":12821:12859  IERC20(token).balanceOf(address(this)) */\n      dup8\n      gas\n      staticcall\n      swap5\n      dup6\n      iszero\n      tag_158\n      jumpi\n      dup7\n      swap6\n      tag_153\n      jumpi\n        /* \"contracts/ArbOptimizer.sol\":12874:12885  balance > 0 */\n      pop\n      dup5\n        /* \"contracts/ArbOptimizer.sol\":12870:13020  if (balance > 0) {... */\n      tag_155\n      jumpi\n        /* \"contracts/ArbOptimizer.sol\":2081:2123  0xC02aaA39b223FE8D0A0e5C4F27eAD9083C756Cc2 */\n      dup6\n        /* \"contracts/ArbOptimizer.sol\":1772:17949  contract ArbOptimizer is Ownable, ReentrancyGuard, Pausable {... */\n      0x01\n        /* \"contracts/ArbOptimizer.sol\":2081:2123  0xC02aaA39b223FE8D0A0e5C4F27eAD9083C756Cc2 */\n      dup1\n      sstore\n        /* \"contracts/ArbOptimizer.sol\":1772:17949  contract ArbOptimizer is Ownable, ReentrancyGuard, Pausable {... */\n      dup1\n      return\n        /* \"contracts/ArbOptimizer.sol\":12760:12792  arbExec.emergencyWithdraw(token) */\n    tag_369:\n      tag_393\n      swap1\n      tag_5\n      jump\t// in\n    tag_393:\n        /* \"contracts/ArbOptimizer.sol\":1772:17949  contract ArbOptimizer is Ownable, ReentrancyGuard, Pausable {... */\n      tag_111\n      jumpi\n        /* \"contracts/ArbOptimizer.sol\":12760:12792  arbExec.emergencyWithdraw(token) */\n      dup5\n      dup7\n      jump(tag_370)\n        /* \"contracts/ArbOptimizer.sol\":1772:17949  contract ArbOptimizer is Ownable, ReentrancyGuard, Pausable {... */\n    tag_363:\n      dup5\n      mload\n      shl(0xe5, 0x461bcd)\n      dup2\n      mstore\n      dup1\n      dup5\n      add\n      dup4\n      swap1\n      mstore\n      0x0d\n      0x24\n      dup3\n      add\n      mstore\n      shl(0x99, 0x24b73b30b634b2103a37b5b2b7)\n      0x44\n      dup3\n      add\n      mstore\n      0x64\n      swap1\n      revert\n    tag_60:\n      pop\n      swap2\n      jumpi(tag_98, callvalue)\n      dup2\n      add(calldatasize, not(0x03))\n      slt\n      tag_98\n      jumpi\n      dup1\n      mload\n        /* \"contracts/ArbOptimizer.sol\":3532:3597  AggregatorV3Interface(0x5f4eC3Df9cbd43714FE2740f5E3616155c5b8419) */\n      swap2\n      shl(0xe0, 0x70a08231)\n        /* \"contracts/ArbOptimizer.sol\":17544:17581  IERC20(WETH).balanceOf(address(this)) */\n      swap4\n      dup5\n      dup5\n      mstore\n        /* \"contracts/ArbOptimizer.sol\":17575:17579  this */\n      address\n        /* \"contracts/ArbOptimizer.sol\":17544:17581  IERC20(WETH).balanceOf(address(this)) */\n      dup2\n      dup6\n      add\n        /* \"contracts/ArbOptimizer.sol\":1772:17949  contract ArbOptimizer is Ownable, ReentrancyGuard, Pausable {... */\n      mstore\n        /* \"contracts/ArbOptimizer.sol\":17544:17581  IERC20(WETH).balanceOf(address(this)) */\n      0x20\n      swap3\n      dup4\n      dup6\n        /* \"contracts/ArbOptimizer.sol\":1772:17949  contract ArbOptimizer is Ownable, ReentrancyGuard, Pausable {... */\n      0x24\n        /* \"contracts/ArbOptimizer.sol\":17544:17581  IERC20(WETH).balanceOf(address(this)) */\n      dup2\n        /* \"contracts/ArbOptimizer.sol\":2081:2123  0xC02aaA39b223FE8D0A0e5C4F27eAD9083C756Cc2 */\n      0xc02aaa39b223fe8d0a0e5c4f27ead9083c756cc2\n        /* \"contracts/ArbOptimizer.sol\":17544:17581  IERC20(WETH).balanceOf(address(this)) */\n      gas\n      staticcall\n      swap5\n      dup6\n      iszero\n      tag_400\n      jumpi\n      dup4\n      swap6\n      tag_402\n      jumpi\n        /* \"contracts/ArbOptimizer.sol\":1772:17949  contract ArbOptimizer is Ownable, ReentrancyGuard, Pausable {... */\n    tag_403:\n      pop\n      dup1\n      mload\n        /* \"contracts/ArbOptimizer.sol\":17606:17643  IERC20(USDC).balanceOf(address(this)) */\n      dup7\n      dup2\n      mstore\n        /* \"contracts/ArbOptimizer.sol\":17575:17579  this */\n      address\n        /* \"contracts/ArbOptimizer.sol\":17606:17643  IERC20(USDC).balanceOf(address(this)) */\n      dup4\n      dup3\n      add\n        /* \"contracts/ArbOptimizer.sol\":1772:17949  contract ArbOptimizer is Ownable, ReentrancyGuard, Pausable {... */\n      mstore\n        /* \"contracts/ArbOptimizer.sol\":17606:17643  IERC20(USDC).balanceOf(address(this)) */\n      dup5\n      dup2\n        /* \"contracts/ArbOptimizer.sol\":1772:17949  contract ArbOptimizer is Ownable, ReentrancyGuard, Pausable {... */\n      0x24\n        /* \"contracts/ArbOptimizer.sol\":17606:17643  IERC20(USDC).balanceOf(address(this)) */\n      dup2\n        /* \"contracts/ArbOptimizer.sol\":2162:2204  0xA0b86991c6218b36c1d19D4a2e9Eb0cE3606eB48 */\n      0xa0b86991c6218b36c1d19d4a2e9eb0ce3606eb48\n        /* \"contracts/ArbOptimizer.sol\":17606:17643  IERC20(USDC).balanceOf(address(this)) */\n      gas\n      staticcall\n      swap1\n      dup2\n      iszero\n      tag_404\n      jumpi\n      dup5\n      swap2\n      tag_406\n      jumpi\n        /* \"contracts/ArbOptimizer.sol\":1772:17949  contract ArbOptimizer is Ownable, ReentrancyGuard, Pausable {... */\n    tag_407:\n      pop\n      dup2\n      mload\n        /* \"contracts/ArbOptimizer.sol\":17668:17705  IERC20(USDT).balanceOf(address(this)) */\n      swap3\n      dup8\n      dup5\n      mstore\n        /* \"contracts/ArbOptimizer.sol\":17575:17579  this */\n      address\n        /* \"contracts/ArbOptimizer.sol\":17668:17705  IERC20(USDT).balanceOf(address(this)) */\n      dup2\n      dup6\n      add\n        /* \"contracts/ArbOptimizer.sol\":1772:17949  contract ArbOptimizer is Ownable, ReentrancyGuard, Pausable {... */\n      mstore\n        /* \"contracts/ArbOptimizer.sol\":17668:17705  IERC20(USDT).balanceOf(address(this)) */\n      dup6\n      dup5\n        /* \"contracts/ArbOptimizer.sol\":1772:17949  contract ArbOptimizer is Ownable, ReentrancyGuard, Pausable {... */\n      0x24\n        /* \"contracts/ArbOptimizer.sol\":17668:17705  IERC20(USDT).balanceOf(address(this)) */\n      dup2\n        /* \"contracts/ArbOptimizer.sol\":2243:2285  0xdAC17F958D2ee523a2206206994597C13D831ec7 */\n      0xdac17f958d2ee523a2206206994597c13d831ec7\n        /* \"contracts/ArbOptimizer.sol\":17668:17705  IERC20(USDT).balanceOf(address(this)) */\n      gas\n      staticcall\n      swap4\n      dup5\n      iszero\n      tag_408\n      jumpi\n      dup6\n      swap5\n      tag_410\n      jumpi\n        /* \"contracts/ArbOptimizer.sol\":1772:17949  contract ArbOptimizer is Ownable, ReentrancyGuard, Pausable {... */\n    tag_411:\n      pop\n      dup3\n      mload\n        /* \"contracts/ArbOptimizer.sol\":17729:17765  IERC20(DAI).balanceOf(address(this)) */\n      swap8\n      dup9\n      mstore\n        /* \"contracts/ArbOptimizer.sol\":17575:17579  this */\n      address\n        /* \"contracts/ArbOptimizer.sol\":17729:17765  IERC20(DAI).balanceOf(address(this)) */\n      swap1\n      dup9\n      add\n        /* \"contracts/ArbOptimizer.sol\":1772:17949  contract ArbOptimizer is Ownable, ReentrancyGuard, Pausable {... */\n      mstore\n        /* \"contracts/ArbOptimizer.sol\":17729:17765  IERC20(DAI).balanceOf(address(this)) */\n      dup5\n      dup8\n        /* \"contracts/ArbOptimizer.sol\":1772:17949  contract ArbOptimizer is Ownable, ReentrancyGuard, Pausable {... */\n      0x24\n        /* \"contracts/ArbOptimizer.sol\":17729:17765  IERC20(DAI).balanceOf(address(this)) */\n      dup2\n        /* \"contracts/ArbOptimizer.sol\":2323:2365  0x6B175474E89094C44Da98b954EedeAC495271d0F */\n      0x6b175474e89094c44da98b954eedeac495271d0f\n        /* \"contracts/ArbOptimizer.sol\":17729:17765  IERC20(DAI).balanceOf(address(this)) */\n      gas\n      staticcall\n      swap4\n      dup5\n      iszero\n      tag_412\n      jumpi\n      swap4\n      tag_414\n      jumpi\n        /* \"contracts/ArbOptimizer.sol\":1772:17949  contract ArbOptimizer is Ownable, ReentrancyGuard, Pausable {... */\n    tag_415:\n      0xa0\n        /* \"contracts/ArbOptimizer.sol\":17789:17810  address(this).balance */\n      swap7\n      pop\n      selfbalance\n        /* \"contracts/ArbOptimizer.sol\":1772:17949  contract ArbOptimizer is Ownable, ReentrancyGuard, Pausable {... */\n      swap5\n      dup3\n      mload\n      swap7\n      dup8\n      mstore\n      dup7\n      add\n      mstore\n      dup5\n      add\n      mstore\n      0x60\n      dup4\n      add\n      mstore\n      0x80\n      dup3\n      add\n      mstore\n      return\n        /* \"contracts/ArbOptimizer.sol\":17729:17765  IERC20(DAI).balanceOf(address(this)) */\n    tag_414:\n      swap3\n      pop\n      dup4\n      dup7\n      dup2\n      returndatasize\n      dup4\n      gt\n      tag_416\n      jumpi\n    tag_417:\n      tag_418\n      dup2\n      dup4\n      tag_6\n      jump\t// in\n    tag_418:\n      dup2\n      add\n        /* \"contracts/ArbOptimizer.sol\":1772:17949  contract ArbOptimizer is Ownable, ReentrancyGuard, Pausable {... */\n      sub\n      slt\n      tag_171\n      jumpi\n      0xa0\n        /* \"contracts/ArbOptimizer.sol\":3532:3597  AggregatorV3Interface(0x5f4eC3Df9cbd43714FE2740f5E3616155c5b8419) */\n      swap6\n      mload\n        /* \"contracts/ArbOptimizer.sol\":17729:17765  IERC20(DAI).balanceOf(address(this)) */\n      swap3\n      jump(tag_415)\n    tag_416:\n      pop\n      returndatasize\n      jump(tag_417)\n    tag_412:\n        /* \"contracts/ArbOptimizer.sol\":1772:17949  contract ArbOptimizer is Ownable, ReentrancyGuard, Pausable {... */\n      dup3\n      mload\n        /* \"contracts/ArbOptimizer.sol\":3532:3597  AggregatorV3Interface(0x5f4eC3Df9cbd43714FE2740f5E3616155c5b8419) */\n      swap1\n      returndatasize\n      swap1\n      dup3\n      returndatacopy\n      returndatasize\n      swap1\n      revert\n        /* \"contracts/ArbOptimizer.sol\":17668:17705  IERC20(USDT).balanceOf(address(this)) */\n    tag_410:\n      swap1\n      swap4\n      pop\n      dup6\n      dup2\n      dup2\n      returndatasize\n      dup4\n      gt\n      tag_421\n      jumpi\n    tag_422:\n      tag_423\n      dup2\n      dup4\n      tag_6\n      jump\t// in\n    tag_423:\n      dup2\n      add\n        /* \"contracts/ArbOptimizer.sol\":1772:17949  contract ArbOptimizer is Ownable, ReentrancyGuard, Pausable {... */\n      sub\n      slt\n      tag_171\n      jumpi\n        /* \"contracts/ArbOptimizer.sol\":3532:3597  AggregatorV3Interface(0x5f4eC3Df9cbd43714FE2740f5E3616155c5b8419) */\n      mload\n        /* \"contracts/ArbOptimizer.sol\":17668:17705  IERC20(USDT).balanceOf(address(this)) */\n      swap3\n      0x00\n      jump(tag_411)\n    tag_421:\n      pop\n      returndatasize\n      jump(tag_422)\n    tag_408:\n        /* \"contracts/ArbOptimizer.sol\":1772:17949  contract ArbOptimizer is Ownable, ReentrancyGuard, Pausable {... */\n      dup4\n      mload\n        /* \"contracts/ArbOptimizer.sol\":3532:3597  AggregatorV3Interface(0x5f4eC3Df9cbd43714FE2740f5E3616155c5b8419) */\n      returndatasize\n        /* \"contracts/ArbOptimizer.sol\":1772:17949  contract ArbOptimizer is Ownable, ReentrancyGuard, Pausable {... */\n      dup8\n      dup3\n        /* \"contracts/ArbOptimizer.sol\":3532:3597  AggregatorV3Interface(0x5f4eC3Df9cbd43714FE2740f5E3616155c5b8419) */\n      returndatacopy\n      returndatasize\n      swap1\n      revert\n        /* \"contracts/ArbOptimizer.sol\":17606:17643  IERC20(USDC).balanceOf(address(this)) */\n    tag_406:\n      swap1\n      pop\n      dup5\n      dup2\n      dup2\n      returndatasize\n      dup4\n      gt\n      tag_426\n      jumpi\n    tag_427:\n      tag_428\n      dup2\n      dup4\n      tag_6\n      jump\t// in\n    tag_428:\n      dup2\n      add\n        /* \"contracts/ArbOptimizer.sol\":1772:17949  contract ArbOptimizer is Ownable, ReentrancyGuard, Pausable {... */\n      sub\n      slt\n      tag_171\n      jumpi\n        /* \"contracts/ArbOptimizer.sol\":3532:3597  AggregatorV3Interface(0x5f4eC3Df9cbd43714FE2740f5E3616155c5b8419) */\n      mload\n        /* \"contracts/ArbOptimizer.sol\":17606:17643  IERC20(USDC).balanceOf(address(this)) */\n      0x00\n      jump(tag_407)\n    tag_426:\n      pop\n      returndatasize\n      jump(tag_427)\n    tag_404:\n        /* \"contracts/ArbOptimizer.sol\":1772:17949  contract ArbOptimizer is Ownable, ReentrancyGuard, Pausable {... */\n      dup3\n      mload\n        /* \"contracts/ArbOptimizer.sol\":3532:3597  AggregatorV3Interface(0x5f4eC3Df9cbd43714FE2740f5E3616155c5b8419) */\n      returndatasize\n        /* \"contracts/ArbOptimizer.sol\":1772:17949  contract ArbOptimizer is Ownable, ReentrancyGuard, Pausable {... */\n      dup7\n      dup3\n        /* \"contracts/ArbOptimizer.sol\":3532:3597  AggregatorV3Interface(0x5f4eC3Df9cbd43714FE2740f5E3616155c5b8419) */\n      returndatacopy\n      returndatasize\n      swap1\n      revert\n        /* \"contracts/ArbOptimizer.sol\":17544:17581  IERC20(WETH).balanceOf(address(this)) */\n    tag_402:\n      swap1\n      swap5\n      pop\n      dup4\n      dup2\n      dup2\n      returndatasize\n      dup4\n      gt\n      tag_431\n      jumpi\n    tag_432:\n      tag_433\n      dup2\n      dup4\n      tag_6\n      jump\t// in\n    tag_433:\n      dup2\n      add\n        /* \"contracts/ArbOptimizer.sol\":1772:17949  contract ArbOptimizer is Ownable, ReentrancyGuard, Pausable {... */\n      sub\n      slt\n      tag_171\n      jumpi\n        /* \"contracts/ArbOptimizer.sol\":3532:3597  AggregatorV3Interface(0x5f4eC3Df9cbd43714FE2740f5E3616155c5b8419) */\n      mload\n        /* \"contracts/ArbOptimizer.sol\":17544:17581  IERC20(WETH).balanceOf(address(this)) */\n      swap4\n      0x00\n      jump(tag_403)\n    tag_431:\n      pop\n      returndatasize\n      jump(tag_432)\n    tag_400:\n        /* \"contracts/ArbOptimizer.sol\":1772:17949  contract ArbOptimizer is Ownable, ReentrancyGuard, Pausable {... */\n      dup2\n      mload\n        /* \"contracts/ArbOptimizer.sol\":3532:3597  AggregatorV3Interface(0x5f4eC3Df9cbd43714FE2740f5E3616155c5b8419) */\n      returndatasize\n        /* \"contracts/ArbOptimizer.sol\":1772:17949  contract ArbOptimizer is Ownable, ReentrancyGuard, Pausable {... */\n      dup6\n      dup3\n        /* \"contracts/ArbOptimizer.sol\":3532:3597  AggregatorV3Interface(0x5f4eC3Df9cbd43714FE2740f5E3616155c5b8419) */\n      returndatacopy\n      returndatasize\n      swap1\n      revert\n        /* \"contracts/ArbOptimizer.sol\":1772:17949  contract ArbOptimizer is Ownable, ReentrancyGuard, Pausable {... */\n    tag_58:\n      pop\n      dup3\n      jumpi(tag_109, callvalue)\n      dup3\n      add(calldatasize, not(0x03))\n      slt\n      tag_109\n      jumpi\n        /* \"@openzeppelin/contracts/security/ReentrancyGuard.sol\":2227:2330  modifier nonReentrant() {... */\n      tag_440\n      tag_16\n      jump\t// in\n    tag_440:\n        /* \"@openzeppelin/contracts/access/Ownable.sol\":1500:1562  modifier onlyOwner() {... */\n      tag_441\n      tag_4\n      jump\t// in\n    tag_441:\n        /* \"contracts/ArbOptimizer.sol\":14255:14262  arbExec */\n      0x02\n        /* \"contracts/ArbOptimizer.sol\":1772:17949  contract ArbOptimizer is Ownable, ReentrancyGuard, Pausable {... */\n      sload\n      0x00\n      swap3\n      0x01\n      dup1\n      0xa0\n      shl\n      sub\n      dup1\n      swap3\n      0x08\n      shr\n      and\n        /* \"contracts/ArbOptimizer.sol\":14255:14287  arbExec.emergencyWithdraw(token) */\n      swap2\n      dup3\n      extcodesize\n      iszero\n      tag_111\n      jumpi\n        /* \"contracts/ArbOptimizer.sol\":1772:17949  contract ArbOptimizer is Ownable, ReentrancyGuard, Pausable {... */\n      swap1\n      dup5\n      swap3\n      swap2\n      dup5\n      mload\n        /* \"contracts/ArbOptimizer.sol\":3532:3597  AggregatorV3Interface(0x5f4eC3Df9cbd43714FE2740f5E3616155c5b8419) */\n      swap3\n      shl(0xe2, 0x1bfc726f)\n        /* \"contracts/ArbOptimizer.sol\":14255:14287  arbExec.emergencyWithdraw(token) */\n      swap4\n      dup5\n      dup2\n      mstore\n        /* \"contracts/ArbOptimizer.sol\":2081:2123  0xC02aaA39b223FE8D0A0e5C4F27eAD9083C756Cc2 */\n      dup6\n      dup2\n      0xc02aaa39b223fe8d0a0e5c4f27ead9083c756cc2\n        /* \"contracts/ArbOptimizer.sol\":14255:14287  arbExec.emergencyWithdraw(token) */\n      swap4\n      dup5\n      dup8\n      dup4\n      add\n        /* \"contracts/ArbOptimizer.sol\":1772:17949  contract ArbOptimizer is Ownable, ReentrancyGuard, Pausable {... */\n      mstore\n      dup2\n      0x24\n        /* \"contracts/ArbOptimizer.sol\":14255:14287  arbExec.emergencyWithdraw(token) */\n      swap10\n      dup11\n      swap3\n      gas\n      call\n      tag_444\n      jumpi\n        /* \"contracts/ArbOptimizer.sol\":1772:17949  contract ArbOptimizer is Ownable, ReentrancyGuard, Pausable {... */\n    tag_445:\n      pop\n      dup6\n      mload\n        /* \"contracts/ArbOptimizer.sol\":3532:3597  AggregatorV3Interface(0x5f4eC3Df9cbd43714FE2740f5E3616155c5b8419) */\n      shl(0xe0, 0x70a08231)\n        /* \"contracts/ArbOptimizer.sol\":14327:14365  IERC20(token).balanceOf(address(this)) */\n      swap2\n      dup3\n      dup3\n      mstore\n        /* \"contracts/ArbOptimizer.sol\":14359:14363  this */\n      address\n        /* \"contracts/ArbOptimizer.sol\":14327:14365  IERC20(token).balanceOf(address(this)) */\n      dup6\n      dup4\n      add\n        /* \"contracts/ArbOptimizer.sol\":1772:17949  contract ArbOptimizer is Ownable, ReentrancyGuard, Pausable {... */\n      mstore\n      0x20\n        /* \"contracts/ArbOptimizer.sol\":14327:14365  IERC20(token).balanceOf(address(this)) */\n      swap9\n      dup10\n      dup4\n      dup10\n      dup2\n      dup6\n      gas\n      staticcall\n      swap3\n      dup4\n      iszero\n      tag_466\n      jumpi\n      dup2\n      swap4\n      tag_448\n      jumpi\n        /* \"contracts/ArbOptimizer.sol\":1772:17949  contract ArbOptimizer is Ownable, ReentrancyGuard, Pausable {... */\n    tag_449:\n        /* \"contracts/ArbOptimizer.sol\":14380:14391  balance > 0 */\n      pop\n      dup3\n        /* \"contracts/ArbOptimizer.sol\":14376:14526  if (balance > 0) {... */\n      tag_450\n      jumpi\n        /* \"contracts/ArbOptimizer.sol\":1772:17949  contract ArbOptimizer is Ownable, ReentrancyGuard, Pausable {... */\n    tag_451:\n      pop\n      pop\n        /* \"contracts/ArbOptimizer.sol\":14255:14262  arbExec */\n      0x02\n        /* \"contracts/ArbOptimizer.sol\":1772:17949  contract ArbOptimizer is Ownable, ReentrancyGuard, Pausable {... */\n      sload\n      0x08\n      shr\n      dup4\n      and\n      swap1\n      pop\n      0x00\n        /* \"contracts/ArbOptimizer.sol\":14255:14287  arbExec.emergencyWithdraw(token) */\n      dup2\n      extcodesize\n      iszero\n      tag_197\n      jumpi\n        /* \"contracts/ArbOptimizer.sol\":1772:17949  contract ArbOptimizer is Ownable, ReentrancyGuard, Pausable {... */\n      dup8\n      mload\n        /* \"contracts/ArbOptimizer.sol\":14255:14287  arbExec.emergencyWithdraw(token) */\n      dup7\n      dup2\n      mstore\n        /* \"contracts/ArbOptimizer.sol\":2162:2204  0xA0b86991c6218b36c1d19D4a2e9Eb0cE3606eB48 */\n      dup2\n      dup2\n      dup10\n      dup2\n      dup4\n      0xa0b86991c6218b36c1d19d4a2e9eb0ce3606eb48\n        /* \"contracts/ArbOptimizer.sol\":14255:14287  arbExec.emergencyWithdraw(token) */\n      swap8\n      dup9\n      dup13\n      dup5\n      add\n        /* \"contracts/ArbOptimizer.sol\":1772:17949  contract ArbOptimizer is Ownable, ReentrancyGuard, Pausable {... */\n      mstore\n        /* \"contracts/ArbOptimizer.sol\":14255:14287  arbExec.emergencyWithdraw(token) */\n      gas\n      call\n      tag_454\n      jumpi\n        /* \"contracts/ArbOptimizer.sol\":1772:17949  contract ArbOptimizer is Ownable, ReentrancyGuard, Pausable {... */\n    tag_455:\n      pop\n      swap1\n      dup8\n      mload\n        /* \"contracts/ArbOptimizer.sol\":14327:14365  IERC20(token).balanceOf(address(this)) */\n      swap2\n      dup4\n      dup4\n      mstore\n        /* \"contracts/ArbOptimizer.sol\":14359:14363  this */\n      address\n        /* \"contracts/ArbOptimizer.sol\":14327:14365  IERC20(token).balanceOf(address(this)) */\n      dup7\n      dup5\n      add\n        /* \"contracts/ArbOptimizer.sol\":1772:17949  contract ArbOptimizer is Ownable, ReentrancyGuard, Pausable {... */\n      mstore\n        /* \"contracts/ArbOptimizer.sol\":14327:14365  IERC20(token).balanceOf(address(this)) */\n      dup10\n      dup4\n      dup10\n      dup2\n      dup6\n      gas\n      staticcall\n      swap3\n      dup4\n      iszero\n      tag_466\n      jumpi\n      dup2\n      swap4\n      tag_458\n      jumpi\n        /* \"contracts/ArbOptimizer.sol\":1772:17949  contract ArbOptimizer is Ownable, ReentrancyGuard, Pausable {... */\n    tag_459:\n        /* \"contracts/ArbOptimizer.sol\":14380:14391  balance > 0 */\n      pop\n      dup3\n        /* \"contracts/ArbOptimizer.sol\":14376:14526  if (balance > 0) {... */\n      tag_460\n      jumpi\n        /* \"contracts/ArbOptimizer.sol\":1772:17949  contract ArbOptimizer is Ownable, ReentrancyGuard, Pausable {... */\n    tag_461:\n      pop\n      pop\n        /* \"contracts/ArbOptimizer.sol\":14255:14262  arbExec */\n      0x02\n        /* \"contracts/ArbOptimizer.sol\":1772:17949  contract ArbOptimizer is Ownable, ReentrancyGuard, Pausable {... */\n      sload\n      0x08\n      shr\n      dup4\n      and\n      swap1\n      pop\n      0x00\n        /* \"contracts/ArbOptimizer.sol\":14255:14287  arbExec.emergencyWithdraw(token) */\n      dup2\n      extcodesize\n      iszero\n      tag_197\n      jumpi\n        /* \"contracts/ArbOptimizer.sol\":1772:17949  contract ArbOptimizer is Ownable, ReentrancyGuard, Pausable {... */\n      dup8\n      mload\n        /* \"contracts/ArbOptimizer.sol\":14255:14287  arbExec.emergencyWithdraw(token) */\n      dup7\n      dup2\n      mstore\n        /* \"contracts/ArbOptimizer.sol\":2243:2285  0xdAC17F958D2ee523a2206206994597C13D831ec7 */\n      dup2\n      dup2\n      dup10\n      dup2\n      dup4\n      0xdac17f958d2ee523a2206206994597c13d831ec7\n        /* \"contracts/ArbOptimizer.sol\":14255:14287  arbExec.emergencyWithdraw(token) */\n      swap8\n      dup9\n      dup13\n      dup5\n      add\n        /* \"contracts/ArbOptimizer.sol\":1772:17949  contract ArbOptimizer is Ownable, ReentrancyGuard, Pausable {... */\n      mstore\n        /* \"contracts/ArbOptimizer.sol\":14255:14287  arbExec.emergencyWithdraw(token) */\n      gas\n      call\n      tag_464\n      jumpi\n        /* \"contracts/ArbOptimizer.sol\":1772:17949  contract ArbOptimizer is Ownable, ReentrancyGuard, Pausable {... */\n    tag_465:\n      pop\n      swap1\n      dup8\n      mload\n        /* \"contracts/ArbOptimizer.sol\":14327:14365  IERC20(token).balanceOf(address(this)) */\n      swap2\n      dup4\n      dup4\n      mstore\n        /* \"contracts/ArbOptimizer.sol\":14359:14363  this */\n      address\n        /* \"contracts/ArbOptimizer.sol\":14327:14365  IERC20(token).balanceOf(address(this)) */\n      dup7\n      dup5\n      add\n        /* \"contracts/ArbOptimizer.sol\":1772:17949  contract ArbOptimizer is Ownable, ReentrancyGuard, Pausable {... */\n      mstore\n        /* \"contracts/ArbOptimizer.sol\":14327:14365  IERC20(token).balanceOf(address(this)) */\n      dup10\n      dup4\n      dup10\n      dup2\n      dup6\n      gas\n      staticcall\n      swap3\n      dup4\n      iszero\n      tag_466\n      jumpi\n      dup2\n      swap4\n      tag_468\n      jumpi\n        /* \"contracts/ArbOptimizer.sol\":1772:17949  contract ArbOptimizer is Ownable, ReentrancyGuard, Pausable {... */\n    tag_469:\n        /* \"contracts/ArbOptimizer.sol\":14380:14391  balance > 0 */\n      pop\n      dup3\n        /* \"contracts/ArbOptimizer.sol\":14376:14526  if (balance > 0) {... */\n      tag_470\n      jumpi\n        /* \"contracts/ArbOptimizer.sol\":1772:17949  contract ArbOptimizer is Ownable, ReentrancyGuard, Pausable {... */\n    tag_471:\n      pop\n      pop\n      pop\n        /* \"contracts/ArbOptimizer.sol\":14255:14262  arbExec */\n      0x02\n        /* \"contracts/ArbOptimizer.sol\":1772:17949  contract ArbOptimizer is Ownable, ReentrancyGuard, Pausable {... */\n      sload\n      swap2\n      0x00\n      swap3\n      0x08\n      shr\n      and\n        /* \"contracts/ArbOptimizer.sol\":14255:14287  arbExec.emergencyWithdraw(token) */\n      swap4\n      dup5\n      extcodesize\n      iszero\n      tag_109\n      jumpi\n        /* \"contracts/ArbOptimizer.sol\":1772:17949  contract ArbOptimizer is Ownable, ReentrancyGuard, Pausable {... */\n      swap1\n      dup8\n      swap2\n      dup8\n      mload\n        /* \"contracts/ArbOptimizer.sol\":14255:14287  arbExec.emergencyWithdraw(token) */\n      swap1\n      dup2\n      mstore\n        /* \"contracts/ArbOptimizer.sol\":2323:2365  0x6B175474E89094C44Da98b954EedeAC495271d0F */\n      dup4\n      dup2\n      dup9\n      dup2\n      dup4\n      0x6b175474e89094c44da98b954eedeac495271d0f\n        /* \"contracts/ArbOptimizer.sol\":14255:14287  arbExec.emergencyWithdraw(token) */\n      swap11\n      dup12\n      dup12\n      dup5\n      add\n        /* \"contracts/ArbOptimizer.sol\":1772:17949  contract ArbOptimizer is Ownable, ReentrancyGuard, Pausable {... */\n      mstore\n        /* \"contracts/ArbOptimizer.sol\":14255:14287  arbExec.emergencyWithdraw(token) */\n      gas\n      call\n      tag_474\n      jumpi\n        /* \"contracts/ArbOptimizer.sol\":1772:17949  contract ArbOptimizer is Ownable, ReentrancyGuard, Pausable {... */\n    tag_475:\n      pop\n      dup7\n      mload\n        /* \"contracts/ArbOptimizer.sol\":14327:14365  IERC20(token).balanceOf(address(this)) */\n      swap6\n      dup7\n      swap2\n      dup3\n      mstore\n        /* \"contracts/ArbOptimizer.sol\":14359:14363  this */\n      address\n        /* \"contracts/ArbOptimizer.sol\":14327:14365  IERC20(token).balanceOf(address(this)) */\n      dup6\n      dup4\n      add\n        /* \"contracts/ArbOptimizer.sol\":1772:17949  contract ArbOptimizer is Ownable, ReentrancyGuard, Pausable {... */\n      mstore\n        /* \"contracts/ArbOptimizer.sol\":14327:14365  IERC20(token).balanceOf(address(this)) */\n      dup2\n      dup7\n      gas\n      staticcall\n      swap4\n      dup5\n      iszero\n      tag_487\n      jumpi\n      dup2\n      swap5\n      tag_478\n      jumpi\n        /* \"contracts/ArbOptimizer.sol\":1772:17949  contract ArbOptimizer is Ownable, ReentrancyGuard, Pausable {... */\n    tag_479:\n        /* \"contracts/ArbOptimizer.sol\":14380:14391  balance > 0 */\n      pop\n      dup6\n      dup5\n        /* \"contracts/ArbOptimizer.sol\":14376:14526  if (balance > 0) {... */\n      tag_480\n      jumpi\n        /* \"contracts/ArbOptimizer.sol\":1772:17949  contract ArbOptimizer is Ownable, ReentrancyGuard, Pausable {... */\n    tag_481:\n        /* \"contracts/ArbOptimizer.sol\":13857:13878  address(this).balance */\n      pop\n      pop\n      pop\n      pop\n      pop\n      selfbalance\n        /* \"contracts/ArbOptimizer.sol\":13893:13907  ethBalance > 0 */\n      swap2\n      dup3\n        /* \"contracts/ArbOptimizer.sol\":13889:14103  if (ethBalance > 0) {... */\n      tag_482\n      jumpi\n        /* \"contracts/ArbOptimizer.sol\":1772:17949  contract ArbOptimizer is Ownable, ReentrancyGuard, Pausable {... */\n    tag_483:\n        /* \"contracts/ArbOptimizer.sol\":2081:2123  0xC02aaA39b223FE8D0A0e5C4F27eAD9083C756Cc2 */\n      dup4\n        /* \"contracts/ArbOptimizer.sol\":1772:17949  contract ArbOptimizer is Ownable, ReentrancyGuard, Pausable {... */\n      0x01\n        /* \"contracts/ArbOptimizer.sol\":2081:2123  0xC02aaA39b223FE8D0A0e5C4F27eAD9083C756Cc2 */\n      dup1\n      sstore\n        /* \"contracts/ArbOptimizer.sol\":1772:17949  contract ArbOptimizer is Ownable, ReentrancyGuard, Pausable {... */\n      dup1\n      return\n        /* \"contracts/ArbOptimizer.sol\":13889:14103  if (ethBalance > 0) {... */\n    tag_482:\n        /* \"contracts/ArbOptimizer.sol\":14055:14091  ETHWithdrawn(ethBalance, msg.sender) */\n      0x6148672a948a12b8e0bf92a9338349b9ac890fad62a234abaf0a4da99f62cfcc\n        /* \"contracts/ArbOptimizer.sol\":13943:13953  msg.sender */\n      swap2\n        /* \"contracts/ArbOptimizer.sol\":13996:14035  require(success, \"ETH transfer failed\") */\n      tag_484\n        /* \"contracts/ArbOptimizer.sol\":13943:13953  msg.sender */\n      dup6\n      dup1\n      dup1\n      dup1\n      dup9\n      caller\n        /* \"contracts/ArbOptimizer.sol\":13943:13981  msg.sender.call{value: ethBalance}(\"\") */\n      gas\n      call\n      tag_135\n      tag_19\n      jump\t// in\n        /* \"contracts/ArbOptimizer.sol\":13996:14035  require(success, \"ETH transfer failed\") */\n    tag_484:\n        /* \"contracts/ArbOptimizer.sol\":1772:17949  contract ArbOptimizer is Ownable, ReentrancyGuard, Pausable {... */\n      mload\n      swap3\n      dup4\n      mstore\n        /* \"contracts/ArbOptimizer.sol\":13943:13953  msg.sender */\n      caller\n        /* \"contracts/ArbOptimizer.sol\":14055:14091  ETHWithdrawn(ethBalance, msg.sender) */\n      swap3\n      log2\n        /* \"contracts/ArbOptimizer.sol\":13889:14103  if (ethBalance > 0) {... */\n      dup2\n      dup1\n      dup1\n      jump(tag_483)\n        /* \"contracts/ArbOptimizer.sol\":14376:14526  if (balance > 0) {... */\n    tag_480:\n        /* \"contracts/ArbOptimizer.sol\":1772:17949  contract ArbOptimizer is Ownable, ReentrancyGuard, Pausable {... */\n      dup6\n      mload\n      shl(0xe0, 0xa9059cbb)\n        /* \"contracts/ArbOptimizer.sol\":14408:14451  IERC20(token).transfer(msg.sender, balance) */\n      dup2\n      mstore\n        /* \"contracts/ArbOptimizer.sol\":14431:14441  msg.sender */\n      caller\n        /* \"contracts/ArbOptimizer.sol\":14408:14451  IERC20(token).transfer(msg.sender, balance) */\n      swap4\n      dup2\n      add\n        /* \"contracts/ArbOptimizer.sol\":1772:17949  contract ArbOptimizer is Ownable, ReentrancyGuard, Pausable {... */\n      swap4\n      dup5\n      mstore\n      0x20\n      dup5\n      add\n      dup7\n      swap1\n      mstore\n      swap3\n      dup4\n      swap1\n      dup2\n      swap1\n      0x40\n      add\n        /* \"contracts/ArbOptimizer.sol\":14408:14451  IERC20(token).transfer(msg.sender, balance) */\n      sub\n      dup2\n      dup5\n      dup8\n      gas\n      call\n      dup1\n      iszero\n      tag_487\n      jumpi\n      tag_489\n      jumpi\n        /* \"contracts/ArbOptimizer.sol\":14376:14526  if (balance > 0) {... */\n    tag_490:\n        /* \"contracts/ArbOptimizer.sol\":1772:17949  contract ArbOptimizer is Ownable, ReentrancyGuard, Pausable {... */\n      pop\n      pop\n      dup3\n      mload\n      swap2\n      dup3\n      mstore\n      0x00\n      dup1\n      mload\n      0x20\n      data_084f00436a29ddf9fe96da3f0df8ffde36506fc292725425a43a4251d44f1f53\n      dup4\n      codecopy\n      dup2\n      mload\n      swap2\n      mstore\n        /* \"contracts/ArbOptimizer.sol\":14431:14441  msg.sender */\n      dup5\n      caller\n        /* \"contracts/ArbOptimizer.sol\":14471:14514  ProfitWithdrawn(token, balance, msg.sender) */\n      swap4\n      log3\n        /* \"contracts/ArbOptimizer.sol\":14376:14526  if (balance > 0) {... */\n      dup4\n      dup1\n      dup1\n      dup1\n      dup6\n      jump(tag_481)\n        /* \"contracts/ArbOptimizer.sol\":14408:14451  IERC20(token).transfer(msg.sender, balance) */\n    tag_489:\n      dup6\n      dup3\n      dup2\n      returndatasize\n      dup4\n      gt\n      tag_491\n      jumpi\n    tag_492:\n      tag_493\n      dup2\n      dup4\n      tag_6\n      jump\t// in\n    tag_493:\n      dup2\n      add\n        /* \"contracts/ArbOptimizer.sol\":1772:17949  contract ArbOptimizer is Ownable, ReentrancyGuard, Pausable {... */\n      sub\n      slt\n      tag_197\n      jumpi\n      pop\n      tag_496\n      swap1\n      tag_11\n      jump\t// in\n    tag_496:\n      pop\n        /* \"contracts/ArbOptimizer.sol\":14408:14451  IERC20(token).transfer(msg.sender, balance) */\n      dup6\n      dup1\n      jump(tag_490)\n    tag_491:\n      pop\n      returndatasize\n      jump(tag_492)\n    tag_487:\n        /* \"contracts/ArbOptimizer.sol\":1772:17949  contract ArbOptimizer is Ownable, ReentrancyGuard, Pausable {... */\n      pop\n      dup5\n      mload\n        /* \"contracts/ArbOptimizer.sol\":3532:3597  AggregatorV3Interface(0x5f4eC3Df9cbd43714FE2740f5E3616155c5b8419) */\n      swap1\n      returndatasize\n      swap1\n      dup3\n      returndatacopy\n      returndatasize\n      swap1\n      revert\n        /* \"contracts/ArbOptimizer.sol\":14327:14365  IERC20(token).balanceOf(address(this)) */\n    tag_478:\n      swap1\n      swap4\n      pop\n      dup6\n      dup2\n      dup2\n      returndatasize\n      dup4\n      gt\n      tag_497\n      jumpi\n    tag_498:\n      tag_499\n      dup2\n      dup4\n      tag_6\n      jump\t// in\n    tag_499:\n      dup2\n      add\n        /* \"contracts/ArbOptimizer.sol\":1772:17949  contract ArbOptimizer is Ownable, ReentrancyGuard, Pausable {... */\n      sub\n      slt\n      tag_171\n      jumpi\n        /* \"contracts/ArbOptimizer.sol\":3532:3597  AggregatorV3Interface(0x5f4eC3Df9cbd43714FE2740f5E3616155c5b8419) */\n      mload\n        /* \"contracts/ArbOptimizer.sol\":14327:14365  IERC20(token).balanceOf(address(this)) */\n      swap3\n      dup8\n      jump(tag_479)\n    tag_497:\n      pop\n      returndatasize\n      jump(tag_498)\n        /* \"contracts/ArbOptimizer.sol\":14255:14287  arbExec.emergencyWithdraw(token) */\n    tag_474:\n      tag_502\n      swap1\n      swap4\n      swap2\n      swap4\n      tag_5\n      jump\t// in\n    tag_502:\n      swap2\n      dup10\n      jump(tag_475)\n        /* \"contracts/ArbOptimizer.sol\":14376:14526  if (balance > 0) {... */\n    tag_470:\n        /* \"contracts/ArbOptimizer.sol\":1772:17949  contract ArbOptimizer is Ownable, ReentrancyGuard, Pausable {... */\n      dup9\n      mload\n      shl(0xe0, 0xa9059cbb)\n        /* \"contracts/ArbOptimizer.sol\":14408:14451  IERC20(token).transfer(msg.sender, balance) */\n      dup2\n      mstore\n        /* \"contracts/ArbOptimizer.sol\":14431:14441  msg.sender */\n      caller\n        /* \"contracts/ArbOptimizer.sol\":14408:14451  IERC20(token).transfer(msg.sender, balance) */\n      dup8\n      dup3\n      add\n        /* \"contracts/ArbOptimizer.sol\":1772:17949  contract ArbOptimizer is Ownable, ReentrancyGuard, Pausable {... */\n      swap1\n      dup2\n      mstore\n      0x20\n      dup2\n      add\n      dup6\n      swap1\n      mstore\n      swap1\n      swap2\n        /* \"contracts/ArbOptimizer.sol\":3532:3597  AggregatorV3Interface(0x5f4eC3Df9cbd43714FE2740f5E3616155c5b8419) */\n      swap1\n        /* \"contracts/ArbOptimizer.sol\":14431:14441  msg.sender */\n      dup12\n      swap1\n        /* \"contracts/ArbOptimizer.sol\":1772:17949  contract ArbOptimizer is Ownable, ReentrancyGuard, Pausable {... */\n      dup4\n      swap1\n      dup2\n      swap1\n      0x40\n      add\n        /* \"contracts/ArbOptimizer.sol\":14408:14451  IERC20(token).transfer(msg.sender, balance) */\n      sub\n      dup2\n      dup5\n      dup8\n      gas\n      call\n      dup1\n      iszero\n      tag_504\n      jumpi\n      tag_506\n      jumpi\n        /* \"contracts/ArbOptimizer.sol\":14376:14526  if (balance > 0) {... */\n    tag_507:\n        /* \"contracts/ArbOptimizer.sol\":1772:17949  contract ArbOptimizer is Ownable, ReentrancyGuard, Pausable {... */\n      pop\n      pop\n      dup8\n      mload\n      swap2\n      dup3\n      mstore\n      0x00\n      dup1\n      mload\n      0x20\n      data_084f00436a29ddf9fe96da3f0df8ffde36506fc292725425a43a4251d44f1f53\n      dup4\n      codecopy\n      dup2\n      mload\n      swap2\n      mstore\n        /* \"contracts/ArbOptimizer.sol\":14431:14441  msg.sender */\n      dup10\n      caller\n        /* \"contracts/ArbOptimizer.sol\":14471:14514  ProfitWithdrawn(token, balance, msg.sender) */\n      swap4\n      log3\n        /* \"contracts/ArbOptimizer.sol\":14376:14526  if (balance > 0) {... */\n      dup9\n      dup1\n      dup1\n      jump(tag_471)\n        /* \"contracts/ArbOptimizer.sol\":14408:14451  IERC20(token).transfer(msg.sender, balance) */\n    tag_506:\n      dup11\n      dup3\n      dup2\n      returndatasize\n      dup4\n      gt\n      tag_508\n      jumpi\n    tag_509:\n      tag_510\n      dup2\n      dup4\n      tag_6\n      jump\t// in\n    tag_510:\n      dup2\n      add\n        /* \"contracts/ArbOptimizer.sol\":1772:17949  contract ArbOptimizer is Ownable, ReentrancyGuard, Pausable {... */\n      sub\n      slt\n      tag_197\n      jumpi\n      pop\n      tag_513\n      swap1\n      tag_11\n      jump\t// in\n    tag_513:\n      pop\n        /* \"contracts/ArbOptimizer.sol\":14408:14451  IERC20(token).transfer(msg.sender, balance) */\n      dup11\n      dup1\n      jump(tag_507)\n    tag_508:\n      pop\n      returndatasize\n      jump(tag_509)\n    tag_504:\n        /* \"contracts/ArbOptimizer.sol\":1772:17949  contract ArbOptimizer is Ownable, ReentrancyGuard, Pausable {... */\n      pop\n      dup10\n      mload\n        /* \"contracts/ArbOptimizer.sol\":3532:3597  AggregatorV3Interface(0x5f4eC3Df9cbd43714FE2740f5E3616155c5b8419) */\n      swap1\n      returndatasize\n      swap1\n      dup3\n      returndatacopy\n      returndatasize\n      swap1\n      revert\n        /* \"contracts/ArbOptimizer.sol\":14327:14365  IERC20(token).balanceOf(address(this)) */\n    tag_468:\n      swap1\n      swap3\n      pop\n      dup10\n      dup2\n      dup2\n      returndatasize\n      dup4\n      gt\n      tag_514\n      jumpi\n    tag_515:\n      tag_516\n      dup2\n      dup4\n      tag_6\n      jump\t// in\n    tag_516:\n      dup2\n      add\n        /* \"contracts/ArbOptimizer.sol\":1772:17949  contract ArbOptimizer is Ownable, ReentrancyGuard, Pausable {... */\n      sub\n      slt\n      tag_171\n      jumpi\n        /* \"contracts/ArbOptimizer.sol\":3532:3597  AggregatorV3Interface(0x5f4eC3Df9cbd43714FE2740f5E3616155c5b8419) */\n      mload\n        /* \"contracts/ArbOptimizer.sol\":14327:14365  IERC20(token).balanceOf(address(this)) */\n      swap2\n      dup12\n      jump(tag_469)\n    tag_514:\n      pop\n      returndatasize\n      jump(tag_515)\n    tag_466:\n        /* \"contracts/ArbOptimizer.sol\":1772:17949  contract ArbOptimizer is Ownable, ReentrancyGuard, Pausable {... */\n      pop\n      dup9\n      mload\n        /* \"contracts/ArbOptimizer.sol\":3532:3597  AggregatorV3Interface(0x5f4eC3Df9cbd43714FE2740f5E3616155c5b8419) */\n      swap1\n      returndatasize\n      swap1\n      dup3\n      returndatacopy\n      returndatasize\n      swap1\n      revert\n        /* \"contracts/ArbOptimizer.sol\":14255:14287  arbExec.emergencyWithdraw(token) */\n    tag_464:\n      tag_519\n      swap1\n      tag_5\n      jump\t// in\n    tag_519:\n      dup11\n      jump(tag_465)\n        /* \"contracts/ArbOptimizer.sol\":14376:14526  if (balance > 0) {... */\n    tag_460:\n        /* \"contracts/ArbOptimizer.sol\":1772:17949  contract ArbOptimizer is Ownable, ReentrancyGuard, Pausable {... */\n      dup9\n      mload\n      shl(0xe0, 0xa9059cbb)\n        /* \"contracts/ArbOptimizer.sol\":14408:14451  IERC20(token).transfer(msg.sender, balance) */\n      dup2\n      mstore\n        /* \"contracts/ArbOptimizer.sol\":14431:14441  msg.sender */\n      caller\n        /* \"contracts/ArbOptimizer.sol\":14408:14451  IERC20(token).transfer(msg.sender, balance) */\n      dup8\n      dup3\n      add\n        /* \"contracts/ArbOptimizer.sol\":1772:17949  contract ArbOptimizer is Ownable, ReentrancyGuard, Pausable {... */\n      swap1\n      dup2\n      mstore\n      0x20\n      dup2\n      add\n      dup6\n      swap1\n      mstore\n      swap1\n      swap2\n        /* \"contracts/ArbOptimizer.sol\":3532:3597  AggregatorV3Interface(0x5f4eC3Df9cbd43714FE2740f5E3616155c5b8419) */\n      swap1\n        /* \"contracts/ArbOptimizer.sol\":14431:14441  msg.sender */\n      dup12\n      swap1\n        /* \"contracts/ArbOptimizer.sol\":1772:17949  contract ArbOptimizer is Ownable, ReentrancyGuard, Pausable {... */\n      dup4\n      swap1\n      dup2\n      swap1\n      0x40\n      add\n        /* \"contracts/ArbOptimizer.sol\":14408:14451  IERC20(token).transfer(msg.sender, balance) */\n      sub\n      dup2\n      dup5\n      dup8\n      gas\n      call\n      dup1\n      iszero\n      tag_504\n      jumpi\n      tag_523\n      jumpi\n        /* \"contracts/ArbOptimizer.sol\":14376:14526  if (balance > 0) {... */\n    tag_524:\n        /* \"contracts/ArbOptimizer.sol\":1772:17949  contract ArbOptimizer is Ownable, ReentrancyGuard, Pausable {... */\n      pop\n      pop\n      dup8\n      mload\n      swap2\n      dup3\n      mstore\n      0x00\n      dup1\n      mload\n      0x20\n      data_084f00436a29ddf9fe96da3f0df8ffde36506fc292725425a43a4251d44f1f53\n      dup4\n      codecopy\n      dup2\n      mload\n      swap2\n      mstore\n        /* \"contracts/ArbOptimizer.sol\":14431:14441  msg.sender */\n      dup10\n      caller\n        /* \"contracts/ArbOptimizer.sol\":14471:14514  ProfitWithdrawn(token, balance, msg.sender) */\n      swap4\n      log3\n        /* \"contracts/ArbOptimizer.sol\":14376:14526  if (balance > 0) {... */\n      dup9\n      dup1\n      dup1\n      jump(tag_461)\n        /* \"contracts/ArbOptimizer.sol\":14408:14451  IERC20(token).transfer(msg.sender, balance) */\n    tag_523:\n      dup11\n      dup3\n      dup2\n      returndatasize\n      dup4\n      gt\n      tag_525\n      jumpi\n    tag_526:\n      tag_527\n      dup2\n      dup4\n      tag_6\n      jump\t// in\n    tag_527:\n      dup2\n      add\n        /* \"contracts/ArbOptimizer.sol\":1772:17949  contract ArbOptimizer is Ownable, ReentrancyGuard, Pausable {... */\n      sub\n      slt\n      tag_197\n      jumpi\n      pop\n      tag_530\n      swap1\n      tag_11\n      jump\t// in\n    tag_530:\n      pop\n        /* \"contracts/ArbOptimizer.sol\":14408:14451  IERC20(token).transfer(msg.sender, balance) */\n      dup11\n      dup1\n      jump(tag_524)\n    tag_525:\n      pop\n      returndatasize\n      jump(tag_526)\n        /* \"contracts/ArbOptimizer.sol\":14327:14365  IERC20(token).balanceOf(address(this)) */\n    tag_458:\n      swap1\n      swap3\n      pop\n      dup10\n      dup2\n      dup2\n      returndatasize\n      dup4\n      gt\n      tag_531\n      jumpi\n    tag_532:\n      tag_533\n      dup2\n      dup4\n      tag_6\n      jump\t// in\n    tag_533:\n      dup2\n      add\n        /* \"contracts/ArbOptimizer.sol\":1772:17949  contract ArbOptimizer is Ownable, ReentrancyGuard, Pausable {... */\n      sub\n      slt\n      tag_171\n      jumpi\n        /* \"contracts/ArbOptimizer.sol\":3532:3597  AggregatorV3Interface(0x5f4eC3Df9cbd43714FE2740f5E3616155c5b8419) */\n      mload\n        /* \"contracts/ArbOptimizer.sol\":14327:14365  IERC20(token).balanceOf(address(this)) */\n      swap2\n      dup12\n      jump(tag_459)\n    tag_531:\n      pop\n      returndatasize\n      jump(tag_532)\n        /* \"contracts/ArbOptimizer.sol\":14255:14287  arbExec.emergencyWithdraw(token) */\n    tag_454:\n      tag_536\n      swap1\n      tag_5\n      jump\t// in\n    tag_536:\n      dup11\n      jump(tag_455)\n        /* \"contracts/ArbOptimizer.sol\":14376:14526  if (balance > 0) {... */\n    tag_450:\n        /* \"contracts/ArbOptimizer.sol\":1772:17949  contract ArbOptimizer is Ownable, ReentrancyGuard, Pausable {... */\n      dup9\n      mload\n      shl(0xe0, 0xa9059cbb)\n        /* \"contracts/ArbOptimizer.sol\":14408:14451  IERC20(token).transfer(msg.sender, balance) */\n      dup2\n      mstore\n        /* \"contracts/ArbOptimizer.sol\":14431:14441  msg.sender */\n      caller\n        /* \"contracts/ArbOptimizer.sol\":14408:14451  IERC20(token).transfer(msg.sender, balance) */\n      dup8\n      dup3\n      add\n        /* \"contracts/ArbOptimizer.sol\":1772:17949  contract ArbOptimizer is Ownable, ReentrancyGuard, Pausable {... */\n      swap1\n      dup2\n      mstore\n      0x20\n      dup2\n      add\n      dup6\n      swap1\n      mstore\n      swap1\n      swap2\n        /* \"contracts/ArbOptimizer.sol\":3532:3597  AggregatorV3Interface(0x5f4eC3Df9cbd43714FE2740f5E3616155c5b8419) */\n      swap1\n        /* \"contracts/ArbOptimizer.sol\":14431:14441  msg.sender */\n      dup12\n      swap1\n        /* \"contracts/ArbOptimizer.sol\":1772:17949  contract ArbOptimizer is Ownable, ReentrancyGuard, Pausable {... */\n      dup4\n      swap1\n      dup2\n      swap1\n      0x40\n      add\n        /* \"contracts/ArbOptimizer.sol\":14408:14451  IERC20(token).transfer(msg.sender, balance) */\n      sub\n      dup2\n      dup5\n      dup8\n      gas\n      call\n      dup1\n      iszero\n      tag_504\n      jumpi\n      tag_540\n      jumpi\n        /* \"contracts/ArbOptimizer.sol\":14376:14526  if (balance > 0) {... */\n    tag_541:\n        /* \"contracts/ArbOptimizer.sol\":1772:17949  contract ArbOptimizer is Ownable, ReentrancyGuard, Pausable {... */\n      pop\n      pop\n      dup8\n      mload\n      swap2\n      dup3\n      mstore\n      0x00\n      dup1\n      mload\n      0x20\n      data_084f00436a29ddf9fe96da3f0df8ffde36506fc292725425a43a4251d44f1f53\n      dup4\n      codecopy\n      dup2\n      mload\n      swap2\n      mstore\n        /* \"contracts/ArbOptimizer.sol\":14431:14441  msg.sender */\n      dup10\n      caller\n        /* \"contracts/ArbOptimizer.sol\":14471:14514  ProfitWithdrawn(token, balance, msg.sender) */\n      swap4\n      log3\n        /* \"contracts/ArbOptimizer.sol\":14376:14526  if (balance > 0) {... */\n      dup9\n      dup1\n      dup1\n      jump(tag_451)\n        /* \"contracts/ArbOptimizer.sol\":14408:14451  IERC20(token).transfer(msg.sender, balance) */\n    tag_540:\n      dup11\n      dup3\n      dup2\n      returndatasize\n      dup4\n      gt\n      tag_542\n      jumpi\n    tag_543:\n      tag_544\n      dup2\n      dup4\n      tag_6\n      jump\t// in\n    tag_544:\n      dup2\n      add\n        /* \"contracts/ArbOptimizer.sol\":1772:17949  contract ArbOptimizer is Ownable, ReentrancyGuard, Pausable {... */\n      sub\n      slt\n      tag_197\n      jumpi\n      pop\n      tag_547\n      swap1\n      tag_11\n      jump\t// in\n    tag_547:\n      pop\n        /* \"contracts/ArbOptimizer.sol\":14408:14451  IERC20(token).transfer(msg.sender, balance) */\n      dup11\n      dup1\n      jump(tag_541)\n    tag_542:\n      pop\n      returndatasize\n      jump(tag_543)\n        /* \"contracts/ArbOptimizer.sol\":14327:14365  IERC20(token).balanceOf(address(this)) */\n    tag_448:\n      swap1\n      swap3\n      pop\n      dup10\n      dup2\n      dup2\n      returndatasize\n      dup4\n      gt\n      tag_548\n      jumpi\n    tag_549:\n      tag_550\n      dup2\n      dup4\n      tag_6\n      jump\t// in\n    tag_550:\n      dup2\n      add\n        /* \"contracts/ArbOptimizer.sol\":1772:17949  contract ArbOptimizer is Ownable, ReentrancyGuard, Pausable {... */\n      sub\n      slt\n      tag_171\n      jumpi\n        /* \"contracts/ArbOptimizer.sol\":3532:3597  AggregatorV3Interface(0x5f4eC3Df9cbd43714FE2740f5E3616155c5b8419) */\n      mload\n        /* \"contracts/ArbOptimizer.sol\":14327:14365  IERC20(token).balanceOf(address(this)) */\n      swap2\n      dup12\n      jump(tag_449)\n    tag_548:\n      pop\n      returndatasize\n      jump(tag_549)\n        /* \"contracts/ArbOptimizer.sol\":14255:14287  arbExec.emergencyWithdraw(token) */\n    tag_444:\n      tag_553\n      swap1\n      swap8\n      swap2\n      swap8\n      tag_5\n      jump\t// in\n    tag_553:\n      swap6\n      dup9\n      jump(tag_445)\n        /* \"contracts/ArbOptimizer.sol\":1772:17949  contract ArbOptimizer is Ownable, ReentrancyGuard, Pausable {... */\n    tag_56:\n      dup3\n      dup5\n      jumpi(tag_98, callvalue)\n      dup2\n      add(calldatasize, not(0x03))\n      slt\n      tag_98\n      jumpi\n      0x20\n        /* \"@openzeppelin/contracts/security/Pausable.sol\":2274:2294  Paused(_msgSender()) */\n      0x62e78cea01bee320cd4e420270b5ea74000d11b0c9f74754ebdbfc544b05a258\n        /* \"@openzeppelin/contracts/access/Ownable.sol\":1500:1562  modifier onlyOwner() {... */\n      swap2\n      tag_558\n      tag_4\n      jump\t// in\n    tag_558:\n        /* \"@openzeppelin/contracts/security/Pausable.sol\":1204:1276  modifier whenNotPaused() {... */\n      tag_559\n      tag_15\n      jump\t// in\n    tag_559:\n        /* \"@openzeppelin/contracts/security/Pausable.sol\":2255:2259  true */\n      0x01\n        /* \"contracts/ArbOptimizer.sol\":1772:17949  contract ArbOptimizer is Ownable, ReentrancyGuard, Pausable {... */\n      not(0xff)\n        /* \"@openzeppelin/contracts/security/Pausable.sol\":2245:2259  _paused = true */\n      0x02\n        /* \"contracts/ArbOptimizer.sol\":1772:17949  contract ArbOptimizer is Ownable, ReentrancyGuard, Pausable {... */\n      sload\n      and\n      or\n        /* \"@openzeppelin/contracts/security/Pausable.sol\":2245:2259  _paused = true */\n      0x02\n        /* \"contracts/ArbOptimizer.sol\":1772:17949  contract ArbOptimizer is Ownable, ReentrancyGuard, Pausable {... */\n      sstore\n      mload\n        /* \"@openzeppelin/contracts/utils/Context.sol\":735:745  msg.sender */\n      caller\n        /* \"contracts/ArbOptimizer.sol\":1772:17949  contract ArbOptimizer is Ownable, ReentrancyGuard, Pausable {... */\n      dup2\n      mstore\n        /* \"@openzeppelin/contracts/security/Pausable.sol\":2274:2294  Paused(_msgSender()) */\n      log1\n        /* \"contracts/ArbOptimizer.sol\":1772:17949  contract ArbOptimizer is Ownable, ReentrancyGuard, Pausable {... */\n      dup1\n      return\n    tag_54:\n      dup3\n      dup5\n      jumpi(tag_98, callvalue)\n      dup2\n      add(calldatasize, not(0x03))\n      slt\n      tag_98\n      jumpi\n      0x20\n      swap1\n        /* \"contracts/ArbOptimizer.sol\":4515:4547  uint256 public lastExecutionTime */\n      0x08\n        /* \"contracts/ArbOptimizer.sol\":1772:17949  contract ArbOptimizer is Ownable, ReentrancyGuard, Pausable {... */\n      sload\n      swap1\n      mload\n      swap1\n      dup2\n      mstore\n      return\n    tag_52:\n      pop\n      swap1\n      jumpi(tag_197, callvalue)\n      0x20\n      swap3\n      dup4\n      add(calldatasize, not(0x03))\n      slt\n      tag_98\n      jumpi\n        /* \"contracts/ArbOptimizer.sol\":7498:7505  arbExec */\n      0x02\n        /* \"contracts/ArbOptimizer.sol\":1772:17949  contract ArbOptimizer is Ownable, ReentrancyGuard, Pausable {... */\n      sload\n      dup2\n      mload\n      shl(0xe0, 0x32252057)\n        /* \"contracts/ArbOptimizer.sol\":7498:7521  arbExec.getRouteCount() */\n      dup2\n      mstore\n        /* \"contracts/ArbOptimizer.sol\":1772:17949  contract ArbOptimizer is Ownable, ReentrancyGuard, Pausable {... */\n      dup5\n      calldataload\n      swap6\n      swap1\n      swap5\n      swap4\n      swap3\n      swap2\n      dup2\n      swap1\n      dup7\n      swap1\n      dup7\n      swap1\n      dup3\n      swap1\n      0x08\n      shr\n      sub(shl(0xa0, 0x01), 0x01)\n      and\n        /* \"contracts/ArbOptimizer.sol\":7498:7521  arbExec.getRouteCount() */\n      gas\n      staticcall\n      swap5\n      dup6\n      iszero\n      tag_568\n      jumpi\n      dup4\n      swap6\n      tag_570\n      jumpi\n        /* \"contracts/ArbOptimizer.sol\":1772:17949  contract ArbOptimizer is Ownable, ReentrancyGuard, Pausable {... */\n    tag_571:\n        /* \"contracts/ArbOptimizer.sol\":7540:7554  routeCount > 0 */\n      pop\n      dup5\n      iszero\n        /* \"contracts/ArbOptimizer.sol\":1772:17949  contract ArbOptimizer is Ownable, ReentrancyGuard, Pausable {... */\n      tag_572\n      jumpi\n      pop\n        /* \"contracts/ArbOptimizer.sol\":7589:7663  require(flashLoanAmount >= minFlashLoanAmount, \"Below minimum flash loan\") */\n      tag_574\n        /* \"contracts/ArbOptimizer.sol\":1772:17949  contract ArbOptimizer is Ownable, ReentrancyGuard, Pausable {... */\n      sload(0x03)\n        /* \"contracts/ArbOptimizer.sol\":7597:7634  flashLoanAmount >= minFlashLoanAmount */\n      dup7\n      lt\n      iszero\n        /* \"contracts/ArbOptimizer.sol\":7589:7663  require(flashLoanAmount >= minFlashLoanAmount, \"Below minimum flash loan\") */\n      tag_8\n      jump\t// in\n    tag_574:\n        /* \"contracts/ArbOptimizer.sol\":7674:7750  require(flashLoanAmount <= maxFlashLoanAmount, \"Exceeds maximum flash loan\") */\n      tag_575\n        /* \"contracts/ArbOptimizer.sol\":1772:17949  contract ArbOptimizer is Ownable, ReentrancyGuard, Pausable {... */\n      dup4\n      sload\n        /* \"contracts/ArbOptimizer.sol\":7682:7719  flashLoanAmount <= maxFlashLoanAmount */\n      dup7\n      gt\n      iszero\n        /* \"contracts/ArbOptimizer.sol\":7674:7750  require(flashLoanAmount <= maxFlashLoanAmount, \"Exceeds maximum flash loan\") */\n      tag_9\n      jump\t// in\n    tag_575:\n        /* \"contracts/ArbOptimizer.sol\":7763:7780  highestProfit = 0 */\n      dup2\n        /* \"contracts/ArbOptimizer.sol\":7791:7809  bestRouteIndex = 0 */\n      swap4\n      dup3\n        /* \"contracts/ArbOptimizer.sol\":7820:7840  isProfitable = false */\n      swap4\n      dup4\n        /* \"contracts/ArbOptimizer.sol\":7858:7871  uint256 i = 0 */\n      dup1\n        /* \"contracts/ArbOptimizer.sol\":7873:7887  i < routeCount */\n    tag_576:\n      dup4\n      dup2\n      lt\n      tag_577\n      jumpi\n        /* \"contracts/ArbOptimizer.sol\":1772:17949  contract ArbOptimizer is Ownable, ReentrancyGuard, Pausable {... */\n      dup5\n      mload\n      dup8\n      dup2\n      mstore\n      0x20\n      dup2\n      add\n      dup10\n      swap1\n      mstore\n      dup7\n      iszero\n      iszero\n      0x40\n      dup3\n      add\n      mstore\n      0x60\n      swap1\n      return\n        /* \"contracts/ArbOptimizer.sol\":7889:7892  i++ */\n    tag_577:\n        /* \"contracts/ArbOptimizer.sol\":1772:17949  contract ArbOptimizer is Ownable, ReentrancyGuard, Pausable {... */\n      dup5\n      mload\n        /* \"contracts/ArbOptimizer.sol\":3532:3597  AggregatorV3Interface(0x5f4eC3Df9cbd43714FE2740f5E3616155c5b8419) */\n      shl(0xe0, 0x9517ed85)\n        /* \"contracts/ArbOptimizer.sol\":7913:7950  this.analyzeRoute(i, flashLoanAmount) */\n      dup2\n      mstore\n      dup2\n      dup5\n      dup3\n      add\n        /* \"contracts/ArbOptimizer.sol\":1772:17949  contract ArbOptimizer is Ownable, ReentrancyGuard, Pausable {... */\n      mstore\n      dup10\n      0x24\n      dup3\n      add\n      mstore\n        /* \"contracts/ArbOptimizer.sol\":7913:7917  this */\n      dup6\n      dup2\n        /* \"contracts/ArbOptimizer.sol\":1772:17949  contract ArbOptimizer is Ownable, ReentrancyGuard, Pausable {... */\n      0x44\n        /* \"contracts/ArbOptimizer.sol\":7913:7917  this */\n      dup2\n      dup7\n      address\n        /* \"contracts/ArbOptimizer.sol\":7913:7950  this.analyzeRoute(i, flashLoanAmount) */\n      gas\n      call\n      swap1\n      dup2\n      dup5\n      swap2\n      dup6\n      swap4\n      tag_580\n      jumpi\n        /* \"contracts/ArbOptimizer.sol\":7889:7892  i++ */\n    tag_581:\n      pop\n        /* \"contracts/ArbOptimizer.sol\":7909:8308  try this.analyzeRoute(i, flashLoanAmount) returns (... */\n      tag_582\n      jumpi\n        /* \"contracts/ArbOptimizer.sol\":8284:8292  continue */\n      pop\n      pop\n        /* \"contracts/ArbOptimizer.sol\":7889:7892  i++ */\n      tag_584\n        /* \"contracts/ArbOptimizer.sol\":8284:8292  continue */\n      swap1\n        /* \"contracts/ArbOptimizer.sol\":7889:7892  i++ */\n      tag_13\n      jump\t// in\n    tag_584:\n        /* \"contracts/ArbOptimizer.sol\":7858:7871  uint256 i = 0 */\n      jump(tag_576)\n        /* \"contracts/ArbOptimizer.sol\":7909:8308  try this.analyzeRoute(i, flashLoanAmount) returns (... */\n    tag_582:\n        /* \"contracts/ArbOptimizer.sol\":8065:8087  profit > highestProfit */\n      dup10\n      dup2\n      gt\n        /* \"contracts/ArbOptimizer.sol\":8061:8243  if (profit > highestProfit) {... */\n      tag_586\n      jumpi\n        /* \"contracts/ArbOptimizer.sol\":7909:8308  try this.analyzeRoute(i, flashLoanAmount) returns (... */\n    tag_587:\n      pop\n      pop\n        /* \"contracts/ArbOptimizer.sol\":7889:7892  i++ */\n      tag_584\n        /* \"contracts/ArbOptimizer.sol\":7909:8308  try this.analyzeRoute(i, flashLoanAmount) returns (... */\n      swap1\n        /* \"contracts/ArbOptimizer.sol\":7889:7892  i++ */\n      tag_13\n      jump\t// in\n        /* \"contracts/ArbOptimizer.sol\":8061:8243  if (profit > highestProfit) {... */\n    tag_586:\n        /* \"contracts/ArbOptimizer.sol\":8112:8134  highestProfit = profit */\n      swap9\n      pop\n      swap1\n      swap7\n      pop\n      swap5\n      pop\n      dup6\n        /* \"contracts/ArbOptimizer.sol\":7889:7892  i++ */\n      tag_584\n        /* \"contracts/ArbOptimizer.sol\":8061:8243  if (profit > highestProfit) {... */\n      0x00\n      jump(tag_587)\n        /* \"contracts/ArbOptimizer.sol\":7913:7950  this.analyzeRoute(i, flashLoanAmount) */\n    tag_580:\n      swap1\n      swap3\n      pop\n      tag_588\n      swap2\n      pop\n      dup8\n      returndatasize\n      dup10\n      gt\n      tag_343\n      jumpi\n      tag_345\n      dup2\n      dup4\n      tag_6\n      jump\t// in\n    tag_588:\n      swap2\n      0x00\n      jump(tag_581)\n        /* \"contracts/ArbOptimizer.sol\":1772:17949  contract ArbOptimizer is Ownable, ReentrancyGuard, Pausable {... */\n    tag_572:\n      dup4\n      swap1\n      0x64\n      swap3\n      mload\n      swap2\n      shl(0xe5, 0x461bcd)\n      dup4\n      mstore\n      dup3\n      add\n      mstore\n      0x13\n      0x24\n      dup3\n      add\n      mstore\n      shl(0x68, 0x4e6f20726f7574657320617661696c61626c65)\n      0x44\n      dup3\n      add\n      mstore\n      revert\n        /* \"contracts/ArbOptimizer.sol\":7498:7521  arbExec.getRouteCount() */\n    tag_570:\n      swap1\n      dup1\n      swap6\n      pop\n      dup2\n      dup2\n      returndatasize\n      dup4\n      gt\n      tag_592\n      jumpi\n    tag_593:\n      tag_594\n      dup2\n      dup4\n      tag_6\n      jump\t// in\n    tag_594:\n      dup2\n      add\n        /* \"contracts/ArbOptimizer.sol\":1772:17949  contract ArbOptimizer is Ownable, ReentrancyGuard, Pausable {... */\n      sub\n      slt\n      tag_171\n      jumpi\n        /* \"contracts/ArbOptimizer.sol\":3532:3597  AggregatorV3Interface(0x5f4eC3Df9cbd43714FE2740f5E3616155c5b8419) */\n      mload\n        /* \"contracts/ArbOptimizer.sol\":7498:7521  arbExec.getRouteCount() */\n      swap4\n      0x00\n      jump(tag_571)\n    tag_592:\n      pop\n      returndatasize\n      jump(tag_593)\n    tag_568:\n        /* \"contracts/ArbOptimizer.sol\":1772:17949  contract ArbOptimizer is Ownable, ReentrancyGuard, Pausable {... */\n      pop\n      pop\n      mload\n        /* \"contracts/ArbOptimizer.sol\":3532:3597  AggregatorV3Interface(0x5f4eC3Df9cbd43714FE2740f5E3616155c5b8419) */\n      swap1\n      returndatasize\n      swap1\n      dup3\n      returndatacopy\n      returndatasize\n      swap1\n      revert\n        /* \"contracts/ArbOptimizer.sol\":1772:17949  contract ArbOptimizer is Ownable, ReentrancyGuard, Pausable {... */\n    tag_50:\n      dup3\n      jumpi(tag_197, callvalue)\n      dup1\n      add(calldatasize, not(0x03))\n      slt\n      tag_197\n      jumpi\n        /* \"@openzeppelin/contracts/access/Ownable.sol\":1500:1562  modifier onlyOwner() {... */\n      tag_601\n      tag_4\n      jump\t// in\n    tag_601:\n        /* \"contracts/ArbOptimizer.sol\":1772:17949  contract ArbOptimizer is Ownable, ReentrancyGuard, Pausable {... */\n      0x00\n      dup1\n      sload\n      not(sub(shl(0xa0, 0x01), 0x01))\n      dup2\n      and\n      dup3\n      sstore\n      sub(shl(0xa0, 0x01), 0x01)\n      and\n        /* \"@openzeppelin/contracts/access/Ownable.sol\":3052:3092  OwnershipTransferred(oldOwner, newOwner) */\n      0x8be0079c531659141344cd1fd0a4f28419497f9722a3daafe3b4186f6b6457e0\n        /* \"contracts/ArbOptimizer.sol\":1772:17949  contract ArbOptimizer is Ownable, ReentrancyGuard, Pausable {... */\n      dup3\n      dup1\n        /* \"@openzeppelin/contracts/access/Ownable.sol\":3052:3092  OwnershipTransferred(oldOwner, newOwner) */\n      log3\n        /* \"contracts/ArbOptimizer.sol\":1772:17949  contract ArbOptimizer is Ownable, ReentrancyGuard, Pausable {... */\n      dup1\n      return\n    tag_48:\n      dup3\n      dup5\n      jumpi(tag_98, callvalue)\n      dup2\n      add(calldatasize, not(0x03))\n      slt\n      tag_98\n      jumpi\n      mload\n        /* \"contracts/ArbOptimizer.sol\":17227:17248  address(this).balance */\n      selfbalance\n        /* \"contracts/ArbOptimizer.sol\":1772:17949  contract ArbOptimizer is Ownable, ReentrancyGuard, Pausable {... */\n      dup2\n      mstore\n      0x20\n      swap1\n      return\n    tag_46:\n      dup3\n      dup5\n      jumpi(tag_98, callvalue)\n      dup2\n      add(calldatasize, not(0x03))\n      slt\n      tag_98\n      jumpi\n      0x20\n      swap1\n      sload(0x03)\n      swap1\n      mload\n      swap1\n      dup2\n      mstore\n      return\n    tag_44:\n      dup3\n      dup5\n      jumpi(tag_98, callvalue)\n      dup2\n      add(calldatasize, not(0x03))\n      slt\n      tag_98\n      jumpi\n      0x20\n      swap1\n      0xff\n        /* \"@openzeppelin/contracts/security/Pausable.sol\":1685:1692  _paused */\n      0x02\n        /* \"contracts/ArbOptimizer.sol\":1772:17949  contract ArbOptimizer is Ownable, ReentrancyGuard, Pausable {... */\n      sload\n      and\n      swap1\n      mload\n      swap1\n      iszero\n      iszero\n      dup2\n      mstore\n      return\n    tag_42:\n      pop\n      dup3\n      swap1\n      jumpi(tag_109, callvalue)\n      dup3\n      add(calldatasize, not(0x03))\n      slt\n      tag_109\n      jumpi\n        /* \"@openzeppelin/contracts/security/ReentrancyGuard.sol\":2227:2330  modifier nonReentrant() {... */\n      tag_618\n      tag_16\n      jump\t// in\n    tag_618:\n        /* \"@openzeppelin/contracts/access/Ownable.sol\":1500:1562  modifier onlyOwner() {... */\n      tag_619\n      tag_4\n      jump\t// in\n    tag_619:\n        /* \"contracts/ArbOptimizer.sol\":10940:10947  arbExec */\n      0x02\n        /* \"contracts/ArbOptimizer.sol\":1772:17949  contract ArbOptimizer is Ownable, ReentrancyGuard, Pausable {... */\n      sload\n      0x08\n      shr\n      sub(shl(0xa0, 0x01), 0x01)\n      and\n      swap1\n        /* \"contracts/ArbOptimizer.sol\":10940:10971  arbExec.emergencyWithdraw(WETH) */\n      dup2\n      extcodesize\n      iszero\n      tag_174\n      jumpi\n        /* \"contracts/ArbOptimizer.sol\":1772:17949  contract ArbOptimizer is Ownable, ReentrancyGuard, Pausable {... */\n      dup4\n      dup4\n      mload\n        /* \"contracts/ArbOptimizer.sol\":3532:3597  AggregatorV3Interface(0x5f4eC3Df9cbd43714FE2740f5E3616155c5b8419) */\n      shl(0xe2, 0x1bfc726f)\n        /* \"contracts/ArbOptimizer.sol\":10940:10971  arbExec.emergencyWithdraw(WETH) */\n      dup2\n      mstore\n        /* \"contracts/ArbOptimizer.sol\":2081:2123  0xC02aaA39b223FE8D0A0e5C4F27eAD9083C756Cc2 */\n      dup2\n      dup2\n        /* \"contracts/ArbOptimizer.sol\":1772:17949  contract ArbOptimizer is Ownable, ReentrancyGuard, Pausable {... */\n      0x24\n        /* \"contracts/ArbOptimizer.sol\":2081:2123  0xC02aaA39b223FE8D0A0e5C4F27eAD9083C756Cc2 */\n      dup2\n      dup4\n      0xc02aaa39b223fe8d0a0e5c4f27ead9083c756cc2\n        /* \"contracts/ArbOptimizer.sol\":10940:10971  arbExec.emergencyWithdraw(WETH) */\n      swap9\n      dup10\n      dup10\n      dup5\n      add\n        /* \"contracts/ArbOptimizer.sol\":1772:17949  contract ArbOptimizer is Ownable, ReentrancyGuard, Pausable {... */\n      mstore\n        /* \"contracts/ArbOptimizer.sol\":10940:10971  arbExec.emergencyWithdraw(WETH) */\n      gas\n      call\n      dup1\n      iszero\n      tag_147\n      jumpi\n      tag_149\n      jumpi\n      pop\n      pop\n        /* \"contracts/ArbOptimizer.sol\":1772:17949  contract ArbOptimizer is Ownable, ReentrancyGuard, Pausable {... */\n      dup3\n      mload\n      shl(0xe0, 0x70a08231)\n        /* \"contracts/ArbOptimizer.sol\":11000:11037  IERC20(WETH).balanceOf(address(this)) */\n      dup2\n      mstore\n        /* \"contracts/ArbOptimizer.sol\":11031:11035  this */\n      address\n        /* \"contracts/ArbOptimizer.sol\":11000:11037  IERC20(WETH).balanceOf(address(this)) */\n      dup3\n      dup3\n      add\n        /* \"contracts/ArbOptimizer.sol\":1772:17949  contract ArbOptimizer is Ownable, ReentrancyGuard, Pausable {... */\n      mstore\n      swap3\n      0x20\n      swap1\n      dup2\n      dup6\n      0x24\n      dup2\n        /* \"contracts/ArbOptimizer.sol\":11000:11037  IERC20(WETH).balanceOf(address(this)) */\n      dup8\n      gas\n      staticcall\n      swap5\n      dup6\n      iszero\n      tag_158\n      jumpi\n      dup7\n      swap6\n      tag_153\n      jumpi\n        /* \"contracts/ArbOptimizer.sol\":11052:11063  balance > 0 */\n      pop\n      dup5\n        /* \"contracts/ArbOptimizer.sol\":11048:11196  if (balance > 0) {... */\n      tag_155\n      jumpi\n        /* \"contracts/ArbOptimizer.sol\":2081:2123  0xC02aaA39b223FE8D0A0e5C4F27eAD9083C756Cc2 */\n      dup6\n        /* \"contracts/ArbOptimizer.sol\":1772:17949  contract ArbOptimizer is Ownable, ReentrancyGuard, Pausable {... */\n      0x01\n        /* \"contracts/ArbOptimizer.sol\":2081:2123  0xC02aaA39b223FE8D0A0e5C4F27eAD9083C756Cc2 */\n      dup1\n      sstore\n        /* \"contracts/ArbOptimizer.sol\":1772:17949  contract ArbOptimizer is Ownable, ReentrancyGuard, Pausable {... */\n      dup1\n      return\n    tag_40:\n      pop\n      dup3\n      swap1\n      jumpi(tag_109, callvalue)\n      dup3\n      add(calldatasize, not(0x03))\n      slt\n      tag_109\n      jumpi\n        /* \"@openzeppelin/contracts/access/Ownable.sol\":1500:1562  modifier onlyOwner() {... */\n      tag_655\n      tag_4\n      jump\t// in\n    tag_655:\n        /* \"@openzeppelin/contracts/security/Pausable.sol\":1685:1692  _paused */\n      0x02\n        /* \"contracts/ArbOptimizer.sol\":1772:17949  contract ArbOptimizer is Ownable, ReentrancyGuard, Pausable {... */\n      sload\n      swap1\n      0xff\n      dup3\n      and\n      iszero\n      tag_656\n      jumpi\n      pop\n      not(0xff)\n      and\n        /* \"@openzeppelin/contracts/security/Pausable.sol\":1685:1692  _paused */\n      0x02\n        /* \"contracts/ArbOptimizer.sol\":1772:17949  contract ArbOptimizer is Ownable, ReentrancyGuard, Pausable {... */\n      sstore\n      mload\n        /* \"@openzeppelin/contracts/utils/Context.sol\":735:745  msg.sender */\n      caller\n        /* \"contracts/ArbOptimizer.sol\":1772:17949  contract ArbOptimizer is Ownable, ReentrancyGuard, Pausable {... */\n      dup2\n      mstore\n        /* \"@openzeppelin/contracts/security/Pausable.sol\":2521:2543  Unpaused(_msgSender()) */\n      0x5db9ee0a495bf2e6ff9c91a7834c1ba4fdd244a5e8aa4e537bd38aeae4b073aa\n      swap1\n        /* \"contracts/ArbOptimizer.sol\":1772:17949  contract ArbOptimizer is Ownable, ReentrancyGuard, Pausable {... */\n      0x20\n      swap1\n        /* \"@openzeppelin/contracts/security/Pausable.sol\":2521:2543  Unpaused(_msgSender()) */\n      log1\n        /* \"contracts/ArbOptimizer.sol\":1772:17949  contract ArbOptimizer is Ownable, ReentrancyGuard, Pausable {... */\n      dup1\n      return\n    tag_656:\n      0x64\n      swap1\n      0x20\n      dup5\n      mload\n      swap2\n      shl(0xe5, 0x461bcd)\n      dup4\n      mstore\n      dup3\n      add\n      mstore\n      0x14\n      0x24\n      dup3\n      add\n      mstore\n      shl(0x62, 0x14185d5cd8589b194e881b9bdd081c185d5cd959)\n      0x44\n      dup3\n      add\n      mstore\n      revert\n    tag_38:\n      pop\n      swap2\n      jumpi(tag_98, callvalue)\n      0x20\n      swap3\n      dup4\n      add(calldatasize, not(0x03))\n      slt\n      tag_109\n      jumpi\n      dup1\n      calldataload\n      sub(shl(0xa0, 0x01), 0x01)\n      dup2\n      and\n      swap2\n      swap1\n      dup3\n      swap1\n      sub\n      tag_174\n      jumpi\n      dup5\n      swap1\n      0x24\n      dup5\n      mload\n        /* \"contracts/ArbOptimizer.sol\":3532:3597  AggregatorV3Interface(0x5f4eC3Df9cbd43714FE2740f5E3616155c5b8419) */\n      dup1\n      swap5\n      dup2\n      swap4\n      shl(0xe0, 0x70a08231)\n        /* \"contracts/ArbOptimizer.sol\":17031:17069  IERC20(token).balanceOf(address(this)) */\n      dup4\n      mstore\n        /* \"contracts/ArbOptimizer.sol\":17063:17067  this */\n      address\n        /* \"contracts/ArbOptimizer.sol\":17031:17069  IERC20(token).balanceOf(address(this)) */\n      swap1\n      dup4\n      add\n        /* \"contracts/ArbOptimizer.sol\":1772:17949  contract ArbOptimizer is Ownable, ReentrancyGuard, Pausable {... */\n      mstore\n        /* \"contracts/ArbOptimizer.sol\":17031:17069  IERC20(token).balanceOf(address(this)) */\n      gas\n      staticcall\n      swap3\n      dup4\n      iszero\n      tag_412\n      jumpi\n      swap3\n      tag_666\n      jumpi\n        /* \"contracts/ArbOptimizer.sol\":1772:17949  contract ArbOptimizer is Ownable, ReentrancyGuard, Pausable {... */\n    tag_667:\n      pop\n      mload\n      swap1\n      dup2\n      mstore\n      return\n        /* \"contracts/ArbOptimizer.sol\":17031:17069  IERC20(token).balanceOf(address(this)) */\n    tag_666:\n      swap1\n      swap2\n      pop\n      dup3\n      dup2\n      dup2\n      returndatasize\n      dup4\n      gt\n      tag_668\n      jumpi\n    tag_669:\n      tag_670\n      dup2\n      dup4\n      tag_6\n      jump\t// in\n    tag_670:\n      dup2\n      add\n        /* \"contracts/ArbOptimizer.sol\":1772:17949  contract ArbOptimizer is Ownable, ReentrancyGuard, Pausable {... */\n      sub\n      slt\n      tag_171\n      jumpi\n        /* \"contracts/ArbOptimizer.sol\":3532:3597  AggregatorV3Interface(0x5f4eC3Df9cbd43714FE2740f5E3616155c5b8419) */\n      mload\n        /* \"contracts/ArbOptimizer.sol\":17031:17069  IERC20(token).balanceOf(address(this)) */\n      swap1\n      0x00\n      jump(tag_667)\n    tag_668:\n      pop\n      returndatasize\n      jump(tag_669)\n        /* \"contracts/ArbOptimizer.sol\":1772:17949  contract ArbOptimizer is Ownable, ReentrancyGuard, Pausable {... */\n    tag_36:\n      dup3\n      dup5\n      jumpi(tag_98, callvalue)\n      dup2\n      add(calldatasize, not(0x03))\n      slt\n      tag_98\n      jumpi\n      0x20\n      swap1\n        /* \"contracts/ArbOptimizer.sol\":4389:4421  uint256 public minProfitBps = 50 */\n      0x05\n        /* \"contracts/ArbOptimizer.sol\":1772:17949  contract ArbOptimizer is Ownable, ReentrancyGuard, Pausable {... */\n      sload\n      swap1\n      mload\n      swap1\n      dup2\n      mstore\n      return\n    tag_34:\n      pop\n      dup3\n      swap1\n      jumpi(tag_109, callvalue)\n      dup3\n      add(calldatasize, not(0x03))\n      slt\n      tag_109\n      jumpi\n        /* \"@openzeppelin/contracts/security/ReentrancyGuard.sol\":2227:2330  modifier nonReentrant() {... */\n      tag_681\n      tag_16\n      jump\t// in\n    tag_681:\n        /* \"@openzeppelin/contracts/access/Ownable.sol\":1500:1562  modifier onlyOwner() {... */\n      tag_682\n      tag_4\n      jump\t// in\n    tag_682:\n        /* \"contracts/ArbOptimizer.sol\":11792:11799  arbExec */\n      0x02\n        /* \"contracts/ArbOptimizer.sol\":1772:17949  contract ArbOptimizer is Ownable, ReentrancyGuard, Pausable {... */\n      sload\n      0x08\n      shr\n      sub(shl(0xa0, 0x01), 0x01)\n      and\n      swap1\n        /* \"contracts/ArbOptimizer.sol\":11792:11823  arbExec.emergencyWithdraw(USDT) */\n      dup2\n      extcodesize\n      iszero\n      tag_174\n      jumpi\n        /* \"contracts/ArbOptimizer.sol\":1772:17949  contract ArbOptimizer is Ownable, ReentrancyGuard, Pausable {... */\n      dup4\n      dup4\n      mload\n        /* \"contracts/ArbOptimizer.sol\":3532:3597  AggregatorV3Interface(0x5f4eC3Df9cbd43714FE2740f5E3616155c5b8419) */\n      shl(0xe2, 0x1bfc726f)\n        /* \"contracts/ArbOptimizer.sol\":11792:11823  arbExec.emergencyWithdraw(USDT) */\n      dup2\n      mstore\n        /* \"contracts/ArbOptimizer.sol\":2243:2285  0xdAC17F958D2ee523a2206206994597C13D831ec7 */\n      dup2\n      dup2\n        /* \"contracts/ArbOptimizer.sol\":1772:17949  contract ArbOptimizer is Ownable, ReentrancyGuard, Pausable {... */\n      0x24\n        /* \"contracts/ArbOptimizer.sol\":2243:2285  0xdAC17F958D2ee523a2206206994597C13D831ec7 */\n      dup2\n      dup4\n      0xdac17f958d2ee523a2206206994597c13d831ec7\n        /* \"contracts/ArbOptimizer.sol\":11792:11823  arbExec.emergencyWithdraw(USDT) */\n      swap9\n      dup10\n      dup10\n      dup5\n      add\n        /* \"contracts/ArbOptimizer.sol\":1772:17949  contract ArbOptimizer is Ownable, ReentrancyGuard, Pausable {... */\n      mstore\n        /* \"contracts/ArbOptimizer.sol\":11792:11823  arbExec.emergencyWithdraw(USDT) */\n      gas\n      call\n      dup1\n      iszero\n      tag_147\n      jumpi\n      tag_149\n      jumpi\n      pop\n      pop\n        /* \"contracts/ArbOptimizer.sol\":1772:17949  contract ArbOptimizer is Ownable, ReentrancyGuard, Pausable {... */\n      dup3\n      mload\n      shl(0xe0, 0x70a08231)\n        /* \"contracts/ArbOptimizer.sol\":11852:11889  IERC20(USDT).balanceOf(address(this)) */\n      dup2\n      mstore\n        /* \"contracts/ArbOptimizer.sol\":11883:11887  this */\n      address\n        /* \"contracts/ArbOptimizer.sol\":11852:11889  IERC20(USDT).balanceOf(address(this)) */\n      dup3\n      dup3\n      add\n        /* \"contracts/ArbOptimizer.sol\":1772:17949  contract ArbOptimizer is Ownable, ReentrancyGuard, Pausable {... */\n      mstore\n      swap3\n      0x20\n      swap1\n      dup2\n      dup6\n      0x24\n      dup2\n        /* \"contracts/ArbOptimizer.sol\":11852:11889  IERC20(USDT).balanceOf(address(this)) */\n      dup8\n      gas\n      staticcall\n      swap5\n      dup6\n      iszero\n      tag_158\n      jumpi\n      dup7\n      swap6\n      tag_153\n      jumpi\n        /* \"contracts/ArbOptimizer.sol\":11904:11915  balance > 0 */\n      pop\n      dup5\n        /* \"contracts/ArbOptimizer.sol\":11900:12048  if (balance > 0) {... */\n      tag_155\n      jumpi\n        /* \"contracts/ArbOptimizer.sol\":2081:2123  0xC02aaA39b223FE8D0A0e5C4F27eAD9083C756Cc2 */\n      dup6\n        /* \"contracts/ArbOptimizer.sol\":1772:17949  contract ArbOptimizer is Ownable, ReentrancyGuard, Pausable {... */\n      0x01\n        /* \"contracts/ArbOptimizer.sol\":2081:2123  0xC02aaA39b223FE8D0A0e5C4F27eAD9083C756Cc2 */\n      dup1\n      sstore\n        /* \"contracts/ArbOptimizer.sol\":1772:17949  contract ArbOptimizer is Ownable, ReentrancyGuard, Pausable {... */\n      dup1\n      return\n    tag_32:\n      pop\n      swap2\n      jumpi(tag_98, callvalue)\n      tag_716\n      calldatasize\n      tag_1\n      jump\t// in\n    tag_716:\n        /* \"@openzeppelin/contracts/access/Ownable.sol\":1500:1562  modifier onlyOwner() {... */\n      swap4\n      swap1\n      tag_717\n      tag_4\n      jump\t// in\n    tag_717:\n        /* \"contracts/ArbOptimizer.sol\":15192:15197  10000 */\n      0x2710\n        /* \"contracts/ArbOptimizer.sol\":15184:15197  _bps <= 10000 */\n      dup2\n      gt\n        /* \"contracts/ArbOptimizer.sol\":1772:17949  contract ArbOptimizer is Ownable, ReentrancyGuard, Pausable {... */\n      tag_718\n      jumpi\n        /* \"contracts/ArbOptimizer.sol\":15295:15370  ConfigurationUpdated(minFlashLoanAmount, maxFlashLoanAmount, _bps, _amount) */\n      0xb332ff846a7f7e49c967d592cb8ecccd56f3693ab85af2f484aa5bfabcd2a57a\n        /* \"contracts/ArbOptimizer.sol\":2081:2123  0xC02aaA39b223FE8D0A0e5C4F27eAD9083C756Cc2 */\n      swap4\n      swap5\n      dup2\n        /* \"contracts/ArbOptimizer.sol\":15295:15370  ConfigurationUpdated(minFlashLoanAmount, maxFlashLoanAmount, _bps, _amount) */\n      tag_106\n        /* \"contracts/ArbOptimizer.sol\":2081:2123  0xC02aaA39b223FE8D0A0e5C4F27eAD9083C756Cc2 */\n      swap3\n        /* \"contracts/ArbOptimizer.sol\":15224:15243  minProfitBps = _bps */\n      0x05\n        /* \"contracts/ArbOptimizer.sol\":2081:2123  0xC02aaA39b223FE8D0A0e5C4F27eAD9083C756Cc2 */\n      sstore\n      dup2\n        /* \"contracts/ArbOptimizer.sol\":15254:15279  minProfitAmount = _amount */\n      0x06\n        /* \"contracts/ArbOptimizer.sol\":2081:2123  0xC02aaA39b223FE8D0A0e5C4F27eAD9083C756Cc2 */\n      sstore\n        /* \"contracts/ArbOptimizer.sol\":15316:15334  minFlashLoanAmount */\n      0x03\n        /* \"contracts/ArbOptimizer.sol\":1772:17949  contract ArbOptimizer is Ownable, ReentrancyGuard, Pausable {... */\n      sload\n      swap4\n      sload\n      swap5\n      mload\n        /* \"contracts/ArbOptimizer.sol\":15295:15370  ConfigurationUpdated(minFlashLoanAmount, maxFlashLoanAmount, _bps, _amount) */\n      swap5\n      dup6\n      swap5\n      dup6\n        /* \"contracts/ArbOptimizer.sol\":1772:17949  contract ArbOptimizer is Ownable, ReentrancyGuard, Pausable {... */\n      swap1\n      swap5\n      swap4\n      swap3\n      0x60\n      swap3\n      0x80\n      dup4\n      add\n      swap7\n      dup4\n      mstore\n      0x20\n      dup4\n      add\n      mstore\n      0x40\n      dup3\n      add\n      mstore\n      add\n      mstore\n      jump\n    tag_718:\n      pop\n      0x20\n      0x64\n      swap3\n      mload\n      swap2\n      shl(0xe5, 0x461bcd)\n      dup4\n      mstore\n      dup3\n      add\n      mstore\n      0x0b\n      0x24\n      dup3\n      add\n      mstore\n      shl(0xa8, 0x496e76616c696420425053)\n      0x44\n      dup3\n      add\n      mstore\n      revert\n    tag_30:\n      dup3\n      dup5\n      jumpi(tag_98, callvalue)\n      dup2\n      add(calldatasize, not(0x03))\n      slt\n      tag_98\n      jumpi\n      0x20\n      swap1\n        /* \"contracts/ArbOptimizer.sol\":4554:4599  uint256 public executionCooldown = 60 seconds */\n      0x09\n        /* \"contracts/ArbOptimizer.sol\":1772:17949  contract ArbOptimizer is Ownable, ReentrancyGuard, Pausable {... */\n      sload\n      swap1\n      mload\n      swap1\n      dup2\n      mstore\n      return\n    tag_28:\n      pop\n      swap2\n      swap1\n      jumpi(tag_197, callvalue)\n      0x20\n      swap3\n      dup4\n      add(calldatasize, not(0x03))\n      slt\n      tag_98\n      jumpi\n      dup1\n      calldataload\n        /* \"@openzeppelin/contracts/security/ReentrancyGuard.sol\":2227:2330  modifier nonReentrant() {... */\n      tag_729\n      tag_16\n      jump\t// in\n    tag_729:\n        /* \"@openzeppelin/contracts/security/Pausable.sol\":1204:1276  modifier whenNotPaused() {... */\n      tag_730\n      tag_15\n      jump\t// in\n    tag_730:\n        /* \"@openzeppelin/contracts/access/Ownable.sol\":1500:1562  modifier onlyOwner() {... */\n      tag_731\n      tag_4\n      jump\t// in\n    tag_731:\n        /* \"contracts/ArbOptimizer.sol\":8738:8812  require(flashLoanAmount >= minFlashLoanAmount, \"Below minimum flash loan\") */\n      tag_732\n        /* \"contracts/ArbOptimizer.sol\":1772:17949  contract ArbOptimizer is Ownable, ReentrancyGuard, Pausable {... */\n      sload(0x03)\n        /* \"contracts/ArbOptimizer.sol\":8746:8783  flashLoanAmount >= minFlashLoanAmount */\n      dup3\n      lt\n      iszero\n        /* \"contracts/ArbOptimizer.sol\":8738:8812  require(flashLoanAmount >= minFlashLoanAmount, \"Below minimum flash loan\") */\n      tag_8\n      jump\t// in\n    tag_732:\n        /* \"contracts/ArbOptimizer.sol\":8823:8899  require(flashLoanAmount <= maxFlashLoanAmount, \"Exceeds maximum flash loan\") */\n      tag_733\n        /* \"contracts/ArbOptimizer.sol\":1772:17949  contract ArbOptimizer is Ownable, ReentrancyGuard, Pausable {... */\n      dup3\n      sload\n        /* \"contracts/ArbOptimizer.sol\":8831:8868  flashLoanAmount <= maxFlashLoanAmount */\n      dup3\n      gt\n      iszero\n        /* \"contracts/ArbOptimizer.sol\":8823:8899  require(flashLoanAmount <= maxFlashLoanAmount, \"Exceeds maximum flash loan\") */\n      tag_9\n      jump\t// in\n    tag_733:\n        /* \"contracts/ArbOptimizer.sol\":1772:17949  contract ArbOptimizer is Ownable, ReentrancyGuard, Pausable {... */\n      0xff\n        /* \"contracts/ArbOptimizer.sol\":8916:8927  autoExecute */\n      0x07\n        /* \"contracts/ArbOptimizer.sol\":1772:17949  contract ArbOptimizer is Ownable, ReentrancyGuard, Pausable {... */\n      sload\n      and\n        /* \"contracts/ArbOptimizer.sol\":8912:9096  if (autoExecute) {... */\n      tag_734\n      jumpi\n        /* \"contracts/ArbOptimizer.sol\":1772:17949  contract ArbOptimizer is Ownable, ReentrancyGuard, Pausable {... */\n    tag_735:\n      dup4\n      mload\n      shl(0xe0, 0x716ad825)\n        /* \"contracts/ArbOptimizer.sol\":9192:9230  this.findOptimalRoute(flashLoanAmount) */\n      dup2\n      mstore\n      dup3\n      dup2\n      add\n        /* \"contracts/ArbOptimizer.sol\":1772:17949  contract ArbOptimizer is Ownable, ReentrancyGuard, Pausable {... */\n      dup3\n      swap1\n      mstore\n        /* \"contracts/ArbOptimizer.sol\":9192:9230  this.findOptimalRoute(flashLoanAmount) */\n      0x60\n        /* \"contracts/ArbOptimizer.sol\":1772:17949  contract ArbOptimizer is Ownable, ReentrancyGuard, Pausable {... */\n      dup2\n      0x24\n      dup2\n        /* \"contracts/ArbOptimizer.sol\":9192:9196  this */\n      dup8\n      address\n        /* \"contracts/ArbOptimizer.sol\":9192:9230  this.findOptimalRoute(flashLoanAmount) */\n      gas\n      call\n      swap3\n      dup4\n      iszero\n      tag_736\n      jumpi\n      dup5\n      swap4\n      dup6\n      swap3\n      dup7\n      swap2\n      tag_738\n      jumpi\n        /* \"contracts/ArbOptimizer.sol\":1772:17949  contract ArbOptimizer is Ownable, ReentrancyGuard, Pausable {... */\n    tag_739:\n      pop\n      iszero\n      tag_740\n      jumpi\n      dup4\n        /* \"contracts/ArbOptimizer.sol\":9311:9381  OptimalRouteSelected(bestRouteIndex, estimatedProfit, flashLoanAmount) */\n      0x99a04d4bd50085149e64dc7b09cd3bf736a5a4b19f85d58ea535527917c3b2ae\n        /* \"contracts/ArbOptimizer.sol\":1772:17949  contract ArbOptimizer is Ownable, ReentrancyGuard, Pausable {... */\n      dup8\n      dup1\n      mload\n      dup6\n      dup2\n      mstore\n      dup7\n      dup12\n      dup3\n      add\n      mstore\n        /* \"contracts/ArbOptimizer.sol\":9311:9381  OptimalRouteSelected(bestRouteIndex, estimatedProfit, flashLoanAmount) */\n      log2\n        /* \"contracts/ArbOptimizer.sol\":9398:9405  arbExec */\n      0x02\n        /* \"contracts/ArbOptimizer.sol\":1772:17949  contract ArbOptimizer is Ownable, ReentrancyGuard, Pausable {... */\n      sload\n      0x08\n      shr\n      sub(shl(0xa0, 0x01), 0x01)\n      and\n      swap1\n        /* \"contracts/ArbOptimizer.sol\":9398:9469  arbExec.initiateArbitrage(WETH, flashLoanAmount, bestRouteIndex, false) */\n      dup2\n      extcodesize\n      iszero\n      tag_165\n      jumpi\n        /* \"contracts/ArbOptimizer.sol\":1772:17949  contract ArbOptimizer is Ownable, ReentrancyGuard, Pausable {... */\n      swap1\n      dup6\n      dup1\n        /* \"contracts/ArbOptimizer.sol\":2081:2123  0xC02aaA39b223FE8D0A0e5C4F27eAD9083C756Cc2 */\n      0xc02aaa39b223fe8d0a0e5c4f27ead9083c756cc2\n      0x84\n        /* \"contracts/ArbOptimizer.sol\":1772:17949  contract ArbOptimizer is Ownable, ReentrancyGuard, Pausable {... */\n      dup11\n      swap8\n      swap7\n      swap6\n      dup4\n      dup10\n      mload\n        /* \"contracts/ArbOptimizer.sol\":3532:3597  AggregatorV3Interface(0x5f4eC3Df9cbd43714FE2740f5E3616155c5b8419) */\n      swap7\n      dup8\n      swap5\n      dup6\n      swap4\n      shl(0xe0, 0x0ea62cb5)\n        /* \"contracts/ArbOptimizer.sol\":9398:9469  arbExec.initiateArbitrage(WETH, flashLoanAmount, bestRouteIndex, false) */\n      dup6\n      mstore\n      dup5\n      add\n        /* \"contracts/ArbOptimizer.sol\":1772:17949  contract ArbOptimizer is Ownable, ReentrancyGuard, Pausable {... */\n      mstore\n        /* \"contracts/ArbOptimizer.sol\":2081:2123  0xC02aaA39b223FE8D0A0e5C4F27eAD9083C756Cc2 */\n      dup10\n        /* \"contracts/ArbOptimizer.sol\":1772:17949  contract ArbOptimizer is Ownable, ReentrancyGuard, Pausable {... */\n      0x24\n        /* \"contracts/ArbOptimizer.sol\":2081:2123  0xC02aaA39b223FE8D0A0e5C4F27eAD9083C756Cc2 */\n      dup5\n      add\n        /* \"contracts/ArbOptimizer.sol\":1772:17949  contract ArbOptimizer is Ownable, ReentrancyGuard, Pausable {... */\n      mstore\n        /* \"contracts/ArbOptimizer.sol\":2081:2123  0xC02aaA39b223FE8D0A0e5C4F27eAD9083C756Cc2 */\n      dup12\n      0x44\n      dup5\n      add\n        /* \"contracts/ArbOptimizer.sol\":1772:17949  contract ArbOptimizer is Ownable, ReentrancyGuard, Pausable {... */\n      mstore\n        /* \"contracts/ArbOptimizer.sol\":2081:2123  0xC02aaA39b223FE8D0A0e5C4F27eAD9083C756Cc2 */\n      dup2\n      0x64\n      dup5\n      add\n        /* \"contracts/ArbOptimizer.sol\":1772:17949  contract ArbOptimizer is Ownable, ReentrancyGuard, Pausable {... */\n      mstore\n        /* \"contracts/ArbOptimizer.sol\":9398:9469  arbExec.initiateArbitrage(WETH, flashLoanAmount, bestRouteIndex, false) */\n      gas\n      call\n      swap2\n      dup3\n      tag_744\n      jumpi\n        /* \"contracts/ArbOptimizer.sol\":1772:17949  contract ArbOptimizer is Ownable, ReentrancyGuard, Pausable {... */\n    tag_745:\n      pop\n      pop\n        /* \"contracts/ArbOptimizer.sol\":9394:9697  try arbExec.initiateArbitrage(WETH, flashLoanAmount, bestRouteIndex, false) {... */\n      tag_746\n      jumpi\n        /* \"contracts/ArbOptimizer.sol\":9670:9685  success = false */\n      pop\n      pop\n      pop\n      pop\n        /* \"contracts/ArbOptimizer.sol\":9394:9697  try arbExec.initiateArbitrage(WETH, flashLoanAmount, bestRouteIndex, false) {... */\n      swap1\n    tag_748:\n        /* \"contracts/ArbOptimizer.sol\":1772:17949  contract ArbOptimizer is Ownable, ReentrancyGuard, Pausable {... */\n      0x01\n        /* \"contracts/ArbOptimizer.sol\":2081:2123  0xC02aaA39b223FE8D0A0e5C4F27eAD9083C756Cc2 */\n      dup1\n      sstore\n        /* \"contracts/ArbOptimizer.sol\":1772:17949  contract ArbOptimizer is Ownable, ReentrancyGuard, Pausable {... */\n      mload\n      swap1\n      iszero\n      iszero\n      dup2\n      mstore\n      return\n        /* \"contracts/ArbOptimizer.sol\":9394:9697  try arbExec.initiateArbitrage(WETH, flashLoanAmount, bestRouteIndex, false) {... */\n    tag_746:\n        /* \"contracts/ArbOptimizer.sol\":9540:9607  ArbitrageExecuted(bestRouteIndex, flashLoanAmount, estimatedProfit) */\n      0x9f51370fe0eed8407b751449f0bf9ae3f5667f007a2ab895d820da7e2983ebab\n        /* \"contracts/ArbOptimizer.sol\":9505:9520  block.timestamp */\n      swap4\n      swap5\n      pop\n      timestamp\n        /* \"contracts/ArbOptimizer.sol\":1772:17949  contract ArbOptimizer is Ownable, ReentrancyGuard, Pausable {... */\n      0x08\n        /* \"contracts/ArbOptimizer.sol\":2081:2123  0xC02aaA39b223FE8D0A0e5C4F27eAD9083C756Cc2 */\n      sstore\n        /* \"contracts/ArbOptimizer.sol\":1772:17949  contract ArbOptimizer is Ownable, ReentrancyGuard, Pausable {... */\n      dup3\n      mload\n      swap2\n      dup3\n      mstore\n      dup7\n      dup3\n      add\n      mstore\n        /* \"contracts/ArbOptimizer.sol\":9540:9607  ArbitrageExecuted(bestRouteIndex, flashLoanAmount, estimatedProfit) */\n      log2\n        /* \"contracts/ArbOptimizer.sol\":1772:17949  contract ArbOptimizer is Ownable, ReentrancyGuard, Pausable {... */\n      0x01\n        /* \"contracts/ArbOptimizer.sol\":9394:9697  try arbExec.initiateArbitrage(WETH, flashLoanAmount, bestRouteIndex, false) {... */\n      swap1\n      jump(tag_748)\n        /* \"contracts/ArbOptimizer.sol\":9398:9469  arbExec.initiateArbitrage(WETH, flashLoanAmount, bestRouteIndex, false) */\n    tag_744:\n      tag_749\n      swap2\n      swap3\n      swap4\n      swap5\n      swap6\n      pop\n      tag_5\n      jump\t// in\n    tag_749:\n        /* \"contracts/ArbOptimizer.sol\":1772:17949  contract ArbOptimizer is Ownable, ReentrancyGuard, Pausable {... */\n      tag_111\n      jumpi\n        /* \"contracts/ArbOptimizer.sol\":9398:9469  arbExec.initiateArbitrage(WETH, flashLoanAmount, bestRouteIndex, false) */\n      swap1\n      dup6\n      swap3\n      swap2\n      dup6\n      0x00\n      jump(tag_745)\n        /* \"contracts/ArbOptimizer.sol\":1772:17949  contract ArbOptimizer is Ownable, ReentrancyGuard, Pausable {... */\n    tag_740:\n      dup6\n      mload\n      shl(0xe5, 0x461bcd)\n      dup2\n      mstore\n      swap1\n      dup2\n      add\n      dup8\n      swap1\n      mstore\n      0x19\n      0x24\n      dup3\n      add\n      mstore\n      0x4e6f2070726f66697461626c6520726f75746520666f756e6400000000000000\n      0x44\n      dup3\n      add\n      mstore\n      0x64\n      swap1\n      revert\n        /* \"contracts/ArbOptimizer.sol\":9192:9230  this.findOptimalRoute(flashLoanAmount) */\n    tag_738:\n      swap5\n      pop\n      pop\n      swap1\n      pop\n      0x60\n      dup4\n      returndatasize\n      dup3\n      gt\n      tag_752\n      jumpi\n    tag_753:\n      dup2\n      tag_754\n      0x60\n      swap4\n      dup4\n      tag_6\n      jump\t// in\n    tag_754:\n      dup2\n      add\n        /* \"contracts/ArbOptimizer.sol\":1772:17949  contract ArbOptimizer is Ownable, ReentrancyGuard, Pausable {... */\n      sub\n      slt\n      tag_174\n      jumpi\n        /* \"contracts/ArbOptimizer.sol\":3532:3597  AggregatorV3Interface(0x5f4eC3Df9cbd43714FE2740f5E3616155c5b8419) */\n      dup3\n      mload\n        /* \"contracts/ArbOptimizer.sol\":1772:17949  contract ArbOptimizer is Ownable, ReentrancyGuard, Pausable {... */\n      swap1\n      tag_757\n      dup7\n      dup9\n      dup7\n      add\n        /* \"contracts/ArbOptimizer.sol\":3532:3597  AggregatorV3Interface(0x5f4eC3Df9cbd43714FE2740f5E3616155c5b8419) */\n      mload\n        /* \"contracts/ArbOptimizer.sol\":1772:17949  contract ArbOptimizer is Ownable, ReentrancyGuard, Pausable {... */\n      swap6\n      add\n      tag_11\n      jump\t// in\n    tag_757:\n        /* \"contracts/ArbOptimizer.sol\":9192:9230  this.findOptimalRoute(flashLoanAmount) */\n      swap2\n      swap4\n      swap2\n      0x00\n      jump(tag_739)\n    tag_752:\n      returndatasize\n      swap2\n      pop\n      jump(tag_753)\n    tag_736:\n        /* \"contracts/ArbOptimizer.sol\":1772:17949  contract ArbOptimizer is Ownable, ReentrancyGuard, Pausable {... */\n      dup6\n      mload\n        /* \"contracts/ArbOptimizer.sol\":3532:3597  AggregatorV3Interface(0x5f4eC3Df9cbd43714FE2740f5E3616155c5b8419) */\n      returndatasize\n        /* \"contracts/ArbOptimizer.sol\":1772:17949  contract ArbOptimizer is Ownable, ReentrancyGuard, Pausable {... */\n      dup7\n      dup3\n        /* \"contracts/ArbOptimizer.sol\":3532:3597  AggregatorV3Interface(0x5f4eC3Df9cbd43714FE2740f5E3616155c5b8419) */\n      returndatacopy\n      returndatasize\n      swap1\n      revert\n        /* \"contracts/ArbOptimizer.sol\":8912:9096  if (autoExecute) {... */\n    tag_734:\n        /* \"contracts/ArbOptimizer.sol\":8989:9006  lastExecutionTime */\n      0x08\n        /* \"contracts/ArbOptimizer.sol\":1772:17949  contract ArbOptimizer is Ownable, ReentrancyGuard, Pausable {... */\n      sload\n        /* \"contracts/ArbOptimizer.sol\":9009:9026  executionCooldown */\n      0x09\n        /* \"contracts/ArbOptimizer.sol\":1772:17949  contract ArbOptimizer is Ownable, ReentrancyGuard, Pausable {... */\n      sload\n      dup2\n      add\n      dup1\n      swap2\n      gt\n      tag_758\n      jumpi\n        /* \"contracts/ArbOptimizer.sol\":8970:8985  block.timestamp */\n      timestamp\n        /* \"contracts/ArbOptimizer.sol\":8970:9026  block.timestamp >= lastExecutionTime + executionCooldown */\n      lt\n        /* \"contracts/ArbOptimizer.sol\":1772:17949  contract ArbOptimizer is Ownable, ReentrancyGuard, Pausable {... */\n      iszero\n        /* \"contracts/ArbOptimizer.sol\":8912:9096  if (autoExecute) {... */\n      tag_735\n        /* \"contracts/ArbOptimizer.sol\":1772:17949  contract ArbOptimizer is Ownable, ReentrancyGuard, Pausable {... */\n      jumpi\n      dup4\n      mload\n      shl(0xe5, 0x461bcd)\n      dup2\n      mstore\n      dup1\n      dup4\n      add\n      dup7\n      swap1\n      mstore\n      0x16\n      0x24\n      dup3\n      add\n      mstore\n      shl(0x50, 0x436f6f6c646f776e20706572696f6420616374697665)\n      0x44\n      dup3\n      add\n      mstore\n      0x64\n      swap1\n      revert\n    tag_758:\n      shl(0xe0, 0x4e487b71)\n        /* \"contracts/ArbOptimizer.sol\":3532:3597  AggregatorV3Interface(0x5f4eC3Df9cbd43714FE2740f5E3616155c5b8419) */\n      dup5\n      mstore\n      0x11\n      dup4\n      mstore\n      0x24\n      dup5\n      revert\n        /* \"contracts/ArbOptimizer.sol\":1772:17949  contract ArbOptimizer is Ownable, ReentrancyGuard, Pausable {... */\n    tag_26:\n      pop\n      dup3\n      swap1\n      jumpi(tag_109, callvalue)\n      dup3\n      add(calldatasize, not(0x03))\n      slt\n      tag_109\n      jumpi\n        /* \"@openzeppelin/contracts/security/ReentrancyGuard.sol\":2227:2330  modifier nonReentrant() {... */\n      tag_766\n      tag_16\n      jump\t// in\n    tag_766:\n        /* \"@openzeppelin/contracts/access/Ownable.sol\":1500:1562  modifier onlyOwner() {... */\n      tag_767\n      tag_4\n      jump\t// in\n    tag_767:\n        /* \"contracts/ArbOptimizer.sol\":12216:12223  arbExec */\n      0x02\n        /* \"contracts/ArbOptimizer.sol\":1772:17949  contract ArbOptimizer is Ownable, ReentrancyGuard, Pausable {... */\n      sload\n      0x08\n      shr\n      sub(shl(0xa0, 0x01), 0x01)\n      and\n      swap1\n        /* \"contracts/ArbOptimizer.sol\":12216:12246  arbExec.emergencyWithdraw(DAI) */\n      dup2\n      extcodesize\n      iszero\n      tag_174\n      jumpi\n        /* \"contracts/ArbOptimizer.sol\":1772:17949  contract ArbOptimizer is Ownable, ReentrancyGuard, Pausable {... */\n      dup3\n      mload\n        /* \"contracts/ArbOptimizer.sol\":3532:3597  AggregatorV3Interface(0x5f4eC3Df9cbd43714FE2740f5E3616155c5b8419) */\n      shl(0xe2, 0x1bfc726f)\n        /* \"contracts/ArbOptimizer.sol\":12216:12246  arbExec.emergencyWithdraw(DAI) */\n      dup2\n      mstore\n        /* \"contracts/ArbOptimizer.sol\":2323:2365  0x6B175474E89094C44Da98b954EedeAC495271d0F */\n      dup5\n      dup2\n        /* \"contracts/ArbOptimizer.sol\":1772:17949  contract ArbOptimizer is Ownable, ReentrancyGuard, Pausable {... */\n      0x24\n        /* \"contracts/ArbOptimizer.sol\":2323:2365  0x6B175474E89094C44Da98b954EedeAC495271d0F */\n      dup2\n      dup4\n      0x6b175474e89094c44da98b954eedeac495271d0f\n        /* \"contracts/ArbOptimizer.sol\":12216:12246  arbExec.emergencyWithdraw(DAI) */\n      swap8\n      dup9\n      dup9\n      dup5\n      add\n        /* \"contracts/ArbOptimizer.sol\":1772:17949  contract ArbOptimizer is Ownable, ReentrancyGuard, Pausable {... */\n      mstore\n        /* \"contracts/ArbOptimizer.sol\":12216:12246  arbExec.emergencyWithdraw(DAI) */\n      gas\n      call\n      dup1\n      iszero\n      tag_770\n      jumpi\n      tag_772\n      jumpi\n        /* \"contracts/ArbOptimizer.sol\":1772:17949  contract ArbOptimizer is Ownable, ReentrancyGuard, Pausable {... */\n    tag_773:\n      pop\n      dup3\n      mload\n      shl(0xe0, 0x70a08231)\n        /* \"contracts/ArbOptimizer.sol\":12275:12311  IERC20(DAI).balanceOf(address(this)) */\n      dup2\n      mstore\n        /* \"contracts/ArbOptimizer.sol\":12305:12309  this */\n      address\n        /* \"contracts/ArbOptimizer.sol\":12275:12311  IERC20(DAI).balanceOf(address(this)) */\n      dup3\n      dup3\n      add\n        /* \"contracts/ArbOptimizer.sol\":1772:17949  contract ArbOptimizer is Ownable, ReentrancyGuard, Pausable {... */\n      mstore\n      swap3\n      0x20\n      swap1\n      dup2\n      dup6\n      0x24\n      dup2\n        /* \"contracts/ArbOptimizer.sol\":12275:12311  IERC20(DAI).balanceOf(address(this)) */\n      dup8\n      gas\n      staticcall\n      swap5\n      dup6\n      iszero\n      tag_158\n      jumpi\n      dup7\n      swap6\n      tag_153\n      jumpi\n        /* \"contracts/ArbOptimizer.sol\":12326:12337  balance > 0 */\n      pop\n      dup5\n        /* \"contracts/ArbOptimizer.sol\":12322:12468  if (balance > 0) {... */\n      tag_155\n      jumpi\n        /* \"contracts/ArbOptimizer.sol\":2081:2123  0xC02aaA39b223FE8D0A0e5C4F27eAD9083C756Cc2 */\n      dup6\n        /* \"contracts/ArbOptimizer.sol\":1772:17949  contract ArbOptimizer is Ownable, ReentrancyGuard, Pausable {... */\n      0x01\n        /* \"contracts/ArbOptimizer.sol\":2081:2123  0xC02aaA39b223FE8D0A0e5C4F27eAD9083C756Cc2 */\n      dup1\n      sstore\n        /* \"contracts/ArbOptimizer.sol\":1772:17949  contract ArbOptimizer is Ownable, ReentrancyGuard, Pausable {... */\n      dup1\n      return\n        /* \"contracts/ArbOptimizer.sol\":12216:12246  arbExec.emergencyWithdraw(DAI) */\n    tag_772:\n      tag_796\n      swap1\n      swap5\n      swap2\n      swap5\n      tag_5\n      jump\t// in\n    tag_796:\n      swap3\n      dup5\n      jump(tag_773)\n    tag_770:\n        /* \"contracts/ArbOptimizer.sol\":1772:17949  contract ArbOptimizer is Ownable, ReentrancyGuard, Pausable {... */\n      dup5\n      mload\n        /* \"contracts/ArbOptimizer.sol\":3532:3597  AggregatorV3Interface(0x5f4eC3Df9cbd43714FE2740f5E3616155c5b8419) */\n      returndatasize\n        /* \"contracts/ArbOptimizer.sol\":1772:17949  contract ArbOptimizer is Ownable, ReentrancyGuard, Pausable {... */\n      dup8\n      dup3\n        /* \"contracts/ArbOptimizer.sol\":3532:3597  AggregatorV3Interface(0x5f4eC3Df9cbd43714FE2740f5E3616155c5b8419) */\n      returndatacopy\n      returndatasize\n      swap1\n      revert\n        /* \"contracts/ArbOptimizer.sol\":1772:17949  contract ArbOptimizer is Ownable, ReentrancyGuard, Pausable {... */\n    tag_1:\n      0x40\n      swap1\n      not(0x03)\n      add\n      slt\n      tag_171\n      jumpi\n      calldataload(0x04)\n      swap1\n      calldataload(0x24)\n      swap1\n      jump\t// out\n    tag_3:\n      swap1\n      dup2\n      mload\n      dup1\n      dup3\n      mstore\n      0x20\n      dup1\n      dup1\n      swap4\n      add\n      swap4\n      add\n      swap2\n      0x00\n    tag_799:\n      dup3\n      dup2\n      lt\n      tag_800\n      jumpi\n      pop\n      pop\n      pop\n      pop\n      swap1\n      jump\t// out\n    tag_800:\n      dup4\n      mload\n      sub(shl(0xa0, 0x01), 0x01)\n      and\n      dup6\n      mstore\n      swap4\n      dup2\n      add\n      swap4\n      swap3\n      dup2\n      add\n      swap3\n      0x01\n      add\n      jump(tag_799)\n        /* \"@openzeppelin/contracts/access/Ownable.sol\":1796:1958  function _checkOwner() internal view virtual {... */\n    tag_4:\n        /* \"@openzeppelin/contracts/access/Ownable.sol\":1710:1716  _owner */\n      0x00\n        /* \"contracts/ArbOptimizer.sol\":1772:17949  contract ArbOptimizer is Ownable, ReentrancyGuard, Pausable {... */\n      sload\n      sub(shl(0xa0, 0x01), 0x01)\n      and\n        /* \"@openzeppelin/contracts/utils/Context.sol\":735:745  msg.sender */\n      caller\n        /* \"@openzeppelin/contracts/access/Ownable.sol\":1855:1878  owner() != _msgSender() */\n      sub\n        /* \"@openzeppelin/contracts/access/Ownable.sol\":1851:1952  if (owner() != _msgSender()) {... */\n      tag_802\n      jumpi\n        /* \"@openzeppelin/contracts/access/Ownable.sol\":1796:1958  function _checkOwner() internal view virtual {... */\n      jump\t// out\n        /* \"@openzeppelin/contracts/access/Ownable.sol\":1851:1952  if (owner() != _msgSender()) {... */\n    tag_802:\n        /* \"contracts/ArbOptimizer.sol\":1772:17949  contract ArbOptimizer is Ownable, ReentrancyGuard, Pausable {... */\n      mload(0x40)\n      shl(0xe0, 0x118cdaa7)\n        /* \"@openzeppelin/contracts/access/Ownable.sol\":1901:1941  OwnableUnauthorizedAccount(_msgSender()) */\n      dup2\n      mstore\n        /* \"@openzeppelin/contracts/utils/Context.sol\":735:745  msg.sender */\n      caller\n        /* \"@openzeppelin/contracts/access/Ownable.sol\":1901:1941  OwnableUnauthorizedAccount(_msgSender()) */\n      0x04\n      dup3\n      add\n        /* \"contracts/ArbOptimizer.sol\":1772:17949  contract ArbOptimizer is Ownable, ReentrancyGuard, Pausable {... */\n      mstore\n      0x24\n      swap1\n        /* \"@openzeppelin/contracts/access/Ownable.sol\":1901:1941  OwnableUnauthorizedAccount(_msgSender()) */\n      revert\n        /* \"contracts/ArbOptimizer.sol\":3532:3597  AggregatorV3Interface(0x5f4eC3Df9cbd43714FE2740f5E3616155c5b8419) */\n    tag_5:\n      0xffffffffffffffff\n      dup2\n      gt\n      tag_804\n      jumpi\n      0x40\n      mstore\n      jump\t// out\n    tag_804:\n      mstore(0x00, shl(0xe0, 0x4e487b71))\n      mstore(0x04, 0x41)\n      revert(0x00, 0x24)\n    tag_6:\n      swap1\n        /* \"contracts/ArbOptimizer.sol\":1772:17949  contract ArbOptimizer is Ownable, ReentrancyGuard, Pausable {... */\n      0x1f\n      dup1\n      not\n        /* \"contracts/ArbOptimizer.sol\":3532:3597  AggregatorV3Interface(0x5f4eC3Df9cbd43714FE2740f5E3616155c5b8419) */\n      swap2\n      add\n      and\n      dup2\n      add\n      swap1\n      dup2\n      lt\n      0xffffffffffffffff\n      dup3\n      gt\n      or\n      tag_804\n      jumpi\n      0x40\n      mstore\n      jump\t// out\n    tag_7:\n      mload\n      swap1\n      0xffffffffffffffffffff\n      dup3\n      and\n      dup3\n      sub\n      tag_171\n      jumpi\n      jump\t// out\n        /* \"contracts/ArbOptimizer.sol\":1772:17949  contract ArbOptimizer is Ownable, ReentrancyGuard, Pausable {... */\n    tag_8:\n      iszero\n      tag_810\n      jumpi\n      jump\t// out\n    tag_810:\n      mload(0x40)\n      shl(0xe5, 0x461bcd)\n      dup2\n      mstore\n      0x20\n      0x04\n      dup3\n      add\n      mstore\n      0x18\n      0x24\n      dup3\n      add\n      mstore\n      0x42656c6f77206d696e696d756d20666c617368206c6f616e0000000000000000\n      0x44\n      dup3\n      add\n      mstore\n      0x64\n      swap1\n      revert\n    tag_9:\n      iszero\n      tag_812\n      jumpi\n      jump\t// out\n    tag_812:\n      mload(0x40)\n      shl(0xe5, 0x461bcd)\n      dup2\n      mstore\n      0x20\n      0x04\n      dup3\n      add\n      mstore\n      0x1a\n      0x24\n      dup3\n      add\n      mstore\n      0x45786365656473206d6178696d756d20666c617368206c6f616e000000000000\n      0x44\n      dup3\n      add\n      mstore\n      0x64\n      swap1\n      revert\n    tag_10:\n      0xffffffffffffffff\n      dup2\n      gt\n      tag_804\n      jumpi\n      0x05\n      shl\n      0x20\n      add\n      swap1\n      jump\t// out\n    tag_11:\n      mload\n      swap1\n      dup2\n      iszero\n      iszero\n      dup3\n      sub\n      tag_171\n      jumpi\n      jump\t// out\n    tag_12:\n      swap1\n      0x02\n      dup3\n      lt\n      iszero\n      tag_818\n      jumpi\n      mstore\n      jump\t// out\n    tag_818:\n        /* \"contracts/ArbOptimizer.sol\":3532:3597  AggregatorV3Interface(0x5f4eC3Df9cbd43714FE2740f5E3616155c5b8419) */\n      shl(0xe0, 0x4e487b71)\n      0x00\n        /* \"contracts/ArbOptimizer.sol\":1772:17949  contract ArbOptimizer is Ownable, ReentrancyGuard, Pausable {... */\n      mstore\n      mstore(0x04, 0x21)\n      revert(0x00, 0x24)\n    tag_13:\n      not(0x00)\n      dup2\n      eq\n      tag_820\n      jumpi\n      0x01\n      add\n      swap1\n      jump\t// out\n    tag_820:\n        /* \"contracts/ArbOptimizer.sol\":3532:3597  AggregatorV3Interface(0x5f4eC3Df9cbd43714FE2740f5E3616155c5b8419) */\n      shl(0xe0, 0x4e487b71)\n        /* \"contracts/ArbOptimizer.sol\":1772:17949  contract ArbOptimizer is Ownable, ReentrancyGuard, Pausable {... */\n      0x00\n        /* \"contracts/ArbOptimizer.sol\":3532:3597  AggregatorV3Interface(0x5f4eC3Df9cbd43714FE2740f5E3616155c5b8419) */\n      mstore\n      mstore(0x04, 0x11)\n      0x24\n        /* \"contracts/ArbOptimizer.sol\":1772:17949  contract ArbOptimizer is Ownable, ReentrancyGuard, Pausable {... */\n      0x00\n        /* \"contracts/ArbOptimizer.sol\":3532:3597  AggregatorV3Interface(0x5f4eC3Df9cbd43714FE2740f5E3616155c5b8419) */\n      revert\n        /* \"contracts/ArbOptimizer.sol\":1772:17949  contract ArbOptimizer is Ownable, ReentrancyGuard, Pausable {... */\n    tag_14:\n      swap2\n      swap1\n      dup3\n      0x40\n      swap2\n      sub\n      slt\n      tag_171\n      jumpi\n      tag_824\n      0x20\n        /* \"contracts/ArbOptimizer.sol\":3532:3597  AggregatorV3Interface(0x5f4eC3Df9cbd43714FE2740f5E3616155c5b8419) */\n      dup4\n      mload\n        /* \"contracts/ArbOptimizer.sol\":1772:17949  contract ArbOptimizer is Ownable, ReentrancyGuard, Pausable {... */\n      swap4\n      add\n      tag_11\n      jump\t// in\n    tag_824:\n      swap1\n      jump\t// out\n        /* \"@openzeppelin/contracts/security/Pausable.sol\":1767:1873  function _requireNotPaused() internal view virtual {... */\n    tag_15:\n        /* \"contracts/ArbOptimizer.sol\":1772:17949  contract ArbOptimizer is Ownable, ReentrancyGuard, Pausable {... */\n      0xff\n        /* \"@openzeppelin/contracts/security/Pausable.sol\":1685:1692  _paused */\n      0x02\n        /* \"contracts/ArbOptimizer.sol\":1772:17949  contract ArbOptimizer is Ownable, ReentrancyGuard, Pausable {... */\n      sload\n      and\n      tag_825\n      jumpi\n        /* \"@openzeppelin/contracts/security/Pausable.sol\":1767:1873  function _requireNotPaused() internal view virtual {... */\n      jump\t// out\n        /* \"contracts/ArbOptimizer.sol\":1772:17949  contract ArbOptimizer is Ownable, ReentrancyGuard, Pausable {... */\n    tag_825:\n      mload(0x40)\n      shl(0xe5, 0x461bcd)\n      dup2\n      mstore\n      0x20\n      0x04\n      dup3\n      add\n      mstore\n      0x10\n      0x24\n      dup3\n      add\n      mstore\n      shl(0x82, 0x14185d5cd8589b194e881c185d5cd959)\n      0x44\n      dup3\n      add\n      mstore\n      0x64\n      swap1\n      revert\n        /* \"@openzeppelin/contracts/security/ReentrancyGuard.sol\":2336:2623  function _nonReentrantBefore() private {... */\n    tag_16:\n        /* \"@openzeppelin/contracts/security/ReentrancyGuard.sol\":1759:1760  2 */\n      0x02\n        /* \"@openzeppelin/contracts/security/ReentrancyGuard.sol\":2468:2475  _status */\n      0x01\n        /* \"contracts/ArbOptimizer.sol\":1772:17949  contract ArbOptimizer is Ownable, ReentrancyGuard, Pausable {... */\n      sload\n        /* \"@openzeppelin/contracts/security/ReentrancyGuard.sol\":2468:2487  _status != _ENTERED */\n      eq\n        /* \"@openzeppelin/contracts/security/ReentrancyGuard.sol\":1759:1760  2 */\n      tag_827\n      jumpi\n      0x02\n        /* \"@openzeppelin/contracts/security/ReentrancyGuard.sol\":2468:2475  _status */\n      0x01\n        /* \"contracts/ArbOptimizer.sol\":2081:2123  0xC02aaA39b223FE8D0A0e5C4F27eAD9083C756Cc2 */\n      sstore\n        /* \"@openzeppelin/contracts/security/ReentrancyGuard.sol\":2336:2623  function _nonReentrantBefore() private {... */\n      jump\t// out\n        /* \"@openzeppelin/contracts/security/ReentrancyGuard.sol\":1759:1760  2 */\n    tag_827:\n        /* \"contracts/ArbOptimizer.sol\":1772:17949  contract ArbOptimizer is Ownable, ReentrancyGuard, Pausable {... */\n      mload(0x40)\n      shl(0xe5, 0x461bcd)\n        /* \"@openzeppelin/contracts/security/ReentrancyGuard.sol\":1759:1760  2 */\n      dup2\n      mstore\n      0x20\n      0x04\n      dup3\n      add\n      mstore\n      0x1f\n      0x24\n      dup3\n      add\n        /* \"contracts/ArbOptimizer.sol\":1772:17949  contract ArbOptimizer is Ownable, ReentrancyGuard, Pausable {... */\n      mstore\n        /* \"@openzeppelin/contracts/security/ReentrancyGuard.sol\":1759:1760  2 */\n      0x5265656e7472616e637947756172643a207265656e7472616e742063616c6c00\n        /* \"contracts/ArbOptimizer.sol\":1772:17949  contract ArbOptimizer is Ownable, ReentrancyGuard, Pausable {... */\n      0x44\n      dup3\n      add\n        /* \"@openzeppelin/contracts/security/ReentrancyGuard.sol\":1759:1760  2 */\n      mstore\n      0x64\n      swap1\n      revert\n        /* \"contracts/ArbOptimizer.sol\":1772:17949  contract ArbOptimizer is Ownable, ReentrancyGuard, Pausable {... */\n    tag_17:\n      dup1\n      mload\n      dup3\n      lt\n      iszero\n      tag_829\n      jumpi\n      0x20\n      swap2\n      0x05\n      shl\n      add\n      add\n      swap1\n      jump\t// out\n    tag_829:\n        /* \"contracts/ArbOptimizer.sol\":3532:3597  AggregatorV3Interface(0x5f4eC3Df9cbd43714FE2740f5E3616155c5b8419) */\n      shl(0xe0, 0x4e487b71)\n        /* \"contracts/ArbOptimizer.sol\":1772:17949  contract ArbOptimizer is Ownable, ReentrancyGuard, Pausable {... */\n      0x00\n      mstore\n      mstore(0x04, 0x32)\n      revert(0x00, 0x24)\n    tag_19:\n      jumpi(tag_831, iszero(returndatasize))\n      returndatasize\n      swap1\n      0xffffffffffffffff\n      dup3\n      gt\n      tag_804\n      jumpi\n      mload(0x40)\n      swap2\n      tag_835\n      0x1f\n        /* \"contracts/ArbOptimizer.sol\":3532:3597  AggregatorV3Interface(0x5f4eC3Df9cbd43714FE2740f5E3616155c5b8419) */\n      dup3\n      add\n      not(0x1f)\n      and\n        /* \"contracts/ArbOptimizer.sol\":1772:17949  contract ArbOptimizer is Ownable, ReentrancyGuard, Pausable {... */\n      0x20\n      add\n      dup5\n      tag_6\n      jump\t// in\n    tag_835:\n      dup3\n      mstore\n      returndatasize\n      0x00\n      0x20\n      dup5\n      add\n      returndatacopy\n      jump\t// out\n    tag_831:\n      0x60\n      swap1\n      jump\t// out\n    tag_20:\n      iszero\n      tag_837\n      jumpi\n      jump\t// out\n    tag_837:\n      mload(0x40)\n      shl(0xe5, 0x461bcd)\n      dup2\n      mstore\n      0x20\n      0x04\n      dup3\n      add\n      mstore\n      0x13\n      0x24\n      dup3\n      add\n      mstore\n      shl(0x6a, 0x115512081d1c985b9cd9995c8819985a5b1959)\n      0x44\n      dup3\n      add\n      mstore\n      0x64\n      swap1\n      revert\n    stop\n    data_084f00436a29ddf9fe96da3f0df8ffde36506fc292725425a43a4251d44f1f53 e6fee221bb8a85476104e6b67ae7b66010866c78f60f8ce4946f80da6ce04df0\n\n    auxdata: 0xa264697066735822122062892ef768bb584d049e7f6d19cc6df8bf427f6d58b4639c12726ec5c2f50bf264736f6c63430008140033\n}\n",
				"bytecode": {
					"linkReferences": {},
					"object": "608080604052346100db5733156100c6575f8054336001600160a01b03198216811783556040519290916001600160a01b0316907f8be0079c531659141344cd1fd0a4f28419497f9722a3daafe3b4186f6b6457e09080a36001805560028054670de0b6b3a7640000600355683635c9adc5dea000006004556032600555662386f26fc100006006556007805460ff19169055603c6009556001600160a81b03191674efac88d8e212ca21d4fe670f715c4fe12cfbef050017905561257590816100e08239f35b631e4fbdf760e01b81525f6004820152602490fd5b5f80fdfe60406080815260048036101561001e575b5050361561001c575f80fd5b005b5f90813560e01c8063020bcc9e146121175780630af9510114611e915780632e610fb814611e72578063315b41ce14611dc8578063362e496b14611d1a578063383aeeae14611cfb5780633aecd0e314611c735780633f4ba83a14611bdc5780634c02f62e14611b2e5780635c975abb14611b0a5780636b9c189f14611aeb5780636e94729814611ad0578063715018a614611a77578063716ad825146118e557806373b379bd146118c65780638456cb591461186b578063853828b6146112cf578063867e7c27146110dc5780638947606914610fe55780638da5cb5b14610fbd5780638f40f0a614610d9d5780639517ed851461095b578063a140edb41461093c578063a6b8ec96146108d4578063a911f736146108b0578063ad3707d414610881578063affa881714610852578063b4804ce71461081c578063cf224d07146107fd578063d3c7c2c7146106e1578063d7b3a397146105c2578063d8fc063d14610417578063e086e5ec1461033d578063e6419b3f14610310578063f2fde38b146102775763f7d5e663146101b65750610010565b34610273576101c4366121e1565b916101cd612233565b8115158061026a575b15610236577fb332ff846a7f7e49c967d592cb8ecccd56f3693ab85af2f484aa5bfabcd2a57a9394836102309284600355556005546006549151948594859094939260609260808301968352602083015260408201520152565b0390a180f35b606490602086519162461bcd60e51b8352820152600e60248201526d496e76616c6964206c696d69747360901b6044820152fd5b508183116101d6565b5080fd5b50823461030c57602036600319011261030c576001600160a01b03823581811693919290849003610308576102aa612233565b83156102f25750505f54826bffffffffffffffffffffffff60a01b8216175f55167f8be0079c531659141344cd1fd0a4f28419497f9722a3daafe3b4186f6b6457e05f80a380f35b51631e4fbdf760e01b8152908101849052602490fd5b8480fd5b8280fd5b828434610273578160031936011261027357600254905160089190911c6001600160a01b03168152602090f35b5081839134610273578160031936011261027357610359612420565b610361612233565b60025460081c6001600160a01b031690813b1561030c578351633821b97b60e21b81529183918391829084905af1801561040a576103f6575b50504790816103ac575b826001805580f35b6103c58380808086335af16103bf61249e565b506124dd565b519081527f6148672a948a12b8e0bf92a9338349b9ac890fad62a234abaf0a4da99f62cfcc60203392a281806103a4565b6103ff9061225e565b61027357818361039a565b50505051903d90823e3d90fd5b5082903461030c578260031936011261030c57610432612420565b61043a612233565b60025460081c6001600160a01b031690813b156105b457838351631bfc726f60e21b815281816024818373a0b86991c6218b36c1d19d4a2e9eb0ce3606eb489889898401525af180156105b8576105a0575b505082516370a0823160e01b81523082820152926020908185602481875afa94851561056357869561056d575b50846104c8575b856001805580f35b805163a9059cbb60e01b8152339381019384526020840186905292829084908190604001038189885af180156105635761051e575b5f805160206125208339815191529250519384523393a381808080806104c0565b8183813d831161055c575b6105338183612286565b81010312610558576105525f805160206125208339815191529361236f565b506104fd565b8580fd5b503d610529565b81513d88823e3d90fd5b9094508181813d8311610599575b6105858183612286565b81010312610595575193866104b9565b5f80fd5b503d61057b565b6105a99061225e565b6105b457838561048c565b8380fd5b85513d84823e3d90fd5b5091346102735781600319360112610273578051633fabe5a360e21b81529160a0838581735f4ec3df9cbd43714fe2740f5e3616155c5b84195afa9283156106d5578193610687575b508083131561064457606483029280840560641490151715610631576020838351908152f35b634e487b7160e01b815260118452602490fd5b815162461bcd60e51b8152602081860181905260248201527f436861696e6c696e6b3a20496e76616c6964204554482f5553442070726963656044820152606490fd5b90925060a0813d82116106cd575b816106a260a09383612286565b8101031261030c576106b3816122a8565b506106c56080602083015192016122a8565b50915f61060b565b3d9150610695565b509051903d90823e3d90fd5b509190346107fa57806003193601126107fa575080519060a0820182811067ffffffffffffffff8211176107e75781528282526020820160803682378251156107d45773c02aaa39b223fe8d0a0e5c4f27ead9083c756cc290528151600110156107c15773a0b86991c6218b36c1d19d4a2e9eb0ce3606eb48818301528151600210156107c15773dac17f958d2ee523a2206206994597c13d831ec760608301528151600310156107c1576107bd9250736b175474e89094c44da98b954eedeac495271d0f6080830152519182916020835260208301906121f7565b0390f35b603283634e487b7160e01b5f525260245ffd5b603284634e487b7160e01b5f525260245ffd5b604184634e487b7160e01b5f525260245ffd5b80fd5b8284346102735781600319360112610273576020906006549051908152f35b5034610273576020366003190112610273573580151580910361027357610841612233565b60ff80196007541691161760075580f35b8284346102735781600319360112610273576020905173c02aaa39b223fe8d0a0e5c4f27ead9083c756cc28152f35b8284346102735781600319360112610273576020905173efac88d8e212ca21d4fe670f715c4fe12cfbef058152f35b82843461027357816003193601126102735760209060ff6007541690519015158152f35b5082903461030c57602036600319011261030c578035916108f3612233565b62015180831161090557505060095580f35b906020606492519162461bcd60e51b83528201526011602482015270436f6f6c646f776e20746f6f206c6f6e6760781b6044820152fd5b5082903461030c578260031936011261030c5760209250549051908152f35b509190346107fa5761096c366121e1565b61097a6003548210156122bf565b610987855482111561230b565b600280548551637d331ac560e11b8152808801859052602497926001600160a01b0392909160089190911c83169087818b81855afa938415610d93578894610c65575b5050602083018281515110610c3357519160608401519381851015610c21576080015190811015610c0f579188999391610a3f610a2594610a359b519b8c96879563b3eeb62160e01b875260808b88015260848701906121f7565b958a89870152604486019061237c565b606484019061237c565b818961014095869503925af1968715610c05578697610b44575b505061012061010087015196015115159485610b37575b85610ac2575b5050855185815260208101929092525082151560408201527fc30ee1c478b9b474754862f7feeeadc800dce627c1b0621a98906b3d4d97df2c90606090a2825191825215156020820152f35b909192945061271092838702938785041487151715610b27578515610b17575050507fc30ee1c478b9b474754862f7feeeadc800dce627c1b0621a98906b3d4d97df2c90836005549104101592905f80610a76565b634e487b7160e01b825260129052fd5b634e487b7160e01b825260119052fd5b6006548710159550610a70565b908092975081813d8311610bfe575b610b5d8183612286565b8101031261055857875191820182811067ffffffffffffffff821117610bec57885280518252602081015160208301528781015188830152606081015160608301526080810151608083015260a081015160a083015260c081015160c083015260e081015160e08301526101008082015190830152610be061012080920161236f565b90820152945f80610a59565b87604185634e487b7160e01b5f52525ffd5b503d610b53565b88513d88823e3d90fd5b634e487b7160e01b8852602185528988fd5b634e487b7160e01b8952602186528a89fd5b885162461bcd60e51b8152602081870152600d818c01526c496e76616c696420726f75746560981b6044820152606490fd5b909193503d8089843e610c788184612286565b82016020908184820312610d8f57835167ffffffffffffffff94858211610d7557019260a084830312610d8b578b519460a0860186811082821117610d79578d528451865283850151908111610d755784019082601f83011215610d7557908c939291815191610cf3610cea84612357565b96519687612286565b828652848087019360051b820101938411610d71578401915b838310610d5557505050508301528881015189830152606081015183811015610d515760608301526080015182811015610d4d576080820152915f806109ca565b8780fd5b8880fd5b82518281168103610d6d578152918401918401610d0c565b8e80fd5b8d80fd5b8b80fd5b8e60418b634e487b7160e01b5f52525ffd5b8a80fd5b8980fd5b89513d8a823e3d90fd5b5082903461030c576020806003193601126105b4576002548351633225205760e01b8152939490833590839086908690829060081c6001600160a01b03165afa948515610fb3578295610f84575b5093929091610df984612357565b94610e0687519687612286565b848652610e1285612357565b9482870193601f19809701368637610e2982612357565b92610e368a519485612286565b828452610e4283612357565b8486019801368937865b838110610ec85750505050865196879681880191885251809152606087019390855b818110610eb157505050858303868301525180835291810193925b828110610e9857505050500390f35b8351151585528695509381019392810192600101610e89565b825186528998509484019491840191600101610e6e565b808a89610f25938e98999b9a9c9d9e5192639517ed8560e01b84528188850152866024850152898460448186305af1938484918596610f53575b50610f325750610f13929350612476565b5287610f1f8289612476565b5261239d565b9998979596949399610e4c565b925090610f3e91612476565b52610f498289612476565b901515905261239d565b909550610f7691508b3d8d11610f7d575b610f6e8183612286565b8101906123bf565b945f610f02565b503d610f64565b9094508281813d8311610fac575b610f9c8183612286565b8101031261059557519386610deb565b503d610f92565b86513d84823e3d90fd5b828434610273578160031936011261027357905490516001600160a01b039091168152602090f35b5082903461030c57602090816003193601126105b45780356001600160a01b03818116939184900361055857611019612420565b611021612233565b83156110a957859060025460081c16803b15610273578180916024885180948193631bfc726f60e21b83528a8a8401525af18015610fb357611095575b505083516370a0823160e01b81523083820152938185602481875afa94851561056357869561056d5750846104c857856001805580f35b61109e9061225e565b61030857848661105e565b845162461bcd60e51b8152808401839052600d60248201526c24b73b30b634b2103a37b5b2b760991b6044820152606490fd5b5091346102735781600319360112610273578051916370a0823160e01b938484523081850152602092838560248173c02aaa39b223fe8d0a0e5c4f27ead9083c756cc25afa9485156112c5578395611296575b5080518681523083820152848160248173a0b86991c6218b36c1d19d4a2e9eb0ce3606eb485afa90811561128c57849161125f575b508151928784523081850152858460248173dac17f958d2ee523a2206206994597c13d831ec75afa938415611255578594611226575b50825197885230908801528487602481736b175474e89094c44da98b954eedeac495271d0f5afa93841561121b57936111eb575b60a096504794825196875286015284015260608301526080820152f35b92508386813d8311611214575b6112028183612286565b810103126105955760a09551926111ce565b503d6111f8565b8251903d90823e3d90fd5b9093508581813d831161124e575b61123e8183612286565b810103126105955751925f61119a565b503d611234565b83513d87823e3d90fd5b90508481813d8311611285575b6112768183612286565b8101031261059557515f611164565b503d61126c565b82513d86823e3d90fd5b9094508381813d83116112be575b6112ae8183612286565b810103126105955751935f61112f565b503d6112a4565b81513d85823e3d90fd5b50823461030c578260031936011261030c576112e9612420565b6112f1612233565b6002545f9260018060a01b03809260081c1691823b156103085790849291845192631bfc726f60e21b93848152858173c02aaa39b223fe8d0a0e5c4f27ead9083c756cc2938487830152816024998a925af1611858575b5085516370a0823160e01b91828252308583015260209889838981855afa9283156116b4578193611829575b508261179b575b505060025460081c831690505f813b156107fa578751868152818189818373a0b86991c6218b36c1d19d4a2e9eb0ce3606eb4897888c8401525af161178c575b5090875191838352308684015289838981855afa9283156116b457819361175d575b50826116cf575b505060025460081c831690505f813b156107fa578751868152818189818373dac17f958d2ee523a2206206994597c13d831ec797888c8401525af16116c0575b5090875191838352308684015289838981855afa9283156116b4578193611685575b50826115eb575b505050600254915f9260081c1693843b1561030c5790879187519081528381888183736b175474e89094c44da98b954eedeac495271d0f9a8b8b8401525af16115d8575b5086519586918252308583015281865afa93841561159d5781946115a9575b508584611511575b50505050504791826114cd575b836001805580f35b7f6148672a948a12b8e0bf92a9338349b9ac890fad62a234abaf0a4da99f62cfcc916115028580808088335af16103bf61249e565b519283523392a28180806114c5565b855163a9059cbb60e01b815233938101938452602084018690529283908190604001038184875af1801561159d57611567575b505082519182525f80516020612520833981519152843393a383808080856114b8565b8582813d8311611596575b61157c8183612286565b810103126107fa575061158e9061236f565b508580611544565b503d611572565b508451903d90823e3d90fd5b9093508581813d83116115d1575b6115c18183612286565b81010312610595575192876114b0565b503d6115b7565b6115e49093919361225e565b9189611491565b885163a9059cbb60e01b815233878201908152602081018590529091908b9083908190604001038184875af1801561167957611643575b505087519182525f80516020612520833981519152893393a388808061144d565b8a82813d8311611672575b6116588183612286565b810103126107fa575061166a9061236f565b508a80611622565b503d61164e565b508951903d90823e3d90fd5b9092508981813d83116116ad575b61169d8183612286565b810103126105955751918b611446565b503d611693565b508851903d90823e3d90fd5b6116c99061225e565b8a611424565b885163a9059cbb60e01b815233878201908152602081018590529091908b9083908190604001038184875af1801561167957611727575b505087519182525f80516020612520833981519152893393a38880806113e4565b8a82813d8311611756575b61173c8183612286565b810103126107fa575061174e9061236f565b508a80611706565b503d611732565b9092508981813d8311611785575b6117758183612286565b810103126105955751918b6113dd565b503d61176b565b6117959061225e565b8a6113bb565b885163a9059cbb60e01b815233878201908152602081018590529091908b9083908190604001038184875af18015611679576117f3575b505087519182525f80516020612520833981519152893393a388808061137b565b8a82813d8311611822575b6118088183612286565b810103126107fa575061181a9061236f565b508a806117d2565b503d6117fe565b9092508981813d8311611851575b6118418183612286565b810103126105955751918b611374565b503d611837565b6118649097919761225e565b9588611348565b82843461027357816003193601126102735760207f62e78cea01bee320cd4e420270b5ea74000d11b0c9f74754ebdbfc544b05a258916118a9612233565b6118b16123dc565b600160ff19600254161760025551338152a180f35b8284346102735781600319360112610273576020906008549051908152f35b5090346107fa5760209283600319360112610273576002548151633225205760e01b81528435959094939291819086908690829060081c6001600160a01b03165afa948515611a6b578395611a3c575b508415611a04575061194b6003548610156122bf565b611958835486111561230b565b8193829383805b83811061197f578451878152602081018990528615156040820152606090f35b8451639517ed8560e01b81528184820152896024820152858160448186305af19081849185936119e3575b506119bf5750506119ba9061239d565b61195f565b8981116119d2575b50506119ba9061239d565b98509096509450856119ba5f6119c7565b9092506119fd9150873d8911610f7d57610f6e8183612286565b915f6119aa565b8390606492519162461bcd60e51b835282015260136024820152724e6f20726f7574657320617661696c61626c6560681b6044820152fd5b9080955081813d8311611a64575b611a548183612286565b810103126105955751935f611935565b503d611a4a565b505051903d90823e3d90fd5b82346107fa57806003193601126107fa57611a90612233565b5f80546001600160a01b0319811682556001600160a01b03167f8be0079c531659141344cd1fd0a4f28419497f9722a3daafe3b4186f6b6457e08280a380f35b82843461027357816003193601126102735751478152602090f35b8284346102735781600319360112610273576020906003549051908152f35b82843461027357816003193601126102735760209060ff6002541690519015158152f35b5082903461030c578260031936011261030c57611b49612420565b611b51612233565b60025460081c6001600160a01b031690813b156105b457838351631bfc726f60e21b815281816024818373c02aaa39b223fe8d0a0e5c4f27ead9083c756cc29889898401525af180156105b8576105a057505082516370a0823160e01b81523082820152926020908185602481875afa94851561056357869561056d5750846104c857856001805580f35b5082903461030c578260031936011261030c57611bf7612233565b6002549060ff821615611c39575060ff1916600255513381527f5db9ee0a495bf2e6ff9c91a7834c1ba4fdd244a5e8aa4e537bd38aeae4b073aa90602090a180f35b606490602084519162461bcd60e51b8352820152601460248201527314185d5cd8589b194e881b9bdd081c185d5cd95960621b6044820152fd5b509134610273576020928360031936011261030c5780356001600160a01b03811691908290036105b457849060248451809481936370a0823160e01b835230908301525afa92831561121b5792611ccc575b5051908152f35b9091508281813d8311611cf4575b611ce48183612286565b810103126105955751905f611cc5565b503d611cda565b8284346102735781600319360112610273576020906005549051908152f35b5082903461030c578260031936011261030c57611d35612420565b611d3d612233565b60025460081c6001600160a01b031690813b156105b457838351631bfc726f60e21b815281816024818373dac17f958d2ee523a2206206994597c13d831ec79889898401525af180156105b8576105a057505082516370a0823160e01b81523082820152926020908185602481875afa94851561056357869561056d5750846104c857856001805580f35b50913461027357611dd8366121e1565b9390611de2612233565b6127108111611e41577fb332ff846a7f7e49c967d592cb8ecccd56f3693ab85af2f484aa5bfabcd2a57a939481610230926005558160065560035493549451948594859094939260609260808301968352602083015260408201520152565b506020606492519162461bcd60e51b8352820152600b60248201526a496e76616c69642042505360a81b6044820152fd5b8284346102735781600319360112610273576020906009549051908152f35b509190346107fa5760209283600319360112610273578035611eb1612420565b611eb96123dc565b611ec1612233565b611ecf6003548210156122bf565b611edc825482111561230b565b60ff600754166120b2575b835163716ad82560e01b815282810182905260608160248187305af19283156120a857849385928691612060575b501561201d57837f99a04d4bd50085149e64dc7b09cd3bf736a5a4b19f85d58ea535527917c3b2ae878051858152868b820152a260025460081c6001600160a01b031690813b156105585790858073c02aaa39b223fe8d0a0e5c4f27ead9083c756cc260848a9796958389519687948593630ea62cb560e01b85528401528960248401528b60448401528160648401525af19182612000575b5050611fc65750505050905b60018055519015158152f35b7f9f51370fe0eed8407b751449f0bf9ae3f5667f007a2ab895d820da7e2983ebab93945042600855825191825286820152a2600190611fba565b61200e91929394955061225e565b6103085790859291855f611fae565b855162461bcd60e51b8152908101879052601960248201527f4e6f2070726f66697461626c6520726f75746520666f756e64000000000000006044820152606490fd5b94505090506060833d82116120a0575b8161207d60609383612286565b810103126105b4578251906120978688860151950161236f565b9193915f611f15565b3d9150612070565b85513d86823e3d90fd5b600854600954810180911161210457421015611ee757835162461bcd60e51b81528083018690526016602482015275436f6f6c646f776e20706572696f642061637469766560501b6044820152606490fd5b634e487b7160e01b845260118352602484fd5b5082903461030c578260031936011261030c57612132612420565b61213a612233565b60025460081c6001600160a01b031690813b156105b4578251631bfc726f60e21b8152848160248183736b175474e89094c44da98b954eedeac495271d0f9788888401525af180156121d7576121c4575b5082516370a0823160e01b81523082820152926020908185602481875afa94851561056357869561056d5750846104c857856001805580f35b6121d09094919461225e565b928461218b565b84513d87823e3d90fd5b6040906003190112610595576004359060243590565b9081518082526020808093019301915f5b828110612216575050505090565b83516001600160a01b031685529381019392810192600101612208565b5f546001600160a01b0316330361224657565b60405163118cdaa760e01b8152336004820152602490fd5b67ffffffffffffffff811161227257604052565b634e487b7160e01b5f52604160045260245ffd5b90601f8019910116810190811067ffffffffffffffff82111761227257604052565b519069ffffffffffffffffffff8216820361059557565b156122c657565b60405162461bcd60e51b815260206004820152601860248201527f42656c6f77206d696e696d756d20666c617368206c6f616e00000000000000006044820152606490fd5b1561231257565b60405162461bcd60e51b815260206004820152601a60248201527f45786365656473206d6178696d756d20666c617368206c6f616e0000000000006044820152606490fd5b67ffffffffffffffff81116122725760051b60200190565b5190811515820361059557565b9060028210156123895752565b634e487b7160e01b5f52602160045260245ffd5b5f1981146123ab5760010190565b634e487b7160e01b5f52601160045260245ffd5b9190826040910312610595576123d960208351930161236f565b90565b60ff600254166123e857565b60405162461bcd60e51b815260206004820152601060248201526f14185d5cd8589b194e881c185d5cd95960821b6044820152606490fd5b600260015414612431576002600155565b60405162461bcd60e51b815260206004820152601f60248201527f5265656e7472616e637947756172643a207265656e7472616e742063616c6c006044820152606490fd5b805182101561248a5760209160051b010190565b634e487b7160e01b5f52603260045260245ffd5b3d156124d8573d9067ffffffffffffffff821161227257604051916124cd601f8201601f191660200184612286565b82523d5f602084013e565b606090565b156124e457565b60405162461bcd60e51b8152602060048201526013602482015272115512081d1c985b9cd9995c8819985a5b1959606a1b6044820152606490fdfee6fee221bb8a85476104e6b67ae7b66010866c78f60f8ce4946f80da6ce04df0a264697066735822122062892ef768bb584d049e7f6d19cc6df8bf427f6d58b4639c12726ec5c2f50bf264736f6c63430008140033",
					"opcodes": "PUSH1 0x80 DUP1 PUSH1 0x40 MSTORE CALLVALUE PUSH2 0xDB JUMPI CALLER ISZERO PUSH2 0xC6 JUMPI PUSH0 DUP1 SLOAD CALLER PUSH1 0x1 PUSH1 0x1 PUSH1 0xA0 SHL SUB NOT DUP3 AND DUP2 OR DUP4 SSTORE PUSH1 0x40 MLOAD SWAP3 SWAP1 SWAP2 PUSH1 0x1 PUSH1 0x1 PUSH1 0xA0 SHL SUB AND SWAP1 PUSH32 0x8BE0079C531659141344CD1FD0A4F28419497F9722A3DAAFE3B4186F6B6457E0 SWAP1 DUP1 LOG3 PUSH1 0x1 DUP1 SSTORE PUSH1 0x2 DUP1 SLOAD PUSH8 0xDE0B6B3A7640000 PUSH1 0x3 SSTORE PUSH9 0x3635C9ADC5DEA00000 PUSH1 0x4 SSTORE PUSH1 0x32 PUSH1 0x5 SSTORE PUSH7 0x2386F26FC10000 PUSH1 0x6 SSTORE PUSH1 0x7 DUP1 SLOAD PUSH1 0xFF NOT AND SWAP1 SSTORE PUSH1 0x3C PUSH1 0x9 SSTORE PUSH1 0x1 PUSH1 0x1 PUSH1 0xA8 SHL SUB NOT AND PUSH21 0xEFAC88D8E212CA21D4FE670F715C4FE12CFBEF0500 OR SWAP1 SSTORE PUSH2 0x2575 SWAP1 DUP2 PUSH2 0xE0 DUP3 CODECOPY RETURN JUMPDEST PUSH4 0x1E4FBDF7 PUSH1 0xE0 SHL DUP2 MSTORE PUSH0 PUSH1 0x4 DUP3 ADD MSTORE PUSH1 0x24 SWAP1 REVERT JUMPDEST PUSH0 DUP1 REVERT INVALID PUSH1 0x40 PUSH1 0x80 DUP2 MSTORE PUSH1 0x4 DUP1 CALLDATASIZE LT ISZERO PUSH2 0x1E JUMPI JUMPDEST POP POP CALLDATASIZE ISZERO PUSH2 0x1C JUMPI PUSH0 DUP1 REVERT JUMPDEST STOP JUMPDEST PUSH0 SWAP1 DUP2 CALLDATALOAD PUSH1 0xE0 SHR DUP1 PUSH4 0x20BCC9E EQ PUSH2 0x2117 JUMPI DUP1 PUSH4 0xAF95101 EQ PUSH2 0x1E91 JUMPI DUP1 PUSH4 0x2E610FB8 EQ PUSH2 0x1E72 JUMPI DUP1 PUSH4 0x315B41CE EQ PUSH2 0x1DC8 JUMPI DUP1 PUSH4 0x362E496B EQ PUSH2 0x1D1A JUMPI DUP1 PUSH4 0x383AEEAE EQ PUSH2 0x1CFB JUMPI DUP1 PUSH4 0x3AECD0E3 EQ PUSH2 0x1C73 JUMPI DUP1 PUSH4 0x3F4BA83A EQ PUSH2 0x1BDC JUMPI DUP1 PUSH4 0x4C02F62E EQ PUSH2 0x1B2E JUMPI DUP1 PUSH4 0x5C975ABB EQ PUSH2 0x1B0A JUMPI DUP1 PUSH4 0x6B9C189F EQ PUSH2 0x1AEB JUMPI DUP1 PUSH4 0x6E947298 EQ PUSH2 0x1AD0 JUMPI DUP1 PUSH4 0x715018A6 EQ PUSH2 0x1A77 JUMPI DUP1 PUSH4 0x716AD825 EQ PUSH2 0x18E5 JUMPI DUP1 PUSH4 0x73B379BD EQ PUSH2 0x18C6 JUMPI DUP1 PUSH4 0x8456CB59 EQ PUSH2 0x186B JUMPI DUP1 PUSH4 0x853828B6 EQ PUSH2 0x12CF JUMPI DUP1 PUSH4 0x867E7C27 EQ PUSH2 0x10DC JUMPI DUP1 PUSH4 0x89476069 EQ PUSH2 0xFE5 JUMPI DUP1 PUSH4 0x8DA5CB5B EQ PUSH2 0xFBD JUMPI DUP1 PUSH4 0x8F40F0A6 EQ PUSH2 0xD9D JUMPI DUP1 PUSH4 0x9517ED85 EQ PUSH2 0x95B JUMPI DUP1 PUSH4 0xA140EDB4 EQ PUSH2 0x93C JUMPI DUP1 PUSH4 0xA6B8EC96 EQ PUSH2 0x8D4 JUMPI DUP1 PUSH4 0xA911F736 EQ PUSH2 0x8B0 JUMPI DUP1 PUSH4 0xAD3707D4 EQ PUSH2 0x881 JUMPI DUP1 PUSH4 0xAFFA8817 EQ PUSH2 0x852 JUMPI DUP1 PUSH4 0xB4804CE7 EQ PUSH2 0x81C JUMPI DUP1 PUSH4 0xCF224D07 EQ PUSH2 0x7FD JUMPI DUP1 PUSH4 0xD3C7C2C7 EQ PUSH2 0x6E1 JUMPI DUP1 PUSH4 0xD7B3A397 EQ PUSH2 0x5C2 JUMPI DUP1 PUSH4 0xD8FC063D EQ PUSH2 0x417 JUMPI DUP1 PUSH4 0xE086E5EC EQ PUSH2 0x33D JUMPI DUP1 PUSH4 0xE6419B3F EQ PUSH2 0x310 JUMPI DUP1 PUSH4 0xF2FDE38B EQ PUSH2 0x277 JUMPI PUSH4 0xF7D5E663 EQ PUSH2 0x1B6 JUMPI POP PUSH2 0x10 JUMP JUMPDEST CALLVALUE PUSH2 0x273 JUMPI PUSH2 0x1C4 CALLDATASIZE PUSH2 0x21E1 JUMP JUMPDEST SWAP2 PUSH2 0x1CD PUSH2 0x2233 JUMP JUMPDEST DUP2 ISZERO ISZERO DUP1 PUSH2 0x26A JUMPI JUMPDEST ISZERO PUSH2 0x236 JUMPI PUSH32 0xB332FF846A7F7E49C967D592CB8ECCCD56F3693AB85AF2F484AA5BFABCD2A57A SWAP4 SWAP5 DUP4 PUSH2 0x230 SWAP3 DUP5 PUSH1 0x3 SSTORE SSTORE PUSH1 0x5 SLOAD PUSH1 0x6 SLOAD SWAP2 MLOAD SWAP5 DUP6 SWAP5 DUP6 SWAP1 SWAP5 SWAP4 SWAP3 PUSH1 0x60 SWAP3 PUSH1 0x80 DUP4 ADD SWAP7 DUP4 MSTORE PUSH1 0x20 DUP4 ADD MSTORE PUSH1 0x40 DUP3 ADD MSTORE ADD MSTORE JUMP JUMPDEST SUB SWAP1 LOG1 DUP1 RETURN JUMPDEST PUSH1 0x64 SWAP1 PUSH1 0x20 DUP7 MLOAD SWAP2 PUSH3 0x461BCD PUSH1 0xE5 SHL DUP4 MSTORE DUP3 ADD MSTORE PUSH1 0xE PUSH1 0x24 DUP3 ADD MSTORE PUSH14 0x496E76616C6964206C696D697473 PUSH1 0x90 SHL PUSH1 0x44 DUP3 ADD MSTORE REVERT JUMPDEST POP DUP2 DUP4 GT PUSH2 0x1D6 JUMP JUMPDEST POP DUP1 REVERT JUMPDEST POP DUP3 CALLVALUE PUSH2 0x30C JUMPI PUSH1 0x20 CALLDATASIZE PUSH1 0x3 NOT ADD SLT PUSH2 0x30C JUMPI PUSH1 0x1 PUSH1 0x1 PUSH1 0xA0 SHL SUB DUP3 CALLDATALOAD DUP2 DUP2 AND SWAP4 SWAP2 SWAP3 SWAP1 DUP5 SWAP1 SUB PUSH2 0x308 JUMPI PUSH2 0x2AA PUSH2 0x2233 JUMP JUMPDEST DUP4 ISZERO PUSH2 0x2F2 JUMPI POP POP PUSH0 SLOAD DUP3 PUSH12 0xFFFFFFFFFFFFFFFFFFFFFFFF PUSH1 0xA0 SHL DUP3 AND OR PUSH0 SSTORE AND PUSH32 0x8BE0079C531659141344CD1FD0A4F28419497F9722A3DAAFE3B4186F6B6457E0 PUSH0 DUP1 LOG3 DUP1 RETURN JUMPDEST MLOAD PUSH4 0x1E4FBDF7 PUSH1 0xE0 SHL DUP2 MSTORE SWAP1 DUP2 ADD DUP5 SWAP1 MSTORE PUSH1 0x24 SWAP1 REVERT JUMPDEST DUP5 DUP1 REVERT JUMPDEST DUP3 DUP1 REVERT JUMPDEST DUP3 DUP5 CALLVALUE PUSH2 0x273 JUMPI DUP2 PUSH1 0x3 NOT CALLDATASIZE ADD SLT PUSH2 0x273 JUMPI PUSH1 0x2 SLOAD SWAP1 MLOAD PUSH1 0x8 SWAP2 SWAP1 SWAP2 SHR PUSH1 0x1 PUSH1 0x1 PUSH1 0xA0 SHL SUB AND DUP2 MSTORE PUSH1 0x20 SWAP1 RETURN JUMPDEST POP DUP2 DUP4 SWAP2 CALLVALUE PUSH2 0x273 JUMPI DUP2 PUSH1 0x3 NOT CALLDATASIZE ADD SLT PUSH2 0x273 JUMPI PUSH2 0x359 PUSH2 0x2420 JUMP JUMPDEST PUSH2 0x361 PUSH2 0x2233 JUMP JUMPDEST PUSH1 0x2 SLOAD PUSH1 0x8 SHR PUSH1 0x1 PUSH1 0x1 PUSH1 0xA0 SHL SUB AND SWAP1 DUP2 EXTCODESIZE ISZERO PUSH2 0x30C JUMPI DUP4 MLOAD PUSH4 0x3821B97B PUSH1 0xE2 SHL DUP2 MSTORE SWAP2 DUP4 SWAP2 DUP4 SWAP2 DUP3 SWAP1 DUP5 SWAP1 GAS CALL DUP1 ISZERO PUSH2 0x40A JUMPI PUSH2 0x3F6 JUMPI JUMPDEST POP POP SELFBALANCE SWAP1 DUP2 PUSH2 0x3AC JUMPI JUMPDEST DUP3 PUSH1 0x1 DUP1 SSTORE DUP1 RETURN JUMPDEST PUSH2 0x3C5 DUP4 DUP1 DUP1 DUP1 DUP7 CALLER GAS CALL PUSH2 0x3BF PUSH2 0x249E JUMP JUMPDEST POP PUSH2 0x24DD JUMP JUMPDEST MLOAD SWAP1 DUP2 MSTORE PUSH32 0x6148672A948A12B8E0BF92A9338349B9AC890FAD62A234ABAF0A4DA99F62CFCC PUSH1 0x20 CALLER SWAP3 LOG2 DUP2 DUP1 PUSH2 0x3A4 JUMP JUMPDEST PUSH2 0x3FF SWAP1 PUSH2 0x225E JUMP JUMPDEST PUSH2 0x273 JUMPI DUP2 DUP4 PUSH2 0x39A JUMP JUMPDEST POP POP POP MLOAD SWAP1 RETURNDATASIZE SWAP1 DUP3 RETURNDATACOPY RETURNDATASIZE SWAP1 REVERT JUMPDEST POP DUP3 SWAP1 CALLVALUE PUSH2 0x30C JUMPI DUP3 PUSH1 0x3 NOT CALLDATASIZE ADD SLT PUSH2 0x30C JUMPI PUSH2 0x432 PUSH2 0x2420 JUMP JUMPDEST PUSH2 0x43A PUSH2 0x2233 JUMP JUMPDEST PUSH1 0x2 SLOAD PUSH1 0x8 SHR PUSH1 0x1 PUSH1 0x1 PUSH1 0xA0 SHL SUB AND SWAP1 DUP2 EXTCODESIZE ISZERO PUSH2 0x5B4 JUMPI DUP4 DUP4 MLOAD PUSH4 0x1BFC726F PUSH1 0xE2 SHL DUP2 MSTORE DUP2 DUP2 PUSH1 0x24 DUP2 DUP4 PUSH20 0xA0B86991C6218B36C1D19D4A2E9EB0CE3606EB48 SWAP9 DUP10 DUP10 DUP5 ADD MSTORE GAS CALL DUP1 ISZERO PUSH2 0x5B8 JUMPI PUSH2 0x5A0 JUMPI JUMPDEST POP POP DUP3 MLOAD PUSH4 0x70A08231 PUSH1 0xE0 SHL DUP2 MSTORE ADDRESS DUP3 DUP3 ADD MSTORE SWAP3 PUSH1 0x20 SWAP1 DUP2 DUP6 PUSH1 0x24 DUP2 DUP8 GAS STATICCALL SWAP5 DUP6 ISZERO PUSH2 0x563 JUMPI DUP7 SWAP6 PUSH2 0x56D JUMPI JUMPDEST POP DUP5 PUSH2 0x4C8 JUMPI JUMPDEST DUP6 PUSH1 0x1 DUP1 SSTORE DUP1 RETURN JUMPDEST DUP1 MLOAD PUSH4 0xA9059CBB PUSH1 0xE0 SHL DUP2 MSTORE CALLER SWAP4 DUP2 ADD SWAP4 DUP5 MSTORE PUSH1 0x20 DUP5 ADD DUP7 SWAP1 MSTORE SWAP3 DUP3 SWAP1 DUP5 SWAP1 DUP2 SWAP1 PUSH1 0x40 ADD SUB DUP2 DUP10 DUP9 GAS CALL DUP1 ISZERO PUSH2 0x563 JUMPI PUSH2 0x51E JUMPI JUMPDEST PUSH0 DUP1 MLOAD PUSH1 0x20 PUSH2 0x2520 DUP4 CODECOPY DUP2 MLOAD SWAP2 MSTORE SWAP3 POP MLOAD SWAP4 DUP5 MSTORE CALLER SWAP4 LOG3 DUP2 DUP1 DUP1 DUP1 DUP1 PUSH2 0x4C0 JUMP JUMPDEST DUP2 DUP4 DUP2 RETURNDATASIZE DUP4 GT PUSH2 0x55C JUMPI JUMPDEST PUSH2 0x533 DUP2 DUP4 PUSH2 0x2286 JUMP JUMPDEST DUP2 ADD SUB SLT PUSH2 0x558 JUMPI PUSH2 0x552 PUSH0 DUP1 MLOAD PUSH1 0x20 PUSH2 0x2520 DUP4 CODECOPY DUP2 MLOAD SWAP2 MSTORE SWAP4 PUSH2 0x236F JUMP JUMPDEST POP PUSH2 0x4FD JUMP JUMPDEST DUP6 DUP1 REVERT JUMPDEST POP RETURNDATASIZE PUSH2 0x529 JUMP JUMPDEST DUP2 MLOAD RETURNDATASIZE DUP9 DUP3 RETURNDATACOPY RETURNDATASIZE SWAP1 REVERT JUMPDEST SWAP1 SWAP5 POP DUP2 DUP2 DUP2 RETURNDATASIZE DUP4 GT PUSH2 0x599 JUMPI JUMPDEST PUSH2 0x585 DUP2 DUP4 PUSH2 0x2286 JUMP JUMPDEST DUP2 ADD SUB SLT PUSH2 0x595 JUMPI MLOAD SWAP4 DUP7 PUSH2 0x4B9 JUMP JUMPDEST PUSH0 DUP1 REVERT JUMPDEST POP RETURNDATASIZE PUSH2 0x57B JUMP JUMPDEST PUSH2 0x5A9 SWAP1 PUSH2 0x225E JUMP JUMPDEST PUSH2 0x5B4 JUMPI DUP4 DUP6 PUSH2 0x48C JUMP JUMPDEST DUP4 DUP1 REVERT JUMPDEST DUP6 MLOAD RETURNDATASIZE DUP5 DUP3 RETURNDATACOPY RETURNDATASIZE SWAP1 REVERT JUMPDEST POP SWAP2 CALLVALUE PUSH2 0x273 JUMPI DUP2 PUSH1 0x3 NOT CALLDATASIZE ADD SLT PUSH2 0x273 JUMPI DUP1 MLOAD PUSH4 0x3FABE5A3 PUSH1 0xE2 SHL DUP2 MSTORE SWAP2 PUSH1 0xA0 DUP4 DUP6 DUP2 PUSH20 0x5F4EC3DF9CBD43714FE2740F5E3616155C5B8419 GAS STATICCALL SWAP3 DUP4 ISZERO PUSH2 0x6D5 JUMPI DUP2 SWAP4 PUSH2 0x687 JUMPI JUMPDEST POP DUP1 DUP4 SGT ISZERO PUSH2 0x644 JUMPI PUSH1 0x64 DUP4 MUL SWAP3 DUP1 DUP5 SDIV PUSH1 0x64 EQ SWAP1 ISZERO OR ISZERO PUSH2 0x631 JUMPI PUSH1 0x20 DUP4 DUP4 MLOAD SWAP1 DUP2 MSTORE RETURN JUMPDEST PUSH4 0x4E487B71 PUSH1 0xE0 SHL DUP2 MSTORE PUSH1 0x11 DUP5 MSTORE PUSH1 0x24 SWAP1 REVERT JUMPDEST DUP2 MLOAD PUSH3 0x461BCD PUSH1 0xE5 SHL DUP2 MSTORE PUSH1 0x20 DUP2 DUP7 ADD DUP2 SWAP1 MSTORE PUSH1 0x24 DUP3 ADD MSTORE PUSH32 0x436861696E6C696E6B3A20496E76616C6964204554482F555344207072696365 PUSH1 0x44 DUP3 ADD MSTORE PUSH1 0x64 SWAP1 REVERT JUMPDEST SWAP1 SWAP3 POP PUSH1 0xA0 DUP2 RETURNDATASIZE DUP3 GT PUSH2 0x6CD JUMPI JUMPDEST DUP2 PUSH2 0x6A2 PUSH1 0xA0 SWAP4 DUP4 PUSH2 0x2286 JUMP JUMPDEST DUP2 ADD SUB SLT PUSH2 0x30C JUMPI PUSH2 0x6B3 DUP2 PUSH2 0x22A8 JUMP JUMPDEST POP PUSH2 0x6C5 PUSH1 0x80 PUSH1 0x20 DUP4 ADD MLOAD SWAP3 ADD PUSH2 0x22A8 JUMP JUMPDEST POP SWAP2 PUSH0 PUSH2 0x60B JUMP JUMPDEST RETURNDATASIZE SWAP2 POP PUSH2 0x695 JUMP JUMPDEST POP SWAP1 MLOAD SWAP1 RETURNDATASIZE SWAP1 DUP3 RETURNDATACOPY RETURNDATASIZE SWAP1 REVERT JUMPDEST POP SWAP2 SWAP1 CALLVALUE PUSH2 0x7FA JUMPI DUP1 PUSH1 0x3 NOT CALLDATASIZE ADD SLT PUSH2 0x7FA JUMPI POP DUP1 MLOAD SWAP1 PUSH1 0xA0 DUP3 ADD DUP3 DUP2 LT PUSH8 0xFFFFFFFFFFFFFFFF DUP3 GT OR PUSH2 0x7E7 JUMPI DUP2 MSTORE DUP3 DUP3 MSTORE PUSH1 0x20 DUP3 ADD PUSH1 0x80 CALLDATASIZE DUP3 CALLDATACOPY DUP3 MLOAD ISZERO PUSH2 0x7D4 JUMPI PUSH20 0xC02AAA39B223FE8D0A0E5C4F27EAD9083C756CC2 SWAP1 MSTORE DUP2 MLOAD PUSH1 0x1 LT ISZERO PUSH2 0x7C1 JUMPI PUSH20 0xA0B86991C6218B36C1D19D4A2E9EB0CE3606EB48 DUP2 DUP4 ADD MSTORE DUP2 MLOAD PUSH1 0x2 LT ISZERO PUSH2 0x7C1 JUMPI PUSH20 0xDAC17F958D2EE523A2206206994597C13D831EC7 PUSH1 0x60 DUP4 ADD MSTORE DUP2 MLOAD PUSH1 0x3 LT ISZERO PUSH2 0x7C1 JUMPI PUSH2 0x7BD SWAP3 POP PUSH20 0x6B175474E89094C44DA98B954EEDEAC495271D0F PUSH1 0x80 DUP4 ADD MSTORE MLOAD SWAP2 DUP3 SWAP2 PUSH1 0x20 DUP4 MSTORE PUSH1 0x20 DUP4 ADD SWAP1 PUSH2 0x21F7 JUMP JUMPDEST SUB SWAP1 RETURN JUMPDEST PUSH1 0x32 DUP4 PUSH4 0x4E487B71 PUSH1 0xE0 SHL PUSH0 MSTORE MSTORE PUSH1 0x24 PUSH0 REVERT JUMPDEST PUSH1 0x32 DUP5 PUSH4 0x4E487B71 PUSH1 0xE0 SHL PUSH0 MSTORE MSTORE PUSH1 0x24 PUSH0 REVERT JUMPDEST PUSH1 0x41 DUP5 PUSH4 0x4E487B71 PUSH1 0xE0 SHL PUSH0 MSTORE MSTORE PUSH1 0x24 PUSH0 REVERT JUMPDEST DUP1 REVERT JUMPDEST DUP3 DUP5 CALLVALUE PUSH2 0x273 JUMPI DUP2 PUSH1 0x3 NOT CALLDATASIZE ADD SLT PUSH2 0x273 JUMPI PUSH1 0x20 SWAP1 PUSH1 0x6 SLOAD SWAP1 MLOAD SWAP1 DUP2 MSTORE RETURN JUMPDEST POP CALLVALUE PUSH2 0x273 JUMPI PUSH1 0x20 CALLDATASIZE PUSH1 0x3 NOT ADD SLT PUSH2 0x273 JUMPI CALLDATALOAD DUP1 ISZERO ISZERO DUP1 SWAP2 SUB PUSH2 0x273 JUMPI PUSH2 0x841 PUSH2 0x2233 JUMP JUMPDEST PUSH1 0xFF DUP1 NOT PUSH1 0x7 SLOAD AND SWAP2 AND OR PUSH1 0x7 SSTORE DUP1 RETURN JUMPDEST DUP3 DUP5 CALLVALUE PUSH2 0x273 JUMPI DUP2 PUSH1 0x3 NOT CALLDATASIZE ADD SLT PUSH2 0x273 JUMPI PUSH1 0x20 SWAP1 MLOAD PUSH20 0xC02AAA39B223FE8D0A0E5C4F27EAD9083C756CC2 DUP2 MSTORE RETURN JUMPDEST DUP3 DUP5 CALLVALUE PUSH2 0x273 JUMPI DUP2 PUSH1 0x3 NOT CALLDATASIZE ADD SLT PUSH2 0x273 JUMPI PUSH1 0x20 SWAP1 MLOAD PUSH20 0xEFAC88D8E212CA21D4FE670F715C4FE12CFBEF05 DUP2 MSTORE RETURN JUMPDEST DUP3 DUP5 CALLVALUE PUSH2 0x273 JUMPI DUP2 PUSH1 0x3 NOT CALLDATASIZE ADD SLT PUSH2 0x273 JUMPI PUSH1 0x20 SWAP1 PUSH1 0xFF PUSH1 0x7 SLOAD AND SWAP1 MLOAD SWAP1 ISZERO ISZERO DUP2 MSTORE RETURN JUMPDEST POP DUP3 SWAP1 CALLVALUE PUSH2 0x30C JUMPI PUSH1 0x20 CALLDATASIZE PUSH1 0x3 NOT ADD SLT PUSH2 0x30C JUMPI DUP1 CALLDATALOAD SWAP2 PUSH2 0x8F3 PUSH2 0x2233 JUMP JUMPDEST PUSH3 0x15180 DUP4 GT PUSH2 0x905 JUMPI POP POP PUSH1 0x9 SSTORE DUP1 RETURN JUMPDEST SWAP1 PUSH1 0x20 PUSH1 0x64 SWAP3 MLOAD SWAP2 PUSH3 0x461BCD PUSH1 0xE5 SHL DUP4 MSTORE DUP3 ADD MSTORE PUSH1 0x11 PUSH1 0x24 DUP3 ADD MSTORE PUSH17 0x436F6F6C646F776E20746F6F206C6F6E67 PUSH1 0x78 SHL PUSH1 0x44 DUP3 ADD MSTORE REVERT JUMPDEST POP DUP3 SWAP1 CALLVALUE PUSH2 0x30C JUMPI DUP3 PUSH1 0x3 NOT CALLDATASIZE ADD SLT PUSH2 0x30C JUMPI PUSH1 0x20 SWAP3 POP SLOAD SWAP1 MLOAD SWAP1 DUP2 MSTORE RETURN JUMPDEST POP SWAP2 SWAP1 CALLVALUE PUSH2 0x7FA JUMPI PUSH2 0x96C CALLDATASIZE PUSH2 0x21E1 JUMP JUMPDEST PUSH2 0x97A PUSH1 0x3 SLOAD DUP3 LT ISZERO PUSH2 0x22BF JUMP JUMPDEST PUSH2 0x987 DUP6 SLOAD DUP3 GT ISZERO PUSH2 0x230B JUMP JUMPDEST PUSH1 0x2 DUP1 SLOAD DUP6 MLOAD PUSH4 0x7D331AC5 PUSH1 0xE1 SHL DUP2 MSTORE DUP1 DUP9 ADD DUP6 SWAP1 MSTORE PUSH1 0x24 SWAP8 SWAP3 PUSH1 0x1 PUSH1 0x1 PUSH1 0xA0 SHL SUB SWAP3 SWAP1 SWAP2 PUSH1 0x8 SWAP2 SWAP1 SWAP2 SHR DUP4 AND SWAP1 DUP8 DUP2 DUP12 DUP2 DUP6 GAS STATICCALL SWAP4 DUP5 ISZERO PUSH2 0xD93 JUMPI DUP9 SWAP5 PUSH2 0xC65 JUMPI JUMPDEST POP POP PUSH1 0x20 DUP4 ADD DUP3 DUP2 MLOAD MLOAD LT PUSH2 0xC33 JUMPI MLOAD SWAP2 PUSH1 0x60 DUP5 ADD MLOAD SWAP4 DUP2 DUP6 LT ISZERO PUSH2 0xC21 JUMPI PUSH1 0x80 ADD MLOAD SWAP1 DUP2 LT ISZERO PUSH2 0xC0F JUMPI SWAP2 DUP9 SWAP10 SWAP4 SWAP2 PUSH2 0xA3F PUSH2 0xA25 SWAP5 PUSH2 0xA35 SWAP12 MLOAD SWAP12 DUP13 SWAP7 DUP8 SWAP6 PUSH4 0xB3EEB621 PUSH1 0xE0 SHL DUP8 MSTORE PUSH1 0x80 DUP12 DUP9 ADD MSTORE PUSH1 0x84 DUP8 ADD SWAP1 PUSH2 0x21F7 JUMP JUMPDEST SWAP6 DUP11 DUP10 DUP8 ADD MSTORE PUSH1 0x44 DUP7 ADD SWAP1 PUSH2 0x237C JUMP JUMPDEST PUSH1 0x64 DUP5 ADD SWAP1 PUSH2 0x237C JUMP JUMPDEST DUP2 DUP10 PUSH2 0x140 SWAP6 DUP7 SWAP6 SUB SWAP3 GAS CALL SWAP7 DUP8 ISZERO PUSH2 0xC05 JUMPI DUP7 SWAP8 PUSH2 0xB44 JUMPI JUMPDEST POP POP PUSH2 0x120 PUSH2 0x100 DUP8 ADD MLOAD SWAP7 ADD MLOAD ISZERO ISZERO SWAP5 DUP6 PUSH2 0xB37 JUMPI JUMPDEST DUP6 PUSH2 0xAC2 JUMPI JUMPDEST POP POP DUP6 MLOAD DUP6 DUP2 MSTORE PUSH1 0x20 DUP2 ADD SWAP3 SWAP1 SWAP3 MSTORE POP DUP3 ISZERO ISZERO PUSH1 0x40 DUP3 ADD MSTORE PUSH32 0xC30EE1C478B9B474754862F7FEEEADC800DCE627C1B0621A98906B3D4D97DF2C SWAP1 PUSH1 0x60 SWAP1 LOG2 DUP3 MLOAD SWAP2 DUP3 MSTORE ISZERO ISZERO PUSH1 0x20 DUP3 ADD MSTORE RETURN JUMPDEST SWAP1 SWAP2 SWAP3 SWAP5 POP PUSH2 0x2710 SWAP3 DUP4 DUP8 MUL SWAP4 DUP8 DUP6 DIV EQ DUP8 ISZERO OR ISZERO PUSH2 0xB27 JUMPI DUP6 ISZERO PUSH2 0xB17 JUMPI POP POP POP PUSH32 0xC30EE1C478B9B474754862F7FEEEADC800DCE627C1B0621A98906B3D4D97DF2C SWAP1 DUP4 PUSH1 0x5 SLOAD SWAP2 DIV LT ISZERO SWAP3 SWAP1 PUSH0 DUP1 PUSH2 0xA76 JUMP JUMPDEST PUSH4 0x4E487B71 PUSH1 0xE0 SHL DUP3 MSTORE PUSH1 0x12 SWAP1 MSTORE REVERT JUMPDEST PUSH4 0x4E487B71 PUSH1 0xE0 SHL DUP3 MSTORE PUSH1 0x11 SWAP1 MSTORE REVERT JUMPDEST PUSH1 0x6 SLOAD DUP8 LT ISZERO SWAP6 POP PUSH2 0xA70 JUMP JUMPDEST SWAP1 DUP1 SWAP3 SWAP8 POP DUP2 DUP2 RETURNDATASIZE DUP4 GT PUSH2 0xBFE JUMPI JUMPDEST PUSH2 0xB5D DUP2 DUP4 PUSH2 0x2286 JUMP JUMPDEST DUP2 ADD SUB SLT PUSH2 0x558 JUMPI DUP8 MLOAD SWAP2 DUP3 ADD DUP3 DUP2 LT PUSH8 0xFFFFFFFFFFFFFFFF DUP3 GT OR PUSH2 0xBEC JUMPI DUP9 MSTORE DUP1 MLOAD DUP3 MSTORE PUSH1 0x20 DUP2 ADD MLOAD PUSH1 0x20 DUP4 ADD MSTORE DUP8 DUP2 ADD MLOAD DUP9 DUP4 ADD MSTORE PUSH1 0x60 DUP2 ADD MLOAD PUSH1 0x60 DUP4 ADD MSTORE PUSH1 0x80 DUP2 ADD MLOAD PUSH1 0x80 DUP4 ADD MSTORE PUSH1 0xA0 DUP2 ADD MLOAD PUSH1 0xA0 DUP4 ADD MSTORE PUSH1 0xC0 DUP2 ADD MLOAD PUSH1 0xC0 DUP4 ADD MSTORE PUSH1 0xE0 DUP2 ADD MLOAD PUSH1 0xE0 DUP4 ADD MSTORE PUSH2 0x100 DUP1 DUP3 ADD MLOAD SWAP1 DUP4 ADD MSTORE PUSH2 0xBE0 PUSH2 0x120 DUP1 SWAP3 ADD PUSH2 0x236F JUMP JUMPDEST SWAP1 DUP3 ADD MSTORE SWAP5 PUSH0 DUP1 PUSH2 0xA59 JUMP JUMPDEST DUP8 PUSH1 0x41 DUP6 PUSH4 0x4E487B71 PUSH1 0xE0 SHL PUSH0 MSTORE MSTORE PUSH0 REVERT JUMPDEST POP RETURNDATASIZE PUSH2 0xB53 JUMP JUMPDEST DUP9 MLOAD RETURNDATASIZE DUP9 DUP3 RETURNDATACOPY RETURNDATASIZE SWAP1 REVERT JUMPDEST PUSH4 0x4E487B71 PUSH1 0xE0 SHL DUP9 MSTORE PUSH1 0x21 DUP6 MSTORE DUP10 DUP9 REVERT JUMPDEST PUSH4 0x4E487B71 PUSH1 0xE0 SHL DUP10 MSTORE PUSH1 0x21 DUP7 MSTORE DUP11 DUP10 REVERT JUMPDEST DUP9 MLOAD PUSH3 0x461BCD PUSH1 0xE5 SHL DUP2 MSTORE PUSH1 0x20 DUP2 DUP8 ADD MSTORE PUSH1 0xD DUP2 DUP13 ADD MSTORE PUSH13 0x496E76616C696420726F757465 PUSH1 0x98 SHL PUSH1 0x44 DUP3 ADD MSTORE PUSH1 0x64 SWAP1 REVERT JUMPDEST SWAP1 SWAP2 SWAP4 POP RETURNDATASIZE DUP1 DUP10 DUP5 RETURNDATACOPY PUSH2 0xC78 DUP2 DUP5 PUSH2 0x2286 JUMP JUMPDEST DUP3 ADD PUSH1 0x20 SWAP1 DUP2 DUP5 DUP3 SUB SLT PUSH2 0xD8F JUMPI DUP4 MLOAD PUSH8 0xFFFFFFFFFFFFFFFF SWAP5 DUP6 DUP3 GT PUSH2 0xD75 JUMPI ADD SWAP3 PUSH1 0xA0 DUP5 DUP4 SUB SLT PUSH2 0xD8B JUMPI DUP12 MLOAD SWAP5 PUSH1 0xA0 DUP7 ADD DUP7 DUP2 LT DUP3 DUP3 GT OR PUSH2 0xD79 JUMPI DUP14 MSTORE DUP5 MLOAD DUP7 MSTORE DUP4 DUP6 ADD MLOAD SWAP1 DUP2 GT PUSH2 0xD75 JUMPI DUP5 ADD SWAP1 DUP3 PUSH1 0x1F DUP4 ADD SLT ISZERO PUSH2 0xD75 JUMPI SWAP1 DUP13 SWAP4 SWAP3 SWAP2 DUP2 MLOAD SWAP2 PUSH2 0xCF3 PUSH2 0xCEA DUP5 PUSH2 0x2357 JUMP JUMPDEST SWAP7 MLOAD SWAP7 DUP8 PUSH2 0x2286 JUMP JUMPDEST DUP3 DUP7 MSTORE DUP5 DUP1 DUP8 ADD SWAP4 PUSH1 0x5 SHL DUP3 ADD ADD SWAP4 DUP5 GT PUSH2 0xD71 JUMPI DUP5 ADD SWAP2 JUMPDEST DUP4 DUP4 LT PUSH2 0xD55 JUMPI POP POP POP POP DUP4 ADD MSTORE DUP9 DUP2 ADD MLOAD DUP10 DUP4 ADD MSTORE PUSH1 0x60 DUP2 ADD MLOAD DUP4 DUP2 LT ISZERO PUSH2 0xD51 JUMPI PUSH1 0x60 DUP4 ADD MSTORE PUSH1 0x80 ADD MLOAD DUP3 DUP2 LT ISZERO PUSH2 0xD4D JUMPI PUSH1 0x80 DUP3 ADD MSTORE SWAP2 PUSH0 DUP1 PUSH2 0x9CA JUMP JUMPDEST DUP8 DUP1 REVERT JUMPDEST DUP9 DUP1 REVERT JUMPDEST DUP3 MLOAD DUP3 DUP2 AND DUP2 SUB PUSH2 0xD6D JUMPI DUP2 MSTORE SWAP2 DUP5 ADD SWAP2 DUP5 ADD PUSH2 0xD0C JUMP JUMPDEST DUP15 DUP1 REVERT JUMPDEST DUP14 DUP1 REVERT JUMPDEST DUP12 DUP1 REVERT JUMPDEST DUP15 PUSH1 0x41 DUP12 PUSH4 0x4E487B71 PUSH1 0xE0 SHL PUSH0 MSTORE MSTORE PUSH0 REVERT JUMPDEST DUP11 DUP1 REVERT JUMPDEST DUP10 DUP1 REVERT JUMPDEST DUP10 MLOAD RETURNDATASIZE DUP11 DUP3 RETURNDATACOPY RETURNDATASIZE SWAP1 REVERT JUMPDEST POP DUP3 SWAP1 CALLVALUE PUSH2 0x30C JUMPI PUSH1 0x20 DUP1 PUSH1 0x3 NOT CALLDATASIZE ADD SLT PUSH2 0x5B4 JUMPI PUSH1 0x2 SLOAD DUP4 MLOAD PUSH4 0x32252057 PUSH1 0xE0 SHL DUP2 MSTORE SWAP4 SWAP5 SWAP1 DUP4 CALLDATALOAD SWAP1 DUP4 SWAP1 DUP7 SWAP1 DUP7 SWAP1 DUP3 SWAP1 PUSH1 0x8 SHR PUSH1 0x1 PUSH1 0x1 PUSH1 0xA0 SHL SUB AND GAS STATICCALL SWAP5 DUP6 ISZERO PUSH2 0xFB3 JUMPI DUP3 SWAP6 PUSH2 0xF84 JUMPI JUMPDEST POP SWAP4 SWAP3 SWAP1 SWAP2 PUSH2 0xDF9 DUP5 PUSH2 0x2357 JUMP JUMPDEST SWAP5 PUSH2 0xE06 DUP8 MLOAD SWAP7 DUP8 PUSH2 0x2286 JUMP JUMPDEST DUP5 DUP7 MSTORE PUSH2 0xE12 DUP6 PUSH2 0x2357 JUMP JUMPDEST SWAP5 DUP3 DUP8 ADD SWAP4 PUSH1 0x1F NOT DUP1 SWAP8 ADD CALLDATASIZE DUP7 CALLDATACOPY PUSH2 0xE29 DUP3 PUSH2 0x2357 JUMP JUMPDEST SWAP3 PUSH2 0xE36 DUP11 MLOAD SWAP5 DUP6 PUSH2 0x2286 JUMP JUMPDEST DUP3 DUP5 MSTORE PUSH2 0xE42 DUP4 PUSH2 0x2357 JUMP JUMPDEST DUP5 DUP7 ADD SWAP9 ADD CALLDATASIZE DUP10 CALLDATACOPY DUP7 JUMPDEST DUP4 DUP2 LT PUSH2 0xEC8 JUMPI POP POP POP POP DUP7 MLOAD SWAP7 DUP8 SWAP7 DUP2 DUP9 ADD SWAP2 DUP9 MSTORE MLOAD DUP1 SWAP2 MSTORE PUSH1 0x60 DUP8 ADD SWAP4 SWAP1 DUP6 JUMPDEST DUP2 DUP2 LT PUSH2 0xEB1 JUMPI POP POP POP DUP6 DUP4 SUB DUP7 DUP4 ADD MSTORE MLOAD DUP1 DUP4 MSTORE SWAP2 DUP2 ADD SWAP4 SWAP3 JUMPDEST DUP3 DUP2 LT PUSH2 0xE98 JUMPI POP POP POP POP SUB SWAP1 RETURN JUMPDEST DUP4 MLOAD ISZERO ISZERO DUP6 MSTORE DUP7 SWAP6 POP SWAP4 DUP2 ADD SWAP4 SWAP3 DUP2 ADD SWAP3 PUSH1 0x1 ADD PUSH2 0xE89 JUMP JUMPDEST DUP3 MLOAD DUP7 MSTORE DUP10 SWAP9 POP SWAP5 DUP5 ADD SWAP5 SWAP2 DUP5 ADD SWAP2 PUSH1 0x1 ADD PUSH2 0xE6E JUMP JUMPDEST DUP1 DUP11 DUP10 PUSH2 0xF25 SWAP4 DUP15 SWAP9 SWAP10 SWAP12 SWAP11 SWAP13 SWAP14 SWAP15 MLOAD SWAP3 PUSH4 0x9517ED85 PUSH1 0xE0 SHL DUP5 MSTORE DUP2 DUP9 DUP6 ADD MSTORE DUP7 PUSH1 0x24 DUP6 ADD MSTORE DUP10 DUP5 PUSH1 0x44 DUP2 DUP7 ADDRESS GAS CALL SWAP4 DUP5 DUP5 SWAP2 DUP6 SWAP7 PUSH2 0xF53 JUMPI JUMPDEST POP PUSH2 0xF32 JUMPI POP PUSH2 0xF13 SWAP3 SWAP4 POP PUSH2 0x2476 JUMP JUMPDEST MSTORE DUP8 PUSH2 0xF1F DUP3 DUP10 PUSH2 0x2476 JUMP JUMPDEST MSTORE PUSH2 0x239D JUMP JUMPDEST SWAP10 SWAP9 SWAP8 SWAP6 SWAP7 SWAP5 SWAP4 SWAP10 PUSH2 0xE4C JUMP JUMPDEST SWAP3 POP SWAP1 PUSH2 0xF3E SWAP2 PUSH2 0x2476 JUMP JUMPDEST MSTORE PUSH2 0xF49 DUP3 DUP10 PUSH2 0x2476 JUMP JUMPDEST SWAP1 ISZERO ISZERO SWAP1 MSTORE PUSH2 0x239D JUMP JUMPDEST SWAP1 SWAP6 POP PUSH2 0xF76 SWAP2 POP DUP12 RETURNDATASIZE DUP14 GT PUSH2 0xF7D JUMPI JUMPDEST PUSH2 0xF6E DUP2 DUP4 PUSH2 0x2286 JUMP JUMPDEST DUP2 ADD SWAP1 PUSH2 0x23BF JUMP JUMPDEST SWAP5 PUSH0 PUSH2 0xF02 JUMP JUMPDEST POP RETURNDATASIZE PUSH2 0xF64 JUMP JUMPDEST SWAP1 SWAP5 POP DUP3 DUP2 DUP2 RETURNDATASIZE DUP4 GT PUSH2 0xFAC JUMPI JUMPDEST PUSH2 0xF9C DUP2 DUP4 PUSH2 0x2286 JUMP JUMPDEST DUP2 ADD SUB SLT PUSH2 0x595 JUMPI MLOAD SWAP4 DUP7 PUSH2 0xDEB JUMP JUMPDEST POP RETURNDATASIZE PUSH2 0xF92 JUMP JUMPDEST DUP7 MLOAD RETURNDATASIZE DUP5 DUP3 RETURNDATACOPY RETURNDATASIZE SWAP1 REVERT JUMPDEST DUP3 DUP5 CALLVALUE PUSH2 0x273 JUMPI DUP2 PUSH1 0x3 NOT CALLDATASIZE ADD SLT PUSH2 0x273 JUMPI SWAP1 SLOAD SWAP1 MLOAD PUSH1 0x1 PUSH1 0x1 PUSH1 0xA0 SHL SUB SWAP1 SWAP2 AND DUP2 MSTORE PUSH1 0x20 SWAP1 RETURN JUMPDEST POP DUP3 SWAP1 CALLVALUE PUSH2 0x30C JUMPI PUSH1 0x20 SWAP1 DUP2 PUSH1 0x3 NOT CALLDATASIZE ADD SLT PUSH2 0x5B4 JUMPI DUP1 CALLDATALOAD PUSH1 0x1 PUSH1 0x1 PUSH1 0xA0 SHL SUB DUP2 DUP2 AND SWAP4 SWAP2 DUP5 SWAP1 SUB PUSH2 0x558 JUMPI PUSH2 0x1019 PUSH2 0x2420 JUMP JUMPDEST PUSH2 0x1021 PUSH2 0x2233 JUMP JUMPDEST DUP4 ISZERO PUSH2 0x10A9 JUMPI DUP6 SWAP1 PUSH1 0x2 SLOAD PUSH1 0x8 SHR AND DUP1 EXTCODESIZE ISZERO PUSH2 0x273 JUMPI DUP2 DUP1 SWAP2 PUSH1 0x24 DUP9 MLOAD DUP1 SWAP5 DUP2 SWAP4 PUSH4 0x1BFC726F PUSH1 0xE2 SHL DUP4 MSTORE DUP11 DUP11 DUP5 ADD MSTORE GAS CALL DUP1 ISZERO PUSH2 0xFB3 JUMPI PUSH2 0x1095 JUMPI JUMPDEST POP POP DUP4 MLOAD PUSH4 0x70A08231 PUSH1 0xE0 SHL DUP2 MSTORE ADDRESS DUP4 DUP3 ADD MSTORE SWAP4 DUP2 DUP6 PUSH1 0x24 DUP2 DUP8 GAS STATICCALL SWAP5 DUP6 ISZERO PUSH2 0x563 JUMPI DUP7 SWAP6 PUSH2 0x56D JUMPI POP DUP5 PUSH2 0x4C8 JUMPI DUP6 PUSH1 0x1 DUP1 SSTORE DUP1 RETURN JUMPDEST PUSH2 0x109E SWAP1 PUSH2 0x225E JUMP JUMPDEST PUSH2 0x308 JUMPI DUP5 DUP7 PUSH2 0x105E JUMP JUMPDEST DUP5 MLOAD PUSH3 0x461BCD PUSH1 0xE5 SHL DUP2 MSTORE DUP1 DUP5 ADD DUP4 SWAP1 MSTORE PUSH1 0xD PUSH1 0x24 DUP3 ADD MSTORE PUSH13 0x24B73B30B634B2103A37B5B2B7 PUSH1 0x99 SHL PUSH1 0x44 DUP3 ADD MSTORE PUSH1 0x64 SWAP1 REVERT JUMPDEST POP SWAP2 CALLVALUE PUSH2 0x273 JUMPI DUP2 PUSH1 0x3 NOT CALLDATASIZE ADD SLT PUSH2 0x273 JUMPI DUP1 MLOAD SWAP2 PUSH4 0x70A08231 PUSH1 0xE0 SHL SWAP4 DUP5 DUP5 MSTORE ADDRESS DUP2 DUP6 ADD MSTORE PUSH1 0x20 SWAP3 DUP4 DUP6 PUSH1 0x24 DUP2 PUSH20 0xC02AAA39B223FE8D0A0E5C4F27EAD9083C756CC2 GAS STATICCALL SWAP5 DUP6 ISZERO PUSH2 0x12C5 JUMPI DUP4 SWAP6 PUSH2 0x1296 JUMPI JUMPDEST POP DUP1 MLOAD DUP7 DUP2 MSTORE ADDRESS DUP4 DUP3 ADD MSTORE DUP5 DUP2 PUSH1 0x24 DUP2 PUSH20 0xA0B86991C6218B36C1D19D4A2E9EB0CE3606EB48 GAS STATICCALL SWAP1 DUP2 ISZERO PUSH2 0x128C JUMPI DUP5 SWAP2 PUSH2 0x125F JUMPI JUMPDEST POP DUP2 MLOAD SWAP3 DUP8 DUP5 MSTORE ADDRESS DUP2 DUP6 ADD MSTORE DUP6 DUP5 PUSH1 0x24 DUP2 PUSH20 0xDAC17F958D2EE523A2206206994597C13D831EC7 GAS STATICCALL SWAP4 DUP5 ISZERO PUSH2 0x1255 JUMPI DUP6 SWAP5 PUSH2 0x1226 JUMPI JUMPDEST POP DUP3 MLOAD SWAP8 DUP9 MSTORE ADDRESS SWAP1 DUP9 ADD MSTORE DUP5 DUP8 PUSH1 0x24 DUP2 PUSH20 0x6B175474E89094C44DA98B954EEDEAC495271D0F GAS STATICCALL SWAP4 DUP5 ISZERO PUSH2 0x121B JUMPI SWAP4 PUSH2 0x11EB JUMPI JUMPDEST PUSH1 0xA0 SWAP7 POP SELFBALANCE SWAP5 DUP3 MLOAD SWAP7 DUP8 MSTORE DUP7 ADD MSTORE DUP5 ADD MSTORE PUSH1 0x60 DUP4 ADD MSTORE PUSH1 0x80 DUP3 ADD MSTORE RETURN JUMPDEST SWAP3 POP DUP4 DUP7 DUP2 RETURNDATASIZE DUP4 GT PUSH2 0x1214 JUMPI JUMPDEST PUSH2 0x1202 DUP2 DUP4 PUSH2 0x2286 JUMP JUMPDEST DUP2 ADD SUB SLT PUSH2 0x595 JUMPI PUSH1 0xA0 SWAP6 MLOAD SWAP3 PUSH2 0x11CE JUMP JUMPDEST POP RETURNDATASIZE PUSH2 0x11F8 JUMP JUMPDEST DUP3 MLOAD SWAP1 RETURNDATASIZE SWAP1 DUP3 RETURNDATACOPY RETURNDATASIZE SWAP1 REVERT JUMPDEST SWAP1 SWAP4 POP DUP6 DUP2 DUP2 RETURNDATASIZE DUP4 GT PUSH2 0x124E JUMPI JUMPDEST PUSH2 0x123E DUP2 DUP4 PUSH2 0x2286 JUMP JUMPDEST DUP2 ADD SUB SLT PUSH2 0x595 JUMPI MLOAD SWAP3 PUSH0 PUSH2 0x119A JUMP JUMPDEST POP RETURNDATASIZE PUSH2 0x1234 JUMP JUMPDEST DUP4 MLOAD RETURNDATASIZE DUP8 DUP3 RETURNDATACOPY RETURNDATASIZE SWAP1 REVERT JUMPDEST SWAP1 POP DUP5 DUP2 DUP2 RETURNDATASIZE DUP4 GT PUSH2 0x1285 JUMPI JUMPDEST PUSH2 0x1276 DUP2 DUP4 PUSH2 0x2286 JUMP JUMPDEST DUP2 ADD SUB SLT PUSH2 0x595 JUMPI MLOAD PUSH0 PUSH2 0x1164 JUMP JUMPDEST POP RETURNDATASIZE PUSH2 0x126C JUMP JUMPDEST DUP3 MLOAD RETURNDATASIZE DUP7 DUP3 RETURNDATACOPY RETURNDATASIZE SWAP1 REVERT JUMPDEST SWAP1 SWAP5 POP DUP4 DUP2 DUP2 RETURNDATASIZE DUP4 GT PUSH2 0x12BE JUMPI JUMPDEST PUSH2 0x12AE DUP2 DUP4 PUSH2 0x2286 JUMP JUMPDEST DUP2 ADD SUB SLT PUSH2 0x595 JUMPI MLOAD SWAP4 PUSH0 PUSH2 0x112F JUMP JUMPDEST POP RETURNDATASIZE PUSH2 0x12A4 JUMP JUMPDEST DUP2 MLOAD RETURNDATASIZE DUP6 DUP3 RETURNDATACOPY RETURNDATASIZE SWAP1 REVERT JUMPDEST POP DUP3 CALLVALUE PUSH2 0x30C JUMPI DUP3 PUSH1 0x3 NOT CALLDATASIZE ADD SLT PUSH2 0x30C JUMPI PUSH2 0x12E9 PUSH2 0x2420 JUMP JUMPDEST PUSH2 0x12F1 PUSH2 0x2233 JUMP JUMPDEST PUSH1 0x2 SLOAD PUSH0 SWAP3 PUSH1 0x1 DUP1 PUSH1 0xA0 SHL SUB DUP1 SWAP3 PUSH1 0x8 SHR AND SWAP2 DUP3 EXTCODESIZE ISZERO PUSH2 0x308 JUMPI SWAP1 DUP5 SWAP3 SWAP2 DUP5 MLOAD SWAP3 PUSH4 0x1BFC726F PUSH1 0xE2 SHL SWAP4 DUP5 DUP2 MSTORE DUP6 DUP2 PUSH20 0xC02AAA39B223FE8D0A0E5C4F27EAD9083C756CC2 SWAP4 DUP5 DUP8 DUP4 ADD MSTORE DUP2 PUSH1 0x24 SWAP10 DUP11 SWAP3 GAS CALL PUSH2 0x1858 JUMPI JUMPDEST POP DUP6 MLOAD PUSH4 0x70A08231 PUSH1 0xE0 SHL SWAP2 DUP3 DUP3 MSTORE ADDRESS DUP6 DUP4 ADD MSTORE PUSH1 0x20 SWAP9 DUP10 DUP4 DUP10 DUP2 DUP6 GAS STATICCALL SWAP3 DUP4 ISZERO PUSH2 0x16B4 JUMPI DUP2 SWAP4 PUSH2 0x1829 JUMPI JUMPDEST POP DUP3 PUSH2 0x179B JUMPI JUMPDEST POP POP PUSH1 0x2 SLOAD PUSH1 0x8 SHR DUP4 AND SWAP1 POP PUSH0 DUP2 EXTCODESIZE ISZERO PUSH2 0x7FA JUMPI DUP8 MLOAD DUP7 DUP2 MSTORE DUP2 DUP2 DUP10 DUP2 DUP4 PUSH20 0xA0B86991C6218B36C1D19D4A2E9EB0CE3606EB48 SWAP8 DUP9 DUP13 DUP5 ADD MSTORE GAS CALL PUSH2 0x178C JUMPI JUMPDEST POP SWAP1 DUP8 MLOAD SWAP2 DUP4 DUP4 MSTORE ADDRESS DUP7 DUP5 ADD MSTORE DUP10 DUP4 DUP10 DUP2 DUP6 GAS STATICCALL SWAP3 DUP4 ISZERO PUSH2 0x16B4 JUMPI DUP2 SWAP4 PUSH2 0x175D JUMPI JUMPDEST POP DUP3 PUSH2 0x16CF JUMPI JUMPDEST POP POP PUSH1 0x2 SLOAD PUSH1 0x8 SHR DUP4 AND SWAP1 POP PUSH0 DUP2 EXTCODESIZE ISZERO PUSH2 0x7FA JUMPI DUP8 MLOAD DUP7 DUP2 MSTORE DUP2 DUP2 DUP10 DUP2 DUP4 PUSH20 0xDAC17F958D2EE523A2206206994597C13D831EC7 SWAP8 DUP9 DUP13 DUP5 ADD MSTORE GAS CALL PUSH2 0x16C0 JUMPI JUMPDEST POP SWAP1 DUP8 MLOAD SWAP2 DUP4 DUP4 MSTORE ADDRESS DUP7 DUP5 ADD MSTORE DUP10 DUP4 DUP10 DUP2 DUP6 GAS STATICCALL SWAP3 DUP4 ISZERO PUSH2 0x16B4 JUMPI DUP2 SWAP4 PUSH2 0x1685 JUMPI JUMPDEST POP DUP3 PUSH2 0x15EB JUMPI JUMPDEST POP POP POP PUSH1 0x2 SLOAD SWAP2 PUSH0 SWAP3 PUSH1 0x8 SHR AND SWAP4 DUP5 EXTCODESIZE ISZERO PUSH2 0x30C JUMPI SWAP1 DUP8 SWAP2 DUP8 MLOAD SWAP1 DUP2 MSTORE DUP4 DUP2 DUP9 DUP2 DUP4 PUSH20 0x6B175474E89094C44DA98B954EEDEAC495271D0F SWAP11 DUP12 DUP12 DUP5 ADD MSTORE GAS CALL PUSH2 0x15D8 JUMPI JUMPDEST POP DUP7 MLOAD SWAP6 DUP7 SWAP2 DUP3 MSTORE ADDRESS DUP6 DUP4 ADD MSTORE DUP2 DUP7 GAS STATICCALL SWAP4 DUP5 ISZERO PUSH2 0x159D JUMPI DUP2 SWAP5 PUSH2 0x15A9 JUMPI JUMPDEST POP DUP6 DUP5 PUSH2 0x1511 JUMPI JUMPDEST POP POP POP POP POP SELFBALANCE SWAP2 DUP3 PUSH2 0x14CD JUMPI JUMPDEST DUP4 PUSH1 0x1 DUP1 SSTORE DUP1 RETURN JUMPDEST PUSH32 0x6148672A948A12B8E0BF92A9338349B9AC890FAD62A234ABAF0A4DA99F62CFCC SWAP2 PUSH2 0x1502 DUP6 DUP1 DUP1 DUP1 DUP9 CALLER GAS CALL PUSH2 0x3BF PUSH2 0x249E JUMP JUMPDEST MLOAD SWAP3 DUP4 MSTORE CALLER SWAP3 LOG2 DUP2 DUP1 DUP1 PUSH2 0x14C5 JUMP JUMPDEST DUP6 MLOAD PUSH4 0xA9059CBB PUSH1 0xE0 SHL DUP2 MSTORE CALLER SWAP4 DUP2 ADD SWAP4 DUP5 MSTORE PUSH1 0x20 DUP5 ADD DUP7 SWAP1 MSTORE SWAP3 DUP4 SWAP1 DUP2 SWAP1 PUSH1 0x40 ADD SUB DUP2 DUP5 DUP8 GAS CALL DUP1 ISZERO PUSH2 0x159D JUMPI PUSH2 0x1567 JUMPI JUMPDEST POP POP DUP3 MLOAD SWAP2 DUP3 MSTORE PUSH0 DUP1 MLOAD PUSH1 0x20 PUSH2 0x2520 DUP4 CODECOPY DUP2 MLOAD SWAP2 MSTORE DUP5 CALLER SWAP4 LOG3 DUP4 DUP1 DUP1 DUP1 DUP6 PUSH2 0x14B8 JUMP JUMPDEST DUP6 DUP3 DUP2 RETURNDATASIZE DUP4 GT PUSH2 0x1596 JUMPI JUMPDEST PUSH2 0x157C DUP2 DUP4 PUSH2 0x2286 JUMP JUMPDEST DUP2 ADD SUB SLT PUSH2 0x7FA JUMPI POP PUSH2 0x158E SWAP1 PUSH2 0x236F JUMP JUMPDEST POP DUP6 DUP1 PUSH2 0x1544 JUMP JUMPDEST POP RETURNDATASIZE PUSH2 0x1572 JUMP JUMPDEST POP DUP5 MLOAD SWAP1 RETURNDATASIZE SWAP1 DUP3 RETURNDATACOPY RETURNDATASIZE SWAP1 REVERT JUMPDEST SWAP1 SWAP4 POP DUP6 DUP2 DUP2 RETURNDATASIZE DUP4 GT PUSH2 0x15D1 JUMPI JUMPDEST PUSH2 0x15C1 DUP2 DUP4 PUSH2 0x2286 JUMP JUMPDEST DUP2 ADD SUB SLT PUSH2 0x595 JUMPI MLOAD SWAP3 DUP8 PUSH2 0x14B0 JUMP JUMPDEST POP RETURNDATASIZE PUSH2 0x15B7 JUMP JUMPDEST PUSH2 0x15E4 SWAP1 SWAP4 SWAP2 SWAP4 PUSH2 0x225E JUMP JUMPDEST SWAP2 DUP10 PUSH2 0x1491 JUMP JUMPDEST DUP9 MLOAD PUSH4 0xA9059CBB PUSH1 0xE0 SHL DUP2 MSTORE CALLER DUP8 DUP3 ADD SWAP1 DUP2 MSTORE PUSH1 0x20 DUP2 ADD DUP6 SWAP1 MSTORE SWAP1 SWAP2 SWAP1 DUP12 SWAP1 DUP4 SWAP1 DUP2 SWAP1 PUSH1 0x40 ADD SUB DUP2 DUP5 DUP8 GAS CALL DUP1 ISZERO PUSH2 0x1679 JUMPI PUSH2 0x1643 JUMPI JUMPDEST POP POP DUP8 MLOAD SWAP2 DUP3 MSTORE PUSH0 DUP1 MLOAD PUSH1 0x20 PUSH2 0x2520 DUP4 CODECOPY DUP2 MLOAD SWAP2 MSTORE DUP10 CALLER SWAP4 LOG3 DUP9 DUP1 DUP1 PUSH2 0x144D JUMP JUMPDEST DUP11 DUP3 DUP2 RETURNDATASIZE DUP4 GT PUSH2 0x1672 JUMPI JUMPDEST PUSH2 0x1658 DUP2 DUP4 PUSH2 0x2286 JUMP JUMPDEST DUP2 ADD SUB SLT PUSH2 0x7FA JUMPI POP PUSH2 0x166A SWAP1 PUSH2 0x236F JUMP JUMPDEST POP DUP11 DUP1 PUSH2 0x1622 JUMP JUMPDEST POP RETURNDATASIZE PUSH2 0x164E JUMP JUMPDEST POP DUP10 MLOAD SWAP1 RETURNDATASIZE SWAP1 DUP3 RETURNDATACOPY RETURNDATASIZE SWAP1 REVERT JUMPDEST SWAP1 SWAP3 POP DUP10 DUP2 DUP2 RETURNDATASIZE DUP4 GT PUSH2 0x16AD JUMPI JUMPDEST PUSH2 0x169D DUP2 DUP4 PUSH2 0x2286 JUMP JUMPDEST DUP2 ADD SUB SLT PUSH2 0x595 JUMPI MLOAD SWAP2 DUP12 PUSH2 0x1446 JUMP JUMPDEST POP RETURNDATASIZE PUSH2 0x1693 JUMP JUMPDEST POP DUP9 MLOAD SWAP1 RETURNDATASIZE SWAP1 DUP3 RETURNDATACOPY RETURNDATASIZE SWAP1 REVERT JUMPDEST PUSH2 0x16C9 SWAP1 PUSH2 0x225E JUMP JUMPDEST DUP11 PUSH2 0x1424 JUMP JUMPDEST DUP9 MLOAD PUSH4 0xA9059CBB PUSH1 0xE0 SHL DUP2 MSTORE CALLER DUP8 DUP3 ADD SWAP1 DUP2 MSTORE PUSH1 0x20 DUP2 ADD DUP6 SWAP1 MSTORE SWAP1 SWAP2 SWAP1 DUP12 SWAP1 DUP4 SWAP1 DUP2 SWAP1 PUSH1 0x40 ADD SUB DUP2 DUP5 DUP8 GAS CALL DUP1 ISZERO PUSH2 0x1679 JUMPI PUSH2 0x1727 JUMPI JUMPDEST POP POP DUP8 MLOAD SWAP2 DUP3 MSTORE PUSH0 DUP1 MLOAD PUSH1 0x20 PUSH2 0x2520 DUP4 CODECOPY DUP2 MLOAD SWAP2 MSTORE DUP10 CALLER SWAP4 LOG3 DUP9 DUP1 DUP1 PUSH2 0x13E4 JUMP JUMPDEST DUP11 DUP3 DUP2 RETURNDATASIZE DUP4 GT PUSH2 0x1756 JUMPI JUMPDEST PUSH2 0x173C DUP2 DUP4 PUSH2 0x2286 JUMP JUMPDEST DUP2 ADD SUB SLT PUSH2 0x7FA JUMPI POP PUSH2 0x174E SWAP1 PUSH2 0x236F JUMP JUMPDEST POP DUP11 DUP1 PUSH2 0x1706 JUMP JUMPDEST POP RETURNDATASIZE PUSH2 0x1732 JUMP JUMPDEST SWAP1 SWAP3 POP DUP10 DUP2 DUP2 RETURNDATASIZE DUP4 GT PUSH2 0x1785 JUMPI JUMPDEST PUSH2 0x1775 DUP2 DUP4 PUSH2 0x2286 JUMP JUMPDEST DUP2 ADD SUB SLT PUSH2 0x595 JUMPI MLOAD SWAP2 DUP12 PUSH2 0x13DD JUMP JUMPDEST POP RETURNDATASIZE PUSH2 0x176B JUMP JUMPDEST PUSH2 0x1795 SWAP1 PUSH2 0x225E JUMP JUMPDEST DUP11 PUSH2 0x13BB JUMP JUMPDEST DUP9 MLOAD PUSH4 0xA9059CBB PUSH1 0xE0 SHL DUP2 MSTORE CALLER DUP8 DUP3 ADD SWAP1 DUP2 MSTORE PUSH1 0x20 DUP2 ADD DUP6 SWAP1 MSTORE SWAP1 SWAP2 SWAP1 DUP12 SWAP1 DUP4 SWAP1 DUP2 SWAP1 PUSH1 0x40 ADD SUB DUP2 DUP5 DUP8 GAS CALL DUP1 ISZERO PUSH2 0x1679 JUMPI PUSH2 0x17F3 JUMPI JUMPDEST POP POP DUP8 MLOAD SWAP2 DUP3 MSTORE PUSH0 DUP1 MLOAD PUSH1 0x20 PUSH2 0x2520 DUP4 CODECOPY DUP2 MLOAD SWAP2 MSTORE DUP10 CALLER SWAP4 LOG3 DUP9 DUP1 DUP1 PUSH2 0x137B JUMP JUMPDEST DUP11 DUP3 DUP2 RETURNDATASIZE DUP4 GT PUSH2 0x1822 JUMPI JUMPDEST PUSH2 0x1808 DUP2 DUP4 PUSH2 0x2286 JUMP JUMPDEST DUP2 ADD SUB SLT PUSH2 0x7FA JUMPI POP PUSH2 0x181A SWAP1 PUSH2 0x236F JUMP JUMPDEST POP DUP11 DUP1 PUSH2 0x17D2 JUMP JUMPDEST POP RETURNDATASIZE PUSH2 0x17FE JUMP JUMPDEST SWAP1 SWAP3 POP DUP10 DUP2 DUP2 RETURNDATASIZE DUP4 GT PUSH2 0x1851 JUMPI JUMPDEST PUSH2 0x1841 DUP2 DUP4 PUSH2 0x2286 JUMP JUMPDEST DUP2 ADD SUB SLT PUSH2 0x595 JUMPI MLOAD SWAP2 DUP12 PUSH2 0x1374 JUMP JUMPDEST POP RETURNDATASIZE PUSH2 0x1837 JUMP JUMPDEST PUSH2 0x1864 SWAP1 SWAP8 SWAP2 SWAP8 PUSH2 0x225E JUMP JUMPDEST SWAP6 DUP9 PUSH2 0x1348 JUMP JUMPDEST DUP3 DUP5 CALLVALUE PUSH2 0x273 JUMPI DUP2 PUSH1 0x3 NOT CALLDATASIZE ADD SLT PUSH2 0x273 JUMPI PUSH1 0x20 PUSH32 0x62E78CEA01BEE320CD4E420270B5EA74000D11B0C9F74754EBDBFC544B05A258 SWAP2 PUSH2 0x18A9 PUSH2 0x2233 JUMP JUMPDEST PUSH2 0x18B1 PUSH2 0x23DC JUMP JUMPDEST PUSH1 0x1 PUSH1 0xFF NOT PUSH1 0x2 SLOAD AND OR PUSH1 0x2 SSTORE MLOAD CALLER DUP2 MSTORE LOG1 DUP1 RETURN JUMPDEST DUP3 DUP5 CALLVALUE PUSH2 0x273 JUMPI DUP2 PUSH1 0x3 NOT CALLDATASIZE ADD SLT PUSH2 0x273 JUMPI PUSH1 0x20 SWAP1 PUSH1 0x8 SLOAD SWAP1 MLOAD SWAP1 DUP2 MSTORE RETURN JUMPDEST POP SWAP1 CALLVALUE PUSH2 0x7FA JUMPI PUSH1 0x20 SWAP3 DUP4 PUSH1 0x3 NOT CALLDATASIZE ADD SLT PUSH2 0x273 JUMPI PUSH1 0x2 SLOAD DUP2 MLOAD PUSH4 0x32252057 PUSH1 0xE0 SHL DUP2 MSTORE DUP5 CALLDATALOAD SWAP6 SWAP1 SWAP5 SWAP4 SWAP3 SWAP2 DUP2 SWAP1 DUP7 SWAP1 DUP7 SWAP1 DUP3 SWAP1 PUSH1 0x8 SHR PUSH1 0x1 PUSH1 0x1 PUSH1 0xA0 SHL SUB AND GAS STATICCALL SWAP5 DUP6 ISZERO PUSH2 0x1A6B JUMPI DUP4 SWAP6 PUSH2 0x1A3C JUMPI JUMPDEST POP DUP5 ISZERO PUSH2 0x1A04 JUMPI POP PUSH2 0x194B PUSH1 0x3 SLOAD DUP7 LT ISZERO PUSH2 0x22BF JUMP JUMPDEST PUSH2 0x1958 DUP4 SLOAD DUP7 GT ISZERO PUSH2 0x230B JUMP JUMPDEST DUP2 SWAP4 DUP3 SWAP4 DUP4 DUP1 JUMPDEST DUP4 DUP2 LT PUSH2 0x197F JUMPI DUP5 MLOAD DUP8 DUP2 MSTORE PUSH1 0x20 DUP2 ADD DUP10 SWAP1 MSTORE DUP7 ISZERO ISZERO PUSH1 0x40 DUP3 ADD MSTORE PUSH1 0x60 SWAP1 RETURN JUMPDEST DUP5 MLOAD PUSH4 0x9517ED85 PUSH1 0xE0 SHL DUP2 MSTORE DUP2 DUP5 DUP3 ADD MSTORE DUP10 PUSH1 0x24 DUP3 ADD MSTORE DUP6 DUP2 PUSH1 0x44 DUP2 DUP7 ADDRESS GAS CALL SWAP1 DUP2 DUP5 SWAP2 DUP6 SWAP4 PUSH2 0x19E3 JUMPI JUMPDEST POP PUSH2 0x19BF JUMPI POP POP PUSH2 0x19BA SWAP1 PUSH2 0x239D JUMP JUMPDEST PUSH2 0x195F JUMP JUMPDEST DUP10 DUP2 GT PUSH2 0x19D2 JUMPI JUMPDEST POP POP PUSH2 0x19BA SWAP1 PUSH2 0x239D JUMP JUMPDEST SWAP9 POP SWAP1 SWAP7 POP SWAP5 POP DUP6 PUSH2 0x19BA PUSH0 PUSH2 0x19C7 JUMP JUMPDEST SWAP1 SWAP3 POP PUSH2 0x19FD SWAP2 POP DUP8 RETURNDATASIZE DUP10 GT PUSH2 0xF7D JUMPI PUSH2 0xF6E DUP2 DUP4 PUSH2 0x2286 JUMP JUMPDEST SWAP2 PUSH0 PUSH2 0x19AA JUMP JUMPDEST DUP4 SWAP1 PUSH1 0x64 SWAP3 MLOAD SWAP2 PUSH3 0x461BCD PUSH1 0xE5 SHL DUP4 MSTORE DUP3 ADD MSTORE PUSH1 0x13 PUSH1 0x24 DUP3 ADD MSTORE PUSH19 0x4E6F20726F7574657320617661696C61626C65 PUSH1 0x68 SHL PUSH1 0x44 DUP3 ADD MSTORE REVERT JUMPDEST SWAP1 DUP1 SWAP6 POP DUP2 DUP2 RETURNDATASIZE DUP4 GT PUSH2 0x1A64 JUMPI JUMPDEST PUSH2 0x1A54 DUP2 DUP4 PUSH2 0x2286 JUMP JUMPDEST DUP2 ADD SUB SLT PUSH2 0x595 JUMPI MLOAD SWAP4 PUSH0 PUSH2 0x1935 JUMP JUMPDEST POP RETURNDATASIZE PUSH2 0x1A4A JUMP JUMPDEST POP POP MLOAD SWAP1 RETURNDATASIZE SWAP1 DUP3 RETURNDATACOPY RETURNDATASIZE SWAP1 REVERT JUMPDEST DUP3 CALLVALUE PUSH2 0x7FA JUMPI DUP1 PUSH1 0x3 NOT CALLDATASIZE ADD SLT PUSH2 0x7FA JUMPI PUSH2 0x1A90 PUSH2 0x2233 JUMP JUMPDEST PUSH0 DUP1 SLOAD PUSH1 0x1 PUSH1 0x1 PUSH1 0xA0 SHL SUB NOT DUP2 AND DUP3 SSTORE PUSH1 0x1 PUSH1 0x1 PUSH1 0xA0 SHL SUB AND PUSH32 0x8BE0079C531659141344CD1FD0A4F28419497F9722A3DAAFE3B4186F6B6457E0 DUP3 DUP1 LOG3 DUP1 RETURN JUMPDEST DUP3 DUP5 CALLVALUE PUSH2 0x273 JUMPI DUP2 PUSH1 0x3 NOT CALLDATASIZE ADD SLT PUSH2 0x273 JUMPI MLOAD SELFBALANCE DUP2 MSTORE PUSH1 0x20 SWAP1 RETURN JUMPDEST DUP3 DUP5 CALLVALUE PUSH2 0x273 JUMPI DUP2 PUSH1 0x3 NOT CALLDATASIZE ADD SLT PUSH2 0x273 JUMPI PUSH1 0x20 SWAP1 PUSH1 0x3 SLOAD SWAP1 MLOAD SWAP1 DUP2 MSTORE RETURN JUMPDEST DUP3 DUP5 CALLVALUE PUSH2 0x273 JUMPI DUP2 PUSH1 0x3 NOT CALLDATASIZE ADD SLT PUSH2 0x273 JUMPI PUSH1 0x20 SWAP1 PUSH1 0xFF PUSH1 0x2 SLOAD AND SWAP1 MLOAD SWAP1 ISZERO ISZERO DUP2 MSTORE RETURN JUMPDEST POP DUP3 SWAP1 CALLVALUE PUSH2 0x30C JUMPI DUP3 PUSH1 0x3 NOT CALLDATASIZE ADD SLT PUSH2 0x30C JUMPI PUSH2 0x1B49 PUSH2 0x2420 JUMP JUMPDEST PUSH2 0x1B51 PUSH2 0x2233 JUMP JUMPDEST PUSH1 0x2 SLOAD PUSH1 0x8 SHR PUSH1 0x1 PUSH1 0x1 PUSH1 0xA0 SHL SUB AND SWAP1 DUP2 EXTCODESIZE ISZERO PUSH2 0x5B4 JUMPI DUP4 DUP4 MLOAD PUSH4 0x1BFC726F PUSH1 0xE2 SHL DUP2 MSTORE DUP2 DUP2 PUSH1 0x24 DUP2 DUP4 PUSH20 0xC02AAA39B223FE8D0A0E5C4F27EAD9083C756CC2 SWAP9 DUP10 DUP10 DUP5 ADD MSTORE GAS CALL DUP1 ISZERO PUSH2 0x5B8 JUMPI PUSH2 0x5A0 JUMPI POP POP DUP3 MLOAD PUSH4 0x70A08231 PUSH1 0xE0 SHL DUP2 MSTORE ADDRESS DUP3 DUP3 ADD MSTORE SWAP3 PUSH1 0x20 SWAP1 DUP2 DUP6 PUSH1 0x24 DUP2 DUP8 GAS STATICCALL SWAP5 DUP6 ISZERO PUSH2 0x563 JUMPI DUP7 SWAP6 PUSH2 0x56D JUMPI POP DUP5 PUSH2 0x4C8 JUMPI DUP6 PUSH1 0x1 DUP1 SSTORE DUP1 RETURN JUMPDEST POP DUP3 SWAP1 CALLVALUE PUSH2 0x30C JUMPI DUP3 PUSH1 0x3 NOT CALLDATASIZE ADD SLT PUSH2 0x30C JUMPI PUSH2 0x1BF7 PUSH2 0x2233 JUMP JUMPDEST PUSH1 0x2 SLOAD SWAP1 PUSH1 0xFF DUP3 AND ISZERO PUSH2 0x1C39 JUMPI POP PUSH1 0xFF NOT AND PUSH1 0x2 SSTORE MLOAD CALLER DUP2 MSTORE PUSH32 0x5DB9EE0A495BF2E6FF9C91A7834C1BA4FDD244A5E8AA4E537BD38AEAE4B073AA SWAP1 PUSH1 0x20 SWAP1 LOG1 DUP1 RETURN JUMPDEST PUSH1 0x64 SWAP1 PUSH1 0x20 DUP5 MLOAD SWAP2 PUSH3 0x461BCD PUSH1 0xE5 SHL DUP4 MSTORE DUP3 ADD MSTORE PUSH1 0x14 PUSH1 0x24 DUP3 ADD MSTORE PUSH20 0x14185D5CD8589B194E881B9BDD081C185D5CD959 PUSH1 0x62 SHL PUSH1 0x44 DUP3 ADD MSTORE REVERT JUMPDEST POP SWAP2 CALLVALUE PUSH2 0x273 JUMPI PUSH1 0x20 SWAP3 DUP4 PUSH1 0x3 NOT CALLDATASIZE ADD SLT PUSH2 0x30C JUMPI DUP1 CALLDATALOAD PUSH1 0x1 PUSH1 0x1 PUSH1 0xA0 SHL SUB DUP2 AND SWAP2 SWAP1 DUP3 SWAP1 SUB PUSH2 0x5B4 JUMPI DUP5 SWAP1 PUSH1 0x24 DUP5 MLOAD DUP1 SWAP5 DUP2 SWAP4 PUSH4 0x70A08231 PUSH1 0xE0 SHL DUP4 MSTORE ADDRESS SWAP1 DUP4 ADD MSTORE GAS STATICCALL SWAP3 DUP4 ISZERO PUSH2 0x121B JUMPI SWAP3 PUSH2 0x1CCC JUMPI JUMPDEST POP MLOAD SWAP1 DUP2 MSTORE RETURN JUMPDEST SWAP1 SWAP2 POP DUP3 DUP2 DUP2 RETURNDATASIZE DUP4 GT PUSH2 0x1CF4 JUMPI JUMPDEST PUSH2 0x1CE4 DUP2 DUP4 PUSH2 0x2286 JUMP JUMPDEST DUP2 ADD SUB SLT PUSH2 0x595 JUMPI MLOAD SWAP1 PUSH0 PUSH2 0x1CC5 JUMP JUMPDEST POP RETURNDATASIZE PUSH2 0x1CDA JUMP JUMPDEST DUP3 DUP5 CALLVALUE PUSH2 0x273 JUMPI DUP2 PUSH1 0x3 NOT CALLDATASIZE ADD SLT PUSH2 0x273 JUMPI PUSH1 0x20 SWAP1 PUSH1 0x5 SLOAD SWAP1 MLOAD SWAP1 DUP2 MSTORE RETURN JUMPDEST POP DUP3 SWAP1 CALLVALUE PUSH2 0x30C JUMPI DUP3 PUSH1 0x3 NOT CALLDATASIZE ADD SLT PUSH2 0x30C JUMPI PUSH2 0x1D35 PUSH2 0x2420 JUMP JUMPDEST PUSH2 0x1D3D PUSH2 0x2233 JUMP JUMPDEST PUSH1 0x2 SLOAD PUSH1 0x8 SHR PUSH1 0x1 PUSH1 0x1 PUSH1 0xA0 SHL SUB AND SWAP1 DUP2 EXTCODESIZE ISZERO PUSH2 0x5B4 JUMPI DUP4 DUP4 MLOAD PUSH4 0x1BFC726F PUSH1 0xE2 SHL DUP2 MSTORE DUP2 DUP2 PUSH1 0x24 DUP2 DUP4 PUSH20 0xDAC17F958D2EE523A2206206994597C13D831EC7 SWAP9 DUP10 DUP10 DUP5 ADD MSTORE GAS CALL DUP1 ISZERO PUSH2 0x5B8 JUMPI PUSH2 0x5A0 JUMPI POP POP DUP3 MLOAD PUSH4 0x70A08231 PUSH1 0xE0 SHL DUP2 MSTORE ADDRESS DUP3 DUP3 ADD MSTORE SWAP3 PUSH1 0x20 SWAP1 DUP2 DUP6 PUSH1 0x24 DUP2 DUP8 GAS STATICCALL SWAP5 DUP6 ISZERO PUSH2 0x563 JUMPI DUP7 SWAP6 PUSH2 0x56D JUMPI POP DUP5 PUSH2 0x4C8 JUMPI DUP6 PUSH1 0x1 DUP1 SSTORE DUP1 RETURN JUMPDEST POP SWAP2 CALLVALUE PUSH2 0x273 JUMPI PUSH2 0x1DD8 CALLDATASIZE PUSH2 0x21E1 JUMP JUMPDEST SWAP4 SWAP1 PUSH2 0x1DE2 PUSH2 0x2233 JUMP JUMPDEST PUSH2 0x2710 DUP2 GT PUSH2 0x1E41 JUMPI PUSH32 0xB332FF846A7F7E49C967D592CB8ECCCD56F3693AB85AF2F484AA5BFABCD2A57A SWAP4 SWAP5 DUP2 PUSH2 0x230 SWAP3 PUSH1 0x5 SSTORE DUP2 PUSH1 0x6 SSTORE PUSH1 0x3 SLOAD SWAP4 SLOAD SWAP5 MLOAD SWAP5 DUP6 SWAP5 DUP6 SWAP1 SWAP5 SWAP4 SWAP3 PUSH1 0x60 SWAP3 PUSH1 0x80 DUP4 ADD SWAP7 DUP4 MSTORE PUSH1 0x20 DUP4 ADD MSTORE PUSH1 0x40 DUP3 ADD MSTORE ADD MSTORE JUMP JUMPDEST POP PUSH1 0x20 PUSH1 0x64 SWAP3 MLOAD SWAP2 PUSH3 0x461BCD PUSH1 0xE5 SHL DUP4 MSTORE DUP3 ADD MSTORE PUSH1 0xB PUSH1 0x24 DUP3 ADD MSTORE PUSH11 0x496E76616C696420425053 PUSH1 0xA8 SHL PUSH1 0x44 DUP3 ADD MSTORE REVERT JUMPDEST DUP3 DUP5 CALLVALUE PUSH2 0x273 JUMPI DUP2 PUSH1 0x3 NOT CALLDATASIZE ADD SLT PUSH2 0x273 JUMPI PUSH1 0x20 SWAP1 PUSH1 0x9 SLOAD SWAP1 MLOAD SWAP1 DUP2 MSTORE RETURN JUMPDEST POP SWAP2 SWAP1 CALLVALUE PUSH2 0x7FA JUMPI PUSH1 0x20 SWAP3 DUP4 PUSH1 0x3 NOT CALLDATASIZE ADD SLT PUSH2 0x273 JUMPI DUP1 CALLDATALOAD PUSH2 0x1EB1 PUSH2 0x2420 JUMP JUMPDEST PUSH2 0x1EB9 PUSH2 0x23DC JUMP JUMPDEST PUSH2 0x1EC1 PUSH2 0x2233 JUMP JUMPDEST PUSH2 0x1ECF PUSH1 0x3 SLOAD DUP3 LT ISZERO PUSH2 0x22BF JUMP JUMPDEST PUSH2 0x1EDC DUP3 SLOAD DUP3 GT ISZERO PUSH2 0x230B JUMP JUMPDEST PUSH1 0xFF PUSH1 0x7 SLOAD AND PUSH2 0x20B2 JUMPI JUMPDEST DUP4 MLOAD PUSH4 0x716AD825 PUSH1 0xE0 SHL DUP2 MSTORE DUP3 DUP2 ADD DUP3 SWAP1 MSTORE PUSH1 0x60 DUP2 PUSH1 0x24 DUP2 DUP8 ADDRESS GAS CALL SWAP3 DUP4 ISZERO PUSH2 0x20A8 JUMPI DUP5 SWAP4 DUP6 SWAP3 DUP7 SWAP2 PUSH2 0x2060 JUMPI JUMPDEST POP ISZERO PUSH2 0x201D JUMPI DUP4 PUSH32 0x99A04D4BD50085149E64DC7B09CD3BF736A5A4B19F85D58EA535527917C3B2AE DUP8 DUP1 MLOAD DUP6 DUP2 MSTORE DUP7 DUP12 DUP3 ADD MSTORE LOG2 PUSH1 0x2 SLOAD PUSH1 0x8 SHR PUSH1 0x1 PUSH1 0x1 PUSH1 0xA0 SHL SUB AND SWAP1 DUP2 EXTCODESIZE ISZERO PUSH2 0x558 JUMPI SWAP1 DUP6 DUP1 PUSH20 0xC02AAA39B223FE8D0A0E5C4F27EAD9083C756CC2 PUSH1 0x84 DUP11 SWAP8 SWAP7 SWAP6 DUP4 DUP10 MLOAD SWAP7 DUP8 SWAP5 DUP6 SWAP4 PUSH4 0xEA62CB5 PUSH1 0xE0 SHL DUP6 MSTORE DUP5 ADD MSTORE DUP10 PUSH1 0x24 DUP5 ADD MSTORE DUP12 PUSH1 0x44 DUP5 ADD MSTORE DUP2 PUSH1 0x64 DUP5 ADD MSTORE GAS CALL SWAP2 DUP3 PUSH2 0x2000 JUMPI JUMPDEST POP POP PUSH2 0x1FC6 JUMPI POP POP POP POP SWAP1 JUMPDEST PUSH1 0x1 DUP1 SSTORE MLOAD SWAP1 ISZERO ISZERO DUP2 MSTORE RETURN JUMPDEST PUSH32 0x9F51370FE0EED8407B751449F0BF9AE3F5667F007A2AB895D820DA7E2983EBAB SWAP4 SWAP5 POP TIMESTAMP PUSH1 0x8 SSTORE DUP3 MLOAD SWAP2 DUP3 MSTORE DUP7 DUP3 ADD MSTORE LOG2 PUSH1 0x1 SWAP1 PUSH2 0x1FBA JUMP JUMPDEST PUSH2 0x200E SWAP2 SWAP3 SWAP4 SWAP5 SWAP6 POP PUSH2 0x225E JUMP JUMPDEST PUSH2 0x308 JUMPI SWAP1 DUP6 SWAP3 SWAP2 DUP6 PUSH0 PUSH2 0x1FAE JUMP JUMPDEST DUP6 MLOAD PUSH3 0x461BCD PUSH1 0xE5 SHL DUP2 MSTORE SWAP1 DUP2 ADD DUP8 SWAP1 MSTORE PUSH1 0x19 PUSH1 0x24 DUP3 ADD MSTORE PUSH32 0x4E6F2070726F66697461626C6520726F75746520666F756E6400000000000000 PUSH1 0x44 DUP3 ADD MSTORE PUSH1 0x64 SWAP1 REVERT JUMPDEST SWAP5 POP POP SWAP1 POP PUSH1 0x60 DUP4 RETURNDATASIZE DUP3 GT PUSH2 0x20A0 JUMPI JUMPDEST DUP2 PUSH2 0x207D PUSH1 0x60 SWAP4 DUP4 PUSH2 0x2286 JUMP JUMPDEST DUP2 ADD SUB SLT PUSH2 0x5B4 JUMPI DUP3 MLOAD SWAP1 PUSH2 0x2097 DUP7 DUP9 DUP7 ADD MLOAD SWAP6 ADD PUSH2 0x236F JUMP JUMPDEST SWAP2 SWAP4 SWAP2 PUSH0 PUSH2 0x1F15 JUMP JUMPDEST RETURNDATASIZE SWAP2 POP PUSH2 0x2070 JUMP JUMPDEST DUP6 MLOAD RETURNDATASIZE DUP7 DUP3 RETURNDATACOPY RETURNDATASIZE SWAP1 REVERT JUMPDEST PUSH1 0x8 SLOAD PUSH1 0x9 SLOAD DUP2 ADD DUP1 SWAP2 GT PUSH2 0x2104 JUMPI TIMESTAMP LT ISZERO PUSH2 0x1EE7 JUMPI DUP4 MLOAD PUSH3 0x461BCD PUSH1 0xE5 SHL DUP2 MSTORE DUP1 DUP4 ADD DUP7 SWAP1 MSTORE PUSH1 0x16 PUSH1 0x24 DUP3 ADD MSTORE PUSH22 0x436F6F6C646F776E20706572696F6420616374697665 PUSH1 0x50 SHL PUSH1 0x44 DUP3 ADD MSTORE PUSH1 0x64 SWAP1 REVERT JUMPDEST PUSH4 0x4E487B71 PUSH1 0xE0 SHL DUP5 MSTORE PUSH1 0x11 DUP4 MSTORE PUSH1 0x24 DUP5 REVERT JUMPDEST POP DUP3 SWAP1 CALLVALUE PUSH2 0x30C JUMPI DUP3 PUSH1 0x3 NOT CALLDATASIZE ADD SLT PUSH2 0x30C JUMPI PUSH2 0x2132 PUSH2 0x2420 JUMP JUMPDEST PUSH2 0x213A PUSH2 0x2233 JUMP JUMPDEST PUSH1 0x2 SLOAD PUSH1 0x8 SHR PUSH1 0x1 PUSH1 0x1 PUSH1 0xA0 SHL SUB AND SWAP1 DUP2 EXTCODESIZE ISZERO PUSH2 0x5B4 JUMPI DUP3 MLOAD PUSH4 0x1BFC726F PUSH1 0xE2 SHL DUP2 MSTORE DUP5 DUP2 PUSH1 0x24 DUP2 DUP4 PUSH20 0x6B175474E89094C44DA98B954EEDEAC495271D0F SWAP8 DUP9 DUP9 DUP5 ADD MSTORE GAS CALL DUP1 ISZERO PUSH2 0x21D7 JUMPI PUSH2 0x21C4 JUMPI JUMPDEST POP DUP3 MLOAD PUSH4 0x70A08231 PUSH1 0xE0 SHL DUP2 MSTORE ADDRESS DUP3 DUP3 ADD MSTORE SWAP3 PUSH1 0x20 SWAP1 DUP2 DUP6 PUSH1 0x24 DUP2 DUP8 GAS STATICCALL SWAP5 DUP6 ISZERO PUSH2 0x563 JUMPI DUP7 SWAP6 PUSH2 0x56D JUMPI POP DUP5 PUSH2 0x4C8 JUMPI DUP6 PUSH1 0x1 DUP1 SSTORE DUP1 RETURN JUMPDEST PUSH2 0x21D0 SWAP1 SWAP5 SWAP2 SWAP5 PUSH2 0x225E JUMP JUMPDEST SWAP3 DUP5 PUSH2 0x218B JUMP JUMPDEST DUP5 MLOAD RETURNDATASIZE DUP8 DUP3 RETURNDATACOPY RETURNDATASIZE SWAP1 REVERT JUMPDEST PUSH1 0x40 SWAP1 PUSH1 0x3 NOT ADD SLT PUSH2 0x595 JUMPI PUSH1 0x4 CALLDATALOAD SWAP1 PUSH1 0x24 CALLDATALOAD SWAP1 JUMP JUMPDEST SWAP1 DUP2 MLOAD DUP1 DUP3 MSTORE PUSH1 0x20 DUP1 DUP1 SWAP4 ADD SWAP4 ADD SWAP2 PUSH0 JUMPDEST DUP3 DUP2 LT PUSH2 0x2216 JUMPI POP POP POP POP SWAP1 JUMP JUMPDEST DUP4 MLOAD PUSH1 0x1 PUSH1 0x1 PUSH1 0xA0 SHL SUB AND DUP6 MSTORE SWAP4 DUP2 ADD SWAP4 SWAP3 DUP2 ADD SWAP3 PUSH1 0x1 ADD PUSH2 0x2208 JUMP JUMPDEST PUSH0 SLOAD PUSH1 0x1 PUSH1 0x1 PUSH1 0xA0 SHL SUB AND CALLER SUB PUSH2 0x2246 JUMPI JUMP JUMPDEST PUSH1 0x40 MLOAD PUSH4 0x118CDAA7 PUSH1 0xE0 SHL DUP2 MSTORE CALLER PUSH1 0x4 DUP3 ADD MSTORE PUSH1 0x24 SWAP1 REVERT JUMPDEST PUSH8 0xFFFFFFFFFFFFFFFF DUP2 GT PUSH2 0x2272 JUMPI PUSH1 0x40 MSTORE JUMP JUMPDEST PUSH4 0x4E487B71 PUSH1 0xE0 SHL PUSH0 MSTORE PUSH1 0x41 PUSH1 0x4 MSTORE PUSH1 0x24 PUSH0 REVERT JUMPDEST SWAP1 PUSH1 0x1F DUP1 NOT SWAP2 ADD AND DUP2 ADD SWAP1 DUP2 LT PUSH8 0xFFFFFFFFFFFFFFFF DUP3 GT OR PUSH2 0x2272 JUMPI PUSH1 0x40 MSTORE JUMP JUMPDEST MLOAD SWAP1 PUSH10 0xFFFFFFFFFFFFFFFFFFFF DUP3 AND DUP3 SUB PUSH2 0x595 JUMPI JUMP JUMPDEST ISZERO PUSH2 0x22C6 JUMPI JUMP JUMPDEST PUSH1 0x40 MLOAD PUSH3 0x461BCD PUSH1 0xE5 SHL DUP2 MSTORE PUSH1 0x20 PUSH1 0x4 DUP3 ADD MSTORE PUSH1 0x18 PUSH1 0x24 DUP3 ADD MSTORE PUSH32 0x42656C6F77206D696E696D756D20666C617368206C6F616E0000000000000000 PUSH1 0x44 DUP3 ADD MSTORE PUSH1 0x64 SWAP1 REVERT JUMPDEST ISZERO PUSH2 0x2312 JUMPI JUMP JUMPDEST PUSH1 0x40 MLOAD PUSH3 0x461BCD PUSH1 0xE5 SHL DUP2 MSTORE PUSH1 0x20 PUSH1 0x4 DUP3 ADD MSTORE PUSH1 0x1A PUSH1 0x24 DUP3 ADD MSTORE PUSH32 0x45786365656473206D6178696D756D20666C617368206C6F616E000000000000 PUSH1 0x44 DUP3 ADD MSTORE PUSH1 0x64 SWAP1 REVERT JUMPDEST PUSH8 0xFFFFFFFFFFFFFFFF DUP2 GT PUSH2 0x2272 JUMPI PUSH1 0x5 SHL PUSH1 0x20 ADD SWAP1 JUMP JUMPDEST MLOAD SWAP1 DUP2 ISZERO ISZERO DUP3 SUB PUSH2 0x595 JUMPI JUMP JUMPDEST SWAP1 PUSH1 0x2 DUP3 LT ISZERO PUSH2 0x2389 JUMPI MSTORE JUMP JUMPDEST PUSH4 0x4E487B71 PUSH1 0xE0 SHL PUSH0 MSTORE PUSH1 0x21 PUSH1 0x4 MSTORE PUSH1 0x24 PUSH0 REVERT JUMPDEST PUSH0 NOT DUP2 EQ PUSH2 0x23AB JUMPI PUSH1 0x1 ADD SWAP1 JUMP JUMPDEST PUSH4 0x4E487B71 PUSH1 0xE0 SHL PUSH0 MSTORE PUSH1 0x11 PUSH1 0x4 MSTORE PUSH1 0x24 PUSH0 REVERT JUMPDEST SWAP2 SWAP1 DUP3 PUSH1 0x40 SWAP2 SUB SLT PUSH2 0x595 JUMPI PUSH2 0x23D9 PUSH1 0x20 DUP4 MLOAD SWAP4 ADD PUSH2 0x236F JUMP JUMPDEST SWAP1 JUMP JUMPDEST PUSH1 0xFF PUSH1 0x2 SLOAD AND PUSH2 0x23E8 JUMPI JUMP JUMPDEST PUSH1 0x40 MLOAD PUSH3 0x461BCD PUSH1 0xE5 SHL DUP2 MSTORE PUSH1 0x20 PUSH1 0x4 DUP3 ADD MSTORE PUSH1 0x10 PUSH1 0x24 DUP3 ADD MSTORE PUSH16 0x14185D5CD8589B194E881C185D5CD959 PUSH1 0x82 SHL PUSH1 0x44 DUP3 ADD MSTORE PUSH1 0x64 SWAP1 REVERT JUMPDEST PUSH1 0x2 PUSH1 0x1 SLOAD EQ PUSH2 0x2431 JUMPI PUSH1 0x2 PUSH1 0x1 SSTORE JUMP JUMPDEST PUSH1 0x40 MLOAD PUSH3 0x461BCD PUSH1 0xE5 SHL DUP2 MSTORE PUSH1 0x20 PUSH1 0x4 DUP3 ADD MSTORE PUSH1 0x1F PUSH1 0x24 DUP3 ADD MSTORE PUSH32 0x5265656E7472616E637947756172643A207265656E7472616E742063616C6C00 PUSH1 0x44 DUP3 ADD MSTORE PUSH1 0x64 SWAP1 REVERT JUMPDEST DUP1 MLOAD DUP3 LT ISZERO PUSH2 0x248A JUMPI PUSH1 0x20 SWAP2 PUSH1 0x5 SHL ADD ADD SWAP1 JUMP JUMPDEST PUSH4 0x4E487B71 PUSH1 0xE0 SHL PUSH0 MSTORE PUSH1 0x32 PUSH1 0x4 MSTORE PUSH1 0x24 PUSH0 REVERT JUMPDEST RETURNDATASIZE ISZERO PUSH2 0x24D8 JUMPI RETURNDATASIZE SWAP1 PUSH8 0xFFFFFFFFFFFFFFFF DUP3 GT PUSH2 0x2272 JUMPI PUSH1 0x40 MLOAD SWAP2 PUSH2 0x24CD PUSH1 0x1F DUP3 ADD PUSH1 0x1F NOT AND PUSH1 0x20 ADD DUP5 PUSH2 0x2286 JUMP JUMPDEST DUP3 MSTORE RETURNDATASIZE PUSH0 PUSH1 0x20 DUP5 ADD RETURNDATACOPY JUMP JUMPDEST PUSH1 0x60 SWAP1 JUMP JUMPDEST ISZERO PUSH2 0x24E4 JUMPI JUMP JUMPDEST PUSH1 0x40 MLOAD PUSH3 0x461BCD PUSH1 0xE5 SHL DUP2 MSTORE PUSH1 0x20 PUSH1 0x4 DUP3 ADD MSTORE PUSH1 0x13 PUSH1 0x24 DUP3 ADD MSTORE PUSH19 0x115512081D1C985B9CD9995C8819985A5B1959 PUSH1 0x6A SHL PUSH1 0x44 DUP3 ADD MSTORE PUSH1 0x64 SWAP1 REVERT INVALID 0xE6 INVALID 0xE2 0x21 0xBB DUP11 DUP6 SELFBALANCE PUSH2 0x4E6 0xB6 PUSH27 0xE7B66010866C78F60F8CE4946F80DA6CE04DF0A264697066735822 SLT KECCAK256 PUSH3 0x892EF7 PUSH9 0xBB584D049E7F6D19CC PUSH14 0xF8BF427F6D58B4639C12726EC5C2 CREATE2 SIGNEXTEND CALLCODE PUSH5 0x736F6C6343 STOP ADDMOD EQ STOP CALLER "
				},
				"gasEstimates": {
					"creation": {
						"codeDepositCost": "1917800",
						"executionCost": "208930",
						"totalCost": "2126730"
					},
					"external": {
						"analyzeAllRoutes(uint256)": "infinite",
						"analyzeRoute(uint256,uint256)": "infinite",
						"arbExec()": "3026",
						"autoExecute()": "2810",
						"executeOptimalArbitrage(uint256)": "infinite",
						"executionCooldown()": "2314",
						"findOptimalRoute(uint256)": "infinite",
						"getAllBalances()": "infinite",
						"getArbExecAddress()": "714",
						"getETHBalance()": "408",
						"getSupportedTokens()": "infinite",
						"getTokenBalance(address)": "infinite",
						"getWETHAddress()": "736",
						"getWethValueInUsd()": "infinite",
						"lastExecutionTime()": "2578",
						"maxFlashLoanAmount()": "2755",
						"minFlashLoanAmount()": "2490",
						"minProfitAmount()": "2886",
						"minProfitBps()": "2380",
						"owner()": "2709",
						"pause()": "30034",
						"paused()": "2480",
						"renounceOwnership()": "28325",
						"setAutoExecute(bool)": "27156",
						"setExecutionCooldown(uint256)": "24951",
						"setFlashLoanLimits(uint256,uint256)": "53497",
						"setMinProfitThresholds(uint256,uint256)": "52764",
						"transferOwnership(address)": "28875",
						"unpause()": "27741",
						"withdrawAll()": "infinite",
						"withdrawDAI()": "infinite",
						"withdrawETH()": "infinite",
						"withdrawToken(address)": "infinite",
						"withdrawUSDC()": "infinite",
						"withdrawUSDT()": "infinite",
						"withdrawWETH()": "infinite"
					},
					"internal": {
						"_safeWithdraw(address)": "infinite"
					}
				},
				"methodIdentifiers": {
					"analyzeAllRoutes(uint256)": "8f40f0a6",
					"analyzeRoute(uint256,uint256)": "9517ed85",
					"arbExec()": "e6419b3f",
					"autoExecute()": "a911f736",
					"executeOptimalArbitrage(uint256)": "0af95101",
					"executionCooldown()": "2e610fb8",
					"findOptimalRoute(uint256)": "716ad825",
					"getAllBalances()": "867e7c27",
					"getArbExecAddress()": "ad3707d4",
					"getETHBalance()": "6e947298",
					"getSupportedTokens()": "d3c7c2c7",
					"getTokenBalance(address)": "3aecd0e3",
					"getWETHAddress()": "affa8817",
					"getWethValueInUsd()": "d7b3a397",
					"lastExecutionTime()": "73b379bd",
					"maxFlashLoanAmount()": "a140edb4",
					"minFlashLoanAmount()": "6b9c189f",
					"minProfitAmount()": "cf224d07",
					"minProfitBps()": "383aeeae",
					"owner()": "8da5cb5b",
					"pause()": "8456cb59",
					"paused()": "5c975abb",
					"renounceOwnership()": "715018a6",
					"setAutoExecute(bool)": "b4804ce7",
					"setExecutionCooldown(uint256)": "a6b8ec96",
					"setFlashLoanLimits(uint256,uint256)": "f7d5e663",
					"setMinProfitThresholds(uint256,uint256)": "315b41ce",
					"transferOwnership(address)": "f2fde38b",
					"unpause()": "3f4ba83a",
					"withdrawAll()": "853828b6",
					"withdrawDAI()": "020bcc9e",
					"withdrawETH()": "e086e5ec",
					"withdrawToken(address)": "89476069",
					"withdrawUSDC()": "d8fc063d",
					"withdrawUSDT()": "362e496b",
					"withdrawWETH()": "4c02f62e"
				}
			},
			"storageLayout": {
				"storage": [
					{
						"astId": 54,
						"contract": "contracts/ArbOptimizer.sol:ArbOptimizer",
						"label": "_owner",
						"offset": 0,
						"slot": "0",
						"type": "t_address"
					},
					{
						"astId": 312,
						"contract": "contracts/ArbOptimizer.sol:ArbOptimizer",
						"label": "_status",
						"offset": 0,
						"slot": "1",
						"type": "t_uint256"
					},
					{
						"astId": 211,
						"contract": "contracts/ArbOptimizer.sol:ArbOptimizer",
						"label": "_paused",
						"offset": 0,
						"slot": "2",
						"type": "t_bool"
					},
					{
						"astId": 664,
						"contract": "contracts/ArbOptimizer.sol:ArbOptimizer",
						"label": "arbExec",
						"offset": 1,
						"slot": "2",
						"type": "t_contract(IArbExec)580"
					},
					{
						"astId": 667,
						"contract": "contracts/ArbOptimizer.sol:ArbOptimizer",
						"label": "minFlashLoanAmount",
						"offset": 0,
						"slot": "3",
						"type": "t_uint256"
					},
					{
						"astId": 670,
						"contract": "contracts/ArbOptimizer.sol:ArbOptimizer",
						"label": "maxFlashLoanAmount",
						"offset": 0,
						"slot": "4",
						"type": "t_uint256"
					},
					{
						"astId": 673,
						"contract": "contracts/ArbOptimizer.sol:ArbOptimizer",
						"label": "minProfitBps",
						"offset": 0,
						"slot": "5",
						"type": "t_uint256"
					},
					{
						"astId": 676,
						"contract": "contracts/ArbOptimizer.sol:ArbOptimizer",
						"label": "minProfitAmount",
						"offset": 0,
						"slot": "6",
						"type": "t_uint256"
					},
					{
						"astId": 679,
						"contract": "contracts/ArbOptimizer.sol:ArbOptimizer",
						"label": "autoExecute",
						"offset": 0,
						"slot": "7",
						"type": "t_bool"
					},
					{
						"astId": 681,
						"contract": "contracts/ArbOptimizer.sol:ArbOptimizer",
						"label": "lastExecutionTime",
						"offset": 0,
						"slot": "8",
						"type": "t_uint256"
					},
					{
						"astId": 684,
						"contract": "contracts/ArbOptimizer.sol:ArbOptimizer",
						"label": "executionCooldown",
						"offset": 0,
						"slot": "9",
						"type": "t_uint256"
					}
				],
				"types": {
					"t_address": {
						"encoding": "inplace",
						"label": "address",
						"numberOfBytes": "20"
					},
					"t_bool": {
						"encoding": "inplace",
						"label": "bool",
						"numberOfBytes": "1"
					},
					"t_contract(IArbExec)580": {
						"encoding": "inplace",
						"label": "contract IArbExec",
						"numberOfBytes": "20"
					},
					"t_uint256": {
						"encoding": "inplace",
						"label": "uint256",
						"numberOfBytes": "32"
					}
				}
			},
			"userdoc": {
				"kind": "user",
				"methods": {
					"analyzeAllRoutes(uint256)": {
						"notice": "Analyze all routes and return profitability data"
					},
					"analyzeRoute(uint256,uint256)": {
						"notice": "Analyze a single route for profitability"
					},
					"executeOptimalArbitrage(uint256)": {
						"notice": "Execute arbitrage on the optimal route"
					},
					"findOptimalRoute(uint256)": {
						"notice": "Find the most profitable route across all available routes"
					},
					"getAllBalances()": {
						"notice": "Get all balances"
					},
					"getArbExecAddress()": {
						"notice": "Get ArbExec contract address"
					},
					"getETHBalance()": {
						"notice": "Get ETH balance in this contract"
					},
					"getSupportedTokens()": {
						"notice": "Get all supported token addresses"
					},
					"getTokenBalance(address)": {
						"notice": "Get token balance in this contract"
					},
					"getWETHAddress()": {
						"notice": "Get WETH address"
					},
					"getWethValueInUsd()": {
						"notice": "Fetches the current USD value of 100 WETH using Chainlink"
					},
					"pause()": {
						"notice": "Pause contract operations"
					},
					"setAutoExecute(bool)": {
						"notice": "Toggle auto-execution mode"
					},
					"setExecutionCooldown(uint256)": {
						"notice": "Set execution cooldown period"
					},
					"setFlashLoanLimits(uint256,uint256)": {
						"notice": "Update flash loan amount limits"
					},
					"setMinProfitThresholds(uint256,uint256)": {
						"notice": "Update minimum profit thresholds"
					},
					"unpause()": {
						"notice": "Unpause contract operations"
					},
					"withdrawAll()": {
						"notice": "Withdraw all available profits"
					},
					"withdrawDAI()": {
						"notice": "Withdraw DAI profits"
					},
					"withdrawETH()": {
						"notice": "Withdraw ETH profits"
					},
					"withdrawToken(address)": {
						"notice": "Withdraw any token profits"
					},
					"withdrawUSDC()": {
						"notice": "Withdraw USDC profits"
					},
					"withdrawUSDT()": {
						"notice": "Withdraw USDT profits"
					},
					"withdrawWETH()": {
						"notice": "Withdraw WETH profits"
					}
				},
				"version": 1
			}
		}
	}
}